:020000040000FA
:0600000002191B020B981F
:03001300020C5488
:03002B000216B307
:03003300020DE2D9
:03003B00020CA90B
:03004B0002159308
:03005300020ACDD1
:03005B000213EBA2
:0300630002140C78
:03006B00020D88FB
:03007B00020DB9BA
:10008300020B2C010020FD00020107060000000105
:10009300EF1F0120000007200D20000000001320A7
:1000A3002B20312037200000000000000000060054
:1000B30004140004FF1801FF0D010612FFFFFFFFE8
:1000C300FFFFFF0101010400BD16000000E803006B
:1000D30000FFFF1117E803000064006400B801A0EB
:1000E300BB0D00A0BB0D00020200F8FF0705021EB6
:1000F3000401051E02051E020A0A01010808031075
:100103002702803E0102FEFFE8030A050001FFFF0C
:10011300020A1401E002000000C503423F1A511213
:100123003FF304B53F0000803EFFFFFF00050301DE
:1001330001FF134000000000AB3F00000000FF0080
:100143000000FF00C082C083E9FA5407F874B8289E
:10015300F582E43484F583E0F879006022EAC4543C
:100163000F5403600814600914600D8012E5808049
:1001730002E5905870078007E5A0586002790102F4
:100183000270C082C083120275400478008003129B
:10019300032DE8F4FCEB600814601214601C802B40
:1001A300EA6005E842808023EC5280801EEA600505
:1001B300E842908016EC52908011E8C39420500BD3
:1001C300EA6005E842A08003EC52A0020270C082FC
:1001D300C08312027540047800800312032DE8F4F3
:1001E300FCE87003020270EB600814602C1460508A
:1001F300807BEC52F374016A601274026A601574B6
:10020300046A7003E8428FE842FD806153F7DFEC34
:10021300528F80F343F72080F6EC52F474016A6046
:100223001274026A601574046A7003E842F6E842C5
:10023300FE803A53F7BFEC52F680F343F74080F663
:10024300E8C394205027EC52F574016A60127402DB
:100253006A601574046A7003E842F7E842FF800D90
:1002630053F77FEC52F780F343F78080F6D083D0C7
:100273008222E9C4540F5403FB743F59C3943022C0
:1002830074F8120FDEE9C4540F5403FE743F59C3CC
:10029300943040047800800312032DE8F4FBE860F7
:1002A30077EE600814602B14604E806CEB52F352AF
:1002B300FD74016A600F74026A600F74046A7058F7
:1002C300E8428F805353F7DF800343F720EB528FCD
:1002D3008046EB52F452FE74016A600F74026A6046
:1002E3000F74046A7032E842F6802D53F7BF80031F
:1002F30043F740EB52F68020E8C39420501AEB44B6
:10030300E0FB52F552FF74016A601274026A6015D1
:1003130074046A7003E842F77F0102136C53F77F9A
:10032300EB52F780F343F78080F6E95407FC74B887
:100333002CF582E43484F583E0F822C082C0831272
:10034300027540047800800312032DE8F4FCE86092
:1003530038EB600814601214601C802DEA6005E815
:1003630042FD8025EC52FD8020EA6005E842FE80D4
:1003730018EC52FE8013E8C39420500DEA6005E8A0
:1003830042FF800574E04C52FF020270C082C083BA
:1003930012027540047800800312032DE8F4FCE890
:1003A300603FEB60081460151460228034EA600536
:1003B300E842808003EC5280E842FD8024EA600535
:1003C300E842908003EC5290E842FE8014E8C39424
:1003D30020500EEA6005E842A08003EC52A0E842F8
:1003E300FF020270743F59C394305042E9C4540F62
:1003F30054036007146013146020227801E8F4FBAF
:10040300EA602414601814601922740F59C3940409
:100413005004780280E7780480E3780880DFE842BC
:100423008C22E58C586004EB528C22E8428C2274B7
:10043300F5120FDE74FA12172C9081C0E0A2E1507E
:1004430003121B9F9081C0E0A2E04003020543908A
:1004530081D01219BF74021219D61219A790066D12
:10046300E4F0A3F0908029E0FEA3E0FFEE4F60529A
:10047300851882851983E4F0A3F0A818A9198808C0
:10048300890978081216517508027509007808124F
:1004930016517C007D007A017B041224C37404127C
:1004A300162EE97015851882851983E05EF8A3E09E
:1004B3005FF990066DE8F0A3E9F0740212170612D3
:1004C30021BD74021219D67808121967E508FA7467
:1004D300021219D67808121967E509FB740212197A
:1004E300D67808121967741078081216CDE50854E7
:1004F3001FFC9081C4E0F5FDA3E0F5FEA3E0F5FF4A
:100503009081CCE0F58FA3E0F5F6A3E0541FF5F757
:100513007900E9FE74C82EF582E43481F583E06046
:100523001275080175090074052E780812187EE506
:100533000842F709E9C3940340D88A808B908CA0C2
:10054300740612162E7F0402136C12192B601D12EF
:10055300193A7005191919801A121795701F121775
:10056300A9C37003E667331919194007181818222D
:1005730008080874FFF618F618F618F6221217A9D9
:1005830060171219E0702192F01219E970195017CF
:1005930020F014080808090909E7F61819E7F618FE
:1005A30019E7F61819E7F6221219E960E6E8697007
:1005B3001F0808E62480F608E436F618547FB47F53
:1005C3000CE654806007F6E418F618F62218182291
:1005D300E9C6CC08C6CD08C6CE08C6CFC0E0E8C081
:1005E300E0EAC0E0EBC0E009E9F809E7FA09E7FB54
:1005F300E6F918E6F8C3EC98ED99EE9AEBC2E7F545
:10060300F0EFC2E795F0500E600CEBCFFBEACEFAA9
:10061300E9CDF9E8CCF8EAA2E7D2E7FAEB33FB132A
:10062300F5F0EEA2E7D2E7FEEF33FFC5F013A2E742
:1006330030E601B313C5F0C3C0E0C0F07F00C39B35
:10064300FB605E9418600F401D14601AD0E023F91C
:10065300D0E0F802072E8AF0E9486003D2F0E4AF55
:10066300F0FAF9F8803BEB30E40D89F0EA6003D24D
:10067300F0E4AFF0F9CAF8EB30E30D88F0EF600275
:10068300D2F0AFF0E4CAC9F8EB54076014FBC3EA35
:1006930013FAE913F9E813F8EF135002D2E0FFDB82
:1006A300EDD0E0C0E030E739C3E49FFFF5F0EC980C
:1006B300FC42F0ED99FD42F0EE9AFE42F0D0E0F9F3
:1006C300D0E0F8E5F0607AE923F9EE20E742D802BA
:1006D3008067C3EF33FFEC33FCED33FDEE33FE8075
:1006E300EAEC28FCED39FDEE3AFED0E023F9D0E048
:1006F300F84002801BC3EE13FEED13FDEC13FCEF79
:10070300135002D2E0FF08B800067F7F74FF802EEB
:10071300EF3350178CF020F00260100CBC000C0D6E
:10072300BD00080EBE000408E860DFE933E813FFEC
:10073300EE2313FE4F4D4C8008E95480FFE4FEFD89
:10074300FCEE33EF33F47004FCFD7E80D0E0FBD08D
:10075300E0FAD0E0F8D0E0CFC618CEC618CDC61860
:10076300CCC6F92212192B70041818182212193A40
:10077300700D74FFF61819F61819F61819F622E712
:10078300548066F61219E9700F1219E070F014F62E
:1007930008F608F608F680D11219E0700CF608F690
:1007A30008768008E6447F80EC1217AC700C1217B1
:1007B3009860BFE65480F6E480BB12179870051961
:1007C300191980A5E869700C763F18768018F61819
:1007D300F6E8F922E6CDC0E018ECC0E0E633CD330D
:1007E300CDD313F6E719FCE7191933CC33C3947F40
:1007F300400ECD9D502408E65480F6E418F6800F91
:10080300F4043D14501408E6447FF6187680E41887
:10081300F618F6D0E0FCD0E0FD22CCD313CCFD18C3
:10082300E4C6CBC0E018E4C6CAC0E00808ED08C6B9
:1008330033E613F618E433C675F003C3CA97CA093F
:10084300CB97CB199C40047D08802EBD0003020981
:100853001016B6FF050606081618C3CA33CACB33EB
:10086300CB33CA27CA09CB37CB193CC37D08803E9B
:10087300187D0820E75CC633C6CA33CACB33CB33F3
:10088300DDF1D5F0EB30E77BCA97CA09CB974ACBAA
:10089300199C406F4B7025E620E0218066187D0887
:1008A300C3CA97CA09CB97CB199CD3C633C6CA33DD
:1008B300CACB33CB3350C9DDE7D5F0E1D3E4C63639
:1008C300C608C636C608C636C608C636C6181818B9
:1008D3008031C3CA97CA09CB97CB199CB34097C63B
:1008E30033C6CA33CACB33CB33DD34D5F02EC6A2DD
:1008F300E0C640C8CA27CA09CB37194A70BECB3CE9
:10090300B480B90808E63308E633601F181818D016
:10091300E0FAD0E0FBD0E0FCD0E0FD22187D08CA6D
:1009230027CA09CB37CB193CD3808013F618E4B61A
:100933007F11F618B6FF0EF618C60470D2080876B3
:100943008080CAF618F618F680C50012192B604F7E
:1009530012193A6012E7548066F612179570111255
:1009630019E0703B090909F4F618F618F618F6228F
:100973001217A970151219E908080860EAE6447FFE
:10098300F618768018E4F618F6221219E9601612A2
:1009930019E07012E4F608F608F608E65480F60942
:1009A300090918181822EAC0E0EBC0E0ECC0E0ED3A
:1009B300C0E0E687F0A4FBACF008E687F0A42CFCCB
:1009C300E435F0FA1809E687F0A42C4B60027401B1
:1009D300CA35F0FCE433FB09E687F0D2F7A42CCB4D
:1009E30035F0FC1908E687F0A42BCC35F0FBE43393
:1009F300FD0819E687F0D2E7A42C4ACB35F0CD34B5
:100A030000FC09E687F0D2E7A42DCC35F0FDE433F2
:100A1300FA0918E687F0D2F7A42CCD35F0CA3400D2
:100A2300FC08E687F0D2E7D2F7A42ACC35F07A7E29
:100A330020E70B0ACB33CBCD33CDCC33CC33CB3305
:100A430050147004ED30E00ED2F1E4CD3DCDCC3C3A
:100A5300CC3B5005DA05C2F1EB547FC63308E633CD
:100A630092F0FBE73309E733C39A502D2B70190C2F
:100A73000D4C4D70151806E608C333700D20F10AAE
:100A8300A2F013F6E418800B4024E4F630F002766B
:100A93008018F618F618F68024D33B14501074FF10
:100AA300A2F013F6187680E418F618F6800FA2F079
:100AB30013F618E63303F618ECF618EDF6D0E0FD5E
:100AC300D0E0FCD0E0FBD0E0FA22C0E074F11210D9
:100AD30044A2AFE433F509D2AF85A708AFA1EF5520
:100AE30008FE74105E6006121CC575A1EF74085EE3
:100AF3006008121CCB75A1F78024EFA2E092F0E509
:100B030008A2E082F05017906198E0F8900575E034
:100B1300C398A2D265D0335002E8F075A1FEE5096F
:100B2300A2E092AF7F020210A3C0E074F21210445D
:100B3300A2AFE433FED2AF9061A4E0F8759B00E569
:100B43009158540860087591F7121D138023E5919D
:100B530058541060087591EF121D198014E591A285
:100B6300E092F0E8A2E082F05007E0C2E0F0121E4B
:100B73006F9061A3E0F8E5E9585404600E121E4536
:100B830075E9FB906193E0A2E640F2EEA2E092AF3A
:100B93007F010210A3C0E074F2121044A2AFE43349
:100BA300FED2AF9061A5E0F8E5BF58540460067526
:100BB300BFFB121E8780D4C3E498F8E499F9120BA3
:100BC300FB8026C3E49AFAE49BFBE920E7E9120BD6
:100BD300FBE498F8E499F922C3E498F8E499F9124C
:100BE3000BFBE498F8E499F9C3E49AFAE49BFB223B
:100BF300EB20E7CFE920E7E0B90010BB0008E88A63
:100C0300F084F8AAF022E4FBC8FA22EB70227B10EE
:100C1300C833C8C933C9335007C39AC3DBF280064C
:100C23009A50012ADBEAC833F4C8C933F4C9FA225B
:100C330075F008E4C833C8C933C933C99AC99B508E
:100C430004C92AC93BD5F0ECFBC833F4C8E4C9FA9C
:100C530022C0E0C0D0E8C0E0E9C0E0C082C083A801
:100C6300C1E8C0E09004E2E0F8746128F582E4345E
:100C730004F583D0E0F09004E1E0F8A3E0687006A7
:100C8300E5959004E4F09004E2E004F0C39480401E
:100C930002E4F0A374C6F0D083D082D0E0F9D0E0B0
:100CA300F8D0D0D0E032C0E0C0D0E8C0E0E9C0E086
:100CB300C082C083900565E0F8A3E0687008539A8A
:100CC300FBA374018022C2E9900565E0F874012852
:100CD300F074E528F582E43404F583E0F5C190056A
:100CE30065E0C394804002E4F080AC120D3930F02B
:100CF30039120D7E8034120D3920F01430E72B7435
:100D0300FFFCFBFA747F8022E4FCFBFA7480801AF8
:100D1300B48008BC00F2BB00EF800F50EBF9E4C3D2
:100D23009AFAE49BFBE49CFCE499C6CC18C6CB1866
:100D3300C6CA18C6F922E4C9C608CAC608CBC6D3B0
:100D4300330308CCC63392F0C3947F402E941840EB
:100D530019C9B90704CACBCC225025C309CA33CA5F
:100D6300CB33CBCC33CC33D9F422F4600DC9CCC311
:100D730013CB13CBCA13CAD9F6CC22E4FCFBFA2259
:100D830014FCFBFA22C0E074F2121044A2AFE43365
:100D9300FED2AF900805E05589600FE589FA790026
:100DA30012215D900805E0F45289C2C5EEA2E092DB
:100DB300AF7F010210A3C0E074F2121044A2AFE4AB
:100DC30033FED2AF900806E0558A600FE58AFA79C0
:100DD3000112215D900806E0F4528AC2EB80CDC077
:100DE300E074F2121044A2AFE433FED2AF900807CE
:100DF300E0558B600FE58BFA790212215D900807AD
:100E0300E0F4528BC2E880A4080808EAC0E0EBC013
:100E1300E086F0E7A4FA180986F0E7A42AFA18098D
:100E230086F0E7A42AFA180986F0E7A42AFA1986B5
:100E3300F0E7A4FBE5F02AFA190886F0E7A42BFBF8
:100E4300E5F03AFA190886F0E7A42BFBE5F03AFA45
:100E530018180986F0E7A4C5F02BFBE43AFA190841
:100E6300E7C5F0C6A426F6E5F03BFBE43AFA18869C
:100E7300F0E7A4F6E5F00826F6E43B08F6E43A08C2
:100E8300F6D0E0FBD0E0FA22080808E630E71112BA
:100E930017E5120EA3080808C64480C618181822BE
:100EA300181818E9799EC608CAC608CBC608CCC666
:100EB300C370207996CACBCC7019798ECBCC7013C2
:100EC3007986CC700EF9802ACA33CACB33CBCC33A4
:100ED300CC331930E7F2CCCBCA3350147004EA3068
:100EE300E00DE4CA3ACACB3BCBCC3CCC500209C39D
:100EF300E913C6CC182313C6CB18C6CA18C6F922E1
:100F0300E4CFC0E0E4CEC0E0E4CDC0E0E4CCC0E098
:100F130075F020E626F608E633F608E633F608E62B
:100F230033F6181818EC33FCED33FDEE33FEEF33D4
:100F3300FFC3EC9709ED9709EE9709EF9719191974
:100F4300400FFFEC97FC09ED97FD09EE97FE191989
:100F530006D5F0BFECF709EDF709EEF709EFF7193E
:100F63001919D0E0FCD0E0FDD0E0FED0E0FF22254F
:100F730018C582C0E0E51934FFC583C0E0E518C396
:100F8300958224F810AF0885831985821880088517
:100F93008319858218D2AFCEF0A3E520F0A3780899
:100FA300E608F0A3DEFAEFF0A3E58124FAF8E608F9
:100FB300F0A3E608F0A3E608F0A30808E608F0A308
:100FC300E608F0A315811581D0E0FED0E0F8158185
:100FD30015811581E8C0E0EEC0E0222518C582C066
:100FE300E0E51934FFC583C0E0E518C3958224F911
:100FF30010AF088583198582188008858319858237
:1010030018D2AFCEF0A3E520F0A37808E608F0A34A
:10101300DEFAEFF0A3E58124FBF8E608F0A3E60887
:10102300F0A30808E608F0A3E608F0A315811581EC
:10103300D0E0FED0E0F815811581E8C0E0EEC0E015
:1010430022C0D02518C582C0E0E51934FFC583C08E
:10105300E0E518C3958224F310AF088583198582D0
:10106300188008858319858218D2AFC8F0A3E9F0E8
:10107300A3EAF0A3EBF0A37908E709F0A3D8FAEC0D
:10108300F0A3EDF0A3EEF0A3EFF0A3D0E0F0A3D034
:10109300E0F0A3D0E0F0A3E520F0A3E5F0F0A32275
:1010A300851983851882E0C0E0A3E0F9A3E0FAA3E1
:1010B300E0FBA37808E0F608A3DFFAE0FCA3E0FD79
:1010C300A3E0FEA3E0FFA3E0C0E0A3E0C0E0A3E051
:1010D300F5D0A3E0F520A3E0A3F5F010AF088583D6
:1010E300198582188008858319858218D2AFD0822A
:1010F300D083D0E0F8D0E0321217E8181818120F96
:10110300031218CA191919221218CA191919080829
:1011130008E618181820E7E0120F031217E818184A
:101123001822090909E719191920E7DC080808E654
:1011330018181820E703020F031217E818181812DB
:101143000F031217E81818181218CA1919192212BE
:1011530019CBB90003021191E49004017880791648
:101163008002F0A3D8FCD9FA7A807B1990008678A4
:10117300C279018015E493A3AD82AE838A828B8307
:10118300F0A3AA82AB838D828E83D8E9D9E77582D7
:101193007F75839C740712161075822175833974C9
:1011A300001216100475F0108E1A8F1B85821F858E
:1011B300831E851882851983E0CEA3E0CF851F8225
:1011C300851E83EBC9EAC8EDCBECCAC3E833C8E993
:1011D30033C9EA33CAEB33CBC3EA9EF51DEB9FF564
:1011E3001CB35004AB1CAA1DEC33CCED33CDD5F0AE
:1011F300DAAE1AAF1B2212192B601C12193A6017B0
:101203001219E970071219E07001D322C0D0121924
:10121300E07006D0D0B322C32233D0D0501430E0D4
:10122300F6C3E7960809E7960809E7960809E796DB
:10123300B32220E0D5E6970809E6970809E6970860
:1012430009E697B322D083D082ECC0E0EDC0E0E49E
:1012530093A3FCE493A3FDED4C600D1213ACEC24BB
:10126300FFFCED34FFFD80EFE493A3FCE493A3FDC7
:10127300ED4C600D1214B3EC24FFFCED34FFFD8044
:10128300EFD0E0FDD0E0FCE493A3C0E0E493C0E042
:101293002212192B601B12193A60161219E97007F2
:1012A3001219E0600CB322C0D01219E07005D0D03F
:1012B30022C32233D0D0501330E0EBC3E7960809A2
:1012C300E7960809E7960809E7962220E0E4E697FF
:1012D3000809E6970809E6970809E69722D083D01C
:1012E30082E9C0E0E493A3C386F0C5F095F0F90862
:1012F300E493A386F0C5F095F0700BE493A3C39930
:101303004005E9048002A3E475F002A42582F58276
:10131300E5F03583F583D0E0F9E493A3C0E0E493EB
:10132300C0E022851983851882E0A3FEE0A3F5209F
:101333007808E0A3F608DFFAE0A3FFE0A3C0E0E04B
:10134300A3C0E0E0A3C0E0E0A3C0E0E0A3C0E010DE
:10135300AF088582188583198008858218858319CB
:10136300D2AFD083D082021616851983851882E006
:10137300A3FEE0A3F5207808E0A3F608DFFAE0A3D4
:10138300FFE0A3C0E0E0A3C0E0E0A3C0E0E0A3C0AF
:10139300E010AF0885821885831980088582188537
:1013A3008319D2AFD083D08222C0E0C3E4939608DE
:1013B3007401939618400FE49366700808740193C0
:1013C300661870007019A3A3C3E49396087401937D
:1013D3009618A3A3400DD0E0D0E0D0E0021284A37E
:1013E300A3A3A3A3A3D0E022C0E074F2121044C2CB
:1013F300D99019BBE0C39400A2D265D0334005E075
:10140300F91225A77F010210A3C0E074F212104461
:10141300C2DC9019BDE0F9C39400A2D265D0334079
:10142300031225A780DE7404800474028000CCC0FC
:10143300E0EDC0E0E518C39CCCAD1950011D10AF21
:10144300068C188D1980068C188D19D2AF1215725F
:10145300D0E0FDD0E0FC2274028000CCC0E0EDC0FF
:10146300E0E518C39CCCAD1950011D10AF068C18D4
:101473008D1980068C188D19D2AF12152ED0E0FD70
:10148300D0E0FC2212192B602512193A60201219A0
:10149300E970030219E0080808E76670101819E7F5
:1014A30066700A1819E76670041819E76622F422B1
:1014B300C0E0C0F088F0E493667008087401936696
:1014C300187000A8F0A3A3700BD0F0D0E0D0E0D048
:1014D300E0021284A3A3D0F0D0E022D083D082CC48
:1014E300C0E0E493A360061215B31470FAE493A367
:1014F30060061217161470FAD0E0FCE493A3C0E060
:10150300E493C0E022C008C3E096F50808A3E09680
:10151300420808A3E096420808A3E0964208A2D234
:1015230065D033E5087001D3D00822CAC0E0E49344
:10153300A3C582CCC582C583CDC583F0A3C582CCA8
:10154300C582C583CDC583DAE5D0E0CA22A2E7927E
:10155300D65002F40430F70663F0FF05F0B34003FE
:1015630084800384F40430D60563F0FF05F022CAB7
:10157300C0E0E0A3C582CCC582C583CDC583F0A3FB
:10158300C582CCC582C583CDC583DAE6D0E0CA2245
:10159300C0E0C0D0C082C08375AF00900855E0247E
:1015A30001F0A3E03400F0D083D082D0D0D0E03279
:1015B300C0E0E493A3D39C5010E493A3C39C400ADC
:1015C300D0E0D0E0D0E00214FBA3A3A3D0E022C07C
:1015D30008C3E096F50808A3E096420808A3E0963E
:1015E300420808A3E09645087001D3D00822700989
:1015F300080808226016181818C6C333C608C6336D
:10160300C608C633C608C633C6D5E0EA22C09FF56E
:101613009FE473D09F22D083D082C09FE493C0E025
:10162300740193C0E0740293F59F2200C0D0251883
:1016330010AF08F518500C05198008F5185002056D
:1016430019D2AFD0D0227404800A740380067402C6
:1016530080027401C0E0F404121664D0E01219761B
:10166300222518F58210AF08F518400C15198008CB
:10167300F51840021519D2AF85198322601708089F
:1016830008C6A2E713C618C613C618C613C618C6DB
:1016930013C6D5E0E922BB0102E722C082C08389D9
:1016A300828A83BB0003E08002E493D083D082224A
:1016B300C0E0C0D0E8C0E0A8A8D2AFC2C7E8A2E7A4
:1016C30092AFD0E0F8D0D0D0E0326016080808C658
:1016D300C313C618C613C618C613C618C613C6D571
:1016E300E0EA22C3E0C696F608A3E0C696F608A38E
:1016F300E0C696F608A3E0C696F6222518F8E43568
:1017030019F9222518FAE43519FB222518FCE435CA
:1017130019FD22C0E0E493A36C7009D0E0D0E0D0BF
:10172300E00214FBA3A3D0E022251810AF08F5189C
:10173300400C15198008F51840021519D2AF22E79D
:101743006670100809E766700A0809E766700408FE
:1017530009E76622C3E09608A3E09608A3E096088B
:10176300A3E096A2D265D03322E066701008A3E00E
:1017730066700A08A3E066700408A3E06622C3E467
:1017830093960874019396087402939608740393CE
:101793009622181818E60846087009E62608700508
:1017A300E633F4220822191919E70947097009E7F2
:1017B30027097005E733F4220922C3E096F008A352
:1017C300E096F008A3E096F008A3E096F022C3E6C3
:1017D30097F60809E697F60809E697F60809E697E3
:1017E300F622181818E4C396F608E496F608E49669
:1017F300F608E496F622E026F608A3E036F608A3F8
:10180300E036F608A3E036F622E657F60809E6576F
:10181300F60809E657F60809E657F622E627F6081A
:1018230009E637F60809E637F60809E637F622E44B
:1018330093F608740193F608740293F608740393FD
:10184300F622E056F608A3E056F608A3E056F6089B
:10185300A3E056F622E056F008A3E056F008A3E012
:1018630056F008A3E056F022E046F008A3E046F065
:1018730008A3E046F008A3E046F022700422600DBE
:1018830018C6C333C608C633C6D5E0F41822E667C4
:10189300F60809E667F60809E667F60809E667F653
:1018A30022E026F008A3E036F008A3E036F008A310
:1018B300E036F022E647F60809E647F60809E64768
:1018C300F60809E647F622E4C397F709E497F70910
:1018D300E497F709E497F722600D08C6A2E713C659
:1018E30018C613C6D5E0F322C6F4C608C6F4C60864
:1018F300C6F4C608C6F4C622C3E09608A3E0960859
:10190300A3E09608A3E09622C3E7960809E79608A2
:1019130009E7960809E7962275D00075813F751887
:101923000175190400021152E6084608C31346085C
:10193300336002E633F422E7094709C31347093347
:101943006002E733F422600C08C6C313C618C6133B
:10195300C6D5E0F422E6F008A3E6F008A3E6F00813
:10196300A3E6F022E0F608A3E0F608A3E0F608A356
:10197300E0F622CAC0E0E6F0A308DAFAD0E0FA22E1
:10198300E0FCA3E0FDA3E0FEA3E0FF22EAF0A3EB6B
:10199300F0A3ECF0A3EDF022E0FAA3E0FBA3E0FC5C
:1019A300A3E0FD22E8F0A3E9F0A3EAF0A3EBF02221
:1019B300ECF0A3EDF0A3EEF0A3EFF022E0F8A3E048
:1019C300F9A3E0FAA3E0FB22E5C754F84401F5C705
:1019D3007901222518F582E43519F58322E72719C1
:1019E300471947194722E62618461846184622C2C1
:1019F300AF75D69F02000022121619B5CE05121636
:101A030019E3CF05121619708C07121619DA8C0711
:101A1300121619FB8C07121619398D071216197E27
:101A23008D07121619A48D07121619AD8D071216FC
:101A3300195B8E07121619BF8E071216190BB20700
:101A4300121619BBCB04121619A5CC04121619AA27
:101A5300CD041216197CCE0412161978D10412166D
:101A6300199ED104121619DBD10412161914D204CB
:101A730012161992D204121619FCD3041216196CF9
:101A8300D40412161906D504121619D2D604121646
:101A930019A4F804121619B2F804121619C3F9049A
:101AA30012161973FA04121619FFFB04121619A958
:101AB300FE04121619E6B4061216197AB5061216A2
:101AC30019A8B606121619C4B60612161916B806C0
:101AD300121619F9AD071216190AAE07121619CF05
:101AE300AE07121619DEAE07121619E9AE07121663
:101AF30019FC7F0012161950B6071216197CB60787
:101B0300121619F6B807121619F8B30712161908A0
:101B1300B4071216191AB40712161980B40712164D
:101B23001909B0071216198CB007121619F2B0076B
:101B3300121619F6930712161931940712161999EA
:101B43009407121619F194071216197F95071216A6
:101B530019D29507121619E3B807121619F3B80725
:101B6300121619D9E6061216193CE7061216198B36
:101B7300E706121619B8E7061216190EE80612162A
:101B8300197BB7071216193C8F07121619868F0790
:101B93001216191C9007121619A29007121619D3C0
:101BA3009007121619EB90071216195F9107121678
:101BB3001975910712161988910712161992910730
:101BC3001216199FF1051216193FF5051216197110
:101BD300F5051216199DF50512161944F605121688
:101BE30019D1F705121619B8E20412161922E304E3
:101BF300121619D4E3041216199DE404121619F9E6
:101C0300E5041216191AE70412161956E8041216F7
:101C1300193EEA0412161971EA04121619D7EA04D6
:101C230012161909EB0412161990EC041216190076
:101C3300ED0412161935ED0412161949ED041216A6
:101C430019BFED0412161913D1051216198AD305FB
:101C5300121619EBD405121619F2D605121619DE4F
:101C6300AF061216190AB0061216197BB20612161F
:101C730019BBB206121619FBB2061216190FB306D8
:101C830012161928B30612161919B406121619BE1C
:101C9300B406121619D2B4061216195EA607121646
:101CA3001982A6071216199BA607121619CDA607A5
:101CB300121619FDA6071216192AA7071216198C50
:101CC300A7071216199BA707121619A5A70712161D
:101CD30019B2A7071216194EFD061216196EFD0644
:101CE300121619ADFD06121619C8FD06121619E7CC
:101CF300FD061216194DFE0612161956FE06121689
:101D030019B3FE06121619D7FE0612161998FF0606
:101D1300121619A5FF06121619B6FF06121619B6E2
:101D2300FF03121619CEFF03121619FAFF03121638
:101D330019E4C80612161938CA0612161946CA0635
:101D430012161959CA061216196ECA0612161983E3
:101D5300CA0612161996CA061216190ACB061216C5
:101D6300196FCB0612161911CC06121619D5CC060B
:101D7300121619E5CC06121619F4CC06121619C957
:101D8300B207121619EDB20712161915B307121678
:101D9300193DB307121619509807121619779807A9
:101DA3001216199598071216190899071216196928
:101DB30089071216198289071216198E89071216B6
:101DC30019A28907121619C08907121619CA890799
:101DD300121619D48907121619E7890712161971F1
:101DE3008A07121619E68A071216191A8B07121692
:101DF30019688B07121619B58B07121619D08B07A2
:101E0300121619DA8B07121619008C0712161965A8
:101E13008C071216194C7F001216196E7F001216CA
:101E230019E4FF011216193BBE0512161965BE050A
:101E330012161982BE0512161995BE05121619AB94
:101E4300BE0512161909BF0512161941BF05121650
:101E53001939C3051216197EC405121619B1C40522
:101E630012161914C5051216198DC605121619B5C1
:101E7300C605121619CAC605121619DAC6051216B0
:101E8300191EC70512161979C70512161989C70530
:101E9300121619A9AB07121619C3AB07121619EBC1
:101EA300AB0712161904AC0712161928AC07121641
:101EB3001946AC071216195DAC071216198BAC073D
:101EC300121619A6AC0712161937B707121619BD41
:101ED300F906121619CDF906121619D2FA061216B8
:101EE3001904FB061216192AFB061216194DFB06D6
:101EF30012161964FB061216199EFB061216190315
:101F0300FC0612161945FC0612161984FC06121655
:101F130019B5FC06121619ECFC061216191F9406C5
:101F2300121619F594061216192095061216193D64
:101F330095061216193896061216197A960612166F
:101F430019E896061216193A9706121619A2970659
:101F53001216198498061216195D9906121619BEDF
:101F6300EE0612161913EF0612161965EF0612166E
:101F730019A6EF06121619B9EF06121619F1EF0694
:101F830012161958F006121619EEF006121619B0A9
:101F9300D905121619DBD905121619A6DA05121678
:101FA30019EDDA051216197EDB05121619F7DE058F
:101FB3001216196AE0051216190080031216194643
:101FC30080031216196081031216198681031216F3
:101FD30019508403121619D08403121619F98503B4
:101FE300121619BF8903121619338A03121619D050
:101FF3008A03121619208B03121619E48B03121687
:1020030019348C031216196B8C031216196E8C0378
:102013001216197E8C03121619908C03121619D5F9
:102023008C03121619788E03121619E58E031216F5
:1020330019308F03121619CC8F03121619589003F7
:102043001216192A9203121619D193031216197034
:1020530094031216199696031216197497031216FF
:10206300192499031216191FA00712161939A0076C
:102073001216197BA007121619AEA007121619C85B
:10208300A007121619E1A00712161946A107121686
:102093001981A10712161963F9051216199AF90580
:1020A300121619E4F90512161938FA051216190849
:1020B300FB051216193EFB051216196BFB051216CA
:1020C30019BDFB05121619DBFB05121619FFFB05DB
:1020D30012161925FC05121619A7FC05121619313B
:1020E300FD0512161962FD05121619A8FD05121633
:1020F30019C6FD05121619F4FD0512161918FE0569
:102103001216194EFE05121619ADFE05121619CF39
:10211300FE051216192EFF0512161967FF05121672
:102123001975FF0512161939AA0512161973AA058E
:10213300121619B2AB0512161911AD051216194E66
:10214300B40512161975A5061216195EA6061216FF
:10215300199FA6061216194EA70612161901AF07E4
:1021630012161972AF07121619D5AF0712161900F6
:102173008005121619248105121619B1820512164B
:10218300190C8405121619778405121619BA8405D9
:10219300121619C88405121619F884051216198A1D
:1021A30085051216192786051216194C870512166E
:1021B30019FE8805121619AF8A05121619CEEA06FA
:1021C300121619B6EB06121619F2EB061216192798
:1021D300EC0612161903EE06121619E4BE061216C1
:1021E3001901BF0612161946BF061216197CBF063F
:1021F30012161933C006121619D4C1061216193C49
:10220300C206121619BBC306121619B69304121688
:1022130019BA94041216192D95041216194496042A
:10222300121619909604121619039A041216194BD2
:102233009A04121619FF9A04121619149C04121602
:10224300195E9C04121619959C04121619FE9C041F
:10225300121619439D04121619959D04121619E7B7
:102263009D04121619409E04121619A39E041216F9
:1022730019119F04121619669F0412161964A004FB
:10228300121619C9A004121619DDA104121619B9E0
:10229300A107121619F6A1071216191BA207121687
:1022A3001937A2071216194CA207121619B1D10633
:1022B300121619C0D20612161968D306121619621D
:1022C300D40612161983D4061216199DD4061216B3
:1022D300193FD50612161970D506121619F0D50630
:1022E300121619EF9F0512161951A005121619E5BA
:1022F300A00512161979A20512161983A50512163F
:102303001999A5051216194EA60512161984A805C2
:10231300121619BCA707121619CEA707121619E22F
:10232300A807121619E5A80712161963AA071216A9
:102333001999AA07121619B3AA07121619F5AA07AB
:1023430012161905AB071216199FAB0712161900BF
:1023530080061216190A80061216194480061216F0
:1023630019AD8006121619CA80061216196C810659
:10237300121619758106121619BA8106121619E377
:102383008106121619F081061216196182061216B9
:1023930019EC82061216193A830612161978830667
:1023A300121619DD83061216190084061216197700
:1023B3008406121619CE84061216190985061216FA
:1023C300193E8506121619508506121619628506DE
:1023D3001216198185061216198A850612161945D1
:1023E3008606121619918606121619CF860612163C
:1023F30019D9C30612161919C5061216193CC506B2
:102403001216194DC5061216194CC7061216196C69
:10241300C706121619B3B707121619CEB707121645
:10242300195F8607121619A38607121619EB86077A
:10243300121619D188071216196089071216191175
:10244300B5071216190080041216192481041216F6
:10245300195E8104121619088304121619328304B3
:10246300121619A78504121619E785041216197D89
:1024730087041216191A88041216196C8804121686
:10248300190F890412161947890412161989890428
:10249300121619F88A04121619468C0412161977A3
:1024A3008E04121619A58E04121619CC8E04121658
:1024B30019D58E04121619258F04121619B78F0415
:1024C300121619E69204121619699304121619E4E6
:1024D300FF06121619D5E206121619EBE2061216BA
:1024E300198FE306121619CEE306121619EBE3064B
:1024F3001216191CE40612161969E4061216199C21
:10250300E406121619D7E406121619CCE6061216BB
:10251300192A9A06121619D09B06121619119D062E
:10252300121619299D0612161966DA061216199D36
:10253300DB06121619FCDC06121619B7F60312167F
:1025430019E3F6031216191DF703121619E3F9031B
:102553001216193BFA0312161985FA03121619A952
:10256300FA0312161926FC0312161983FC0312161A
:1025730019E0FE03121619C8E105121619EDE2055A
:10258300121619F2E30512161940E5051216195B26
:10259300E60512161929E705121619739A0712167A
:1025A30019419B07121619ABEC0212161970ED02B2
:1025B3001216197BED021216192CEE021216198B44
:1025C300EE021216197BF002121619EBF002121624
:1025D30019F0F20212161929F302121619DAF5028A
:1025E30012161902F60212161984F602121619FFB0
:1025F300F60212161962F802121619BFF802121621
:10260300193DF90212161928FE021216192DCD06CC
:1026130012161954CD0612161962CF06121619890D
:10262300CF06121619DECF06121619ACD0061216F3
:102633001924D1061216192596071216193D960765
:102643001216193C97071216194397071216196C9D
:1026530097071216190BB1071216196AB10712164A
:1026630019A8B107121619E9B107121619CFAA064C
:10267300121619F5AA0612161935AC061216192ADE
:10268300AD0612161951AD06121619EAAD06121649
:10269300193EAE0612161959AF06121619EB8D061E
:1026A3001216198D8E06121619AD8F06121619FF02
:1026B3009006121619BD9206121619D9ED041216B8
:1026C300192DEE0412161957EF0412161983F0048C
:1026D30012161971F1041216190DF404121619C405
:1026E300F5041216190FF6041216191DF804121622
:1026F300192AF60612161977F606121619FAF606AD
:1027030012161986F90612161912A9071216198C30
:10271300A907121619A7A9071216194AFE021216BB
:10272300194DFF02121619B5FF02121619689E07FA
:10273300121619B39E07121619039F071216191EB4
:102743009F07121619D7A40712161932A5071216D6
:10275300192EA607121619A591071216190E92071C
:102763001216198492071216199F9207121619C886
:10277300E90512161941EA0512161959EB05121645
:1027830019ACEC0512161947EE051216199AEE0547
:102793001216190CEF051216194FF00512161983AC
:1027A300F2061216190BF40612161954F406121631
:1027B300192DF506121619A7F5061216197A7100C6
:1027C300121619EB7100121619527200121619D64D
:1027D3007200121619D17300121619017400121621
:1027E300192276001216191177001216197977003B
:1027F300121619B47700121619EE780012161992F0
:102803007900121619DB79001216194E7A00121686
:1028130019A07A001216194B7C00121619757C0048
:1028230012161983B507121619C2B507121619FB2A
:1028330086061216195587061216191188061216DE
:10284300193A89061216196A89061216198C8A060C
:10285300121619038B06121619818B0612161966A6
:102863008C0612161964B80712161977B8071216D0
:1028730019D9AC07121619F8BA0312161948AD077D
:1028830012161988B8071216198EB807121619945A
:10289300B80712161977D704121619E2D7041216BD
:1028A30019BBD80412161912DA0412161981DA04A4
:1028B3001216192FDB0412161908DC04121619F765
:1028C300DC041216194DDE04121619A0E0041216C8
:1028D30019854300121619914300121619F3430088
:1028E300121619FD4300121619904400121619CC42
:1028F30044001216198845001216199B450012163A
:1029030019EB4500121619554600121619BA46005E
:1029130012161987CC0512161972470012161921BF
:102923004900121619F54A00121619DB4B0012164C
:10293300192D4D00121619834F00121619EC500071
:102943001216198951001216193156001216191F41
:102953005700121619BD5700121619E9570012161F
:10296300198558001216199A5800121619BE5800E4
:102973001216192459001216194159001216196B0F
:102983005900121619E85A00121619095B0012169B
:10299300198F5B00121619355C001216197C5C0046
:1029A300121619EF5C001216197B5D00121619DF5F
:1029B3005D001216193F5E00121619D55E0012163D
:1029C30019505F00121619835F00121619E55F0094
:1029D300121619476100121619B76100121619660B
:1029E3006200121619BC6300121619546400121601
:1029F30019C064001216190367001216198F6800B4
:102A0300121619BA6800121619A06A00121619369E
:102A13006C001216193F6D001216196DBF041216C1
:102A23001925C0041216192CC104121619AAC104BF
:102A3300121619E3C20412161904C304121619025A
:102A4300C404121619ADC40412161905C8041216CB
:102A53001930CA04121619F3B607121619619A032C
:102A6300121619B99A031216193F9B03121619511C
:102A73009C031216199E9C03121619849D031216A9
:102A8300199B9D03121619ED9D03121619259E031A
:102A9300121619389E031216198E9E03121619E781
:102AA3009E03121619FF9E031216196FA103121625
:102AB3001906A20312161930A20312161968A203EB
:102AC3001216198EA403121619D4A4031216191E72
:102AD300A503121619F2A50312161933A60312162B
:102AE3001956A6031216199DA603121619BFA6039B
:102AF30012161940A703121619CDA7031216192788
:102B0300A8031216196FA803121619E4A9031216C3
:102B13001960AC03121619EDAC0312161919AE03A2
:102B230012161954AE0312161921AF0312161961A6
:102B3300AF0312161964AF031216196EAF03121600
:102B43001981AF0312161902B00312161938B00314
:102B530012161964B0031216198BB003121619AFAB
:102B6300B00312161946B1031216195FB1031216F8
:102B73001992B103121619B2B103121619EFB10368
:102B830012161926B20312161925B3031216195871
:102B9300B4031216198AB40712161996B40712163B
:102BA30019DCB407121619FBFF0212161904CD0320
:102BB30012161927CD03121619FECD031216194743
:102BC300CE031216199FCE03121619F9CE0312164D
:102BD3001945CF03121619BBCF0312161949D00397
:102BE300121619C1D00312161904D103121619E1D2
:102BF300D40312161928D7031216195BD70312161A
:102C030019D9D7031216195ED80312161936D90328
:102C130012161960DA031216194BDB031216192860
:102C2300DC0312161964DD0312161908DF031216EA
:102C3300199ADF03121619A1E1031216194FA304FF
:102C4300121619EFA30412161959A4041216190027
:102C5300A50412161964A50412161997A6041216D0
:102C630019BDA70412161936A8041216190EAA04C0
:102C7300121619AEAA0412161951AB04121619B082
:102C8300AB041216196BAC0412161931AE041216EA
:102C930019D4AF0412161980B00412161995B10491
:102CA30012161931E203121619A9E203121619F1C9
:102CB300E20312161935E3031216197EE303121603
:102CC30019C8E303121619FDE3031216197BE40373
:102CD300121619D5E4031216192EE603121619B7A4
:102CE300E60312161913E7031216192DE70312163A
:102CF3001954E703121619ACE70312161916E90360
:102D030012161935E9031216195DEA03121619DAB8
:102D1300EA0312161947EB03121619A9EB0312164D
:102D23001959EC031216192BEE0312161916EF0399
:102D330012161910F00312161916F103121619328E
:102D4300F20312161940F20312161919F30312169D
:102D530019B9F303121619FDF30312161912F4032A
:102D630012161923F503121619C6F5031216191EA6
:102D7300F60312161916FD011216194FFE0112164B
:102D8300190CFF0112161970FF011216193B830764
:102D93001216195683071216199A8307121619C0A9
:102DA3008307121619E68307121619FE83071216F4
:102DB3001961840712161976840712161998850764
:102DC300121619A18507121619AA8507121619B327
:102DD3008507121619BD850712161918D60612167D
:102DE30019F8D906121619FDD906121619FFD906B4
:102DF300121619F59C07121619C5B807121619EF02
:102E0300B507121619B2FF04121619EAB7071216FC
:102E130019A1DE0612161962B3071216198CB3072D
:102E23001216194BA30712161916B807121619A76B
:102E3300B807121619A3FF05121619A3B60712161F
:102E43001900800712161927D9011216197ED90104
:102E5300121619EAD90112161976DA011216192C6B
:102E6300DB0112161974DB011216198DDB01121620
:102E730019B0DB01121619D2DB0112161910DC018D
:102E83001216195FDC011216198ADC01121619E8F1
:102E9300DC011216198FDD0112161937DE01121625
:102EA30019B3DE0112161980DF01121619CCDF01E6
:102EB30012161954E0011216198DE0011216191E8B
:102EC300E1011216192FE101121619A1E1011216DF
:102ED300193AE201121619A4E20112161994E30138
:102EE300121619B9E301121619B6E401121619C321
:102EF300E401121619CCE401121619B5E6011216F3
:102F030019D1E70112161962E801121619D3E80163
:102F1300121619ADEA0112161978EE011216198C60
:102F2300EE011216199CEE01121619A6EE011216E5
:102F330019AFEE01121619B8EE01121619C2EE01FD
:102F4300121619F1EE011216191FEF011216192AA2
:102F5300EF011216194EEF0112161972EF01121634
:102F630019E4EF011216192DF00112161949F00197
:102F7300121619BAF00112161906F1011216194F99
:102F8300F1011216198DF1011216190EF201121622
:102F930019D9F30112161978F40112161940F50123
:102FA300121619CCF70112161921F8011216194934
:102FB300F8011216197CF901121619C1F90112163A
:102FC3001916FA01121619C4FA0112161969FB012E
:102FD3001216199EFB011216193EFC01121619BA9C
:102FE300FC01121619F18701121619238801121612
:102FF300195788011216190B8A01121619DF8A0153
:103003001216193E8B01121619548C01121619A0AF
:103013008C011216193D8F01121619B29101121665
:1030230019FE9201121619969301121619A2930111
:10303300121619EB93011216191E9401121619AAEE
:103043009401121619BC9501121619FD9601121658
:1030530019FC970112161926980112161991980155
:10306300121619EA98011216195D9901121619938D
:103073009B01121619199D01121619049E011216AD
:1030830019529F011216198AA10112161981A4015E
:1030930012161990A40112161924A501121619CF9C
:1030A300A50112161912A6011216195BA601121612
:1030B30019ABA60112161918A70112161984A70134
:1030C300121619A0A701121619CFA7011216190E6D
:1030D300A801121619F6A801121619A5A9011216AC
:1030E300191CAC011216194EAD011216191DAE01B1
:1030F3001216199FAE01121619E1B201121619F830
:10310300B20112161927B30112161982B30112164E
:1031130019B5B30112161910B4011216192CB40102
:103123001216198DB401121619DDB4011216198C79
:10313300B5011216194FB60112161917B701121657
:103143001963B901121619EFBA0112161946BC0117
:1031530012161962BD0112161965BD0112161994D2
:10316300BD0112161983BF011216194CC0011216A4
:10317300198DC001121619E3C10112161959C201A2
:103183001216198CC201121619F0C2011216191166
:10319300C50112161970C50112161946C601121679
:1031A300195AC6011216196EC6011216199BC601C9
:1031B300121619CBC6011216196FC8011216196C13
:1031C300C901121619BAC901121619E1C901121659
:1031D30019BCCA0112161962CB01121619E8CC01E7
:1031E3001216192FCD011216199CCD01121619F1C1
:1031F300CE011216199ACF01121619CECF0112164B
:1032030019E6CF0112161989D00112161905D30137
:10321300121619ADD401121619D1D401121619EFD1
:10322300D401121619BBD50112161909D9011216A8
:1032330019008002121619328002121619B2840282
:10324300121619018502121619478502121619EA78
:1032530085021216194F8602121619938602121648
:1032630019FA8702121619268902121619238D02DA
:10327300121619A28D02121619C88E021216192BD4
:103283008F021216197790021216190F9302121653
:10329300199C9302121619A69302121619CE9302C1
:1032A3001216199694021216192B95021216195416
:1032B3009502121619819502121619D69702121643
:1032C30019A39802121619E29802121619649902A8
:1032D3001216190F9A02121619419A021216198C14
:1032E3009A02121619C59A02121619149B02121683
:1032F30019709B02121619F29B02121619579C029F
:10330300121619CF9C02121619789E021216197002
:103313009F02121619B1A00212161905A402121661
:103323001961A6021216191AA70212161962A70228
:1033330012161943A9021216197EA9021216198729
:10334300A90212161990A9021216199BA9021216A4
:1033530019BAA9021216196DAA02121619CAAA02DB
:10336300121619D4AA02121619DEAA021216192A63
:10337300AB0212161972AB0212161976AC021216B0
:10338300190FAD02121619D6AD0212161900AF02AB
:103393001216192BB00212161921B102121619397D
:1033A300B1021216196DB1021216198BB10212165F
:1033B30019D3B1021216190CB202121619C3B202B2
:1033C30012161984B302121619F7B30212161973DF
:1033D300B4021216190FB50212161935B6021216D7
:1033E30019F1B60212161991B7021216197EB80214
:1033F300121619D6B8021216199CB902121619BF61
:10340300B902121619D4BA021216191FBB021216E8
:10341300197BBB02121619E3BB0212161907BC0271
:103423001216192FBC0212161974BC02121619981F
:10343300BC021216191CBD0212161905BE02121681
:10344300194ABE0212161973BE0212161911BF02CF
:103453001216197CBF021216198ABF02121619B668
:10346300BF0212161997C0021216196F950512168C
:1034730019A79505121619C895051216190A960566
:103483001216196E960512161978960512161988D2
:103493009605121619BF9605121619689A05121683
:1034A30019309C05121619149E05121619B69E059D
:1034B300121619409F0512161987C202121619EB2C
:1034C300C20212161949C30212161994C302121624
:1034D30019AFC302121619D6C302121619F3C30287
:1034E300121619FFC30212161990C502121619A952
:1034F300C50212161925C60212161938C60212166B
:103503001948C602121619ECC60212161958C80237
:103513001216196BC9021216190BCA0212161915C3
:10352300CA0212161994CA02121619A5CA02121651
:1035330019E4CA0212161912CB02121619DFCB02B2
:1035430012161936CC021216196FCC02121619C5AF
:10355300CC02121619E3CC0212161931CD0212163F
:1035630019FCCD021216194ACE0212161997CE0271
:103573001216191ACF0212161944CF021216197A0B
:10358300CF0212161989CF02121619E8CF021216AA
:103593001960D002121619A1D002121619F1D00225
:1035A3001216191CD10212161936D102121619500D
:1035B300D10212161925D2021216192FD20212168F
:1035C300196AD2021216197AD20212161983D2027A
:1035D300121619D4D202121619E8D2021216190AB7
:1035E300D4021216191FD402121619B2D4021216DB
:1035F3001926D502121619CBD502121619D6D502E1
:1036030012161936D70212161952D7021216199E1C
:10361300D7021216190CD8021216193ED802121626
:103623001958D8021216199AD802121619EDDA028D
:1036330012161985DB02121619FCDB021216195930
:10364300DE0212161971DE0212161974DE02121648
:103653001980DE0212161994DE021216199CDE027C
:10366300121619D3DE02121619C7DF0212161951E8
:10367300E002121619D3E00212161953E1021216D0
:10368300192AE2021216194CE202121619E5E20295
:1036930012161942E30212161945E302121619B45F
:1036A300E30212161900E50212161913E6021216A6
:1036B300199EE602121619B1E70212161976E802EC
:1036C300121619A7E802121619CDE802121619D616
:1036D300E80212161905E902121619B5E9021216C3
:1036E3001965EA02121619D8EA021216197BEB02BF
:1036F300121619EEEB021216192DEC021216197698
:10370300EC02121619FDB90312161968B903121641
:10371300191BB90312161999B8031216191EB80307
:103723001216199EB70312161954B703121619F875
:10373300B603121619A7B6031216196AB6031216A0
:103743001924B603121619E9B5031216195EC90531
:1037530012161902C905121619DFB503121619C27A
:10376300B50312161970C80512161912C8051216D8
:1037730019EAB4031216196EB403121619FDA20640
:10378300121619A6A10612161922A106121619ED70
:103793009F0612161994BE04121619BABD04121606
:1037A30019F0BC041216195FBB0412161928BB04C6
:1037B300121619FABA04121619AEBA041216191708
:1037C300BA0412161987B90412161961B90412162C
:1037D3001916B904121619E0B80412161963B804BD
:1037E300121619FEB704121619ADB704121619D51D
:1037F300B60412161945B604121619F9B5041216B1
:103803001974B5041216192FB50412161913B50439
:10381300121619B9C705121619BBB3041216193FAC
:10382300B80712161999CB031216196EC80312168C
:1038330019F6C503121619E4C303121619A8C30314
:10384300121619A2C2031216194AC0031216198DB1
:10385300B3041216195AB304121619DEB20412165F
:103863001938BD06121619D6BF0312161993BB06D3
:10387300121619A1BA06121619E6B9061216192458
:1038830095051216199BBE03121619CB9405121631
:1038930019F046001216199694051216196194052B
:1038A3001216192D9405121619C09305121619A88C
:1038B30093051216198393051216195490051216BF
:1038C30019278E05121619278C05121619AD8B05AB
:1038D3001216195E8B05121619188B05121619BAD2
:1038E3008A051216192DBC05121619B2BB0512163C
:1038F300194ABA051216195ABE03121619D1B80578
:1039030012161957B605121619DCB40512161983C7
:10391300B40512161974B405121619E8AC070000A1
:103923000080FBE473000000002001EA870000012F
:10393300002001EA87000002002001EB870000035A
:10394300002001E9870000040042016D80000005AA
:103953000042017E80000006004201A080000007B3
:10396300002001AB800000100042018F8000001195
:10397300002001BD0B000000404201A080000000B8
:10398300804201EA810600000010110000070000D8
:10399300003033000007001000303300000700013F
:1039A30040203300000700024020330000080000DD
:1039B30000203300000A000000E23300000A000187
:1039C30000183300000C005500393300000C001CB4
:1039D3000042330000110004004233000011004391
:1039E3000023330000110051001011000011005595
:1039F3000010110000110067001811000011006F82
:103A03000018110000120055002101000014000EDF
:103A13000042220000000400002104000002040010
:103A23000029150000030400002904000005040018
:103A330000290400000C040000390400000D0400F8
:103A430000390400002A04000039040000020700C2
:103A53000029040000020700021805E78702070097
:103A6300033005ED87020701032205A8860207023A
:103A7300032205AC86020703031801E58702070644
:103A83000318110000040B00001B059086040B00B3
:103A93000129150000040B030129150000040B067E
:103AA3000129040000040B00022105D587040B0142
:103AB300022105D987040B02022105D587040B03D4
:103AC300022105DB87040B04022105D587040B05BE
:103AD300022105E187040B000321040000040B000D
:103AE300042105D587040B01042105D787040B05A1
:103AF3000521150000040B080521150000040B0B1C
:103B03000529040000040B100528040000040B0021
:103B1300062105D587040B01062105D987040B026D
:103B2300062105D587040B03062105DB87040B0457
:103B3300062105D587040B05062105DD8700000056
:103B43000000000120E53800010220E538000103F0
:103B530020E53801000420E5380001050045210077
:103B63000006000000000007008B1A01900800A166
:103B73002500000000000000000A00000000000B08
:103B830020952510000C027D3700000D0000000079
:103B9300000E20E53810010F20E53810000000006A
:103BA30000000000000000000000000000000013FF
:103BB30000B52600800000000000001500591F41D9
:103BC300001600591F50001701B5260080180199EF
:103BD3002700801900072600001A00072600001B93
:103BE30000972610001C01591C00011D01591C00DF
:103BF300011E00312610031F016138080020007DDB
:103C03002800002100CD1A00002200B31F1000235A
:103C1300007D3700000000000000000000000000ED
:103C2300002601352510002711CB28100028092371
:103C33002500002900292810002A70E11B00032B0E
:103C430022952510002C005F2810002D025F2810FC
:103C5300002E01AF1A00042F00011A000830004F94
:103C63002610003101000000003200000000003384
:103C730000000000003400000000003500000000D8
:103C8300003600000000003700000000003800008C
:103C93000000003901591C00013A001D2800003BB7
:103CA30000712513003C00000000003D00000000EF
:103CB300008F000100AE17870001000D1A350004C4
:103CC30000D21925000200D61926000200D81927B0
:103CD300000200DA1928000100E41929000100E5B7
:103CE3001984000400E61986000100EA192A00017C
:103CF30000EB192B000100EC192C000100F0192D29
:103D030000080091172E000100F1192F000100F2A5
:103D13001930000100F31931000100F419320001D8
:103D2300009917330001009A1734000100F5193682
:103D33000001009B1738000100F61939000100EF5C
:103D430019830002000B1A63000100AB1764000122
:103D530000ED1965000100EE196D000100AC17714B
:103D63000008008917660001000A1A43000100FBDE
:103D73001944000200FC1945000100FE1946000227
:103D830000FF1947000800A31748000100011A4B60
:103D9300000100021A040001000E1AA10001001123
:103DA3001A37000100101A880001000F1A3C0001A5
:103DB300009C173D000100F71949000200031A6730
:103DC300000100AD174D000200051A4E0001000767
:103DD3001A4F000200081A3E000100A21751000109
:103DE30000F81952000100F91953000100FA19549F
:103DF3000001009D1700000000000000013636019D
:103E0300010001020100010301000104010606058E
:103E1300020000070100340801000F090401010D2D
:103E23000100FF0E08000017020000190100FF1A2D
:103E33000100011B0100FE1C0100081D0200001F00
:103E430001000120010001210200002301000F24D1
:103E53000200002601000127010008280200FF2AB2
:103E63000100072B0102402C0100002D0100012E4F
:103E73000100012F0100FF30010B1D310800003A42
:103E83000100083B01000F3C0100013D0100FF3E22
:103E930004000042040000460400004A0400004EEF
:103EA30004000052040000560400005A04000000FD
:103EB30020202020202020202028282828282020D7
:103EC30020202020202020202020202020202020EF
:103ED3008810101010101010101010101010101067
:103EE3000404040404040404040410101010101047
:103EF3001041414141414101010101010101010120
:103F03000101010101010101010101101010101053
:103F130010424242424242020202020202020202F0
:103F23000202020202020202020202101010102018
:103F33006A0078005D27632769276C00F000092772
:103F43000F2715276B00F000212727276927660015
:103F5300F000212727276927670014003327392713
:103F63003F2769001400452751274B27EE22E8031A
:103F7300CD26EB26E52664000100000000000327A0
:103F8300630001000000000003276200010000003D
:103F930000000327610001000000000003277000F8
:103FA3000100000000000327010371030103010363
:103FB30001030103010322030203010310030003AE
:103FC3000003000300030003000300034203000394
:103FD300240306030003000304031203250323033E
:103FE3002503230304030403000300030003440322
:103FF300000300032303000365032100350381034A
:104003000003050300030003000300032503230348
:1040130003007100300160001100700031022003C1
:10402300500480001000610000001400630073005E
:10403300720062004300000013000600000000004D
:10404300040012000000000000000000040004004F
:10405300370037003C02440000000000000000006D
:1040630065000000350081000000050000008300AA
:1040730000000302710230016002110270020102AA
:10408300020202028002100261023A00410063024E
:10409300730272026202430200021302380000023A
:1040A30000020402120200020002000200020402E3
:1040B3000402370037003C024402000239000002C8
:1040C300000265020002350281020002050282023B
:1040D30083020002010171010101010111010101CA
:1040E3003101010101018001100161013B00140054
:1040F30063017301720162014301000113010601AF
:104103003D0135000401120100010001000100011D
:1041130004010401330133013C014401320136003F
:104123000001000165010001350081010001050165
:1041330082018301000136000100060000000F0028
:1041430000000000000000000000000003FFFF006B
:10415300000403FFFF0000FFFF0FF4010005C40488
:104163000320000100000B0000000000000000031A
:10417300010F00000000000000000000000000002C
:10418300000000000000000000000000000000002C
:1041930000000000C729032ACD29EF28D329092AC3
:1041A300D329152AD929EF28D329092ADF29EF286A
:1041B300E529EF28EB29EF28F129EF28F729EF2844
:1041C300FD29EF28000000000000000000000000AF
:1041D30000000000000000000000000000000000DC
:1041E30000000000000000000000000000000000CC
:1041F3000A000000020000000400000008000000A4
:1042030010000000200000004000000080000000BB
:10421300000100000002000000040000000800008C
:104223000010000000200000004000000000552C9A
:104233001300252C0100552C0200CB2B0300D12B9E
:104243000400D72B0500DD2B0600E92B3000012CE1
:1042530033000D2C3400132C1100192C14001F2CC7
:104263001500FB2BFFFF000051001000005500104C
:10427300000067001800006F0018000004004200EF
:1042830000430023000007ECFDFDFDECDCDCCCBCAF
:10429300ACAC9C9C8C7C7C6C6C5C5C5C4C4C3C3C0B
:1042A3002C2C1C1C0BF1F5F5E5D5D5C5B5A5A595AD
:1042B300958575756565555545454535252515150B
:1042C300050AA3320273320585320779320C5B3259
:1042D3000D6732FF000000160F00000B150B0200E4
:1042E30002220F3300000E5A6967426565416C6C08
:1042F30069616E6365303901030507090B0D0F0012
:10430300020406080A0C0D015000D007AB27B127A1
:10431300B727303016181920231A1C1E3000393DD8
:104323003F373C3C362C442D00011916181616183D
:1043330023030000034A49434E181A25050230306F
:1043430017181921301B1D1F300C0E020B040B0A0A
:104353000708000F020402010101010902E803003A
:104363000000BE040AF600A7420E008942E80309D2
:1043730003030A100408280C0405080400FFFF0CBB
:104383001E1EC082C083E9901675F002459474F432
:10439300120F728A088B09EB5480604D800EEEFA7F
:1043A300EFFB122943EEFAEFFB122379901675E027
:1043B300F912238B8A0A8B0BAE0AAF0BEE4F6020E8
:1043C3008E828F83E0641A60D5EEFAEFFB1228E940
:1043D300E9F974FF6960CEEEFAEFFB12237F80CC1C
:1043E300AA08E5096480FB80047A007B0002476623
:1043F30074F7120F727AFF0257B574F6120F72E94F
:10440300FEEAFF7A047B00124ABCA808A909EA491C
:104413006034EF8A828B83A3A3A3F0EE8A828B831B
:10442300A3124481E4F0A3F0901682124AE17009CA
:10443300901682E8F0A3E9803FE0FB8A828B83A396
:10444300A3A3E06F700479008031EAFCEBFD8A825C
:104453008B83124AE170E474FF6F700C8C828D833E
:10446300124488E4F0A38010901682125F469016DF
:1044730082124488EAF0A3EBF079010258ADA3F06D
:104483008A828B8322126A9A8882898322C082C09D
:1044930083EA126D2D3BF583E0FA9016828004883F
:1044A300828983125D75601C88828983A3A3A3E03C
:1044B300FBEA6B600574FF6B70E588828983A3A3B5
:1044C300E0F9800279FF02459474F4120F72EAFE58
:1044D300EBFF8A82F583125F461228E9E9F5087437
:1044E300FF6970030245837A197B00122373EA4B39
:1044F30070030245838A828B837434125ADEA3A32A
:10450300EA2402FCE43BFD74061215728E828F834B
:10451300125172126A758A828B83A3A3A3A3A3A3E6
:10452300A3A3ECF0A3ED125182A3A3A3A3A3EA24B4
:104533000AFCE43BFD740C1215728E828F83125FAA
:10454300E0C8126D2D38F583E0C0E0EA2416F58249
:10455300E43BF583D0E0F0EE240CF8E43FF98882E5
:10456300F583126A79EA2417F582E43BF583ECF0CC
:10457300A3EDF088828983E4F0A3F0A90812237FD6
:104583007901024766C082C083901680125F46801D
:1045930000D083D08202161674F4120F728A088B2D
:1045A30009ECFEEDFF7A0812463970047910803564
:1045B3001246ABA3124695740C1219D6127080A33F
:1045C300A3A3A312717290167A124AE190167A602D
:1045D30011124AC48003EAFCEB124ADC70F88C82A5
:1045E3008D8312464902476674F4120F7289088A52
:1045F30009ECFEEDFF7A0A12463970047910803314
:104603001246A0E4F0A312464FE50912464FA3EE6B
:10461300F0A3EFF090167C124AE190167C60111221
:104623004AC48003EAFCEB124ADC70F88C828D8367
:104633001246490247667B0012242D8A0A8B0BA877
:104643000AA90BEA4922126A9A7900221257A6A3F1
:10465300A32274F4120F7289088A09ECFEEDFF7A23
:10466300061246397004791080251246A012469529
:1046730090167E124AE190167E6011124AC480039E
:10468300EAFCEB124ADC70F88C828D8312464902F5
:104693004766E5091257ABEEF0A3EFF0221246ABE3
:1046A3008A828B83A3A3A3228A828B83E4F012449E
:1046B30081A3A3E508F02274F2120F72EAFEEBFF66
:1046C3008C088D091229558B0DA90DEA4960198AA9
:1046D300828B83A3A3A3EEF0A3EF1257A2E508F006
:1046E300A3E509F0790080027901025F3C74F412BA
:1046F3000F7274F712172CE9FE85188285198374DB
:1047030001F0EC7006EDC39406404D74036A4B60F0
:104713004774011216FE880A890B780A1216517C17
:10472300127D007A007B00EE12476B12162EE960B1
:104733001CE4F50AF50B780A121651740312170ECE
:10474300740212170612299D740212162E851882FE
:10475300851983E06401700479018002790074098A
:1047630012162E7F04021326F912295B7402227497
:10477300E8120F7274FA12172C89128A168B178C8F
:10478300088D091238AF8A148B15EA4B700579022C
:10479300024901AA08AB09A912122973E9F50FA26C
:1047A300E6401C901680125D756014E82419F582AA
:1047B300E439F583E064017006E50FD2E6F50F7C7A
:1047C300067D007900AA18AB19122361741F121910
:1047D300D612517A6009E054FCF0E044018003E012
:1047E30054FC127158125D75602B741E1219D6E0B9
:1047F300FE88828983A312142DEEFD74021219D64A
:10480300E05403FCAA08AB09A912123891740212EE
:10481300162EE97005790102490174221219D61284
:104823005D756012851882851983E04404F0740273
:104833001219D6126A9674201219D612517A60058B
:10484300E044088003E054F7F074211219D61251A2
:104853007A6005E044108003E054EFF074241219E9
:10486300D6E0C0E074041219D6D0E0F07405121932
:10487300D6EEF07803851882851983E0540460022C
:10488300780574251219D6124F0EE82510FEE4356B
:1048930011FF124BB26063AC0AAD0BAA18AB19122D
:1048A300294F74271219D6125ECC12164DAC10ADD7
:1048B3001112613412162E750C1E780C12165575D2
:1048C3000C78750D16780C121651780A1216518E43
:1048D3000C8F0D780C1216517808121651A90FACD3
:1048E30014AD15AA16AB171238BB740912162EE9AC
:1048F300FEAA0AAB0B12243380027E10EEF9740673
:104903008004EEF9740212162E7F10021326EEFCB9
:10491300EFFDAA10AB11A90A122919740B2274EA2C
:10492300120F7274FE12172C890B8A148B158C0EBE
:104933008D0F7E007F00750A0074181219D6124F6E
:104943000E8011124AD21229A98B09EE2AFEEF35E5
:1049530009FF050A126A7D502EE50A75F006124E0C
:10496300C52403FEE43FFFA3A3E070E60EEE70014F
:104973000F88828983A3A3A3A3124AE18882898330
:1049830060C1125CE680C2EEFAEFFB124ABC8A0CED
:104993008B0DEA4B7003024AB1750A008030A818E8
:1049A300A919881289137812121651780812165110
:1049B3008A828B83124AD21229AF740412162E12E2
:1049C3007070E50828F508E50939F509050A126A42
:1049D3007D5077E50A75F006A4F8A9F0E51028F5EF
:1049E30082E511126A59124AC98A828B83A312572C
:1049F30011F012577A12570CF0E5082403F508500A
:104A030002050988828983E070C2EA2403081257E9
:104A13007E124AC9A38582088583098A828B83A370
:104A2300A3A3A3124AC48C82F583E5824583700352
:104A33000249A1AC08AD09AA82AB8388828983E0CD
:104A4300F912297F8A088B098082780C1216518EFD
:104A5300088F09780812165174201219D6124F04C0
:104A6300121655E4F508F509780812165174221246
:104A730019D6124F0412165574221219D6124F0466
:104A8300121655750800780812165575080178082E
:104A9300121655AC0EAD0FAA14AB15A90B12491B78
:104AA30012162EE9FEAA0CAB0D12243380027E10DF
:104AB300EEF9740212162E802F12242D8A088B0908
:104AC30022E0FCA3E022E0850882850983F022121C
:104AD3007146AA0EAB0FA90B22FD8C828D83125F48
:104AE3004AEA4B22AA12AB137F0E021326EEF902F7
:104AF3004AEB74EC120F72890A8A108B11ECFEEDEB
:104B0300FF74141219D6124D087003024B98A808AB
:104B1300A9097C00800D124CEB50010B124D1B5068
:104B230001090C850C82850D83E0FAECC39A40E6FB
:104B330074016A700AA3E07006750E01750F0078A0
:104B430008121651780E121651741C1219D6124CF3
:104B5300E5121655E4F50CF50D780C121651741E7A
:104B63001219D6124CE5121655741E1219D6124C90
:104B7300E5121655750B00780B121655750B047854
:104B83000B12165512491112162EE9FEAA08AB098B
:104B930012243380027E10024CD2AA0EAB0F7F0C7C
:104BA300021326850A82850B83E0F912299122EEEE
:104BB300FAEFFB12242D8A0A8B0BEA4B22F8E43519
:104BC3000DF98882F583124EF4A322851082851194
:104BD30083E0F8E508C3982274EC120F72890A8AFD
:104BE300108B11ECFEEDFF74141219D6124CD7F58D
:104BF300087509007402780812187E85080E850965
:104C03000FAA0EAB0F126A717003024CD0790080A9
:104C13004AE9F5127513007402781212187EE50C36
:104C23002512FCE50D3513FD8C82F583A3125AD9A9
:104C33008C828D83A3126223F0EC2403FC50010DBC
:104C4300F5828D83126224A3F08C828D83126223FA
:104C5300A3A3F0EA2404FA50010B09850C82850D05
:104C630083E0F8E9C39840A9740168700AA3E0706F
:104C730006750E01750F007808121651780E12167C
:104C830051741C1219D6124CE5121655E4F50CF5A5
:104C93000D780C121651741E1219D6124CE5121609
:104CA30055741E1219D6124CE5121655750B007861
:104CB3000B121655750B07780B1216551249111264
:104CC300162EE9FEAA08AB0912243380027E10EEE9
:104CD300F9024BA1124CDB221255E0850C82F583BD
:104CE300E022E0F50B780B22EC75F003A4FAABF0AD
:104CF300E50C2AFAE50D3BFB8A82F583124F21F07E
:104D0300EA2402FA22124CDB75F003A4F50EE5F057
:104D1300F50FAA0E1270DD22F5828B831250D61284
:104D23004F1AA3A3F0E82403F82274E8120F727455
:104D3300FE12172C124F681219D6124F0E8009EE6D
:104D43002402FEE43FFF0508124BCE502FE5087501
:104D5300F00D124EC52404FEE43FFFE070E8A3E02B
:104D630070DDEE2405FEE43FFFE82404F50AE43990
:104D7300124EE060D1124BA6EE2980C6124BB270E0
:104D830003024EC08A0E8B0F7508008018E50C24B1
:104D930009FAE4350DFB8A82124EEE124F16F08C9F
:104DA3000E8D0F0508124BCE4003024E5DE50875CC
:104DB300F00D124F28AA82AB83124BC9F0E50C24E5
:104DC30002124BC0124F3DA3F0E50E2404F50E5022
:104DD30002050F850C82850D83E070C7E50E240262
:104DE300FCE4350FFD850E82850F83A3A882A9837A
:104DF3008A828B83E07096E50C2404F512E4350D6A
:104E0300F513851282124EEEF0E50C2405F516E437
:104E1300350DF51785168212644E124F522407F88A
:104E2300E4350DF98882124EEE124F60F0E50E2440
:104E330005F50E5002050F851282851383124EE786
:104E43007003024DA6AC0EAD0FE50C240BF582E406
:104E5300350DF583124EFC024DA6780A1216518EBB
:104E63000C8F0D780C12165174221219D6124F049E
:104E7300121655E4F50CF50D780C12165174241224
:104E830019D6124F0412165574241219D6124F0450
:104E93001216557508007808121655750809780812
:104EA300121655AC14AD15740B1219D6124ED51239
:104EB300162EE9FEAA0AAB0B12243380027E1002DF
:104EC3004905A4F8A9F0E51028F582E511125072FE
:104ED300EE22125F4AA909122919740B22F50B85D8
:104EE3000A82F583E0F9122985E922F583124EF44B
:104EF30022E0850E82850F83221250DB8A0E8B0FF0
:104F030022E0F5087808228E828F83E0F510A3E073
:104F1300F51122124F1A22124482124F2122A3E0CA
:104F23008882898322126C0B85820C85830D124E35
:104F3300F4F0850C82850D83A322124F4122A3F046
:104F430088828983A3E0850E82850F83A3A322F041
:104F530085168285178312578FF0E50C22A3A312BF
:104F63004F41A3A322851882851983EAF0A3EBF0AE
:104F730089098C148D157E007F00750800741A2230
:104F830074EA120F72890B8A108B118C0E8D0F7EAF
:104F9300007F00750A0074161219D61255DC8003BF
:104FA30012503F850C82850D83126A8340F2126A88
:104FB3006D607EA808A909750A00800312507B85DD
:104FC3000C82850D83E0FAE50AC39A40EF78081254
:104FD30016518E0C8F0D780C121651741E1219D6A1
:104FE300125039121655E4F50CF50D780C121651C2
:104FF30074201219D612503912165574201219D66C
:10500300125039121655750A00780A121655750A88
:105013000A780A121655AC0EAD0FAA10AB11A90BE4
:1050230012491B12162EE9FEAA08AB09122433807B
:10503300027E10024AF0E0F50A780A22E50A75F0CA
:1050430005A4F8A9F0E50C28F582E50D125072A32A
:10505300A3A3127084A3A3E0F91229978B09EA246E
:1050630003F8E43509F9EE28FEEF39FF050A223982
:10507300F583A3A882A98322E50A75F005A4FAABF8
:10508300F01250CA858214858315124F2212715E65
:105093001250D6F0E5142402FAE435158A12F513FA
:1050A3008A82F5831250D6A3F0E82403FCE439FD89
:1050B300851482851583A3A3A31250DB8A128B1355
:1050C300A812A913050A22E50C2AF582E50D3BF582
:1050D30083A322124F22A322E0FAA3E0FB851282CC
:1050E300851383E0F912297F2274F6120F7274FE7E
:1050F30012172CE9FE740C1219D612517212517A3E
:10510300125182E0C0E074011219D6D0E0F0A81861
:10511300A9198808890978081216517508027509B2
:1051230000780812165174161219D6124F0412166B
:105133005574151219D612142D74161219D6124F4E
:105143000412165574161219D6124F0412165575F9
:105153000800780812165575080B7808121655EED4
:10516300F912491B12162E740212162E0258AD1292
:10517300707B8882F58322E085188285198322F06B
:1051830088828983A32274F1120F7274EB12172C95
:10519300EAFEEBFFC200EA2420F8E43F8808F509A1
:1051A3008882F583C3E09403A3E09400500579015A
:1051B3000255BD90168012717474021219D61271C1
:1051C30074740E1219D6E4F0A3F0740A1219D6E41B
:1051D300F0A3F0740C1219D6E4F0A3F0EA2422F839
:1051E300E43F880AF50B8882F583126A7974041206
:1051F30019D6AA82AB831229498A0C8B0DA80CA954
:105203000D740A1219D612717485088285098312E6
:105213005F46EAC398F8EB99F9850A82850B83E028
:1052230028F8A3E039F9740C1219D6126A96740897
:105233001219D6E0901679F0EE2414F508E43FF540
:1052430009850882F583E0F91238AF8A828B83E5FA
:10525300824583700C901680E4F0A3F07902025526
:10526300BD125610602BEE2404F50AE43FF50BA3A0
:1052730012142D740B1219D6E0FD74061219D6E020
:105283005403FC12561F123891740212162EE97041
:105293000C901680E4F0A3F079030255BD12561F5B
:1052A300122973E9F50E850A82850B83125F46EA9C
:1052B300FCEBFD90167A800488828983125D7570F9
:1052C300030253B088828983A3A31255DCC3EA95F2
:1052D3000CEB950D40E288828983A3A3A3A3C3E0CB
:1052E3009CA3E09D40D2E8FCE9FD74041219D6E0CA
:1052F3005407700D74091219D6E0640B700302533E
:10530300B4E50EA2E640030253B4EE2419F582E499
:105313003FF583E060030253B474021219D61255A9
:10532300E8707E74021219D6125D7070747C008569
:105333000882850983E0F912297974011219D67458
:1053430001F074091219D61255C51219D6E0F50CDD
:10535300780C12165574071219D612142D750C01F8
:10536300780C12165574081219D6126C2BF50C789A
:105373000C12165574051216FE880C890D780C1242
:10538300165174091219D61256071219D61255D08E
:105393001219D61255F612162E7C0112561F122917
:1053A30079901680E4F0A3F079050255BD7C007D69
:1053B3000074041219D6E0F8540360030254D8E8C9
:1053C300540460057E8402551774091219D6E0F857
:1053D300C3941740030254D4E8F50A750B00740212
:1053E300780A12187E7497250AF5827441350BF5F5
:1053F30083E493F8740193F9E84970030254D48564
:105403000882850983E0C0E074101219D6D0E0F059
:10541300740C1219D6125F4674111219D6127174D4
:10542300740A1219D6125F4674131219D6127174C4
:105433007410121706888289831239268B09A909E9
:10544300740E1219D6127174EA49604B7409121959
:10545300D6E0F5087509007402780812187E74996D
:105463002508F58274413509F583E493F8740193B3
:105473008882F583E582458360127402121706124F
:105483003926740E1219D6125D75600B740E12193B
:10549300D6125F4612243374091219D6E0F8605409
:1054A300740268604F740368604A740668604574E8
:1054B30008686040740C68603B741168603674134C
:1054C300686031741568602C740B6860277E0080F7
:1054D300437E82803FEC4D602B8C828D83A3A3A3FC
:1054E300125610601F7402121706123926E9FE7451
:1054F300FF6E700B901680E4F0A3F0F90255BD74B3
:10550300016E701074041219D6E0540460047E8393
:1055130080027E8174021219D61255E870757402E6
:105523001219D6125D70706B74041219D6E0FA5416
:1055330010706074011219D6EEF074091219D612A4
:1055430055C51219D6124F0412165574071219D6DF
:1055530012142D7508017808121655EA1313135403
:105563001F64015401F508780812165574051216C4
:10557300FE88088909780812165174091219D6127F
:1055830056071219D61255D01219D61255F61216FD
:105593002ED200901680E4F0A3F0EE700479008020
:1055A3001974846EA200700A50047907800C79067E
:1055B30080085004790980027908741512162E02A6
:1055C3005CE0E0851882851983F0740822E02406E4
:1055D300FAA3E03400FB7409221255E022E0F50C33
:1055E300A3E0F50D22125FE0C82415F582E438F537
:1055F30083E022A3E0C8126D3138F583E0F9122964
:105603003D740722127022127142740922A3A3A3CC
:10561300125FE08882F583E582458322850A8285CD
:105623000B83125F4A850882850983E0F92274F4AB
:10563300120F728A088B09ECFEEDFF7C067D007960
:1056430000122361850882850983E054FCF8A3E0F6
:10565300F98E828F83E05403FAE84A85088285092C
:1056630083F0A3E912571AA2E25004D2F08002C2D7
:10567300F0850882850983E054FBF0A2F0E433F55A
:105683000A750B007402780A12187EE0450A125755
:105693001AA2E3850882850983E050044408800246
:1056A30054F712571AA2E45004D2F08002C2F085D4
:1056B3000882850983E054EFF0A2F0E433F50A741D
:1056C30004780A12187EE0450A12613A8508828539
:1056D3000983E0540460108E828F83E0FAA3E0F91B
:1056E300EA1266C850010F8E828F8312570CA3A350
:1056F3001266A8850882850983A3A3A3A3A3F0EE5A
:105703002402FAE43FFB024766125711A322E08505
:105713000882850983A322125AE2E02274F7120F4A
:10572300728A828B83E054038C828D8312579D543B
:105733000412579654081257965410F88C828D838E
:10574300E048F0A3AC82AD838A828B83E05404608B
:105753001012577A125790125182125786FC500139
:105763000D8A828B83A3A3A312578F1257A21257BA
:1057730086FAE43DFB803EEA2402F8E43BF98882A2
:10578300F58322125790A3F0EC240222A3E08C822B
:105793008D8322F88C828D83E048124482E02212AA
:1057A30057A6221257ABA322F08A828B83A3A3A30B
:1057B300A3221228E37F01021326C082C08390161E
:1057C3007C80048A828B83124AE160138A828B83F2
:1057D300A3A3E0F8E968600B74FF6870E680047ABD
:1057E300007B0002459474F0120F728A088B09EC57
:1057F300FEEDFF1229558A0C8B0DEA4B60787C0075
:1058030080010C850C82850D83A3A3A3A3A3A3A36B
:10581300E0F8ECC398505FECF50E750F0074037855
:105823000E12187E850C82850D83A3A3A3A3A3A3C5
:10583300A3A3E0250EF8A3E0350FF98882F583E4EE
:1058430093FA740193FBE5086A7003E5096B70B280
:10585300A3A3E493FA740193FBEE6A7002EF6B70F7
:10586300A174101219D6126A798983888274081276
:10587300152E790180027900800312162E7F08020B
:10588300132674F6120F721258B26005125F43802A
:10589300047A007B00801374F6120F721258B26000
:1058A30005125F4180047A007B007F0202132612F7
:1058B30029558A828B83E58245832274F7120F72FE
:1058C300E9FFEAFCEBFD90167E800488828983124F
:1058D3005D75604688828983A3A3E06F70ED7E00C7
:1058E30080010E88828983A3A3A3E0FAEEC39A50B2
:1058F300DAEE75F003A4FA85F008AB088882898391
:10590300A3A3A3A3E02AFAA3E03BFB8A82F583E0E7
:105913006C7003A3E06D70CA80047A007B000257A9
:10592300B874F6120F7212296D8A828B83E5824551
:10593300836006A3A3E0F9800279000258AD74F6F0
:10594300120F72ECFF12296D8B09A909EA49601540
:10595300EA2402F582E439F583EF6005E0D2E680BC
:1059630003E0C2E6F00258AD74F1120F72EAFEEBE7
:10597300FFECFAEDFBEE4F7003025AD6EC2402F56E
:105983000CE43BF50D8C828D83A3AC82AD838E0832
:105993008F09750A00E91214DE044142A35A4344F5
:1059A300B55AE0E26E5AE8E9215A2108135A09214F
:1059B3005A0A305A0B6E5A10135A18135A19215A8D
:1059C3001A305A1B6E5A20135A21215A22305A2355
:1059D3006E5A247F5A25885A26915A279A5A281391
:1059E3005A29215A2A305A2B6E5A2C7F5A2D885AFB
:1059F3002E915A2F9A5A30135A31215A38215A3933
:105A03006E5A3A9A5AEA6E5AF09A5AF1C75AD65AC5
:105A13008E828F83125AD9ECFAEDFB025AD61266A4
:105A2300A18C828D83F00A0AAB0D025AD68E828F27
:105A33008378081219678A828B83E508125ADE7805
:105A430008121967E5098C828D83125ADE780812D1
:105A53001967741078081216CD850C82850D83E5BD
:105A630008F0EA2403FA506B0B80688E828F83124E
:105A730014291223DF740412162E80577808121685
:105A83004D7C058046780812164D7C06803D7808CB
:105A930012164D7C078034780812164D7C08802B33
:105AA300780812164D8E828F83E02401FCE43400C3
:105AB300800F780812164D8E828F83125C74FCE47B
:105AC30039FD8009780812164D7C107D001261346F
:105AD30012162E025CE0126229F022125AE222F020
:105AE3008E828F8322C082C083E91214DE03202FAB
:105AF300005B383A005BE0E2005B00045B79018005
:105B030002790002459474F2120F7274FE12172C7C
