:020000040000FA
:060000000218EB020B895F
:03001300020C4597
:03002B0002164F6B
:03003300020DD3E8
:03003B00020C9A1A
:03005300020ABEE0
:03005B000213DBB2
:030063000213FC89
:03006B00020D790A
:03007B00020DAAC9
:10008300020B1D010020FD0002016E0500000001AE
:10009300871E991E00009F1EA51E00000000AB1EB8
:1000A300C31EC91ECF1E0000000000000000060092
:1000B30004140004FF0801FF0D0106FFFFFFFFFF0B
:1000C300FFFF0101010400F31A000000E803000030
:1000D300FFFF6B1BE803000064006400B801A0BBD2
:1000E3000D00A0BB0D00020200F8FF0705021E046D
:1000F30001051E02051E020A0A0101080801031078
:100103002702803E0102FEFFE8030A050001FFFF0C
:10011300010A1401E0C503423F1A51123FF304B52B
:100123003F0000803E010105030101FF0F10FEFFA8
:10013300104200000000824000000000FF000000A9
:10014300FF00C082C083E9FA5407F8742928F582B6
:10015300E43484F583E0F879006022EAC4540F5450
:1001630003600814600914600D8012E5808002E5C5
:10017300905870078007E5A0586002790102026E6B
:10018300C082C08312027340047800800312032BE1
:10019300E8F4FCEB600814601214601C802BEA6026
:1001A30005E842808023EC5280801EEA6005E84225
:1001B300908016EC52908011E8C39420500BEA60B3
:1001C30005E842A08003EC52A002026EC082C08305
:1001D30012027340047800800312032BE8F4FCE856
:1001E300700302026EEB600814602C146050807B75
:1001F300EC52F374016A601274026A601574046A43
:100203007003E8428FE842FD806153F7DFEC528FC1
:1002130080F343F72080F6EC52F474016A601274A1
:10022300026A601574046A7003E842F6E842FE80CD
:100233003A53F7BFEC52F680F343F74080F6E8C336
:1002430094205027EC52F574016A601274026A60BC
:100253001574046A7003E842F7E842FF800D53F710
:100263007FEC52F780F343F78080F6D083D082226D
:10027300E9C4540F5403FB743F59C394302274F8F8
:10028300120FCFE9C4540F5403FE743F59C3943083
:1002930040047800800312032BE8F4FBE86077EE58
:1002A300600814602B14604E806CEB52F352FD74A3
:1002B300016A600F74026A600F74046A7058E8423E
:1002C3008F805353F7DF800343F720EB528F804631
:1002D300EB52F452FE74016A600F74026A600F7489
:1002E300046A7032E842F6802D53F7BF800343F768
:1002F30040EB52F68020E8C39420501AEB44E0FB15
:1003030052F552FF74016A601274026A6015740434
:100313006A7003E842F77F0102135C53F77FEB52E5
:10032300F780F343F78080F6E95407FC74292CF532
:1003330082E43484F583E0F822C082C0831202731E
:1003430040047800800312032BE8F4FCE86038EBE8
:10035300600814601214601C802DEA6005E842FDF9
:100363008025EC52FD8020EA6005E842FE8018EC0F
:1003730052FE8013E8C39420500DEA6005E842FF63
:10038300800574E04C52FF02026EC082C0831202E9
:100393007340047800800312032BE8F4FCE8603F09
:1003A300EB60081460151460228034EA6005E842AB
:1003B300808003EC5280E842FD8024EA6005E84235
:1003C300908003EC5290E842FE8014E8C3942050DE
:1003D3000EEA6005E842A08003EC52A0E842FF0267
:1003E300026E743F59C394305042E9C4540F54030E
:1003F3006007146013146020227801E8F4FBEA60BC
:100403002414601814601922740F59C394045004FF
:10041300780280E7780480E3780880DFE8428C2262
:10042300E58C586004EB528C22E8428C2274F5125E
:100433000FCF74FB1216FC9081C0E0A2E1500312AF
:100443001A3D9081C0E0A2E040030205349081D0C0
:1004530012198F74011219A61219779005AEE4F0E0
:10046300908029E0FEA3E0FFEE4F60478518828568
:100473001983E4F0A818A9198808890978081216BD
:100483000675080175090078081216067C007D00C0
:100493007A017B0412232B7404121619E9700C855C
:1004A3001882851983E05E9005AEF074011216BEC2
:1004B30012204F74011219A67808121937E508FAA9
:1004C30074011219A67808121937E509FB74011291
:1004D30019A678081219377410780812169DE508C2
:1004E300541FFC9081C4E0F5FDA3E0F5FEA3E0F505
:1004F300FF9081CCE0F58FA3E0F5F6A3E0541FF560
:10050300F77900E9FE74C82EF582E43481F583E0BF
:10051300601275080175090074052E780812184ECB
:10052300E50842F709E9C3940340D88A808B908C8D
:10053300A074051216197F0402135C1218FB601DC8
:1005430012190A7005191919801A121779701F12D6
:10055300178DC37003E66733191919400718181864
:100563002208080874FFF618F618F618F622121770
:100573008D60171219B0702192F01219B9701950C9
:100583001720F014080808090909E7F61819E7F60F
:100593001819E7F61819E7F6221219B960E6E8699F
:1005A300701F0808E62480F608E436F618547FB472
:1005B3007F0CE654806007F6E418F618F622181844
:1005C30022E9C6CC08C6CD08C6CE08C6CFC0E0E82F
:1005D300C0E0EAC0E0EBC0E009E9F809E7FA09E79F
:1005E300FBE6F918E6F8C3EC98ED99EE9AEBC2E74F
:1005F300F5F0EFC2E795F0500E600CEBCFFBEACEBF
:10060300FAE9CDF9E8CCF8EAA2E7D2E7FAEB33FB53
:1006130013F5F0EEA2E7D2E7FEEF33FFC5F013A226
:10062300E730E601B313C5F0C3C0E0C0F07F00C3F9
:100633009BFB605E9418600F401D14601AD0E0238A
:10064300F9D0E0F802071F8AF0E9486003D2F0E42A
:10065300AFF0FAF9F8803BEB30E40D89F0EA600380
:10066300D2F0E4AFF0F9CAF8EB30E30D88F0EF60B5
:1006730002D2F0AFF0E4CAC9F8EB54076014FBC32D
:10068300EA13FAE913F9E813F8EF135002D2E0FF83
:10069300DBEDD0E0C0E030E739C3E49FFFF5F0ECD9
:1006A30098FC42F0ED99FD42F0EE9AFE42F0D0E064
:1006B300F9D0E0F8E5F0607AE923F9EE20E742D8D3
:1006C300028067C3EF33FFEC33FCED33FDEE33FE03
:1006D30080EAEC28FCED39FDEE3AFED0E023F9D0B8
:1006E300E0F84002801BC3EE13FEED13FDEC13FC98
:1006F300EF135002D2E0FF08B800067F7F74FF803B
:100703002EEF3350178CF020F00260100CBC000C5D
:100713000DBD00080EBE000408E860DFE933E813EE
:10072300FFEE2313FE4F4D4C8008E95480FFE4FE97
:10073300FDFCEE33EF33F47004FCFD7E80D0E0FB70
:10074300D0E0FAD0E0F8D0E0CFC618CEC618CDC6B8
:1007530018CCC6F9221218FB7004181818221219A3
:100763000A700D74FFF61819F61819F61819F622FF
:10077300E7548066F61219B9700F1219B070F014AD
:10078300F608F608F608F680D11219B0700CF608D0
:10079300F608768008E6447F80EC121790700C12FE
:1007A300177C60BFE65480F6E480BB12177C7005AB
:1007B30019191980A5E869700C763F18768018F628
:1007C30018F6E8F922E6CDC0E018ECC0E0E633CD38
:1007D30033CDD313F6E719FCE7191933CC33C3949C
:1007E3007F400ECD9D502408E65480F6E418F68031
:1007F3000FF4043D14501408E6447FF6187680E4A1
:1008030018F618F6D0E0FCD0E0FD22CCD313CCFDD3
:1008130018E4C6CBC0E018E4C6CAC0E00808ED0877
:10082300C633E613F618E433C675F003C3CA97CA92
:1008330009CB97CB199C40047D08802EBD00030291
:10084300090116B6FF050606081618C3CA33CACB34
:1008530033CB33CA27CA09CB37CB193CC37D0880B6
:100863003E187D0820E75CC633C6CA33CACB33CBF8
:1008730033DDF1D5F0EB30E77BCA97CA09CB974A52
:10088300CB199C406F4B7025E620E0218066187DD4
:1008930008C3CA97CA09CB97CB199CD3C633C6CA18
:1008A30033CACB33CB3350C9DDE7D5F0E1D3E4C64C
:1008B30036C608C636C608C636C608C636C61818AB
:1008C300188031C3CA97CA09CB97CB199CB34097F9
:1008D300C633C6CA33CACB33CB33DD34D5F02EC6C9
:1008E300A2E0C640C8CA27CA09CB37194A70BECB93
:1008F3003CB480B90808E63308E633601F181818BB
:10090300D0E0FAD0E0FBD0E0FCD0E0FD22187D0877
:10091300CA27CA09CB37CB193CD3808013F618E416
:10092300B67F11F618B6FF0EF618C60470D2080883
:10093300768080CAF618F618F680C5001218FB6098
:100943004F12190A6012E7548066F6121779701174
:100953001219B0703B090909F4F618F618F618F6DF
:100963002212178D70151219B908080860EAE644B7
:100973007FF618768018E4F618F6221219B9601675
:100983001219B07012E4F608F608F608E65480F679
:1009930009090918181822EAC0E0EBC0E0ECC0E02E
:1009A300EDC0E0E687F0A4FBACF008E687F0A42CEA
:1009B300FCE435F0FA1809E687F0A42C4B600274C6
:1009C30001CA35F0FCE433FB09E687F0D2F7A42C27
:1009D300CB35F0FC1908E687F0A42BCC35F0FBE40B
:1009E30033FD0819E687F0D2E7A42C4ACB35F0CDC6
:1009F3003400FC09E687F0D2E7A42DCC35F0FDE402
:100A030033FA0918E687F0D2F7A42CCD35F0CA34AF
:100A130000FC08E687F0D2E7D2F7A42ACC35F07AB7
:100A23007E20E70B0ACB33CBCD33CDCC33CC33CBCA
:100A33003350147004ED30E00ED2F1E4CD3DCDCC53
:100A43003CCC3B5005DA05C2F1EB547FC63308E6D4
:100A53003392F0FBE73309E733C39A502D2B701918
:100A63000C0D4C4D70151806E608C333700D20F1BC
:100A73000AA2F013F6E418800B4024E4F630F002E7
:100A8300768018F618F618F68024D33B14501074A9
:100A9300FFA2F013F6187680E418F618F6800FA27A
:100AA300F013F618E63303F618ECF618EDF6D0E07B
:100AB300FDD0E0FCD0E0FBD0E0FA22C0E074F112FC
:100AC3001035A2AFE433F509D2AF85A708AFA1EF84
:100AD3005508FE74105E6006121B5D75A1EF740865
:100AE3005E6008121B6375A1F78024EFA2E092F009
:100AF300E508A2E082F05017906198E0F89004DCDA
:100B0300E0C398A2D265D0335002E8F075A1FEE5A8
:100B130009A2E092AF7F02021094C0E074F21210B7
:100B230035A2AFE433FED2AF9061A4E0F8759B0029
:100B3300E59158540860087591F7121BAB8023E5C3
:100B43009158541060087591EF121BB18014E59110
:100B5300A2E092F0E8A2E082F05007E0C2E0F012D7
:100B63001D0D9061A3E0F8E5E9585404600E121CD2
:100B7300E375E9FB906193E0A2E640F2EEA2E09216
:100B8300AF7F01021094C0E074F2121035A2AFE4FB
:100B930033FED2AF9061A5E0F8E5BF585404600678
:100BA30075BFFB121D2580D4C3E498F8E499F912AC
:100BB3000BEC8026C3E49AFAE49BFBE920E7E912F5
:100BC3000BECE498F8E499F922C3E498F8E499F972
:100BD300120BECE498F8E499F9C3E49AFAE49BFB6A
:100BE30022EB20E7CFE920E7E0B90010BB0008E8DB
:100BF3008AF084F8AAF022E4FBC8FA22EB70227B85
:100C030010C833C8C933C9335007C39AC3DBF28052
:100C1300069A50012ADBEAC833F4C8C933F4C9FA87
:100C23002275F008E4C833C8C933C933C99AC99BCC
:100C33005004C92AC93BD5F0ECFBC833F4C8E4C956
:100C4300FA22C0E0C0D0E8C0E0E9C0E0C082C083BF
:100C5300A8C1E8C0E0900495E0F8743028F582E478
:100C63003404F583D0E0F0900494E0F8A3E06870D6
:100C730006E595900497F0900495E004F0C394641E
:100C83004002E4F0A374C6F0D083D082D0E0F9D060
:100C9300E0F8D0D0D0E032C0E0C0D0E8C0E0E9C096
:100CA300E0C082C0839004CCE0F8A3E068700853EE
:100CB3009AFBA374018022C2E99004CCE0F874018A
:100CC30028F0749828F582E43404F583E0F5C190A4
:100CD30004CCE0C394344002E4F080AC120D2A301B
:100CE300F039120D6F8034120D2A20F01430E72BE7
:100CF30074FFFCFBFA747F8022E4FCFBFA748080AF
:100D03001AB48008BC00F2BB00EF800F50EBF9E48B
:100D1300C39AFAE49BFBE49CFCE499C6CC18C6CBCB
:100D230018C6CA18C6F922E4C9C608CAC608CBC67B
:100D3300D3330308CCC63392F0C3947F402E941868
:100D43004019C9B90704CACBCC225025C309CA33F9
:100D5300CACB33CBCC33CC33D9F422F4600DC9CC1A
:100D6300C313CB13CBCA13CAD9F6CC22E4FCFBFAC8
:100D73002214FCFBFA22C0E074F2121035A2AFE495
:100D830033FED2AF900685E05589600FE589FA7985
:100D930000121FEF900685E0F45289C2C5EEA2E06F
:100DA30092AF7F01021094C0E074F2121035A2AF2B
:100DB300E433FED2AF900686E0558A600FE58AFAE7
:100DC3007901121FEF900686E0F4528AC2EB80CDC0
:100DD300C0E074F2121035A2AFE433FED2AF900636
:100DE30087E0558B600FE58BFA7902121FEF9006AF
:100DF30087E0F4528BC2E880A4080808EAC0E0EB5D
:100E0300C0E086F0E7A4FA180986F0E7A42AFA18E6
:100E13000986F0E7A42AFA180986F0E7A42AFA1942
:100E230086F0E7A4FBE5F02AFA190886F0E7A42B7D
:100E3300FBE5F03AFA190886F0E7A42BFBE5F03A54
:100E4300FA18180986F0E7A4C5F02BFBE43AFA195F
:100E530008E7C5F0C6A426F6E5F03BFBE43AFA182A
:100E630086F0E7A4F6E5F00826F6E43B08F6E43A54
:100E730008F6D0E0FBD0E0FA22080808E630E711D4
:100E8300121751120E94080808C64480C618181881
:100E930022181818E9799EC608CAC608CBC608CC1A
:100EA300C6C370207996CACBCC7019798ECBCC701F
:100EB300137986CC700EF9802ACA33CACB33CBCCD4
:100EC30033CC331930E7F2CCCBCA3350147004EA75
:100ED30030E00DE4CA3ACACB3BCBCC3CCC50020940
:100EE300C3E913C6CC182313C6CB18C6CA18C6F950
:100EF30022E4CFC0E0E4CEC0E0E4CDC0E0E4CCC067
:100F0300E075F020E626F608E633F608E633F60841
:100F1300E633F6181818EC33FCED33FDEE33FEEF31
:100F230033FFC3EC9709ED9709EE9709EF9719196A
:100F330019400FFFEC97FC09ED97FD09EE97FE1999
:100F43001906D5F0BFECF709EDF709EEF709EFF74E
:100F5300191919D0E0FCD0E0FDD0E0FED0E0FF226B
:100F63002518C582C0E0E51934FFC583C0E0E51844
:100F7300C3958224F810AF088583198582188008E9
:100F8300858319858218D2AFCEF0A3E520F0A3782C
:100F930008E608F0A3DEFAEFF0A3E58124FAF8E609
:100FA30008F0A3E608F0A3E608F0A30808E608F0B3
:100FB300A3E608F0A315811581D0E0FED0E0F81573
:100FC3008115811581E8C0E0EEC0E0222518C582B5
:100FD300C0E0E51934FFC583C0E0E518C39582245A
:100FE300F910AF08858319858218800885831985D0
:100FF3008218D2AFCEF0A3E520F0A37808E608F07C
:10100300A3DEFAEFF0A3E58124FBF8E608F0A3E6FC
:1010130008F0A30808E608F0A3E608F0A315811575
:1010230081D0E0FED0E0F815811581E8C0E0EEC084
:10103300E022C0D02518C582C0E0E51934FFC5837E
:10104300C0E0E518C3958224F310AF0885831985A2
:1010530082188008858319858218D2AFC8F0A3E966
:10106300F0A3EAF0A3EBF0A37908E709F0A3D8FA19
:10107300ECF0A3EDF0A3EEF0A3EFF0A3D0E0F0A328
:10108300D0E0F0A3D0E0F0A3E520F0A3E5F0F0A3D7
:1010930022851983851882E0C0E0A3E0F9A3E0FA72
:1010A300A3E0FBA37808E0F608A3DFFAE0FCA3E0E3
:1010B300FDA3E0FEA3E0FFA3E0C0E0A3E0C0E0A344
:1010C300E0F5D0A3E0F520A3E0A3F5F010AF088589
:1010D30083198582188008858319858218D2AFD039
:1010E30082D083D0E0F8D0E03212175418181812C7
:1010F3000EF412189A1919192212189A19191908A3
:101103000808E618181820E7E0120EF4121754180E
:10111300181822090909E719191920E7DC08080832
:10112300E618181820E703020EF4121754181818BB
:10113300120EF412175418181812189A19191922A2
:1011430012199BB90003021182E49003D9786179E3
:101153001B8002F0A3D8FCD9FA7A397B1E90008653
:1011630078C079018015E493A3AD82AE838A828B24
:1011730083F0A3AA82AB838D828E83D8E9D9E775E6
:1011830082D17583C274071215E07582B975833AEB
:1011930074001215E075F0108E1A8F1B85821F855F
:1011A300831E851882851983E0CEA3E0CF851F8235
:1011B300851E83EBC9EAC8EDCBECCAC3E833C8E9A3
:1011C30033C9EA33CAEB33CBC3EA9EF51DEB9FF574
:1011D3001CB35004AB1CAA1DEC33CCED33CDD5F0BE
:1011E300DAAE1AAF1B221218FB601C12190A601721
:1011F3001219B970071219B07001D322C0D0121995
:10120300B07006D0D0B322C32233D0D0501430E014
:10121300F6C3E7960809E7960809E7960809E796EB
:10122300B32220E0D5E6970809E6970809E6970870
:1012330009E697B3221218FB601B12190A601612F3
:1012430019B970071219B0600CB322C0D01219B0CB
:101253007005D0D022C32233D0D0501330E0EBC37B
:10126300E7960809E7960809E7960809E796222012
:10127300E0E4E6970809E6970809E6970809E69780
:1012830022D083D082ECC0E0EDC0E0E493A3FCE481
:1012930093A3FDED4C600D12139CEC24FFFCED3485
:1012A300FFFD80EFE493A3FCE493A3FDED4C600DFD
:1012B3001214A3EC24FFFCED34FFFD80EFD0E0FD1E
:1012C300D0E0FCE493A3C0E0E493C0E022D083D059
:1012D30082E9C0E0E493A3C386F0C5F095F0F90872
:1012E300E493A386F0C5F095F0700BE493A3C39940
:1012F3004005E9048002A3E475F002A42582F58287
:10130300E5F03583F583D0E0F9E493A3C0E0E493FB
:10131300C0E022851983851882E0A3FEE0A3F520AF
:101323007808E0A3F608DFFAE0A3FFE0A3C0E0E05B
:10133300A3C0E0E0A3C0E0E0A3C0E0E0A3C0E010EE
:10134300AF088582188583198008858218858319DB
:10135300D2AFD083D0820215E6851983851882E047
:10136300A3FEE0A3F5207808E0A3F608DFFAE0A3E4
:10137300FFE0A3C0E0E0A3C0E0E0A3C0E0E0A3C0BF
:10138300E010AF0885821885831980088582188547
:101393008319D2AFD083D08222C0E0C3E4939608EE
:1013A3007401939618400FE49366700808740193D0
:1013B300661870007019A3A3C3E49396087401938D
:1013C3009618A3A3400DD0E0D0E0D0E00212C0A352
:1013D300A3A3A3A3A3D0E022C0E074F2121035C2EA
:1013E300D9901E73E0C39400A2D265D0334005E0C8
:1013F300F91223D97F01021094C0E074F212103560
:10140300C2DC901E75E0F9C39400A2D265D03340CC
:10141300031223D980DE7404800474028000CCC0DC
:10142300E0EDC0E0E518C39CCCAD1950011D10AF31
:10143300068C188D1980068C188D19D2AF1215627F
:10144300D0E0FDD0E0FC2274028000CCC0E0EDC00F
:10145300E0E518C39CCCAD1950011D10AF068C18E4
:101463008D1980068C188D19D2AF12151ED0E0FD90
:10147300D0E0FC221218FB602512190A6020121911
:10148300B970030219B0080808E76670101819E765
:1014930066700A1819E76670041819E76622F422C1
:1014A300C0E0C0F088F0E4936670080874019366A6
:1014B300187000A8F0A3A3700BD0F0D0E0D0E0D058
:1014C300E00212C0A3A3D0F0D0E022D083D082CC1C
:1014D300C0E0E493A360061215A21470FAE493A388
:1014E30060061216E61470FAD0E0FCE493A3C0E0A1
:1014F300E493C0E022C008C3E096F50808A3E09691
:10150300420808A3E096420808A3E0964208A2D244
:1015130065D033E5087001D3D00822CAC0E0E49354
:10152300A3C582CCC582C583CDC583F0A3C582CCB8
:10153300C582C583CDC583DAE5D0E0CA22A2E7928E
:10154300D65002F40430F70663F0FF05F0B340030E
:1015530084800384F40430D60563F0FF05F022CAC7
:10156300C0E0E0A3C582CCC582C583CDC583F0A30B
:10157300C582CCC582C583CDC583DAE6D0E0CA2255
:101583007009080808226016181818C6C333C6085D
:10159300C633C608C633C608C633C6D5E0EA22C07A
:1015A300E0E493A3D39C5010E493A3C39C400AD0DC
:1015B300E0D0E0D0E00214EBA3A3A3D0E022C00864
:1015C300C3E096F50808A3E096420808A3E0964214
:1015D3000808A3E09645087001D3D00822C09FF500
:1015E3009FE473D09F22D083D082C09FE493C0E056
:1015F300740193C0E0740293F59F227404800A740B
:10160300038006740280027401C0E0F404121634ED
:10161300D0E01219462200C0D0251810AF08F518E3
:10162300500C05198008F51850020519D2AFD0D017
:10163300222518F58210AF08F518400C15198008FB
:10164300F51840021519D2AF85198322C0E0C0D026
:10165300E8C0E0A8A8D2AFC2C7E8A2E792AFD0E043
:10166300F8D0D0D0E032BB0102E722C082C0838928
:10167300828A83BB0003E08002E493D083D082227A
:101683006017080808C6A2E713C618C613C618C60B
:1016930013C618C613C6D5E0E9226016080808C6A3
:1016A300C313C618C613C618C613C618C613C6D5A1
:1016B300E0EA222518F8E43519F9222518FAE43569
:1016C30019FB222518FCE43519FD22C3E0C696F662
:1016D30008A3E0C696F608A3E0C696F608A3E0C6FC
:1016E30096F622C0E0E493A36C7009D0E0D0E0D07A
:1016F300E00214EBA3A3D0E022251810AF08F518DD
:10170300400C15198008F51840021519D2AF22E0D4
:1017130066701008A3E066700A08A3E06670040808
:10172300A3E06622C3E09608A3E09608A3E0960828
:10173300A3E096A2D265D03322E76670100809E7CA
:1017430066700A0809E76670040809E76622181834
:1017530018E4C396F608E496F608E496F608E496C9
:10176300F622C3E493960874019396087402939641
:10177300087403939622181818E60846087009E6B9
:1017830026087005E633F4220822191919E70947D8
:10179300097009E727097005E733F4220922C3E03A
:1017A30096F008A3E096F008A3E096F008A3E0966D
:1017B300F022C3E697F60809E697F60809E697F6D6
:1017C3000809E697F622E026F008A3E036F008A31E
:1017D300E036F008A3E036F022E657F60809E657AC
:1017E300F60809E657F60809E657F622E026F60852
:1017F300A3E036F608A3E036F608A3E036F622E6C1
:1018030027F60809E637F60809E637F60809E63742
:10181300F622E056F608A3E056F608A3E056F608CB
:10182300A3E056F622E493F608740193F6087402D3
:1018330093F608740393F622E647F60809E647F69B
:101843000809E647F60809E647F622700422600D08
:1018530018C6C333C608C633C6D5E0F41822E0461B
:10186300F008A3E046F008A3E046F008A3E046F042
:1018730022E667F60809E667F60809E667F6080947
:10188300E667F622E056F008A3E056F008A3E05618
:10189300F008A3E056F022E4C397F709E497F709A9
:1018A300E497F709E497F722600D08C6A2E713C689
:1018B30018C613C6D5E0F322C6F4C608C6F4C60894
:1018C300C6F4C608C6F4C622C3E09608A3E0960889
:1018D300A3E09608A3E09622C3E7960809E79608D3
:1018E30009E7960809E7962275D00075813F7518B8
:1018F300D975190300021143E6084608C3134608C5
:10190300336002E633F422E7094709C31347093377
:101913006002E733F422600C08C6C313C618C6136B
:10192300C6D5E0F422E6F008A3E6F008A3E6F00843
:10193300A3E6F022E0F608A3E0F608A3E0F608A386
:10194300E0F622CAC0E0E6F0A308DAFAD0E0FA2211
:10195300E0FCA3E0FDA3E0FEA3E0FF22EAF0A3EB9B
:10196300F0A3ECF0A3EDF022E0FAA3E0FBA3E0FC8C
:10197300A3E0FD22E8F0A3E9F0A3EAF0A3EBF02251
:10198300ECF0A3EDF0A3EEF0A3EFF022E0F8A3E078
:10199300F9A3E0FAA3E0FB22E5C754F84401F5C735
:1019A3007901222518F582E43519F58322E72719F1
:1019B300471947194722E62618461846184622C2F1
:1019C300AF75D69F020000221215E976D7071215CC
:1019D300E9D6BE071215E911BF071215E96DBF0756
:1019E3001215E9C5BF071215E94CC0071215E9889E
:1019F300C0071215E9BBDC071215E9CBDC0712158A
:101A0300E9FC94071215E95F95071215E9AE9507EE
:101A13001215E9DB95071215E93196071215E9F45A
:101A2300DB071215E9CEB5071215E918B60712152B
:101A3300E9AEB6071215E934B7071215E965B7071A
:101A43001215E97DB7071215E9F1B7071215E90772
:101A5300B8071215E91AB8071215E924B8071215C1
:101A6300E99BA3061215E93BA7061215E96DA70624
:101A73001215E999A7061215E940A8061215E9CD32
:101A8300A9061215E93EF4031215E9A1F403121590
:101A9300E95EF5031215E919F6031215E955F70383
:101AA3001215E97CF8031215E9B1F9031215E9B926
:101AB300FB031215E9ECFB031215E952FC031215A3
:101AC300E984FC031215E904FE031215E986FE03FB
:101AD3001215E99AFE031215E910FF031215E944E2
:101AE300F7021215E9BBF9021215E91CFB021215E4
:101AF300E923FD021215E984E6061215E9B0E606AC
:101B03001215E921E9061215E961E9061215E9A1A1
:101B1300E9061215E9B5E9061215E9CEE90612152B
:101B2300E9BFEA061215E964EB061215E978EB063C
:101B33001215E917CE071215E93BCE071215E95422
:101B4300CE071215E986CE071215E9B6CE07121590
:101B5300E9E3CE071215E945CF071215E954CF077C
:101B63001215E95ECF071215E96BCF071215E93895
:101B7300B3071215E958B3071215E997B3071215FE
:101B8300E9B2B3071215E9D1B3071215E937B40760
:101B93001215E940B4071215E99DB4071215E9C1FE
:101BA300B4071215E982B5071215E98FB5071215A7
:101BB300E9A0B5071215E9B6FF041215E9CEFF0433
:101BC3001215E9FAFF041215E9A4F5061215E9FA4C
:101BD300F6061215E908F7061215E91BF7061215A2
:101BE300E930F7061215E945F7061215E958F70625
:101BF3001215E9CCF7061215E931F8061215E9D3E7
:101C0300F8061215E997F9061215E9A7F906121550
:101C1300E9B6F9061215E996D8071215E9BAD807F5
:101C23001215E9E2D8071215E90AD9071215E9C115
:101C3300D9071215E9B3BC071215E9DABC07121567
:101C4300E9F8BC071215E96BBD071215E997AA0756
:101C53001215E9B0AA071215E9BCAA071215E9D0B3
:101C6300AA071215E9EEAA071215E9F8AA07121531
:101C7300E902AB071215E915AB071215E99FAB078C
:101C83001215E914AC071215E948AC071215E996C9
:101C9300AC071215E9E3AC071215E9FEAC07121500
:101CA300E908AD071215E92EAD071215E993AD0743
:101CB3001215E92AFF031215E94CFF031215E9E592
:101CC300FF051215E90080061215E92A8006121590
:101CD300E94780061215E95A80061215E970800655
:101CE3001215E9CE80061215E90681061215E9FEE2
:101CF30084061215E94386061215E976860612153F
:101D0300E9D986061215E95288061215E97A88067A
:101D13001215E98F88061215E99F88061215E9E363
:101D230088061215E93E89061215E94E8906121531
:101D3300E9C57E001215E9DF7E001215E9077F0071
:101D43001215E9207F001215E9447F001215E9629C
:101D53007F001215E9797F001215E9A77F0012159C
:101D6300E9C27F001215E932DB071215E906A40761
:101D73001215E916A4071215E91BA5071215E94D5B
:101D8300A5071215E973A5071215E996A5071215FC
:101D9300E9ADA5071215E9E7A5071215E94CA60752
:101DA3001215E98EA6071215E9CDA6071215E9FE4D
:101DB300A6071215E935A7071215E9A7C5061215D7
:101DC300E97DC6061215E9A8C6061215E9C5C606B9
:101DD3001215E9C0C7061215E902C8061215E97003
:101DE300C8061215E9C2C8061215E92AC906121552
:101DF300E90CCA061215E9E5CA061215E9F19807B6
:101E03001215E94699071215E99899071215E9D9A8
:101E130099071215E9EC99071215E9249A07121587
:101E2300E98B9A071215E9219B071215E99EF7041E
:101E33001215E9C9F7041215E994F8041215E9DB40
:101E4300F8041215E96CF9041215E9E5FC041215FE
:101E5300E958FE041215E976C8041215E9BCC80452
:101E63001215E9D6C9041215E9FCC9041215E9D003
:101E7300CC041215E9F9CD041215E9A2D104121507
:101E8300E90CD2041215E9A9D2041215E9FCD20413
:101E93001215E9C0D3041215E910D4041215E9424E
:101EA300D4041215E945D4041215E955D4041215C6
:101EB300E967D4041215E9ACD4041215E94FD6042A
:101EC3001215E9BCD6041215E907D7041215E9A3C4
:101ED300D7041215E92FD8041215E901DA041215F3
:101EE300E9A8DB041215E947DC041215E95EDE04F8
:101EF3001215E93CDF041215E9ECE0041215E93A86
:101F0300CB071215E954CB071215E996CB07121527
:101F1300E9C9CB071215E9E3CB071215E9FCCB0797
:101F23001215E954CC071215E97BCC071215E98E7B
:101F3300BF061215E9C4BF061215E90EC006121535
:101F4300E962C0061215E932C1061215E968C10635
:101F53001215E995C1061215E9E7C1061215E9053F
:101F6300C2061215E929C2061215E9ABC2061215FB
:101F7300E935C3061215E966C3061215E9ACC306B3
:101F83001215E9CAC3061215E9F8C3061215E91CAE
:101F9300C4061215E952C4061215E9B1C406121596
:101FA300E9D3C4061215E932C5061215E96BC50655
:101FB3001215E979C5061215E97E89061215E9B8E5
:101FC30089061215E9F38A061215E9468C061215DD
:101FD300E9C692061215E9CED6061215E9B7D70659
:101FE3001215E9F8D7061215E9A7D8061215E97DE7
:101FF300D4071215E9EED4071215E951D5071215C6
:10200300E9C4F5051215E9E3F6051215E9F1F7053B
:102013001215E938F9051215E990F9051215E9D5F4
:10202300F9051215E9E3F9051215E913FA05121575
:10203300E9AAFA051215E947FB051215E953FC0550
:102043001215E9EBFD051215E96EFF051215E9B648
:102053009C071215E98F9D071215E9CB9D071215F1
:10206300E9F49D071215E9C99F071215E98AF006DD
:102073001215E9A7F0061215E9ECF0061215E9228C
:10208300F1061215E9D9F1061215E97AF3061215CC
:10209300E9E7F3061215E944F5061215E919A50552
:1020A3001215E91DA6051215E996A6051215E9B341
:1020B300A7051215E9FFA7051215E972AB0512155D
:1020C300E9BAAB051215E989AC051215E9D3AC05DC
:1020D3001215E93CAD051215E981AD051215E9D3D9
:1020E300AD051215E925AE051215E97EAE051215EB
:1020F300E9E1AE051215E94FAF051215E9A4AF05E5
:102103001215E999B0051215E9FEB0051215E9D1CA
:10211300B1051215E921C8071215E95EC8071215A2
:10212300E983C8071215E99FC8071215E9B4C80760
:102133001215E90080071215E90F81071215E9B797
:1021430081071215E9B182071215E9D28207121528
:10215300E9EC82071215E98E83071215E9BF83079D
:102163001215E93F84071215E9EC92061215E94EA0
:1021730093061215E9E293061215E97695061215F0
:10218300E9B798061215E9CD98061215E98F990655
:102193001215E9B3CC071215E9D3CC071215E9E7F9
:1021A300CD071215E9EACD071215E917D207121563
:1021B300E94DD2071215E967D2071215E9A9D2072B
:1021C3001215E9B9D2071215E953D3071215E95FBE
:1021D300B2061215E969B2061215E9A3B206121581
:1021E300E90CB3061215E929B3061215E9CBB306B8
:1021F3001215E9D4B3061215E919B4061215E9420A
:10220300B4061215E94FB4061215E9C0B406121547
:10221300E94BB5061215E999B5061215E9D7B506C6
:102223001215E93CB6061215E95FB6061215E9D692
:10223300B6061215E92DB7061215E968B706121589
:10224300E99DB7061215E9AFB7061215E9C1B7063E
:102253001215E9E0B7061215E9E9B7061215E9A464
:10226300B8061215E9F0B8061215E92EB9061215CB
:10227300E9C6D0071215E906D2071215E9BCDB0738
:102283001215E9D8DB071215E98DA7071215E9D155
:10229300A7071215E919A8071215E9FFA9071215CF
:1022A300E98EAA071215E979FF011215E9008005E5
:1022B3001215E92481051215E95E81051215E90855
:1022C30083051215E93283051215E9A78505121551
:1022D300E9E785051215E97D87051215E91A8805D1
:1022E3001215E96C88051215E90F89051215E947DE
:1022F30089051215E98989051215E9F88A05121568
:10230300E9468C051215E9778E051215E9A58E05A8
:102313001215E9CC8E051215E9D58E051215E9259E
:102323008F051215E9B78F051215E9E69205121507
:10233300E96993051215E97DDC071215E993DC07BA
:102343001215E9FC8C071215E9128D071215E9B66F
:102353008D071215E9F58D071215E9128E0712156F
:10236300E9438E071215E9908E071215E9C38E070C
:102373001215E9FE8E071215E9F390071215E9B25B
:10238300CB061215E958CD061215E999CE0612159A
:10239300E9B1CE061215E9C188071215E9F88907D4
:1023A3001215E9578B071215E9C99B061215E9F2B5
:1023B3009C061215E9F19D061215E9359F061215C3
:1023C300E954A0061215E926A1061215E9D6C0079D
:1023D3001215E9A4C1071215E9B693051215E97B95
:1023E30094051215E98694051215E937950512151A
:1023F300E99695051215E97C97051215E9EC970501
:102403001215E9F199051215E92A9A051215E9D36E
:102413009C051215E9FB9C051215E97D9D05121516
:10242300E9F89D051215E95B9F051215E9B89F05AB
:102433001215E936A0051215E9F7A4051215E9EFFF
:10244300F9061215E916FA061215E924FC06121507
:10245300E94BFC061215E9A0FC061215E96EFD0610
:102463001215E9E6FD061215E988BA071215E9A067
:10247300BA071215E99FBB071215E9A6BB07121588
:10248300E9CFBB071215E98FD7071215E9EED70776
:102493001215E92CD8071215E96DD8071215E9753D
:1024A300E1061215E99BE1061215E9DBE2061215B6
:1024B300E9D0E3061215E9F7E3061215E990E406FD
:1024C3001215E9E4E4061215E9FFE5061215E95AC7
:1024D300B9061215E9FCB9061215E91CBB0612155B
:1024E300E96EBC061215E92CBE061215E9FDCB05F3
:1024F3001215E951CC051215E97BCD051215E9A793
:10250300CE051215E995CF051215E931D20512153D
:10251300E9E8D3051215E933D4051215E941D605C7
:102523001215E973A0071215E9C0A0071215E943B4
:10253300A1071215E9CFA3071215E975CF071215E5
:10254300E9EFCF071215E90AD0071215E970C6079C
:102553001215E973C7071215E9DBC7071215E9B9A5
:10256300C4071215E904C5071215E954C507121566
:10257300E96FC5071215E9B3C9071215E90ECA07B2
:102583001215E90ACB071215E937B8071215E9A0A6
:10259300B8071215E916B9071215E931B90712156B
:1025A300E979FF051215E9B8FF051215E926DC06DE
:1025B3001215E99CDD061215E9CCDD061215E99B1F
:1025C300DE061215E912DF061215E990DF06121571
:1025D300E96FE0061215E9DCFF031215E9EFFF03CB
:1025E3001215E95DD3071215E96CD3071215E9CC6F
:1025F300D3071215E9E1FF021215E9E7FF021215ED
:10260300E9EDFF021215E90080041215E90C8004BC
:102613001215E96E80041215E97880041215E90B8E
:1026230081041215E94781041215E9038204121586
:10263300E91682041215E96682041215E9D08204B0
:102643001215E93583041215E96B83041215E9EDBC
:1026530083041215E99C85041215E9708704121589
:10266300E95688041215E9A889041215E9FE8B04BA
:102673001215E9678D041215E9048E041215E9ACED
:1026830092041215E99A93041215E9389404121569
:10269300E96494041215E90095041215E9159504EB
:1026A3001215E93995041215E99F95041215E9BC31
:1026B30095041215E9E695041215E96397041215BA
:1026C300E98497041215E90A98041215E9B09804ED
:1026D3001215E9F798041215E96A99041215E9F637
:1026E30099041215E95A9A041215E9BA9A041215B3
:1026F300E9509B041215E9CB9B041215E9FE9B04D8
:102703001215E9609C041215E9C29D041215E93201
:102713009E041215E9E19E041215E937A00412156F
:10272300E9CFA0041215E93BA1041215E97EA30425
:102733001215E90AA5041215E935A5041215E91BBA
:10274300A7041215E9B1A8041215E9BAA9041215D0
:10275300E9AFBF051215E967C0051215E96EC1059A
:102763001215E9ECC1051215E925C3051215E94651
:10277300C3051215E944C4051215E9EFC405121582
:10278300E947C8051215E972CA051215E978DB078E
:102793001215E9CAD6031215E925D7031215E9AFB5
:1027A300D7031215E920D9031215E9F8D903121535
:1027B300E9E1DA031215E9F8DA031215E94ADB0352
:1027C3001215E9AEDB031215E9EFDB031215E9027B
:1027D300DC031215E958DC031215E9B1DC03121509
:1027E300E9C9DC031215E956DF031215E9EBDF0330
:1027F3001215E915E0031215E95EE0031215E94E1F
:10280300E2031215E9B8E2031215E98CE30312158A
:10281300E9CFE3031215E9E9E3031215E930E40311
:102823001215E952E4031215E9FCE4031215E9F465
:10283300E5031215E94EE6031215E99FE6031215A7
:10284300E937E8031215E9AFEA031215E92DEB03A3
:102853001215E95AEB031215E9CDEB031215E9F052
:10286300EB031215E96AEC031215E935ED031215B2
:10287300E972ED031215E9D4ED031215E995EE03A0
:102883001215E998EE031215E9A2EE031215E9AC4D
:10289300EE031215E9BFEE031215E931EF0312152A
:1028A300E95AEF031215E96DEF031215E999EF03E6
:1028B3001215E9C0EF031215E9E4EF031215E91F3E
:1028C300F0031215E991F0031215E9B9F00312159B
:1028D300E9FAF0031215E92FF1031215E94FF10399
:1028E3001215E98CF1031215E9C3F1031215E9C3BB
:1028F300F2031215E9F6F3031215E90CF4031215AA
:10290300E987DA071215E99FDA071215E9F87F005C
:102913001215E95FAB061215E9AEAB061215E94EC7
:10292300AD061215E909AF061215E94BAF061215EC
:10293300E9F8B0071215E93EB1061215E960B106D0
:102943001215E9AAB1061215E92BB2061215E92EE2
:10295300D8021215E951D8021215E944D902121509
:10296300E98DD9021215E9E5D9021215E943DA0214
:102973001215E98FDA021215E905DB021215E99146
:10298300DB021215E906DC021215E949DC02121515
:10299300E929E0021215E978E2021215E9ABE20235
:1029A3001215E922E3021215E953E6021215E9C8EA
:1029B300E6021215E953E8021215E960E90212155D
:1029C300E976EA021215E9ECEA021215E910D707D3
:1029D3001215E91CEC021215E91FEC021215E9FCB1
:1029E300EC021215E938EE021215E9F3EF021215A3
:1029F300E99FF1021215E991F2021215E921F3029E
:102A03001215E975F4021215E997F5021215E9EEAC
:102A1300F5021215E98BF6021215E927E2041215E5
:102A2300E9C7E2041215E931E3041215E9D8E30416
:102A33001215E937E4041215E9E3E4041215E98CED
:102A4300E7041215E9B2E8041215E936E904121590
:102A5300E913EB041215E9B8EB041215E95BEC0476
:102A63001215E9BAEC041215E973ED041215E9F233
:102A7300EE041215E9AFF0041215E930F204121551
:102A8300E98AF3041215E99AF4041215E940F504EE
:102A93001215E95FF6041215E9F5AD041215E96D97
:102AA300AE041215E9B5AE041215E9F9AE04121518
:102AB300E942AF041215E98CAF041215E9C1AF0462
:102AC3001215E93FB0041215E999B0041215E9F2A1
:102AD300B1041215E971B2041215E988B304121591
:102AE300E9AAB3041215E9B6B4041215E9C7B4048C
:102AF3001215E9DFB4041215E9FFB5041215E91C38
:102B0300B6041215E9EFB6041215E913B70412154A
:102B1300E92AB7041215E94BB7041215E96DB70496
:102B23001215E95FB8041215E9B7B8041215E92DB7
:102B3300BA041215E98BBA041215E9AABA041215DC
:102B4300E9DCBB041215E959BC041215E9C6BC043F
:102B53001215E906BD041215E968BD041215E9183A
:102B6300BE041215E9EABF041215E9D5C004121513
:102B7300E9CFC1041215E9D5C2041215E9F1C30462
:102B83001215E9FFC3041215E9D8C4041215E97834
:102B9300C5041215E9BCC5041215E9D1C504121503
:102BA300E9E2C6041215E985C7041215E9DDC70475
:102BB3001215E99EAD071215E9D7AE071215E99470
:102BC300AF071215E9F8AF071215E90091071215BF
:102BD300E91E91071215E96291071215E988910719
:102BE3001215E9AE91071215E9C691071215E9DE30
:102BF30091071215E9F691071215E9599207121573
:102C0300E99B92071215E9BD93071215E9C69307CD
:102C13001215E9CF93071215E9D893071215E9E2C4
:102C230093071215E90394071215E9678407121530
:102C3300E94788071215E95588071215E95A8807E5
:102C43001215E946C3071215E926DA071215E92C0E
:102C5300DC071215E973FE061215E99DDC07121550
:102C6300E90080021215E95780021215E9C38002B8
:102C73001215E94F81021215E90582021215E94D79
:102C830082021215E96682021215E989820212157F
:102C9300E9AB82021215E9E982021215E9388302CF
:102CA3001215E96383021215E9C183021215E9685B
:102CB30084021215E91085021215E98C850212159A
:102CC300E95986021215E9A086021215E9EC86027B
:102CD3001215E97487021215E9AD87021215E9038B
:102CE30088021215E91F88021215E94E880212158F
:102CF300E95A8A021215E9888B021215E9B48B028C
:102D03001215E9E88B021215E9098C021215E9186C
:102D13008C021215E9238C021215E9D28C021215CA
:102D2300E9428D021215E9CD8D021215E9D58D0206
:102D33001215E9428E021215E97E8E021215E9443C
:102D43008F021215E91790021215E96C9002121501
:102D5300E90B91021215E96591021215E9AA910294
:102D63001215E94394021215E98695021215E970CA
:102D730098021215E95499021215E9389A021215AC
:102D8300E9499A021215E9BB9A021215E9529B020C
:102D93001215E9B79B021215E9A79C021215E9CC9B
:102DA3009C021215E9EA9C021215E9069D0212150E
:102DB300E9799D021215E9889D021215E9109E0218
:102DC3001215E90D9F021215E91A9F021215E92344
:102DD3009F021215E905A1021215E927A202121595
:102DE300E937A2021215E965A3021215E9E4A30269
:102DF3001215E9FFA4021215E93BA5021215E91504
:102E0300A7021215E9D2AA021215E9E6AA021215BF
:102E1300E9F0AA021215E9FAAA021215E904AB02B3
:102E23001215E91DAB021215E927AB021215E9943D
:102E3300AB021215E99FAB021215E9C7AB021215DB
:102E4300E9D2AB021215E937AC021215E942AC0222
:102E53001215E966AC021215E98AAC021215E9FCF7
:102E6300AC021215E945AD021215E961AD02121566
:102E7300E9D2AD021215E91EAE021215E967AE02E0
:102E83001215E9A5AE021215E926AF021215E9CD16
:102E9300AF021215E99CB1021215E901B202121533
:102EA300E92FB3021215E955B3021215E99DB402D5
:102EB3001215E9D7B7021215E9D5B9021215E9A01F
:102EC300BB021215E939BC021215E93ABE0212150A
:102ED300E9EFBE021215E928BF021215E98EBF02FF
:102EE3001215E998BF021215E9C1C1021215E900D2
:102EF300C3021215E957C3021215E902C4021215DF
:102F0300E9B2C5021215E9FFC6021215E91FC7028D
:102F13001215E974C7021215E975C8021215E99D65
:102F2300C8021215E9FCC8021215E9F4C902121508
:102F3300E96BCA021215E97ECB021215E9ECCB024A
:102F43001215E9EBCC021215E945CF021215E96E11
:102F5300CF021215E9D4D0021215E956D202121586
:102F6300E9ADD2021215E95BD3021215E900D402CE
:102F73001215E959D4021215E917D5021215E9A958
:102F8300D5021215E908D6021215E94AD60212151E
:102F9300E97BD6021215E9D2D7021215E9008003A4
:102FA3001215E93280031215E96B80031215E92922
:102FB30082031215E9FF82031215E95E83031215DA
:102FC300E97484031215E9C084031215E94E8703DB
:102FD3001215E9288A031215E96F8B031215E90705
:102FE3008C031215E9138C031215E95C8C0312157B
:102FF300E99E8D031215E9948E031215E9BE8E0323
:103003001215E9148F031215E96D8F031215E9E008
:103013008F031215E91692031215E99893031215FB
:10302300E98394031215E9CD95031215E905980375
:103033001215E9029B031215E9119B031215E9A569
:103043009B031215E9509C031215E9939C03121577
:10305300E9DC9C031215E92C9D031215E9909D03ED
:103063001215E9029E031215E91E9E031215E94D7E
:103073009E031215E98C9E031215E9879F0312150F
:10308300E936A0031215E9B3A2031215E9E5A30378
:103093001215E9BDA4031215E93FA5031215E9743E
:1030A300A9031215E981A9031215E9B0A9031215A1
:1030B300E90BAA031215E93EAA031215E9B6AA03FE
:1030C3001215E9E9AA031215E94AAB031215E99AA5
:1030D300AB031215E967AC031215E920AD03121512
:1030E300E9E4AD031215E95EB0031215E9C0B103BB
:1030F3001215E911B3031215E935B4031215E938B2
:10310300B4031215E967B4031215E95FB603121588
:10311300E91EB7031215E94DB7031215E96BB8039E
:103123001215E933B9031215E9F1BA031215E923AC
:10313300BB031215E965BB031215E964BC03121541
:10314300E9D7BC031215E900BF031215E95FBF03FA
:103153001215E9B3BF031215E9E2C1031215E9C55C
:10316300C2031215E981C3031215E995C3031215AE
:10317300E9A9C3031215E9D6C3031215E906C4036B
:103183001215E9C1C5031215E9D3C6031215E928BF
:10319300C7031215E971C7031215E998C70312157E
:1031A300E960C8031215E906C9031215E98CCA03BD
:1031B3001215E9D3CA031215E945CB031215E99A8F
:1031C300CC031215E943CD031215E977CD0312158C
:1031D300E98FCD031215E932CE031215E9AED00300
:1031E3001215E956D2031215E974D2031215E992A6
:1031F300D2031215E95ED3031215E9ACD6031215F7
:10320300E93986011215E97186011215E9718B01FD
:103213001215E9B78B011215E9ED8C011215E9526C
:103223008D011215E9C78E011215E9D1910112150D
:10323300E9FA92011215E90D9D011215E99D9D010F
:103243001215E987A0011215E994A1011215E9F7F6
:10325300A1011215E93FA3011215E9ADA50112154C
:10326300E93FA7011215E9CCA7011215E9EBA80163
:103273001215E978A9011215E982A9011215E9AA23
:10328300A9011215E94AAA011215E935AB01121574
:10329300E902AC011215E91FAC011215E948AC01B2
:1032A3001215E975AC011215E9BCAE011215E98BD3
:1032B300AF011215E9CAAF011215E94CB00112159D
:1032C300E9EDB0011215E91FB1011215E966B1016B
:1032D3001215E999B1011215E9DDB1011215E92CB5
:1032E300B2011215E931B2011215E98DB2011215BD
:1032F300E9D1B2011215E9ABB3011215E910B4011A
:103303001215E976B4011215E9F1B4011215E95960
:10331300B8011215E95CB9011215E9DABA011215FF
:10332300E9F0BD011215E992BE011215E9DBC001F6
:103333001215E996C1011215E9D5C1011215E9ADBE
:10334300C3011215E9CAC3011215E9D3C30112154A
:10335300E9DCC3011215E9E7C3011215E906C4014B
:103363001215E9AAC5011215E907C6011215E911DB
:10337300C6011215E91BC6011215E97AC601121519
:10338300E9C4C6011215E9C5C7011215E91CC80134
:103393001215E92DC9011215E976C9011215E93093
:1033A300CA011215E947CB011215E91CCC0112150C
:1033B300E963CD011215E967CE011215E960CF016A
:1033C3001215E978CF011215E9AFCF011215E9B94A
:1033D300CF011215E9C3CF011215E9CECF011215A2
:1033E300E9ECCF011215E934D0011215E992D001AD
:1033F3001215E9B9D0011215E9CBD0011215E980F4
:10340300D1011215E9B9D1011215E9DBD201121567
:10341300E92ED3011215E914D4011215E93BD401A5
:103423001215E9ABD4011215E927D5011215E98369
:10343300D6011215E9AAD7011215E96CD8011215A4
:10344300E93AD9011215E9F8D9011215E9E0DA01CF
:103453001215E98ADB011215E9F2DB011215E9A75E
:10346300DC011215E903DD011215E95BDD0112151B
:10347300E921DE011215E944DE011215E9FFDE013F
:103483001215E921DF011215E982DF011215E9B2F4
:10349300E1011215E9ABE2011215E957E301121537
:1034A300E978E5011215E9C1E5011215E90CE60118
:1034B3001215E968E6011215E9C6E6011215E9EAF3
:1034C300E6011215E90EE7011215E943E7011215AA
:1034D300E96BE7011215E9B0E7011215E904E80108
:1034E3001215E95DE8011215E957E9011215E9F52D
:1034F300EA011215E93AEB011215E963EB01121522
:10350300E9ECEB011215E95FEC011215E96DEC0131
:103513001215E991EC011215E9E7EC011215E90224
:10352300ED011215E9BDED011215E9E9ED011215E1
:10353300E92CEE011215E98FEE011215E99DF00158
:103543001215E9C9F0011215E984F1011215E968B0
:10355300F2011215E9FCF2011215E97DE1051215DC
:10356300E9B5E1051215E9D6E1051215E918E205F9
:103573001215E97CE2051215E986E2051215E996B2
:10358300E2051215E9CDE2051215E976E6051215F5
:10359300E93EE8051215E922EA051215E9C4EA0530
:1035A3001215E94EEB051215E90C45001215E9B5A4
:1035B30045001215E99446001215E9A047001215BB
:1035C300E9C047001215E9E248001215E9924A00E2
:1035D3001215E9FF4A001215E9D04B001215E9D67E
:1035E3004C001215E94E4D001215E9894D001215D4
:1035F300E9E24D001215E91D4E001215E9664E0071
:103603001215E9FA4E001215E9904F001215E965FB
:1036130050001215E93851001215E9C65100121570
:10362300E9EC51001215E91952001215E94A52004A
:103633001215E91753001215E92753001215E97AF9
:1036430053001215E98753001215E994530012151C
:10365300E99D53001215E90154001215E95F540066
:103663001215E9AA54001215E9C554001215E9EC24
:1036730054001215E90955001215E91555001215E4
:10368300E9A656001215E9BF56001215E93B57008B
:103693001215E94E57001215E95E57001215E9029B
:1036A30058001215E96E59001215E9815A001215D6
:1036B300E9215B001215E92B5B001215E9AA5B00F7
:1036C3001215E9BB5B001215E9FA5B001215E92834
:1036D3005C001215E9F55C001215E94C5D0012154A
:1036E300E9855D001215E9DB5D001215E9F95D005E
:1036F3001215E9475E001215E9125F001215E96021
:103703005F001215E9AD5F001215E9306000121574
:10371300E95A60001215E99060001215E99F6000F4
:103723001215E9FE60001215E97661001215E9B77A
:1037330061001215E90762001215E93262001215E1
:10374300E94C62001215E96662001215E93B630059
:103753001215E94563001215E98063001215E9901B
:1037630063001215E9E163001215E9F56300121510
:10377300E91765001215E92C65001215E9BF65000C
:103783001215E93366001215E9D866001215E9E34C
:1037930066001215E94668001215E9626800121501
:1037A300E9AE68001215E91C69001215E94E6900BB
:1037B3001215E96869001215E9C869001215E9676D
:1037C3006A001215E9B26A001215E9056D001215B7
:1037D300E99D6D001215E9146E001215E971700070
:1037E3001215E98970001215E98C70001215E99819
:1037F30070001215E9AC70001215E9B470001215CF
:10380300E9EB70001215E9DF71001215E969720026
:103813001215E9EB72001215E96B73001215E942F8
:1038230074001215E96474001215E9FD7400121591
:10383300E95A75001215E95D75001215E9CC75009A
:103843001215E91877001215E92B78001215E9B65D
:1038530078001215E9C979001215E9907A0012155A
:10386300E9C17A001215E9E77A001215E9F07A0046
:103873001215E91F7B001215E9CF7B001215E97FB2
:103883007C001215E9F27C001215E9957D001215F2
:10389300E9087E001215E9477E001215E9907E00C3
:1038A3001215E96CB0071215E9D4FE011215E908E7
:1038B300FD011215E96EFC011215E9FEFB0112155B
:1038C300E994FA011215E916FA011215E9DDF90175
:1038D3001215E9A0F9011215E97AF9011215E97E29
:1038E300F6011215E9ACF5011215E98DD60712158B
:1038F300E9B7D9071215E9A7F4011215E9BDF301D8
:103903001215E951D9071215E93FD9071215E958DC
:10391300DC071215E96BD4061215E92CD306121530
:10392300E9A8D2061215E975D1061215E9D6BE0526
:103933001215E9FCBD051215E932BD051215E9A101
:10394300BB051215E96ABB051215E93CBB05121547
:10395300E9F0BA051215E959BA051215E9C9B9050D
:103963001215E9A3B9051215E958B9051215E9228B
:10397300B9051215E9A5B8051215E940B8051215E0
:10398300E9EFB7051215E917B7051215E987B6056B
:103993001215E93BB6051215E9B6B5051215E9711D
:1039A300B5051215E955B5051215E9FDB30512154F
:1039B300E92FD9071215E9CFB3051215E9CEDC07B4
:1039C3001215E90BDB071215E9DFDA071215E9F522
:1039D3007F001215E975D6071215E96AD607121585
:1039E300E95BD6071215E996D5071215E99CB305CD
:1039F3001215E920B3051215E9DEEE061215E939B1
:103A0300ED061215E985D5071215E947EC061215DF
:103A1300E98CEB061215E932E1051215E9D9E00547
:103A23001215E92FB2071215E9A4E0051215E9B33F
:103A3300EB021215E96FE0051215E93BE0051215DB
:103A4300E9CEDF051215E9B6DF051215E991DF05A9
:103A53001215E962DC051215E935DA051215E935A7
:103A6300D8051215E9BBD7051215E96CD705121550
:103A7300E926D7051215E9C8D6051215E9B6F305E7
:103A83001215E93BF3051215E9D3F1051215E95AAD
:103A9300F0051215E913B2071215E9E3ED05121546
:103AA300E968EC051215E90CEC051215E9FDEB05C7
:103AB3001215E934B00600000080FBE47300000037
:103AC3000020012F860000010020012F8600000244
:103AD3000020013786000003002001308600000427
:103AE3000042016D800000050042017E8000000657
:103AF300004201A080000007002001AB80000010FD
:103B03000042018F800000110020015A08000000CC
:103B1300404201A080000000804201EA81060000CB
:103B230000101100000700000030330000070010F0
:103B3300003033000007000140203300000700027B
:103B4300402033000008000000203300000C005523
:103B530000393300000C001C0042330000120055F2
:103B6300002101000014000E0042220000000400A6
:103B730000210400000204000029150000030400D2
:103B8300002904000005040000290400000C0400BF
:103B930000390400000D040000390400002A040069
:103BA3000039040000020700002904000002070096
:103BB3000218053586020700033005368602070121
:103BC30003220540850207020322054485020703F9
:103BD30003180132860207060318110000040B00C4
:103BE300001B052885040B000129150000040B03A5
:103BF3000129150000040B060129040000040B0031
:103C03000221052A86040B010221052886040B02E2
:103C13000221052A86040B030221052686040B04D0
:103C23000221052A86040B050221052C86040B00BC
:103C33000321040000040B000421052A86040B0160
:103C43000421051E86040B050521150000040B083D
:103C53000521150000040B0B0529040000040B10BB
:103C63000528040000040B000621052A86040B0125
:103C73000621052886040B020621052A86040B0368
:103C83000621052686040B040621052A86040B0556
:103C9300062105248600000000000001207D3A0073
:103CA3000102207D3A000103207D3A010004207DBA
:103CB3003A00010500D71F000006000000000007BE
:103CC30000A93801900800D3230000000000000081
:103CD300000A00000000000B20C72310000C02158F
:103CE3003900000D00000000000E207D3A10010F86
:103CF300207D3A10000000000000000000000000DA
:103D0300000000000000001300E724008000000012
:103D13000000001500F71D41001600F71D500017A5
:103D230001E72400801801000000801900392400F5
:103D3300001A00392400001B00C92410001C01F1E3
:103D43001A00011D01F11A00011E00632410031F54
:103D530001F93908002000EF2500002100233A0073
:103D6300002200511E10002300153900000000003E
:103D73000000000000000000002601A3231000271C
:103D830000000000002809912300002900A7251046
:103D9300002A707F1A00032B22C72310002C00D1A6
:103DA3002510002D02D12510002E00000000002F49
:103DB30000000000003000812410003101000000E9
:103DC3000032000000000033000000000034000057
:103DD300000000350000000000360000000000373E
:103DE30000000000003800000000003901F11A0053
:103DF300013A00000000003B00000000003C00000E
:103E03000000003D00000000008F000100051C873A
:103E1300000100C61E350004008A1E250002008E24
:103E23001E26000200901E27000200921E28000199
:103E3300009C1E290001009D1E840004009E1E8616
:103E4300000100A21E2A000100A31E2B000100A4F2
:103E53001E2C000100A81E2D000800ED1B2E0001E2
:103E630000A91E2F000100AA1E30000100AB1E3165
:103E7300000100AC1E32000100F51B33000100F607
:103E83001B34000100AD1E36000100F71B38000192
:103E930000AE1E39000100A71E83000200C41E638A
:103EA300000100021C64000100A51E65000100A6BC
:103EB3001E6D000100031C71000800E51B66000174
:103EC30000C31E43000100B41E44000200B51E459A
:103ED300000100B71E46000200B81E47000800FAA2
:103EE3001B48000100BA1E4B000100BB1E04000169
:103EF30000C71EA1000100CA1E37000100C91E88A9
:103F0300000100C81E3C000100F81B3D000100AF8A
:103F13001E49000200BC1E67000100041C4D000284
:103F230000BE1E4E000100C01E4F000200C11E3E17
:103F3300000100B31E51000100B01E52000100B188
:103F43001E53000100B21E54000100F91B000000C3
:103F530000000000013636010100010201000103E7
:103F630001000104010606050200000701003408F0
:103F730001000F090401010D0100FF0E08000017E5
:103F8300020000190100FF1A0100011B0100FE1CC1
:103F93000100081D0200001F010001200100012192
:103FA3000200002301000F24020000260100012764
:103FB300010008280200FF2A0100072B0102402C00
:103FC3000100002D0100012E0100012F0100FF302F
:103FD300010B1D310800003A0100083B01000F3CB2
:103FE3000100013D0100FF3E0400004204000046C1
:103FF3000400004A0400004E04000052040000566E
:104003000400005A0400006A0078008F2595259B60
:10401300256C00F0003B25412547256B00F000533C
:104023002559259B256600F000532559259B2567B7
:1040330000140065256B257125690014007725831D
:10404300257D25EE22E803FF241D251725640001A5
:10405300000000000035256300010000000000356A
:104063002562000100000000003525610001000009
:104073000000003525700001000000000035250117
:10408300037103010301030103010301032203027B
:1040930003010310030003000300030003000300F4
:1040A3000300034203000324030603000300030485
:1040B300031203250323032503230304030403003B
:1040C3000300030003440300030003230300036509
:1040D30003210035038103000305030003000300EC
:1040E3000300032503230303047104020460041182
:1040F30004700402040204010402041004610400B5
:104103000414046304730472046204430400041378
:104113000406040004000404041204000400040060
:104123000400045104640000040004000444040077
:1041330004000400040004650400043504810464DD
:10414300000504000483040004010171010101015D
:10415300011101010131010101010180011001611E
:10416300013B00140063017301720162014301000A
:1041730001130106013D0135000401120100010094
:10418300010001000104010401330133013C014436
:104193000132013600000100016501000135008193
:1041A3000100010501820183010001030271023054
:1041B3000160021102700201020202020280021077
:1041C3000261023A00410063027302720262024317
:1041D300020002130238000002000204021202006D
:1041E3000200020002000204020402370037003C0E
:1041F3000244020002390000020002650200023597
:10420300028102000205028202830200020300719E
:10421300003001600011007000310220035004805F
:10422300001000610000001400630073007200625C
:104233000043000000130006000000000004001209
:1042430000000000000000000004000400370037F5
:10425300003C024400000000000000000065000074
:1042630000350081000000050000008300000036D7
:10427300000100060000000F000000000000000025
:10428300000000000003FFFF00000403FFFF000025
:10429300FFFF0FF4010005C4040320000100000B1D
:1042A300000000000000000003010F0000000000F8
:1042B30000000000000000000000000000000000FB
:1042C30000000000000000000000000000FD26398F
:1042D300270327252609273F2709274B270F2725AC
:1042E3002609273F27152725261B2725262127258E
:1042F30026272725262D27252633272526000000B8
:1043030000000000000000000000000000000000AA
:10431300000000000000000000000000000000009A
:104323000000000000000000000000392A1300E52F
:10433300291F00EB291F80F1290100392A02006D92
:1043430029030073290400792905007F2906008BBE
:10435300293000A9293100A3293200B5293300BB34
:10436300293500C1293400C72936002F3A1100D955
:10437300291400DF2915009D29FFFF00000A000012
:10438300000200000004000000080000001000000C
:104393000020000000400000008000000000010039
:1043A30000000200000004000000080000001000EC
:1043B300000020000000400000013D320667320883
:1043C30061320B7F32104F2F0243320555320749BA
:1043D300320C25320D3132644B2DFF000007ECFD0A
:1043E300FDFDECDCDCCCBCACAC9C9C8C7C7C6C6CB8
:1043F3005C5C5C4C4C3C3C2C2C1C1C00160F0000E1
:104403000B150B020002220F3300000E5A6967429C
:104413006565416C6C69616E63653039010305073D
:10442300090B0D0F00020406080A0C0D140AE5D54A
:10443300C5B5A5A5958585756500011916181616C8
:1044430018230300303017181921301B1D1F30307B
:104453003016181920231A1C1E3000393D3F373CF3
:104463003C362C442D00034A49434E181A250502B5
:104473000C0E020B040B0A0708000F0204020101D1
:104483000101090200BE040AE8030000FA06000065
:104493000000E0430E00E8032F447F001E1E0510BA
:1044A300FF04040C04080C2800090903010C080587
:1044B30008150300FF03100A00E004124D3CA2E7B5
:1044C30092AF22E4F0A3F0A3F022A31244C6A3F018
:1044D300227F0C021316E0F508E4F509F50AF50B43
:1044E300227401F09004F4E0640F22740912161987
:1044F3007F04021316A3A3E024F5C39413229005AB
:104503001412702C7A147B0022C082C083901D2168
:104513007409F0A37436F0A3741BF0A37436F090FF
:104523001D2574F1F0A37435F0A374EBF0A3743577
:10453300F0A37427F0A37436F0A3742DF0A374369C
:10454300F0A37421F0A37436F0A374D9F0A37435E7
:10455300F0901D3174FDF0A37435F0A37403F0A340
:104563007436F0A374F7F0A37435F0A37433F0A397
:104573007436F0901D421265B96006126823122248
:104583009B901D3F125CE57408F0A3E4F0A3F09048
:104593001DE2F0901D44F07C0BFDF97A457B1D1262
:1045A30021E17C0B7D0079007A507B1D1221E10211
:1045B3005CEE74F7120F6374F71216FCEAFEEBFF5E
:1045C300125B0C74051246827403F0EE2402FAE4C3
:1045D3003F12465C242DFCE43FFD8C828D83124701
:1045E3009A12466B6008124EE474FFF0A3F0EE24B7
:1045F3002BE43F1C1CFD8C828D83A3E0C0E08A82E8
:104603008B83125B1DD0E012466B88828983126311
:10461300152403126DF612249974081219A6740353
:10462300F090050912141D74021216C67903EEFAEE
:10463300EFFB1237C57402121619E9F5087007EE7D
:10464300FAEFFB1236ABA9087409024EF4F582E4C3
:104653003FF583127A6112630AFB8A828B831246C7
:104663007AE8F0A3E9F0EE2212704A12467AE8F0F3
:10467300A3E91275C6E0221247658A828B8322F072
:10468300A3E4F012468A22EE240DF582E43FF5837B
:104693002274F1120F63EAFEEBFF8C088D09890A7D
:1046A30012476F8A828B83124765740F1219A61201
:1046B3004788E824FF18E934FFF988828983E50AEB
:1046C30012477A90050E12477790050D12477774BB
:1046D300111219A6124788EE2404FCE43FFD880B4F
:1046E3008A828B83E0F50C8C828D83E0250CC39545
:1046F3000B127046E8F0A3E9125A79A3A3A3A3A36C
:10470300A3A3A3E064037008125DD5F0A3E48003C0
:10471300124A7B1246857409F0750C45750D1D759B
:104723000E00780C121602124A6F1221D57403126E
:104733001619750CFF750DFF780C121606AC08AD33
:10474300097903EEFAEFFB1237C57402121619E961
:10475300F5087007EEFAEFFB1236ABA9087F0702E4
:104763001316E024FFF8A3E034FFF922EE2402FA43
:10477300E43FFB2212479A12477E22F0E824FF18F7
:10478300E934FFF922E0F50CA312479A12477E8819
:10479300828983E50CF022E08882898322C082C06B
:1047A30083901D61E0C39408400474078001E08A8C
:1047B300828B83F033333354F8F9025CEE74F012D6
:1047C3000F63EAFEEBFF890C8C0E8D0F750A00A2B6
:1047D300AFE433F50BC2AF901D5B803F1248A85086
:1047E300371248B964037030EE24F9FEEF34FFFF4B
:1047F300850882850983A3A3E02405FCA3E0340094
:10480300FDEEFAEFFB122499EE24FF1EEF34FFFFB7
:104813007410250AF50A150C125A46127A5DE50C36
:104823006006E508450970B4E50BA2E092AFA2AFBC
:10483300E433F50BC2AF901D5B802C2402FAE43500
:1048430009FB8A828B831270352406F582E438F5DE
:10485300831248C68A828B831248AEA3A31248C62A
:10486300050A150C125A46125A5B60221248B964A3
:104873000270F11248A8E50840C1124BA9A2E55005
:10488300E3850E82850F837401F0E50C70D6E50B8A
:10489300A2E092AF8E828F83E50AF0EE24FFFAEF57
:1048A30034FFFB8035124BB4A2E6221248B2221227
:1048B300742AA3A3A3228508828509831274241270
:1048C3006A5E22E08E828F83F0EE24FF1EEF34FFB8
:1048D300FF2212389174041216197F0802131674FA
:1048E300EC120F6374F51216FC89138A128B0F8571
:1048F3001882851983E4F0041216BE1235BBE9F859
:104903009004F3E0292434F508FA7B001221F38A9A
:104913000A8B0BAE0AAF0BEE4F7003024A63EE2411
:1049230002F50AE43FF50BA808EE28F8E43FF98501
:104933000A82850B831246642404F510E43FF511C3
:10494300851082F583E4F09004F3E0FCF8C3E49867
:10495300F895E0F9850A82850B83E028F508A3E042
:1049630039F5099004F1126CEE750E00780C1216ED
:10497300027D00AA08AB091221D57403121619ACE3
:1049830018AD1974011219A6E0F9E50824FFFAE538
:104993000934FFFB1235C18A828B83E4F0EA24FFDA
:1049A300F508EB34FFF509E50FC454F0F9901DE366
:1049B300E0C4333354C0F89004EDE0A2E0E43313D1
:1049C300134849440F124A83E512C454F045138532
:1049D3000882850983F0A808850A82850B83E0FA9B
:1049E300851082851183E02AC398F0850A82850B9E
:1049F30083E8F0A3E509F0124A7B124685E4F074DC
:104A03000A1219A6E4F075085075091DF50A78080D
:104A1300121602124A6F1221D57403121619851841
:104A230082851983E06009EE240E125BA24408F02C
:104A33001237ADE9F9E4F508F5097808121606749A
:104A4300041216C6EEFAEFFB1237C57402121619DA
:104A5300E97006EEFAEFFB800BEEFAEFFB1221F999
:104A63007A007B00740B1216190244D47C0B7D0070
:104A7300EE2418FAE43FFB22125B10E4F0A322E0D9
:104A8300850882850983124A8D22F0126CC2227432
:104A9300F3120F638A0A8B0BA2AFE433F50CC2AF98
:104AA300750800750900901D5B802C124CD05024B2
:104AB300850A82850B83A3A3127E8A8E828F83A3AA
:104AC300A31268261237B3E9600A124AF6C2E6F067
:104AD3008E088F09124CC5124F7E70CFE508450929
:104AE3006006124BB0D2E6F0E50CA2E092AF7F0570
:104AF300021316124AFA22126CDBE02274F0120F30
:104B030063EAFEEBFF8C0C8D0D750E00A2AFE43350
:104B1300F50FC2AF750800750900901D5B802085F5
:104B23000A08850B09124BB0D2E4F0E508124BA931
:104B3300D2E7F0E50A24FBF582E50B34FFF583E0C9
:104B4300F50AA3E0F50BE50A450B6043E50A1259A4
:104B530031350BF583E0A2E750D9850A82850B83B3
:104B6300A3A312141DAC0CAD0DEEFAEFFB1237B973
:104B73007402121619E960BBE508450960A1E5084E
:104B8300240D124BBC64017006124BC5D2E4F0E550
:104B93000FA2E092AFE508450960061236A5750E2F
:104BA30001A90E0248DD12595B124BBF22124BB40E
:104BB30022E5082411124BBC22F582E43509F58362
:104BC300E022850882850983127424E02274F2129C
:104BD3000F6374FE1216FC750C00750D00851882A8
:104BE300851983E4F0A3F0A2AF33F50AC2AF901D99
:104BF3005BE0FEA3E0FF8035EE24FBF582EF34FF9C
:104C0300127A5B780C121606EEFCEFFD7A5B7B1DC5
:104C13001222297402121619EEFCEFFDAA18AB1921
:104C2300122217AE08AF09901D61E014F0EE4F6039
:104C330027124CD0501DEE240BF8E43FF9888289EB
:104C430083E024FFF0A3E034FFF0888289831265B8
:104C5300B960A5124CC18099E50AA2E092AF901DFC
:104C630061E060319004F4E0640F6006901DE2E0BF
:104C730070237A397B1D12389D90853C1214197A62
:104C8300397B1D1238917404121619800874F012BE
:104C93005F0C123699AA18AB1912221D8A0A8B0BC4
:104CA300AE0AAF0BEE4F60131235CD124AF6A2E2F5
:104CB3008E828F83A350D674E980D4024F868E0CE4
:104CC3008F0DEE24FBF582EF34FFF58322124AFAAF
:104CD300A2E72274F7120F63EAFEEBFF1235CD123F
:104CE3005B1A123ABEE96401900510700AE02401D0
:104CF300F8A3E034008004E0F8A3E0F9126168123D
:104D03006511901D61E070219004F4E0640F701947
:104D13007A397B1D12389D90853C1214197A397BA0
:104D23001D1238917404121619A9A8C2AF901D61FF
:104D3300E004124D3CA2E7800DF0E9A2E7E433F86A
:104D4300E922E508A2E092AF025FA874F7120F63AD
:104D5300EAFEEBFF124D83F01235CDEEFCEFFD7A48
:104D63005B7B1D122223A9A8C2AF901D611244BC14
:104D73009004F4E0640F70057908123765025FA8A8
:104D8300124AFAC2E42274F7120F6374EA1216FC91
:104D9300EAFEEBFF9004EDE06040851882851983FD
:104DA3007401F01219A6E4124E5B1219A6AA82AB83
:104DB300831224998E828F83124BCBC0E0740A1224
:104DC30019A6D0E012705B740B1219A6AA82AB83EA
:104DD3001237DDAA18AB19122C2B7416024EF47479
:104DE300F7120F63EAFEEBFF1235AFE9F974DC69E2
:104DF300601E74DD69601974E469601474F369609A
:104E03000F74DE69600A74DF69600574DB6970071B
:104E1300EEFAEFFB12376B025FA874F7120F63749D
:104E2300EB1216FCEAFEEBFF8518828519837406E4
:104E3300124E5B1219A6AA82AB83122499127060D8
:104E4300740A1219A6AA82AB831237DDAA18AB190A
:104E5300122C2B7415024EF4F0EE2413FCE43FFDE8
:104E630074022274F7120F6374F71216FCEAFEEB56
:104E7300FFEE242D125BA26065125733AA18AB19FB
:104E830012249974081219A67403F09005091214D8
:104E93001D124EE412141D90051CE0F97404121641
:104EA300C6EEFAEFFB1235B57404121619E9F9745C
:104EB300DC69602374DD69601E74E469601974F34E
:104EC30069601474DE69600F74DF69600A74E869ED
:104ED300600574DB697007EEFAEFFB12376B02466D
:104EE3004BEE124EE922242BF582E43FF583227424
:104EF30003121619025FA874F2120F638A088B0952
:104F0300750C00750D00750AE7A2AFE433F50BC20B
:104F1300AF901D5B8003124CC1124F7E6035124C63
:104F2300D050F3125B9F640170ECEE242FF582E402
:104F33003F12512DE06870DE780C121606EEFCEF7E
:104F4300FD7A5B7B1D1222297402121619901D61D2
:104F5300E014F0E50BA2E092AFEE4F6013EEFAEF30
:104F6300FB1235CD79F0EEFAEFFB12376B750A00C1
:104F7300A90AAA08AB0912376B800DE0FEA3E0FF74
:104F8300EE4F2274021216197F0602131674F412DE
:104F93000F6374F71216FCEAFEEBFF8E828F83A376
:104FA300E064F3700302503A8E828F83A3E064DFE0
:104FB300700302503A8E828F83A3E064E860788E98
:104FC300828F83A3E064DB606E12360FE9F508700D
:104FD3005EEE240E125BA26056125044123657EA5C
:104FE3004B604C74081219A612504E12141D75080A
:104FF300FF7509FF78081216068E828F83A3A3A379
:10500300A3A3A3A3A3E0F974041216C61235B574BF
:1050130004121619E9F50874F36508601274DF6564
:1050230008600C74E86508600674DB6508700F8E11
:10503300828F83A3E508F0EEFAEFFB12361B0244DE
:10504300EEEE240FFAE43FFB79092274021278236F
:1050530074FFF0A312505B2212505F2212631EA34F
:10506300A32274F5120F638A088B097E008A828B50
:1050730083A3A3A3A3A3A31244F840027EE88A82D6
:105083008B83A3A3A3A3A3A3A3A3A3A3E0C394106A
:1050930040047EE880138A828B83A3A3A3A3A3A3E4
:1050A300A3A3A3A3E0640F600A901DBFE05408709C
:1050B300027EE8EA240BF582E4350912512DA3A3FD
:1050C300A3A3A3A3A3A3E0C398500CEA240B124BFE
:1050D300BC640F60027EE890050DE0F47003A3E06A
:1050E300F470027EEC7A237B00122295901D42120B
:1050F3006836901D421265B9602985088285098347
:10510300A3A3A982AA8389088A09750A00780812C9
:1051130016027C237D001268231221D57403121614
:105123001980027E1AEEF90279C4F583E0F88A82C7
:105133008B83A3A32274F5120F63EAFEEBFF8E8227
:105143008F83A3A3A3A3A3A3A3A3E09004F4127741
:105153000690050F1276EC9004EF12770B901DE387
:10516300F0F9121C5F901DE3E06018EE2404FAE4EA
:105173003FFB7950121C47EE2406FAE43FFB79E12A
:10518300121C47901DE21244E4600474018002740F
:1051930000901D441276F21216027C0B7D007A45B4
:1051A3007B1D1221D57403121619EE2418F508E499
:1051B3003FF50978081216027C0B7D007A507B1D9F
:1051C3000279BC74F7120F63EAFEEBFF8E828F83C2
:1051D300A3E070061268231236158E828F83742C17
:1051E300125F0C123777025FA874F7120F63EAFE9F
:1051F300EBFF901D421265B9600D126823901D42AA
:10520300E4F0A3F012229B8E828F837408125F0C4A
:10521300122C2B025FA874F6120F63901DE2E0605C
:1052230013901D44E0700D12523A1235C7EA4B60D9
:10523300031236AB0273669004EFE0FB90050FE0B8
:10524300FA9004F4E0F92274F4120F6374E712166F
:10525300FCEAFEEBFF750B018E828F83A3A3A3A34E
:10526300A3A3A3E0A2E25068EE242BF582E43F124D
:105273007E881253081235D3E97055908436E06462
:10528300017005750B0080481253101216027C0B37
:105293007D0074111216BE1221D574031216191251
:1052A30037ADE9FA740E1216B68808890978081220
:1052B30016067508307509007808121606124EE4B2
:1052C30012141D126FFC79011237CB7406121619D2
:1052D3008518828519837410124E5B1219A6AA824F
:1052E300AB8312248D124EE4127028740B1219A68C
:1052F300126511740D1219A6E50B125D7F122C2B8A
:1053030074190244F0EE2413FAE43FFB22EE24085E
:105313001276FA22C082C083901DE3E06003123844
:105323001F025CEEC082C083901DDA7421F0A37467
:105333001DF0A37425F0A3741DF0A37431F0A374BE
:105343001DF0901EEE74EAF0A37440F0901DC47437
:10535300A9F0A37435F0901D6674DFF0A37435F0E3
:10536300901D6874E5F0A37435F0901DBFE044020E
:105373008001E4F0025CEEC082C083EAFCEBFD79BD
:105383000302638AC082C083EAFCEBFD79050263F2
:105393008AC082C08379080274F7C082C08374FE16
:1053A3001216FC901D6E7493F0A37436F0901D706A
:1053B300748DF0A37436F0800D7A5B7B1D12221D71
:1053C300125D7512379B901D5B1265B970EB901DD2
:1053D3005D1265B9600F7A5D7B1D12221D125D752A
:1053E30012379B80E9901D5BE4F0A3F0901D6112DE
:1053F30044C7740280027411121619025CEE74F62B
:10540300120F63E9FF745D29F582E43444F583E404
:1054130093FEFA7B001221F3EA4B6011EA2E126528
:10542300078A828B83A3A3A3A3E4F0802C7A027B55
:10543300001221F3EA4B601D74472FF582E43444D4
:10544300F583E4938A828B83F0A3741AF0901DBAD8
:10545300E0F91221FF7A007B00027366E9FC74060F
:1054630029F8EAA2E0501EE875F00A84E5F0F96035
:1054730014740A28C399F8E9C394054004740A28EC
:10548300F8740B28F8ECC3941340047A1480027A5E
:1054930006EA2879002409F85001097A0A7B0012E8
:1054A3000BE4E8F90215E6C082C083901DBFE05407
:1054B30002600A122C31E96004790180027900024A
:1054C3005CEEC082C083901DBFE054026016901D45
:1054D30061E0700C1265B6600BE0C8125A535004B9
:1054E300790180027900025CEEC082C0839084332C
:1054F300E0F8901D63E0C39850051221F380047A0D
:10550300007B00025CEEC082C08312379B790002ED
:105513005CEE74F7120F6374FE1216FC8518828515
:105523001983EAF0A3EB125684A3A3A3A3A3E06019
:105533000A14606024FE60690256059004F4E06476
:105543000F6018123771E97012851882851983125A
:105553006826901D6A125B1D123ABE90051CE0C0BE
:10556300E08518828519831262E8D0E012568474AC
:105573001412781F127E8A7A5D7B1D122217A8A847
:10558300C2AF901D63E00412683C79201237657442
:1055930002024EF485188285198312742C741580C7
:1055A300D0851882851983125667A3A3E0605385BB
:1055B3001882851983E02402F8A3E03400F9888275
:1055C3008983127C5DE0C0E0851882851983E0FC45
:1055D300A3E0CC2406F582E43CF583D0E0127068A6
:1055E3008882898312683685188285198312594FF8
:1055F300851882851983601312566C6005125674E0
:105603004043AA18AB1912379B808412566C60F280
:10561300125674501C125A63FA8518828519831224
:10562300566EF8747D1265023444F583E4936A6020
:105633001485188285198312566C640870C4125A33
:1056430063640870BD125A631412568C240AC0E0B6
:10565300851882851983125B1DD0E012568C0402D3
:105663005574E0F8A312633522E0F8A3E0125693D1
:1056730022851882851983127039125694C3940AAD
:105683002212569EF58388822212569E1256932228
:10569300C82406F582E438F583E022127823E0F883
:1056A300A3E022C082C083901D721265B960081204
:1056B300742D123ABE80027900025CEE74F7120F69
:1056C30063EAFEEBFF12468A7401F0EE2430F582A2
:1056D300E43FF583126D961246642432125BA2C036
:1056E300E0EE2413F582E43FF583D0E0F0EE2433BB
:1056F300125BA2C0E0EE2414F582E43FF583D0E010
:10570300F0EE242CF582E43FF58312141D12573377
:10571300EE242E125BA2F91237C57402121619E990
:10572300F5087007EEFAEFFB1236ABA908025FA883
:10573300EE2423FCE43FFD22C082C083123771E9CB
:105743006004792080027901025CEEC082C083EAA2
:105753001259311257F2D2E0025376C082C083123B
:1057630057EC640170111257F7400C8A828B83A3A4
:10577300E0F912376B806FEA24101257EFA2E6505C
:10578300128A828B83A3E0F9901D6C125B1D123A7F
:10579300BE80531257EC6401700D1257F750088AFC
:1057A300828B83743080368A828B83A3E0641B8A66
:1057B300828B83700474228024A3E0700D1257EC53
:1057C300F874521265023444800B1257ECF8744794
:1057D3001265023444F583E4938A828B83F0901D2F
:1057E300BAE0F91221FF025CEEEA240DF582E43BF4
:1057F300F583E022EA12595B3BF583E0A2E32274CE
:10580300F7120F63E9FE1265B67003025928EE60C2
:1058130011741B6E7013E0C812592B6405700302D8
:1058230058F312741CE40258F774E96E706212594B
:1058330047700B122C37E96005125961606279EEEB
:10584300121BC3901D64125944901D64603B12598E
:1058530064901D64700B12594414F0121D8B02598D
:105863002812594FC2E7125A6F12592B6403700C56
:10587300127032125931125699D2E2F079ED121B9D
:10588300C3125937123ABE807512741F74E98064CB
:1058930074E16E703E122C37E960551259617050F5
:1058A300900516E0C0E01270322412F582E438F558
:1058B30083D0E0F0900505E0C0E0901D64125665CA
:1058C300125665D0E0F0900505E004F07901121D51
:1058D300738052741C6E7018901D64126826901D9C
:1058E30074125B1D123ABE901D64E4F0A3F0803580
:1058F30012741CEEF0901D64126826123699127011
:1059030032127004E05480601090051CE0F9121C00
:105913008390051BE0F9121C77901D64E4F0A3F05B
:105923007910123765025FA8240D125696222411AE
:10593300F582E422901D6412682A901D6812742671
:1059430022E0F8A3E0C8241212569622E0F8A3E05E
:10595300C812595B125699222410F582E422901D35
:1059630064127039127008E054042274F4120F6345
:10597300750A00750B00A2AFE433FFC2AF1265B620
:105983006003025A2B125B1A123ABEE94410F890D4
:105993001D5B800985080A85090B125A46125A5B5A
:1059A3007003025A2B124BB0586870E8780A12162B
:1059B30006AC08AD097A5B7B1D122229740212160C
:1059C30019901D64E508F0A3E509125A6F125A53A2
:1059D300405D901D62E014F0EFA2E092AF901D6471
:1059E300E0240EF8A3E03400F9880889098882F5D9
:1059F30083126826901D64125A69F912365DE99084
:105A03001D5FF0125A77E05480901D646026127077
:105A1300352413125696F9121C8312703224141271
:105A23005696F9121C778018EFA2E092AF8011907E
:105A33001D6180A112594FA2E1B3E433F9121D7322
:105A43000244F3E50824FBF582E50934FFF58322DC
:105A53002411125696A2E722127A61E5084509221B
:105A63008518828519831248B2A3E022F0901D6441
:105A730012703922A3E4F08508828509832274F722
:105A8300120F63EAFEEBFF123795EE2410125BA2AE
:105A9300A2E3400C125B9F64017005908431800384
:105AA300908432E0F9EEFCEFFD7A5B7B1D12222F2E
:105AB300E96046EEFAEFFB901D6E125B1D123ABED3
:105AC300EE240E125BA254047020A8A8C2AF901D4E
:105AD30062E00412681CFAE8A2E792AF125B0CA31F
:105AE300E0540170211236A5801CEEFAEFFB901DE5
:105AF30066125B1D123ABE800D8E828F83A374F1F2
:105B0300125F0C123699025FA8125B1022EE240E6C
