:100000004343323678325231FFFFFFFF0301F7FFDF
:10001000FFFF0701FFFFFFFFFFFFFFFFA80000003A
:1000200030303031FFD804002C00FFFF01F7FFFF14
:080030000000000000000000C8
:1000A8000040012095D1040039FB021039FB0210F1
:1000B80039FB021039FB021039FB021039FB021020
:1000C80039FB021039FB021039FB021039FB021010
:0C00D80039FB021039FB021011FB021072
:1010000001000000000000000000000000000000DF
:10101000FFFFFFFFD42E00200400000000000000AE
:101020000000000014000000D416000018000000AA
:1010300040150000C0100000402E002004000000F9
:10104000000000000000000024000000C0150000A7
:10105000180000003118040008000000B011000062
:1010600074100000C1C8021001BB021091EB021005
:10107000DDE5021081E00210B9E5021071E5021011
:10108000310000000100000001000000EC1600002B
:1010900000000000FFFFFFFFAC2E00200400000056
:1010A000000000000000000028000000AC16000056
:1010B000240000001E0000001800000000000000D6
:1010C00028130000D41000009BEC021025E202104F
:1010D00005EB021025DE0210FDE10210E1E4021032
:1010E0002F00000034000000240028000000000051
:1010F000202E0020FFFFFFFFF42E00200400000040
:101100000000000000000000380000006017000030
:101110002800000001000000100000000000000096
:1011200000000000F7F1021000001A00100000009B
:1011300004000000C41700008260030008000000E3
:1011400036000000B42E0020FC2E002009001D00F7
:1011500057EE0200482E002001000000000012009F
:10116000FFFFFFFFE42E002004000000000000004D
:10117000000000001000000024170000180000000C
:101180000000000000001300FFFFFFFF5C2F0020A5
:1011900004000000000000000000000054000000F7
:1011A000881700003C000000000001002D00000036
:1011B000041000000F1503003000000000000000C4
:1011C000B0110000D811000099AB0400D9DB021067
:1011D00059EC0210CDD6021085DE02104DE502104A
:1011E00029E5021030000000000016000000000099
:1011F00000000000FF7F0000642F0020FFFFFFFFC2
:10120000DC2E0020040000000000000000000000B0
:1012100058000000F01600003400000039FB0210F6
:1012200001002F0006000000000000002000000068
:10123000010000001BF80210280000002813000025
:101240005012000093EC02106DEB02104DEC0210F6
:1012500029E00210BDE4021099E402102D00000004
:1012600000000000882E00200400000000000000A4
:101270000000000010000000D81500002C00000045
:10128000000000000000030000000F003C00000010
:1012900000000000000000002FF902101000000004
:1012A00008000000D4170000FFFFFFFFEC2E002015
:1012B0000400000000000000000000001C0000000E
:1012C0003C170000240000003C120000382E0020D3
:1012D0000400000000000000000000000C000000FE
:1012E0004815000018000000A724030000000000BB
:1012F00000000000080000000100000004000000E1
:10130000000000000000140000000000685400000D
:1013100000001900000018002400000055D304004C
:101320000040000000020000041000000000100057
:1013300055F002100C0000006718040000000000C7
:10134000182E002004000000000000000000000033
:101350002000000010150000300000008054000044
:101360000100000027190400EB0703000000000043
:101370000000170000020000310000000000230000
:101380000000150001000000C0110000A42E002084
:101390000400000000000000000000002000000029
:1013A00088160000240000000C1B0400982E00206A
:0813B00020000000E817000016
:1013C000A9170400BB190400BF190400C3190400C5
:1013D000C7190400CB190400CF19040069AA04003E
:1013E0001DAB040025AA0400F1D20400D3D20400EE
:1013F000F5AA040001AB040023D3040051AB0400A0
:10140000D1AC0400E5AC040001280000000000009D
:10141000000000000001003000000000000000009B
:101420000003FF186400000000000000000000003E
:101430007856341200000000BAAB00000000000132
:1014400000000000000000002A201B1424201B14B0
:1014500024201B1400000000E4FEFFFFFFFFFFFF3D
:1014600048FFFFFFFFFFFFFF180200000000000021
:10147000A266FEFFFFFFFFFF7DFBFFFFFFFFFFFFF9
:1014800062AC0000000000008E21FBFFFFFFFFFFA9
:1014900015F2FFFFFFFFFFFFAEF2FFFFFFFFFFFFB1
:1014A0005FFE0300000000003E82FFFFFFFFFFFF22
:1014B0006D38FEFFFFFFFFFF00008001100080FF7E
:1014C000FDFF58003AFFB7F3FFFFFFFFFFFFFFFFED
:1014D000FFFFFFFFFFFFFFFFFFFFFFFFFFFFFFFF1C
:1014E000FFFFFFFFFFFFFFFFFFFFFFC5FFFFFFFF46
:1014F00000FFFFFF00C5C5FF000000FF0000000067
:10150000FFFFFFFFFFFFFFFFFFFFFFFFFFFFFFFFEB
:10151000300000000000000000000000381500004E
:10152000040000000000000001000000FFFFFFFFBA
:10153000FF000000010000000800000000000000A3
:101540000000000000000000180000000000000083
:101550000000000058150000080000000000000016
:101560001000000028130000781500004DD304007F
:10157000B51B04003D1B0400F1190400451A0400CA
:10158000D51904002E00000064150000802E0020F4
:101590000400000000000000000000002000000027
:1015A000A81500001800000018000000000000004E
:1015B00000000000B8150000080000000000000056
:1015C000180000000000000000000000D01500001E
:1015D00008000000000000002C00000000000000D7
:1015E00000000000FC1500000400000000000000E6
:1015F00001000000FFFFFFFFFFFFFFFF08000000EA
:1016000000000000B01100001C16000099AC04009E
:10161000A9AC0400C5AC0400B9AC0400871A0400EE
:10162000B11A0400651A040032000000041600001C
:10163000902E0020040000000000000000000000C8
:10164000140000004C1600001C0000001C000000EC
:101650000000000000000000601600000000000014
:10166000080000000000000001000000F3840000FA
:1016700051D304004BBC0200F7840000FB8400003F
:10168000E784000005850000240000000000000041
:1016900000000000A4160000000000000000000090
:1016A000000000000800000000000000240000000E
:1016B0000000000000000000C8160000000000004C
:1016C0000000000000000000080000000000000012
:1016D0000A000000180000000000000000000000E8
:1016E000E41600000800000000000000C58D0000A6
:1016F0003400000000000000000000001C17000083
:1017000000000000000000000100000000000000D8
:1017100001000000000000000000000008000000C0
:1017200000000000180000000000000000000000A1
:101730003417000008000000000000002400000032
:10174000000000000000000058170000000000002A
:101750000100000000000000080000000000000080
:1017600028000000000000000000000080170000BA
:101770000000000000000000FFFFFFFF000000006D
:1017800008000000000000003C0000000000000015
:1017900000000000BC170000000000000000000076
:1017A0000100000000000000000000000000000038
:1017B0000000000001000000000000000800000020
:1017C00000000000A119040025DD0210FDA904009D
:1017D00075DF0210010000000000000000000000A2
:1017E000000001000000010015F9021001E60210DE
:1017F0002DDA021045E7021041D10210C9D30210C0
:10180000A5DF02102DE4021061EA021055AC0400BD
:10181000050006000800090016000201020203028A
:10182000000301030105020500060106040B14066E
:101830001506170600070107020703070009040938
:1018400007000A000C000D000E000F001000110030
:101850001200130014001B0000010101000201022C
:101860000204000401040304040405040604000542
:10187000020603060406050606060706080609060C
:101880000A060B060C060D060E060F0610061106BC
:101890001206130604070009000B010B020B030BD1
:1018A00053554E004D4F4E0054554500574544008A
:1018B000544855004652490053415400464F4F008A
:1018C0004A414E00464542004D41520041505200AF
:1018D0004D4159004A554E004A554C00415547006C
:1018E000534550004F4354004E4F5600444543006B
:1018F000BC180000C0180000C4180000C818000080
:10190000CC180000D0180000D4180000D81800002F
:10191000DC180000E0180000E4180000E8180000DF
:10192000EC1800000097B92EE5725CCB5DCAE47339
:10193000B82F0196BA2D03945FC8E671E7705EC9AF
:101940000295BB2CE3745ACD0691BF28BE2907909F
:101950005BCCE27559CEE077BC2B05920493BD2A8F
:10196000E17658CF51C6E87FB4230D9A0C9BB5227F
:10197000E97E50C7EB7C52C50E99B720B6210F986F
:1019800053C4EA7DB2250B9C57C0EE79EF7856C15F
:101990000A9DB324089FB126ED7A54C355C2EC7B4F
:1019A000B027099EA2351B8C47D0FE69FF6846D13F
:1019B0001A8DA334188FA136FD6A44D345D2FC6B2F
:1019C000A037198E41D6F86FA4331D8A1C8BA5321F
:1019D000F96E40D7FB6C42D51E89A730A6311F880F
:1019E00043D4FA6DF3644ADD1681AF38AE391780FF
:1019F0004BDCF26549DEF067AC3B15821483AD3AEF
:101A0000F16648DF1087A93EF5624CDB4DDAF463DE
:101A1000A83F1186AA3D13844FD8F661F7604ED9CE
:101A20001285AB3C51001000000000550010000072
:101A30000000670018000000006F001800000000A0
:101A400004004200000000430023000000000000EA
:101A50000086227E6DB24620290B217010408052F4
:101A60003F065B4F666D7D077F6F090D614843D36D
:101A70005F777C395E79713D76301E753815373F5A
:101A8000736B336D783E3E2A766E5B39641F230894
:101A9000025F7C585E7B716F74100C753014545C5F
:101AA0007367506D781C1C14766E5B4630700100B5
:101AB0002100000010002081A6310020210000003C
:101AC000110043810000000021000000120020836B
:101AD000A73100202100000013002083A83100203E
:101AE0002100000014002083A93100202100000003
:101AF00015004381B88A00202100000016001A81D9
:101B00000C1C00202100000017001A81101C00206E
:101B10002100000020001843AA310020210000000D
:101B20002100F143141C0020210000002200F14399
:101B3000241C002021000000FDFF214190310020E5
:101B4000708A00203C820020288900201C8300200D
:101B5000000000008C860020788A0020EC8600209F
:101B60003889002048840020585500009055000016
:101B7000A0550000AC550000BC550000488900206D
:101B8000B88B0020BC8B0020C08B0020643100206B
:101B9000C48B0020C88B0020CC8B0020D08B002071
:101BA000D48B002058890020B08200202C8800208F
:101BB00074840020CC55000040560000B45600004C
:101BC000285700009C5700001058000028580000BB
:101BD00034580000158D0020EC8900206831002069
:101BE0000887002088850020168D0020178D002092
:101BF000E883002040880020F07D0020188D002020
:101C0000E021000068220000000000000000000049
:101C100040580000F47B0020D88B0020DC8B002093
:101C20007C31002080310020E08B002050580000E3
:101C3000888700205C7E002000000000000000007B
:101C4000481C002000000000000000000000000010
:101C5000000000005083002090750020C48A0020FE
:101C6000014A031049480310D549031015470310D2
:101C7000079704005D49031081470310A146031034
:101C80009548031045450310254A031021440310CD
:101C9000ED47031099490310E1480310214903104F
:101CA0005553031089520310CD5203106550031091
:101CB0008D4E0310A18C04008B8D0400099004004C
:101CC0000000000059510310ED500310A9910400C9
:101CD000CD4B03102952031011530310A9550310C3
:101CE0007555031069530310DD5503103555031066
:101CF0005B9F040021540310855C03100D560310F4
:101D00004D5D0310A9640310B55B03106D570310FC
:101D1000E5610310095E0310C558031085600310C8
:101D200071610310B16203109963031055630310CE
:101D3000FD600310B15E031025960400D55A031010
:101D4000D559031009630310D963031019640310F4
:101D5000555F0310C56403104D62031071640310D6
:101D60008D64031055640310E1640310297503109A
:101D700079720310A16B0310F57203109D740310A8
:101D8000797403102D74031061730310FD73031035
:101D90005574031015750310D96C0310FD740310EE
:101DA000219D0400E17403103D750310899E040019
:101DB000F9640310CD6803102D710310C174031072
:101DC000F56E0310B973031029670310056E031035
:101DD000C56F031035A00400A1770310797D0310AF
:101DE0003D7E031049750310157E0310357D0310E9
:101DF00099760310997C0310257B031071780310EA
:101E0000B57D0310ED7C0310857E03102D79031042
:101E1000B97A0310917B0310B1790310ED7B0310A5
:101E2000E97D0310617E0310357A0310D57E03101F
:101E3000457C0310A57E0310BD7E03105F8B04005C
:101E4000D9800310E97E03104983031089840310AD
:101E50008D8103107D820310E58403102B84031011
:101E6000C583031091870310618803104588031010
:101E7000F1850310B18803107D880310C988031011
:101E80001D870310A186031001850310E18803104C
:101E900099880310F9870310F79B0400359C031001
:101EA000819D0310E99A0310359B0310C19B031019
:101EB000419A0310F18803101D8C0310618F0310E9
:101EC000F1940310919E0310C19E03103D9E0310D8
:101ED000699E0310259E0310619D03100D9E031043
:101EE000819B0310ED93031055990310C9970310BC
:101EF000D9980310BD950310959C0310C19D031044
:101F0000A59E03107D9E0310C9910310699B0400D8
:101F1000699C0310DD9D031095900310FD9B031039
:101F2000CD990310158E0310019D0310E19C031041
:101F3000219D0310419D0310BD9C0310F59D0310CE
:101F4000A19D031055980310E1920310999A031074
:101F5000B99E0310559E031089890400D789040097
:101F600039A20310FB89040069A1031075A20310B4
:101F7000C59E0310B9A10310F9A1031015A1031008
:101F80009DA20310E9A00400F1A00400F3A0040046
:101F900031A1040045A104004BA1040031A90310A4
:101FA000ADA2031041940400B9A8031099A5031031
:101FB0003B8F040039A803106DA90310498E04005B
:101FC0006DAC031099B1031009AF031059B10310A0
:101FD00001B103109DA90310D19704003D8E0400A8
:101FE000458E0400D5970400D9970400418E040063
:101FF000DD970400E1970400E5970400E9970400E9
:10200000ED970400F1B9031075BA031081BB0310FA
:1020100021A3040059A3040039A40400D9A4040096
:10202000C3A5040001A6040087A60400B5A6040009
:1020300015A7040049A704006BA7040089A70400A2
:10204000EBA7040037A804003FA8040079A8040007
:10205000FBA8040013A904009DA904001D8E040020
:10206000C9970400CD970400F1970400099A040071
:10207000E9C60310C5970400918604002589040071
:1020800049C00000E3C000007DC0000063C503003C
:1020900099160300218904001F8A0400238A040082
:1020A000258A0400BB8A0400058A00001B8A000000
:1020B000018A0000038A0000D189000059D304007E
:1020C00009EC0100378500005F850000A98700004A
:1020D0003D8700006B8700003D88000029880000D4
:1020E000218600007D85000069880000738600005D
:1020F000DBFD02108D700100498D0000E5880000B5
:10210000C3890000295D01004F5D0100815D010070
:10211000635D0100DB3100201C8D00201D8D00203F
:102120001B8D00201E8D00201F8D0020DC31002023
:10213000AF1D03005B490300CD5503001F380300AA
:102140008F3803002957030095570300F93803001F
:1021500047380300FB370300BB3803005955030021
:102160005155030065F3010039F30100DF690300F5
:10217000295503008F5503009D550300AB550300FF
:1021800083F1010043EF010041F20100FFF2010081
:10219000A9A204009B560300896903009569030006
:1021A00000000000215A03004F550300615903004D
:1021B000F359030000000000231E0300E145030063
:1021C000B74C030071F101000000000000000000A6
:1021D00071510300C553030009F20100A169030016
:1021E000360001000600000000000000000F0000A3
:1021F00000000000000000000000000000000300DC
:10220000FFFF00000403FFFF0000FFFF0F00E803D3
:102210000005401F0310000100000000FF3F0F00F9
:102220000800050B00000000000000000300010F83
:10223000000000000000000000000000000000009E
:10224000000000000000000000000000000000008E
:10225000000000000000000000000000000000007E
:10226000AD0000020000000000013636010100014F
:102270000201000103010001040106060804000038
:102280000C0100340D01000F10040101140100FFC6
:102290001608000020020000220100FF23010001B7
:1022A000240100FE2501000826020000280100018B
:1022B000290100012A0200002C01000F2E0200005B
:1022C0003001000131010008320200FF3401000733
:1022D000350102FF3601000037010001380100011D
:1022E000390100FF3A01000F3C0200FF3E01010FDF
:1022F0003F0100014001041F41010001420100FFB4
:1023000043010080440800004E0100084F01000F07
:1023100050010001510100FF520100005301000073
:1023200054010001580400005C0400006004000037
:1023300064040000680400006C04000070040000E5
:1023400074040000780400007C040000800100FF99
:102350008101000182010001830102028401000168
:10236000639C0100159F01000000000000000000B8
:1023700000000000E5A4010003A5010049A401003C
:102380001DA501004DA5010053A5010029A70100CD
:10239000000000001FA7010039A8010067A001008C
:1023A00059A5010079A5010009A60100B5A8010001
:1023B000EFA00100B9AA010095AA010000000000E9
:1023C00035AB0100D5A00100DDA90100E52A03001D
:1023D000032A03003F2B0300F1290300112A030005
:1023E000A72C0300AB2C0300A35D0300E55C0300F6
:1023F0001D5E0300C55C0300D75C0300735E030031
:10240000775E03009DE70100A9E70100EC2C0020A6
:102410009C2C0020B8310000D0310000E8310000D1
:10242000081400000032000020320000000000000C
:102430005054564F5349474E3100000000000000F1
:10244000000000000000000000000000000000008C
:10245000000000000000000000000000000000007C
:10246000000000000000000000000000000000006C
:10247000000000000000000000000000000000005C
:1024800000000000000000003C00100103050709E7
:102490000B0D0F00020406080A0C0DBFFB09707437
:1024A000766F2E696E666F202020202020200B7012
:1024B00074766F2E73776974636820202020200063
:1024C000202020202020202020202020202020200C
:1024D0000A323032362D30332D3330010000000007
:1024E00000000000000000000000000000000000EC
:1024F00000000000000000000000000000000000DC
:1025000000000000000000000000000000000000CB
:1025100000000000000000000000000000000000BB
:1025200000000000000000000000000000000000AB
:10253000000000000000000000000000000000009B
:10254000000000000000000000000000000000008B
:10255000000000000000000000000000000000007B
:10256000000000000000000000000000000000006B
:10257000000000000000000000000000000000005B
:10258000000000000000000000000000000000004B
:10259000000000000000000000000000000000003B
:1025A000000000000000000000000000000000002B
:1025B000000000000000000000000000000000001B
:1025C000000000000000000000000000000000000B
:1025D00000000000000000000000000000000000FB
:1025E00000000000000000000000000000000000EB
:1025F00000000000000000000000000000000000DB
:1026000000000000000000005054564F5349474E50
:10261000320000000257680002487A00027066002B
:1026200002506100036B6700026C78000370706DEC
:10263000056D63706D300000056E63706D300000D5
:10264000057073697A6500000345525201730000FA
:102650000000000000000000000000000120000059
:10266000AD5E00000001000002200000AD5E000031
:102670000001000003200000AD5E0000010000002A
:1026800004200000AD5E0000000100000500000015
:10269000211E0100000000000600000000000000F4
:1026A00000000000070000007DB70300019000005B
:1026B0000800000073430400000000000000000058
:1026C00000000000000000000A0000000000000000
:1026D000000000000B2000007D41040010000000FD
:1026E0000C020000F1740300000000000D00000067
:1026F00000000000000000000E200000AD5E0000A1
:10270000100100000F200000AD5E0000100000006E
:1027100000000000000000000000000011000000A8
:102720003F9F03000000000012000000C59E030050
:1027300010000000130000003B5404000080000063
:102740000000000000000000000000001500000074
:10275000A12D04004100000016000000A12D04007E
:1027600050000000170100003B54040000800000EE
:1027700018010000ED650400008000001900000051
:10278000ADD90100000000001A000000ADD9010021
:10279000000000001B000000695104001000000050
:1027A0001C010000BDC00300000100001D0100006D
:1027B000BDC00300000100001E000000FD45040034
:1027C000100300001F010000C76B03000800000099
:1027D00020000000BF610200000000002100000096
:1027E0002BFB010000000000220000005133040018
:1027F0001000000023000000F1740300000000003E
:1028000000000000000000000000000000000000C8
:102810000000000000000000260100002D38040028
:1028200010000000271100001983040010000000B0
:1028300028090000CF340400000000002900000037
:10284000B5790400100000002A700000F1BA0300FE
:10285000000300002B2200007D4104001000000056
:102860002C000000157D0400100000002D02000067
:10287000157D0400100000002E010000A995030042
:10288000000400002F0000008D90030000080000ED
:102890003000000015470400100000003101000066
:1028A0000000000000000000320100005B23040073
:1028B0001000000033010000654E040043000000DA
:1028C000340000000000000000000000350000009F
:1028D00000000000000000003600000000000000C2
:1028E000000000003711000041BE0300100000008E
:1028F00038320000B38504000000000039010000F8
:10290000BDC00300000100003A000000E502020023
:10291000000000003B000000893D0400130000009F
:102920003C00000000000000000000003D0100002D
:10293000699B030000000000020405040304000476
:102940000C000C040D042A04040B02070A001100F9
:10295000060000005054564F5349474E33BFFB0802
:10296000003003262000000000FFFFFFFFFF0000F3
:10297000000000000000000000005054564F534972
:10298000474E34004F4144204E564D310000000068
:102990000000000000000000000000000000000037
:1029A0000000000000000000000000000000000027
:1029B0000000000000000000000000005054564FCE
:1029C0005349474E3700000000000000000000009F
:1029D00000000000000000000000000000000000F7
:1029E00000000000000000000000000000000000E7
:1029F00000000000000000000000000000000000D7
:102A000000000000000000000000000000000000C6
:102A100000000000000000000000000000000000B6
:102A200000000000000000000000000000000000A6
:102A30000000000000000000000000000000000096
:102A40000000000000000000000000000000000086
:102A50000000000000000000000000000000000076
:102A60000000000000000000000000000000000066
:102A70000000000000000000000000000000000056
:102A80000000000000000000000000000000000046
:102A900000000000000000005054564F5349474EBC
:102AA000380000000000000000002001EF83030058
:102AB0000000000001002001EF830300000000007F
:102AC000020020011A86030000000000030020011C
:102AD000EE83030000000000040042019D2400007A
:102AE0000000000005004201AE24000000000000CC
:102AF00006004201D0240000000000000700200171
:102B0000DB2400000000000010004201BF24000090
:102B10000000000011002001E18C002000000000F6
:102B200000404201D024000000000000008042016B
:102B3000C52900000300000000002103B48C002020
:102B40000600000000001011000000000700000057
:102B50000000303300000000070000001000303398
:102B600000000000070000000140203300000000CA
:102B700007000000024020330000000008000000B1
:102B800000002033000000000A0000000000E233D3
:102B9000000000000A0000000100183300000000DF
:102BA0000C00000055003933000000000C0000004C
:102BB0001C004233000000001100000004004233FA
:102BC000000000001100000043002333000000005B
:102BD0001100000051001011000000001100000061
:102BE00055001011000000001100000067001811CE
:102BF00000000000110000006F001811000000002C
:102C00001200000055002101000000001400000027
:102C10000E00422200000000190000000000F081B8
:102C20006C29002019000000010023817429002074
:102C30001900000002002301BC8A002019000000D6
:102C4000030021819231002019000000040023813B
:102C5000782900201900000005002181943100200E
:102C60001900000006003081DF8C002019000000F0
:102C700007002101B08C002019000000080021018C
:102C8000AE8C00201900000009002181AC8C0020CE
:102C900019000000FDFF2181F67C00000004000007
:102CA00000002104000000000204000000002915BB
:102CB00000000000030400000000290400000000E0
:102CC0000504000000002904000000000C040000BE
:102CD00000003904000000000D0400000000390469
:102CE000000000002A040000000039040000000079
:102CF0000207000000002904000000000207000095
:102D0000000218051E8B03000207000000033005B7
:102D10001F8B030002070000010322057C2E000028
:102D20000207000002032205802E000002070000B7
:102D3000030318011D8B030002070000060318118E
:102D400000000000040B000000001B05782E0000AE
:102D5000040B00000001291500000000040B000016
:102D60000301291500000000040B000006012904DE
:102D700000000000040B000000022105428000005A
:102D8000040B000001022105EA800000040B000092
:102D90000202210542800000040B0000030221050D
:102DA0004E980000040B0000040221054280000040
:102DB000040B000005022105BE980000040B000072
:102DC0000003210400000000040B000000042105A2
:102DD00042800000040B0000010421053EC00000F9
:102DE000040B00000505211500000000040B000085
:102DF0000805211500000000040B00000B05290444
:102E000000000000040B0000100528040000000072
:102E1000040B00000006210542800000040B0000A6
:102E200001062105EA800000040B000002062105CE
:102E300042800000040B0000030621054E980000AC
:102E4000040B00000406210542800000040B000072
:102E500005062105B6980000050B000001002102BF
:102E60000000000001000401FEFF0000000000005F
:102E70000000000000000000210000000100000030
:102E8000E80300000000C842002474490A00000062
:102E90000200000004000000080000001000000014
:102EA0002000000040000000800000000001000041
:102EB00000020000000400000008000000100000F4
:102EC0000020000000400000E8030000881300001C
:102ED000D0D1D2D3D4D5D6D7D8D9DADBDCDDDEDF7A
:102EE00000000000000000000000000000000000E2
:102EF0005A6967426565416C6C69616E636530391A
:102F00006A007800F75D0400375E0400475E040045
:102F10006C00F000A5D10400E3D10400F3D104005B
:102F20006B00F0005D5D04009B5D0400475E0400E3
:102F30006600F0005D5D04009B5D0400475E0400D8
:102F400067001400EF5F04001D6004002F600400A0
:102F500069001400AD6004005D610400DD600400E0
:102F6000EE28E80321550400535804004556040098
:102F70002F00640085610400EB6104001D62040001
:102F800068000A00F15E0400A95F0400295F0400E4
:102F90006D000400F95A04004D5B0400FD5B040061
:102FA000640001000000000000000000BB580400A5
:102FB000630001000000000000000000BB58040096
:102FC000620001000000000000000000BB58040087
:102FD000610001000000000000000000BB58040078
:102FE000700001000000000000000000BB58040059
:102FF000D458000004880020142B0020D45800006E
:1030000006880020202B0020D458000008880020CB
:103010002C2B0020D45800000A880020382B0020D8
:10302000D45800000C880020442B0020D458000005
:103030000E880020502B0020D4580000108800205B
:103040005C2B0020D458000012880020682B002040
:10305000D458000014880020742B002070870020B2
:10306000FB730400A0840020767504000000024079
:103070000929FF000C8600206C30000000200500AC
:1030800000400000F0580000E48C00207C3000007C
:1030900018590000C8890020902B002040590000DA
:1030A000407A0020B82B002040590000607A0020B0
:1030B000BA2B002040590000807A0020BC2B002051
:1030C00040590000A07A0020BE2B0020405900008B
:1030D000C07A0020C02B002000000000B1B5000025
:1030E000419300000101010000000000FF00010009
:1030F0000000000000000000645900004C15002092
:10310000C42B0020645900004C160020042C002021
:10311000FF0000000000000080A903007C7C00206C
:1031200010310000E06A0020442C0020000008401C
:10313000E80300007C590000C88400202C31000006
:10314000000001401FFF00001700000000100140B8
:1031500021FF0100190000000020014023FF0200B0
:103160001B0000000030014025FF03001D0000008F
:103170000000014020FF000018000000906E0020B9
:103180004031000000000000DC6E00204C310000E7
:1031900000000000286F00205831000000000000EF
:1031A000746F00206431000000000000C06F002038
:1031B0007031000001000000020800000000000063
:1031C000000000000001010000005328FC2C00203A
:1031D0000308000000000000000000000001650975
:1031E0000000000000000000012C000000000000B2
:1031F000000000000001001E0000000000000000B0
:10320000022C000000000000000000000000000090
:1032100000000000000000000000000000000000AE
:10322000032C00000000000000000000000000006F
:103230000000000001500000D0070000DD6604001F
:103240005F670400716804000210800058020000EB
:10325000B9680400896904002D690400D5000202E0
:103260000304030404050800FF06FF0600011A0218
:1032700031032F2005007E032107316333520022E2
:10328000079B6E93AC00230D3D6257A63454355412
:10329000991200240A3D629B57BD53DA112508ABF1
:1032A0006613536700260A3C621753B36AA60027C9
:1032B00005196F332807B262A79A012908B2621371
:1032C00053A5002A0A2C6213931A49C5002B0A2D14
:1032D000629B511C32A3082C079B5EA74A002D0657
:1032E0000C6A33022E079B5E9756022F0834625FEA
:1032F000B633003008B36257B92A003107B362977A
:10330000646B320A3462A7624E2A8F00330A346239
:103310003362D4482605340A34621B5535624E00A8
:10332000350A346233F446322900360A3462A7F291
:103330008A322900370A34623372CC314700380AA6
:103340003462A76252512605390A3462A7A24C3B67
:1033500029003A07AA6233E2083B08B35E672355A7
:10336000023C07B3629BCA5C3D081C6633321A01FB
:103370003E08B36293CB54023F09B362D74C19267F
:1033800000400C455E2BA35C492559430541093497
:1033900062A7A21C5306420A3462B3E248518E046B
:1033A00043093462A7A22E930244093462B3A27384
:1033B00024004509346233F4CA790446093462337F
:1033C000F4CA3500470A3462A7A24E3329004809DF
:1033D000346213E59866004907B362B3626B4A0929
:1033E000346237735546004B093462135592A93342
:1033F0004C08346293BB47004D09346213C711CDAA
:10340000004E09346213D75867004F093462A7A2EF
:10341000332900500A3462B3A21C29670051093CC9
:103420005EA7A25C6E14520A3462B3A21C29CA00C1
:10343000530A3462A762CAA84C0A5408B362B36242
:10344000170055083462133D930256093462139DE8
:10345000492A005709346213CD71C400580A3462F6
:103460001365922ACA00590B35629375AA33CA288C
:10347000025A09346233726C8F005B07B3623362A5
:10348000735C0A34629333CA28A31C5D07B36233AA
:103490009B235E069372D7005F060C5E33026006C4
:1034A000927213036108246237A24C03620A3462E9
:1034B00093F38A7224006307A36237B3006409346C
:1034C000625F8D28D30065082462A7D2C80A660906
:1034D00034625B9533470067092C5EA762DA4901C5
:1034E0006809346293F38A66006908B3629791AC05
:1034F000066A09BB5E9B61A92A006B09346293CB03
:1035000091A20C6C07B36223BB066D092562A35A16
:103510002AA9026E072462B3A2196F082462A7A227
:103520004C0A70092C5EB3E248390371082C5E37EF
:1035300062DA057208246293929D017307A36237D1
:10354000F202740A346297E3CC29260075072462DC
:1035500013CD347607A36293AC0A7709256293559D
:10356000525D007808246213935431790A2C5E135B
:10357000651A3129007A082462336239027B0B3CD8
:1035800062AB324A1AC58C047C053163737D0C3CF6
:1035900062A351CC48659424007E071472975402AC
:1035A00000000004FFFF04010A346233F4CA790406
:1035B00004020B3C5E33B34CED9800040309346203
:1035C0003374370004040B3462A7E2CC31290004C1
:1035D000050B3462A762CAA84C0A040608B362B39A
:1035E000626B040708B362B3626B0408093462DFDC
:1035F00096490104090C356227534CAA52C90204AA
:103600000A0D356293628A23552A5900040B093446
:103610006233B34C3D040C0B346213559232950166
:10362000040D06007E03040E0AB36293AC3245001B
:10363000040F0ABB5E93BC464A0004100A3462A71A
:10364000A21C530604110B3462B3F28A72240004E4
:10365000120B3462B3E248518E040413093462330E
:10366000A46E0304140A3C5EA7FA6BC80004150A92
:10367000346233F4CA790404160C35629392AA5664
:10368000A5922A04170B3462A7628D6452000418B5
:103690000A346213AD91A40C04190C3C6213938A92
:1036A0006A242903041A0B3462135592A994010465
:1036B0001B093462ABFA2503041C0A346213C711D8
:1036C000CD00041D0A346213E5986600041E0A3416
:1036D00062A7A2332900041F09346233A4670004DF
:1036E000200B3462B3A21C29670004210A3462A7AC
:1036F000A22E9302042209B362B362170004230AC4
:10370000346213CDB4470204240B35629B57A5AA3B
:103710001D0104250AB362935499920A04260A3CB7
:103720005E93FAD7C801042709B36293AC240B0453
:10373000280D356293924A2AA9A4D21804290E3D75
:103740005E93924A2AA9A4D2D828042A0D3562B3DE
:1037500051463AC5141500042B0B356293F55449B4
:10376000A519042C0AB36213A34A6A01042D0B3471
:1037700062B351DA792400042E0D35621353359269
:103780004A2AC904042F0B346237A24C23CA00040E
:103790003009246237A24C0304310B3462A7F28A49
:1037A0003229000432092462B3561C09043308A3E9
:1037B000623362090434092C5EB7921C3304350964
:1037C0002462A7D2C80A04360A256293AA55A90220
:1037D000043708A362B3E402043809246213D5480D
:1037E0003204390B346213938A6A2419043A092487
:1037F0006213476A06043B082462AB5A32043C0A4F
:10380000256293D74AAA00043D09246213C7940194
:10381000043E092462A7A24C0A043F08246233A490
:103820001904400A2C5EB3A21C2903044108A362B8
:1038300037B300044208A362B3620504430A2C5E56
:1038400013652A4B0004440BBB5E23AB91464A0030
:103850000445092462139354310446092C5E13CDA8
:10386000A10304470924621365DA0104480B2562A9
:1038700093924A2A8D0104490C2D5E93924A2A8D17
:103880008D02044A092462A3654A0A044B09246292
:1038900013971A29044C09246293571C09044D08F4
:1038A000A36223E502044E0A246293925A2A010479
:1038B0004F08A362B7D20A04510B3462933256699F
:1038C000640504520B3C5E17679629C7040453092C
:1038D00034625B0E5D03045408A36237521604552C
:1038E00009246237341A0A045609B3629791AC0668
:1038F000045709B36293B2AC0604580ABB5E9B61DD
:10390000A92A0004590A256227D348C902045A0A81
:10391000256293E2489505045B0A3462176796A90D
:1039200001045C093462DB1CA919045D06007E03F6
:10393000045E0B3C5E139386555902045F0AAB5E2E
:1039400093AC91120004900834623F761B049108F6
:103950002C623F760D04920A3462B7E2CC25000453
:1039600093092462B7E28C0004960E3D5E9392AAFE
:1039700056A592AA510004970B2D5E93AA55A91A39
:1039800005049A0D3D5E1353A953AC724601049B86
:103990000B2D5E13D34CB1860104AE0C35629375CA
:1039A000AA33CA280204AF0B2D5E93539D514611D2
:1039B00004B00C35629375AA86CC280204B10B2D95
:1039C0005E93533564461104B20BBC5E939A39A6DC
:1039D000360A04B30A2D5E13A396350C04BA0A34D2
:1039E0006293F38A660004BB0AB36213A34A5600CB
:1039F00004D80B3462A7621E33290004D90924625B
:103A0000A7474A0A04E209BB62B357AC0604E308BD
:103A1000B362B3653504E80B3462A7E2983229003B
:103A200004E9092462A7864C0A04EE0B3C62333297
:103A30008ACEA40004EF0A346233328A661A000088
:103A4000830002020304030504060C00FE07FE08BF
:103A5000FF0139028503AC2005006A0721073943BD
:103A600067A80022079B56275901230B3542AF1A3E
:103A7000AA4C69A80A240D4D3E37AF4AE59D54B5BE
:103A8000230025093D4247CEDC3905260C3D422F57
:103A9000A79872956454012705195767280ACB3EE9
:103AA00037C514EB9803290BCB3E27C71CAB9822D4
:103AB000002A0A3D42B7AA765ECD082B0A2D46376A
:103AC000A3386446112C071B3E4F8D042D060D4E66
:103AD00067082E06924267042F0C3D421FE58C7248
:103AE0008D7246003009BC424F45CFA4003108BB5F
:103AF000422FC9AE01320A3D426FE58C727B08331A
:103B00000C3D42676894B3863A2D00340C3D423F29
:103B1000CB54A6A1334A00350C3D42E74623C38C63
:103B2000745A00360C3D4257E68C46CA3A2D00378F
:103B30000D3D4267689433CA19651401380B3D4244
:103B40006F659D56D66901390C3D426F659D4646AD
:103B5000394A003A07AA4267C4113B09333ECF46AF
:103B60006A24003C07AB4637D5053D081D4A676807
:103B700038043E08AB46275725003F0A3D426FE513
:103B800036CA7404400C3D426F6535525223C3055A
:103B9000410A3D426F653D46B603420C3D4267C453
:103BA0002AA659C5A100430C3D426F658D32CA2833
:103BB000A705440D3D4267C42AA698628A43014581
:103BC0000C3D42E746198D94514643460D3D42E770
:103BD00046198D9451461901470C3D426F658D324F
:103BE0008A3B2D0048093D4227DB63643B4908BB03
:103BF0004267C5AE014A0C3D4277679451466594D1
:103C0000004B0B3D4227CB54EA14AB1C4C0E3D42FB
:103C100027A38C32CA28A38C86004D093D4227AFCA
:103C200095B43B4E0A3D4227EBA992DC3A4F093D41
:103C3000426F65EFB400500D3D4267A4AC87CA28BF
:103C4000A38C00510A3D426F6557925105520B3DBE
:103C50004267A4AC872AAB1C530B3D426F650D37FE
:103C6000D46901540E3D4267C88C32CA28A38C2205
:103C70000055083D4227FB4E0B560A3D4227BB53D9
:103C800099720457093D42277B25D505580A3D42C4
:103C900027EB5457B50E590C3D4227EB546794510E
:103CA00046115A0A3D42676894BBD1105B08CB3E6F
:103CB00067C43E075C0D3D4227C38C32CC30A30C59
:103CC000035D08CB3E67F639025E071D5637A73AFB
:103CD0005F060D3A670860069B562717610A2D425A
:103CE0006FC334741A01620C3D4227A38C46CAF696
:103CF0005000630A2D426F658D725A00640B3D427D
:103D00001F659486B6D308650A2D426FE5A1325C23
:103D100000660B3D4257567967945106670B3D3A52
:103D20006F653B8D8CD202680B3D4227A38C46CA3F
:103D3000EE006908BB422F23D91A6A0ACC3A3F63C6
:103D4000DD9649016B0C3D4227A38CB24CB3CA01EE
:103D50006C07BB4247F61A6D0A2D4247B5545249CB
:103D6000156E082D422799DA0E6F092D426F653BBB
:103D70002D00700C3D3A67A46C0F95514600710BF5
:103D80003D3A6F683B8D8C320A720B2D4227991A8F
:103D900065941100730A2D426F68B8E15000740CED
:103DA0003D4237A338644619652875082D42273BE4
:103DB000950A76092D4227DBA98E0077092D422727
:103DC0005B49750178092D4227A7BAAA03790A3DF4
:103DD0003A27DBA96E23007A082D4267E8F6107BAC
:103DE00009CB3E37C52AC73A7C06493FE7017D0A21
:103DF000CB3E27C73AC52A027E091D4A2FAA2413A3
:103E00000000000008046404D0FFFF0400115542C4
:103E10002FC34C8D8D321A29A38C860004010F4DBF
:103E200042AFC663A38C46CA28A32104020F4D3AB1
:103E3000676794D1AC628A1945050403105542BFE7
:103E4000A6C6461965945146190104040D3D426FFA
:103E5000658D46CA28A70504050C3D426F650D37E0
:103E6000D46901040609BB4267C5AE0104070ACB49
:103E70004227E515BB0604080D3D4277679451467D
:103E800065940004090E3D424FA6986252954A1669
:103E900000040A0E3D4227C514531CA952C902044E
:103EA0000B0D3D42676794D1AC628A01040C0E553C
:103EB00042BFA6B24CA54EB1CA01040D0E55422F09
:103EC000C34C6573A5A97500040E0E554227A78D36
:103ED000B33B8D8CD202040F0B4D3A27FB1E33A34C
:103EE0000804100B3D426F653D46B60304110E3DBC
:103EF0004267A48C321A29EBA10004120D3D4267DF
:103F0000A4AC87CA7A280004130E3D42E74619651F
:103F1000945146190104140F453E57A698628A2908
:103F2000A634760004150D3D42E746198D9451469E
:103F30004304160C3D42272555EDBC2A5504170DA8
:103F40003D426FE58CD2863A2D0004180B3D422786
:103F50009B2B4DAD0304190D554227A78DB3B9D244
:103F6000D43A041A0C3D4227CB54EA14AB1C041B70
:103F70000D3D4277C514534C31451D041C0A3D428A
:103F800027AF95B43B041D0A3D4227DB63643B0425
:103F90001E0A3D426F65EFB400041F083D42E7F67C
:103FA0001D04200E3D4267A4AC87CA28A38C0004E0
:103FB000210D3D426F658D32CA28A70504220F3DB1
:103FC0004267C88C32CA28A38C220004230C3D42CD
:103FD00027BBD3C8282D0004240C3D4237AF4A2507
:103FE00055ED0804250B3D4227EB5457B50E04262A
:103FF000114D3A27A698628A29A698864619050483
:10400000270D3D4227DB69649451460104280F3D8A
:10401000422725955452492595C6000429114D3A49
:104020002725955452492595C6461905042A0D3D64
:104030004247A38C329A554C0B042B0C3D4227DB94
:104040005325956600042C0BBC4227D72BCA910040
:10405000042D0D3D426FE58CD2C848A705042E0FF4
:104060003D4227A64AA5915452492600042F0C3DF3
:10407000426F689D464CA50E04300B2D426FC33431
:10408000741A0104310C3D426F653452B6D30204F8
:10409000320B2D4267A43C541E0A04330C2D42E718
:1040A00046196594110004340C353E57A698624AAF
:1040B000630704350B2D426FE5A1325C0004360A1C
:1040C0002D4227553BAF0604370B2D426FE5A872F2
:1040D0005A0004380A2D4227CB95A60E04390D4507
:1040E0004227A78DB35C69EA00043A0AAC4227AACA
:1040F000245319043B0B2D4277C51453D401043CBF
:104100000A2D4227AF95B40E043D0A2D4227EB310C
:10411000B20E043E0A2D426F653B2D00043F082D70
:1041200042E7760704400D3D3A67A46C0F9551466F
:104130000004410B2D426F658D725A0004420C2D14
:104140004267C88C32CA280204430C3D3A27BBD3CD
:10415000C8282D0004440F4D3A37A3BC2A9554B506
:10416000338A0004450A2D4227A7BAAA0304460F42
:104170003D3A27A698628A696894510004470B2D3E
:104180004227EB3432CA2804480C2D422725955487
:1041900052690C04490F3D3A2725955452696C9495
:1041A0005100044A0B2D4247A38C66B500044B0A0C
:1041B0002D4227EBA9D20C044C0AAC4227E7154745
:1041C00002044D0AAC4267A3B44702044E0C2D42D0
:1041D00027A66A24956402044F0AAC426FC4B492C5
:1041E0000C04500D45422FC34CAE3C54860B045179
:1041F0000C3D42AFA6561E2AC30504520F4D3A2F5E
:10420000EF8C661553CC28270004530E4542BFA6F9
:10421000C646196594110004540AAC426FE495D166
:104220000004550B2D426F68B8E15000045609B3E5
:10423000422F23590D045709B3422765590D0458DD
:104240000BC43A3F635DCBA40004590B2D424FA62B
:1042500098546501045A0C2D4227C51447AA2C0016
:10426000045B0C3D422FEF8C6615530C045C0CC4B0
:1042700042B7C6512599CA00045D0D45422FC34C73
:1042800065B9D2D401045E0E553A27A78DB33B8D94
:104290008CD202045F0B3D3A27BBC7CC28020460D6
:1042A0000C3D42AF6D259554170004610A2D42AFB5
:1042B000AD92EA0204620D3D422F8F98D1AC625A52
:1042C0000004630D3D422FA33C6246B35A000464D0
:1042D0000D3D4227AE98E25831C52804650B2D42AA
:1042E00027AE38568C0204660D3D4237A798EA3156
:1042F00052520504670C354237A798EA315201043F
:10430000680D3D4227A698D2B8461A6904690B2D5C
:104310004227A698C61A69046A0D4542E74E658A87
:10432000AB524915046B0B3542E74EE5AA54010424
:104330006C0F4642E7D0AA19874A2BAD1600046DD0
:104340000D3642E748CD38545A2D00046E11653AB7
:10435000AFCEE4CA19450D334A2BC305046F0F5580
:104360003AAFCEE4CA51C3B4325C0004700E3D4291
:1043700027259554B533CA280204710C2D422725F0
:1043800055ED8C220004720C3D426F653D46D669A6
:104390000104730B2D426FE531725A0004740D3D18
:1043A0004227CB14AB9862CA1104750B2D4227CB60
:1043B0002AA61C01047610554227B661962956316B
:1043C000C594230004770D454227B66196554C39B4
:1043D000020478104D3A2FA798621A69A49534CA3E
:1043E0000904790D3D3A2F1D69A49534CA09047A50
:1043F0000C553E37AF4A7B553B02047B0C453E379C
:10440000AF4A5BD58E00047C0C4D426F9319C5EC0E
:10441000EA02047D0B3D426F9355D2AA0B047E0E37
:104420005542E7AA71AAADA492EA02047F0D454263
:10443000E7AA71AA55525D00048010553A6F651BBA
:10444000659451861B65940004810D3D3E6F658D1A
:1044500032DC28A30404820C354637E59464955376
:104460000404830A1E5E1F8EA121000484081662C4
:104470006F660104850815626FC90004860815621D
:104480006F450104870816624FC701048811663A18
:104490002FA39ACAA8E6AF8C6A2AA30204891166E0
:1044A0003A2FA38C66869ABF32CA686628048A0FA0
:1044B000653A27A78DB3BCD29CBA4609048B0F5D21
:1044C0003A27A78DB3B9D2D4354A00048C0D4542A2
:1044D0002FA3BC339A554C0B048D0C3D422FEF8C0F
:1044E0006615D302048E0E454267A46CA5A1B246A0
:1044F0001901048F0E453A67A46CA5A1B2461901B3
:104500000490114D421F6534464619659451461971
:104510000104910F3D421F65344646196594110010
:1045200004920E3D426FA48CF288196594010493A5
:104530000B2D426FA43C62461904940D4D3EE74694
:10454000198D94DD150004950B3D3EE7462365BBB0
:104550000204960E4E3A27F5E74CFDD230C3000414
:10456000970F3E3A27951B653453D230C300049809
:104570000F553A6FE58C728619E9B46B0004990CFB
:10458000453A6FE51AEAB46B00049A104E3A27A731
:1045900058658DEA58679C6100049B0D3D3A27A63B
:1045A00052A758C38C02049C0D3D422725ABD42949
:1045B00026D500049D0B2D4227256B26D500049E91
:1045C0000C3D422F8ED4D4295631049F0D45422FE5
:1045D000A3BC632A758A0504A00E454247A6984AE3
:1045E000AD53AC620004A10A2D4247A652A758045D
:1045F000A212553A27A698621A29A698628A1A65C5
:104600001404A30F3D3A27A698468A296A945100BC
:1046100004A4104542278D14539C29A698628A0051
:1046200004A50C2D42278D14678A290204A6115572
:104630003A67A6986252954A2AA91AE50404A70E79
:104640003D3A67A69854A56A94130004A80F4D3EFE
:104650006F681453A592AA76860204A90C3D3E6F9A
:104660006514536B672804AA10553A6F658D32CADA
:1046700028A39C76860904AB0D3D3A6F658D72DAEE
:1046800019260004AC12553A67C88C32CA28A38C8C
:1046900032D228A30404AD0E3D3AE72A33CA48A318
:1046A0008C120004AE0D3D4227EB54679451461125
:1046B00004AF0D3D3A27EB54679451461104B00DF9
:1046C0003D4227EB540D9951461104B10D3D3A2757
:1046D000EB540D9951461104B2114E3A27A71C53C1
:1046E00046199539E58C330C04B30F3E3A27C7942D
:1046F000514665CE38C30004B412553A679529A6D1
:1047000098628A29A69151460104B50F453A6795EA
:1047100029A698621A19651404B612553A27A69864
:10472000628A29C68D32D228A30004B70F453A27E2
:10473000A69862DC28238D320A04B80E4542275B16
:10474000495523A698320A04B90C3542275BD5880F
:1047500029A30004BA0C3D4227A38C46CAEE0004EC
:10476000BB0ABC4227D72B9A0104BC0E45425756C0
:1047700031C5B1328A510104BD0C354257C6B13240
:104780008A510104BE10553A575631C5B1328A518B
:1047900067980004BF0E453A57C6B1328A516798F0
:1047A0000004C009C34267C55E0304C11055422717
:1047B000A78D53524955AB52491504C20C454227A7
:1047C000A78D53B5F36A04C30F4D3A27CB54EA14AF
:1047D000AB9C51540004C40C3C3A27AA245399932F
:1047E0000204C510553A77C514534C3145AD6B944E
:1047F0000004C60D3D3A77C51453D4354A0004C7AA
:104800000D553A27DB63647746510104C80D3D3AE4
:1048100027EB31B2CE282A0004C90D553A27DB63B5
:1048200064778D120004CA0C3D3A27EB31B2AE51C9
:104830000204CB0E553A277BA79151D619250004C7
:10484000CC0D453A27DB69649475460904CD0F55B4
:104850003A27AF91565249DB354A0004CE0C3D3A17
:1048600027AF95B4AE510204CF07C142E71004D080
:104870000D4D4227A74DADACC7C83A04D10D4542F6
:1048800027A74D6D98864E2304D20C4D42AFA656F5
:10489000D663643B04D30C3D42AFA6364C43A7110C
:1048A00004D40D3D426FA898E248658A6904D50A90
:1048B0002D426FA7B45A0B04D60F4D4227A78DC7C0
:1048C00046236594D11004D70D454227A74DAD3C32
:1048D00054860B04D80D3D426FE58CC6C83A2D00B6
:1048E00004D90B2D426FC331725A0004DA0E4D42C7
:1048F000AFA656CE688CACD30204DB0C3D42AFA60B
:10490000361C23A70504DC0F4D42AFC629A9A4AA73
:1049100055A9A40A04DD0B3D42AFC6A9DA793504D6
:10492000DE0E4D42AFA656CE286AA8D30204DF0C95
:104930003D42AFA6568E2AA70504E00C3D4267E82B
:104940007A439D160004E10C3D3A67E87A439D16D0
:104950000004E20D4D42676898CD95A6D60104E3A8
:104960000C3D42676898E54A530704E40C4D42AF9A
:10497000C6D95C696A1D04E50C3D42AFC659AE3428
:10498000750004E60B4D42AFA656F64E0B04E70B3E
:104990003D42AFA656B6D30204E80C3D426F653DDA
:1049A00046D6690104E90B2D426FE531725A0004C5
:1049B000EA0E4D42AFA656D663649D160004EB0C7A
:1049C0003D42AFA6561E23A70504EC0F4D42AFC6CD
:1049D0001B66984646394D0004ED0CBC422765B86D
:1049E00051DA230104EE0E4D426768984DA532D28C
:1049F000690104EF0E4D3A676898ED3432D26901CF
:104A000004F00E4D42AFC6D9542A239D160004F17E
:104A10000E4D3AAFC6D94E23239D160004F20F5512
:104A2000422FCA8CB3A954463A2D0004F30F553ACD
:104A30002FCA8CB39D46463A2D0004F40E4D42AF6A
:104A4000C6D94E23A38C320A04F50D3D42AFC65998
:104A5000A79151460104F60F453EE746196594516A
:104A6000461A650004F70AB43E67E85A470004F89E
:104A70000D4D42AFC6D99E2AA9340304F90C3D421C
:104A8000AFC6594F95660004FA0F4D3A6FA48CF2E9
:104A9000CE28238D720604FB0D3D3A6FA4BC33D2A1
:104AA00028670004FC0E4D3A27EB5457B5CE282753
:104AB0000004FD0C3D3A27A7BAAA33CA0904FE0C2C
:104AC0003D4227EB540DD5D60104FF0B2D4227A7FD
:104AD0006AA8760005000C3D421F659486B6D3088F
:104AE00005010ABC42BF1AD14C0305020D3D4237F5
:104AF000A32C535249550B05030D3D4237A38CB2ED
:104B00004C49550B05040E3D4247C38CA28629A68D
:104B10009C0005050C354247C38C72AC7202050639
:104B20000C4C3A47A39C34CA591705070C443A4722
:104B3000A31C33CABA0005080E3D42E78A29A6A481
:104B4000924A320105090C2D42E78A29A624130056
:104B5000050A0F3D4227C514535C2AA924130005FA
:104B60000B0C2D4227C514974A3201050C0C3D420F
:104B70006F658DE2D66901050D0B2D426F681477C4
:104B80005A00050E0E3D4267C88C322A534C39013B
:104B9000050F0C2D4267C88C32AA130005100D3D7D
:104BA000426F680D6546392D0005110B2D426FE8E7
:104BB00024735A0005120B3E42E78AFD6AA30805DA
:104BC000130B363EE78ABD72461105140C3E424770
:104BD000F5CFAA4BA60005150B2E4247F55925998E
:104BE0000205160B3D4247AAE4AAED0005170C3555
:104BF0003E472A55AA5A230005180D3D426FA89832
:104C0000F22A534C0305190A2D426FB556190505B2
:104C10001A0B3D426F6557925105051B0C3D3A6FCB
:104C2000683B8D8C320A051C0A3D42277B25D50541
:104C3000051D0A2D42275B497501051E0D3D4227C2
:104C40002599AA9D629503051F0B2D42272599964C
:104C50004C390520114E3A47E594534E3275C994AC
:104C600061460905210E363E47E594934C49A60C52
:104C7000030522114D3A27C514531CA95249D528C2
:104C8000270005230E3D3A27C51447AA548D72020A
:104C9000000000005175040053750400697504009C
:104CA0001815AE15D5168015A8161F15D3160015A4
:104CB00040158D16141520160015A115C815DA1605
:104CC000021581168F15D916F115DB1640152E1514
:104CD000A415A619FF0000001815AE15D5168015ED
:104CE000A8163F15D316001540158D16141520165D
:104CF0000015A115C815DA1612158116CF15D9168B
:104D0000F115DB1640152E15A415A619FF0000009D
:104D10005054564F5349474E3900000000000000E0
:104D20000000000000000000000000000000000083
:104D30000000000000000000000000000000000073
:104D40000000000000000000000000000000000063
:104D50000000000000000000000000000000000053
:1051100000000000000000000000000000005054EB
:10512000564F5349474E4100000000000000000068
:10513000000000000000000000000000010000006E
:1051400000C201000300000000000000CB000100CD
:105150005D0501000F010100F1700000BD010100BB
:105160003B060100BD010100930701006702010039
:10517000F1700000BD0101003B060100CB020100FF
:10518000F1700000000000000000000005040100B4
:10519000F1700000000000000000000000000000AE
:1051A0000000000051040100F170000055040100EE
:1051B0009509010071040100F17000000000000079
:1051C00000000000000000000000000000000000DF
:1051D00000000000B3040100E90A0100C904010055
:1051E000F1700000B3040100E90A0100C9040100E4
:1051F000F17000005504010095090100F904010057
:10520000F170000013000000CDE202001F0000005A
:105210005FE402001F8000003FE502000000000084
:10522000E3E4000001000000E3E4000002000000ED
:1052300095D702000280000093D70200030000000F
:10524000B3D7020004000000F9D702000480000078
:105250005DD80200050000005FD8020006000000D3
:10526000D7D80200300000007BDE020031000000D1
:105270007DDC020032000000C5DF020033000000C8
:105280006BE002003400000011E102003600000073
:105290008FE1020011000000CDE1020014000000C7
:1052A0003DE20200150000004DDC0200FFFF00009F
:1052B000000000008F000100D031002087000100B5
:1052C000E42D00203500280018850020280001006A
:1052D000B331002029000100B43100208400040013
:1052E000F48A0020860001007D1B00202A000100B6
:1052F000B53100202B000100B63100202C00010048
:10530000BA3100202D000800E82D00202E000100F9
:10531000BB3100202F000100BC3100203000010013
:10532000BD31002032000100F38C00203300010069
:10533000F48C002034000100BE3100203600010052
:10534000F58C002038000100BF3100203900010039
:10535000B931002083000200A23100206300010067
:10536000F88C002065000100B73100206D000100BD
:10537000F98C002071000800488A002066000100B6
:10538000CE31002043000100C9310020440002005A
:105390009831002045000100CA310020460002007B
:1053A0009A31002047000800508A00204800010080
:1053B000CB3100204B000100CC3100200400010063
:1053C000CF310020A1000100D631002037000100BC
:1053D000D431002088000100D13100203C000100C0
:1053E000C03100203D000100C13100204900020011
:1053F0009C31002067000100FA8C00204D00020063
:105400009E3100204E000100CD3100204F000200EF
:10541000A03100203E000100C731002051000100F2
:10542000C331002052000100C431002053000100AC
:10543000C631002054000100F68C0020000000005E
:1054400000000000F9C00000D19D020011F202002E
:10545000AD08030083E203003FBE010037E3030011
:10546000BD590200D5E703007B7374617469632D35
:10547000696E7374616E63652D6E616D657D00008C
:105480007B656D7074792D696E7374616E63652DC3
:105490006E616D657D000000982E0020FFFFFFFF0C
:1054A000FFFFFFFF01000000A5AF020006000000A3
:1054B000CDB802000800000039B802000B0000005F
:1054C00075B9020010000000F17D0200020000002A
:1054D000B9B2020005000000DDB5020007000000BF
:1054E00095B302000C000000FBA302000D000000B9
:1054F0008DA7020064000000633F0200FF0000006F
:10550000000000008E0000008E0001008E000200EE
:105510008E0003008F0000018F0000028F00000347
:105520008E0001048E0000058E0008048E00000429
:1055300089000006500000007F0001003F000400C9
:105540003F0002003F0001007F0002008E000204C5
:105550008E0001028E000101000000000200000028
:10556000020000000A00000002000000020001002A
:10557000000000000000000000000000000000002B
:105580000000000000000000000000000E0000000D
:1055900000A6AAACA4A9A9A399B19ABCB6A8000078
:1055A0000204020101010109020000003131171952
:1055B0001A21241B1D1F31313331000031311819DC
:1055C0001A22311C1E2031313431000003007100D9
:1055D000300160001100700031022003500480008F
:1055E00007001000610000001400630073007200E7
:1055F00062004300000013000600000000000400E9
:105600001200000000000000000004000400370049
:1056100037003C024400000000000000000065006C
:10562000000035008100000005000000830000003C
:10563000660000000000080009000A000B000000DE
:10564000010171010101010111010101310101019A
:10565000010180010001100161013B0014006301A0
:1056600073017201620143010001130106013D0152
:1056700035000401120100010001000100010401D4
:105680000401330133013C014401320136000001C1
:105690000001650100013500810100010501820161
:1056A00083010001660100010001080109010A01EE
:1056B0000B0100000302710230016002110270024E
:1056C00001020202020280020002100261023A009C
:1056D000410063027302720262024302000213027B
:1056E000380000020002040212020002000200025E
:1056F000000204020402370037003C0244020002A8
:105700003900000200026502000235028102000237
:105710000502820283020002660200020002080201
:1057200009020A020B0200000103710301030103D5
:105730000103010301032203020301030003100319
:1057400000030003000300030003000300034203FF
:1057500000032403060300030003040312032503CC
:1057600023032503230304030403000300030003AE
:1057700044030003000323030003650321003503F2
:105780008103000305030003000300030003250356
:105790002303080309030A030B0300000304710435
:1057A00002046004110470040204020401040204EF
:1057B00000041004610400041404630473047204FC
:1057C00062044304000413040604000400040404F7
:1057D00012040004000400040004510464000004E6
:1057E00000040004440400040004000400046504F0
:1057F00000043504810464000504000483040004EB
:10580000660400040004080409040A040B040000F0
:1058100000000500BD00B700B100BC001C00300056
:105820003800080038010200000120181A18182C4E
:1058300034041E000C0E020B040B0A070800110FA3
:1058400088B224008813000010000000000000014E
:10585000C003000080070000000F0000001E0000D1
:10586000003C00000078000000F0000000E00100B3
:1058700000C003000080070000000F0000001E00B1
:1058800000003C00000078000000F0000000F00084
:105890000000000000000000000000000000000008
:1058A00000000000000000000000000000000000F8
:1058B000000000000000000000BE040A00BE020854
:1058C0003031323334353637383961626364656676
:1058D0000000000031AD040069AD04006FAD0400AC
:1058E0004BAE040037AF040091AF040099AF040041
:1058F00035B004003DB0040043B0040073B00400B0
:105900008DB00400DBB00400F3B0040067B1040004
:10591000A5B10400ADB104003DB40400D1B404004D
:1059200047B5040077B5040089B50400BFB504008D
:10593000D7B50400FDB6040041B704004DB704001C
:1059400085BF04009FBF0400D5BC0400D7BC040081
:10595000D5BD04007DBD040019BE040065BF040070
:1059600049BF0400CDC2040043C3040037C604008D
:1059700041C6040019C8040039CB040071CF0400EB
:1059800079CF04007BCF040081CF040089CF0400CD
:1059900019D0040041D004005D400021894000215D
:1059A000954000213B410021074C657900F009F842
:1059B00061796940490703D50121044A89031160CF
:1059C00070BD70B5024908478003002108110440EA
:1059D0002D59000000F00AF800480047577F0000EA
:1059E00000F00AF8004800471B880000806B0C4953
:1059F0000007000F48717047094A0A491823507977
:105A0000CB56497EC018814201DD084602E00F28CE
:105A100000DD0F20D189090909010143D1817047B7
:105A2000E0020021880000210122274B02212548A5
:105A3000184710B5254880472548406A00280DD1F1
:105A400024490A200856002809DA401C07D00846D5
:105A50002038406A2049884200D1804710BDFFF7B6
:105A6000E3FF10BD00211E4B1C4A084618470120C9
:105A70001C49400208601C48FB220178114001705B
:105A80001248EC38004710B51849884711492039A9
:105A9000012807D0020404D5002008851448486274
:105AA000012010BD4A6A094BEC3B9A4201D1114AD0
:105AB00005E007494A6A104B9A42F2D10F4A4A62FE
:105AC00010BD0000060800009F060000A192020021
:105AD000080100215401002163920200E7400021E7
:105AE000B5B4020080E100E080030021F7960200D7
:105AF000DD40002123410021699502001941002168
:105B00000102000302000103220000000000211531
:105B1000110E0D0C0B0B0A0A0909090909080808DE
:105B20000808080807070707070707070707070701
:105B3000070000003031323334353637383961628E
:105B4000636465666768696A6B6C6D6E6F707172AD
:105B5000737475767778797A0000000070B5044622
:105B60006569E678802000F0D3FA0A2203213046E6
:105B700000F018FB01462980207A40F004002072D2
:105B80006078BDE8704000F0E8BC00002DE9F04707
:105B900004462DED028B257805F07F050E2D40F093
:105BA0008880207AD4F814A0010712D5DFF8A82441
:105BB000000911780123834019420AD1DFF89C14AF
:105BC0000144487A28B12046FFF7C8FF9FEDB60A86
:105BD000C0E0BAF8029094F80380802000F098FAB0
:105BE000207A470807F0010787F001070025002603
:105BF000BF02400748BFBAF900709AF804C000EE2F
:105C000010CAB8EE400A10EE100A00F0ADFCDFF842
:105C10005024DFF8503400F0CBFC00F09FFD08EE7C
:105C2000100A00F09BF800F099F800F0FEFD8246A3
:105C300014E0381A00B200280BD5404200B208E048
:105C400000F08CF8217A8A0700B2F2D5B842B8BFCA
:105C5000002010FB005500F049FE761C00F0E5FD29
:105C6000A0EB0A004845EBD3002E9FED8F0A71D0C0
:105C7000B5FBF6F000F078FF41EC100B00F082FF6E
:105C800053EC102B4FF06630DFF8DC1300F090FC83
:105C900004460D4618EE100A00F066FC02460B465C
:105CA0002046294600F0F0FF00F058FD00EE100AF3
:105CB00050E0E678032D1CBF042D012D01D10020FA
:105CC00000E0802000F024FA0F2D14BF01220022F2
:105CD0000321304600F01DFA0F2D04D100EE100A0A
:105CE000B8EE400A36E001F0F3F8032D41EC100B5A
:105CF00004D101F0FFF801F0EBF81BE0F9D0042D1E
:105D00000FD153EC102BDFF86403DFF8641300F0BD
:105D10004FFC01F0EFF801F0DBF80022DFF854331C
:105D200006E001F0E7F801F0D3F80022DFF848338D
:105D300000F0AAFF00F012FD00EE100A207AC10761
:105D400008D56069D0ED000AB0EE401A90ED010A66
:105D500001EE200ABDEC028BBDE8F087032140462E
:105D600000F01DBAFEB504462C200899C34D4443EB
:105D70002819022904D10C2A15D1FFF7EFFE2CE0D7
:105D800000F108067788974204BFB6889E420AD180
:105D90000B0006D10C2A0CBF042102210A980180B5
:105DA0001BE0012901D00020FEBDFFF7EFFE8DEDC5
:105DB000000A295D099801F07F01012918BF022915
:105DC0000DD0032913D0042909D00E291DD00F2985
:105DD000E9D10422694601F0AAF90120FEBDA849D3
:105DE00000F019F81BB20193022201A9F3E7A549BB
:105DF000D1ED000A60EE200AFDEEE00A10EE902AD6
:105E0000ADF8042001A90222E5E79F4900F003F85C
:105E1000ADF80430E8E7DDED000A0A8800EE102A4C
:105E2000B8EE400A60EE200AFDEEE00A10EE903A6D
:105E3000704770B504462C214C43904D2E192DED22
:105E4000028B3046FFF7A2FE295D01F07F01032996
:105E5000B0EE408A0DD18B4890ED000A707828EEA4
:105E6000000ABDEEC00A10EE101A09B201F069FC7A
:105E700015E0295D01F07F000F2806D1012000F018
:105E8000D0FA68B180ED018A0AE001F07F017078F4
:105E90000E2902D101F0BCFC01E001F083FC0020DE
:105EA000BDEC028B70BD0000000000002DE9FE4F2C
:105EB0008046764F4D79764911F808A0504600F09B
:105EC000FFF8814600F005F9002000F021F93A784A
:105ED0006A492C2042438C186E4966696162012030
:105EE00005F07F0584F8280040F6043161814FF405
:105EF0008070032DA08106D140F202404FF00909C5
:105F0000608100213AE0042D08BF4FF0080921D03C
:105F10000421504601F004FE0C2010FB09F05E49FC
:105F200001F800A0012D1FD108445C4A4260002105
:105F3000009101916A460121404600F04BFA01AA06
:105F40000221404600F046FA9DED000AB5EE400AF7
:105F5000F1EE10FA6CD0207A40F001002072009827
:105F600030600199716063E018BF022DDFD00E2D03
:105F700006D00F2D5CD10C2060815521A18157E006
:105F800094F8280040F0020084F828004FF4A16142
:105F9000A1816A46666942480090012194F801B0E7
:105FA000584600F0E9F99DF8000000210C2805DAB8
:105FB0000FF2F4013FA2085C115C49003071207AB5
:105FC00000F0FD00014321720098000A00900106D4
:105FD00014BF3C20322070714FF47A70717990FBBD
:105FE000F1F171806A460221584600F0C5F9002897
:105FF0001CBF009800280AD0207A40F008002072C8
:1060000000F00F0000994A1E40EA021020720020A2
:1060100000906946584600F09CFA48B100993180DA
:10602000009800B10420217A01F0FB01084320729E
:1060300084F8018084F802A084F80390002120787D
:1060400000F0800005432570A1711648E0613978A1
:10605000491C3970BDE8F78FDD8C0020302400002A
:1060600038842A357BA0453F66665A3F9A999999AC
:106070009999B93F0000594000408F407471002049
:10608000EA800000842E00004E980000DE8C002084
:10609000188A0020655D0000142B0020308C110050
:1060A0000132E600335E0000B96436203010200B68
:1060B00017081000000000000100010001000100AD
:1060C000A0F11701082902D21738C0B27047FF208B
:1060D00070470C480178CA0700D5704710B541F0E9
:1060E000010101700020084905E0C3B20C2463439C
:1060F000FF22CA54401C054B1C78C2B2A242F4D302
:1061000010BD0000E38C0020142B0020FA73040063
:106110007047134601222DE9FE43092804469146A3
:106120001D4605D101F0AFFE01F0DCFE80B234E087
:106130005FEA09000BD001F03CFF01A801F074FFF9
:1061400001A9204601F050FF5FEA000801D10020BC
:1061500023E000270024002609E06946404601F0BC
:1061600022FF18B9BDF80000641C3F18761CF0B27D
:106170004845F2D3E0B20228A4BFE4B2B7FBF4F77B
:106180003DB1B9B2404601F011FF4FF47A71B0FB56
:10619000F1F7404601F004FFB8B2BDE8FE830023EA
:1061A0000122B8E70023B6E770B504462C214C4322
:1061B000DFF834532E19304601F040FF2A5DDFF836
:1061C0002C1342F080022A55FF200870304670BD23
:1061D000F8B5DFF81C432578A84212D2461CF6B267
:1061E000DFF8047309E02C2171437A18A2F12C0026
:1061F00039442C2201F036FF761CAE42F3DB6D1ED3
:106200002570F1BDF0B5BB4BBB4C1B5C245C02465A
:1062100000E0491CB64D2E78C8B2B04217D25FFAE2
:1062200081FC2C25B04F15FB0CFC07EB0C052878E6
:10623000C0090CD06878904202BF2F7807F07F0722
:106240009F4204BFA878A042E3D148B2F0BD4FF00E
:10625000FF30F0BDF0B50346002400200EE0E4B2AC
:1062600066440E5507F00F076C1C0A2FACBF37268B
:106270003026EDB2F6194E55401CC0B29E79B042A0
:10628000E5B212DAEF1CBA420FDB10B12D264E55E3
:10629000641C1D182F7AC7F30316651C0A2EB4BFA1
:1062A0004FF0300C4FF0370CD9E7E0B290423CBFD2
:1062B00000204855E0B2F0BD10B500F001F811E043
:1062C000012303FA00F000F0FF0000EB01208B4CEB
:1062D000704710B5012303FA00F000F0FF0000EB57
:1062E0000120874C81B22078BDE8104001F016BF34
:1062F00070B500F006F8824E00F00AF800B90FE021
:1063000070BD0446012000FA04F404F0FF04704755
:10631000307804EB0124A4B21546214601F02EBFCB
:1063200030782A462146BDE8704001F0F7BE0122D0
:1063300002FA00F000F0FF0000EB01206F4B07E0D5
:10634000012202FA00F000F0FF0000EB01206C4B8C
:1063500081B2187801F0E6BE012303FA01F101F0E1
:10636000FF0101EB0221002819BF64480078644A4C
:10637000107889B201F002BF1CB500F045F80CBFDF
:1063800002F1FC0102F1AC01052201F05BFE9DF877
:106390000000012816D002280FD0032807D00428B7
:1063A00010D0052809D0062818BF0B2810D10DF1F0
:1063B000010108682060012016BD0DF10101086887
:1063C00080B2F7E70DF10101086800F0FF00F1E786
:1063D000002016BD1CB500F017F80CBF02F1FC013F
:1063E00002F1AC01052201F02DFE9DF80000072806
:1063F00008D10DF10100016800EE101A84ED000AC9
:10640000012016BD002016BD14463E4A00EB800058
:1064100002440229684670470A78521C001D02F0A7
:10642000E5BA70B510260228054603DB0C2110FBE7
:1064300001F6361D304602F0E3FA040003D031467F
:1064400001F0FCFD2570204670BD420602D5491EB4
:106450008941C90F01F0ECBB2C22234B5043184457
:106460000079002818BFFFF7F0BF704738B5002447
:106470001F4D03E00021FFF7EFFF641C2978E0B215
:106480008842F7D32048027802F0FD02027031BD45
:1064900070B52C2606E0D5B2134C75432C44521C23
:1064A00020716171D4B29C42F5D370BD70B52C22BD
:1064B0000D4B0446191D54430C5D00E0401C0C4D6F
:1064C0002E78C1B2B1420CD251435D18297900290E
:1064D0001CBFA9780029F1D02979A142EED1012071
:1064E00070BD002070BD000074710020AB31002031
:1064F000DE8C0020108A0020188A0020EB28002063
:10650000EC28002030240000B28C0020C0001030A5
:1065100070477CB5C0001030461814461D46314601
:10652000102002F0D6FA48B90095234600223146E1
:10653000102002F033FB08B9012076BD002076BDA3
:10654000C00080B510304118102002F005FB01207A
:1065500002BD0B4604220021DBE702B56B46042294
:106560000021FFF7EDFF02BDC0F3C75181B1FF2944
:1065700006D0C110400721F0E04101F160517047A1
:1065800041020CBF40F4E0016FF000410020704771
:1065900000F0004100020AD0B0FA80FC00FA0CF0D2
:1065A00001F16051A1EB0C5101EBD0214005704786
:1065B00030B540F2FF7C1CEA11541DBF1CEA135594
:1065C000644565453FE0641981EA030C6FF35F534E
:1065D0000CF0004C43F48013C90241F0004141EA41
:1065E000505EC5021100A5FB020200284FF000001A
:1065F000EEFB01204FF00001E3FB052118BF42F044
:106600000102401800214941E3FB0E01A4F580641A
:106610000D0302D292184041494154F1010470DD4A
:10662000450872F1004250F1000051EB0451A1F510
:10663000801102D441EA0C0130BD40F2FF7E4CEAE9
:106640000E51002030BD0CEA1355644518BF654556
:1066500081EA030C0CF0004C41D050EA410E1CBF03
:1066600052EA430E02E06146002030BD24422C4431
:106670001BD15FEA050EF6D0090302BF01460020D8
:10668000AEF1140EB1FA81F5AEEB050401FA05FE88
:106690000C35C5F1200100FA05F5C8404EEA000EA0
:1066A0006FF35F5343F480139CE733F00043B3FA76
:1066B00083F504BFB2FA82FE75440B3D641BB5F14D
:1066C000200E2FBF02FA0EF3AB40C5F1200E22FAC6
:1066D0000EFE38BF43EA0E03AA40641C7CE750EA72
:1066E000410E14BF52EA430E6FF000014FF4001543
:1066F00015EB430F8EBF194615EB410F9DE7B4D83C
:1067000030BDD4F10104B4F120050FDAC4F1200545
:10671000520828BF42F0010210FA05FE01FA05F501
:106720007244E2BFE0402843E1400FE0352C9ADCA0
:10673000C5F1200452EA400220FA05F218BF42F0E7
:10674000010231FA05F0A1400A43002172F1004232
:1067500050F1000051EB0C0130BD210001F000426E
:106760008B1AA3F16051B1F5801F0ADBB1F17F6F85
:106770001FD242EAC102C10071F1004142EB5070E8
:1067800070470B15C3F10903212B10D2890241EA8E
:10679000905180020128494141F0004121FA03F063
:1067A000C3F12003994071F100415041704710003E
:1067B00070476FF0000013EB103F5CBF000E42EA21
:1067C000C0507047DFF800F0DBFD021038B504461A
:1067D000FFF7F8FF002504E0615D225C625521545B
:1067E0006D1C401E8542F7DB31BD38B5020048BF45
:1067F000524200230A2500F00EF8002AFBDCFFE7D6
:10680000002802D52D22CA545B1C0020C85408461B
:10681000BDE83240DAE70A2492FBF4F405FB1422C7
:106820003032CA545B1C2246704710B502F08CFA15
:106830004FF47A71B0FBF1F402F083FA604310BDBB
:1068400038B5044602F0DEF805460E48017822000D
:1068500008D10A0710D441F008010170022002F0AB
:10686000D9FB09E0012C07D10A0705D501F0F70192
:106870000170022002F063FB2846BDE8324002F0BE
:10688000CCB80000E38C0020E0B5684601F01AFEA9
:106890000198B0F5803F28BF4FF6FF7080B20EBD63
:1068A00038B504460D4601F03DFC29462046BDE8BA
:1068B000344001F01CBF01431FB502F042FA4FF40F
:1068C0007A71B1FBF0F44C43684602F04BFA0020B9
:1068D000012102908DF8001001946B4622460FF2C0
:1068E0000D01974802F0DCF91FBD0000F8B502F079
:1068F0002BFA944D0646A86886422CD0371A02F02F
:1069000020FA78434FF47A71B0FBF1F402F019FAEF
:10691000298847434FF47A707A18B7FBF0F100FBEF
:1069200011218AB2B2F57A7F05DB014692FBF1F1C3
:10693000641C00FB112129806CB1E968AE60641809
:10694000B4F57A7F06D36B68B4FBF0F1CB186B60BB
:1069500000FB1144EC60F1BD7A494860704779480A
:10696000406870472DE9F041774BB1FBF3F703FB2B
:1069700017113C250446B1FBF5F53C2202FB151529
:1069800025704FF46163B1FBF3F203FB12113C2558
:10699000B1FBF5F16170A270BFB24FF4FA634FF42E
:1069A000B77E40F26D1C64254FF4C87814E0604651
:1069B0000FE068B1642091FBF0F005FB1010002897
:1069C000F5D04A0801EB92708008B1EB8001EED15E
:1069D00070463F1ABFB25B1C99B2404691FBF0F083
:1069E00008FB101060B1642291FBF2F205FB121259
:1069F00042B14E0801EB96729208B1EB820201D1CE
:106A0000724600E062469742D3DA0026267178B1DA
:106A1000642091FBF0F005FB101050B14A0801EB27
:106A200092708008A1EB8001481E8041C00F00E0F9
:106A30000120E380002102E001202271D1B200F0A8
:106A400022F887421CDBE3882279414693FBF1F16F
:106A5000521C08FB11313F1A0029BFB2ECD0642050
:106A600093FBF0F005FB10300028E6D0590803EB4B
:106A700091708008A3EB8003581E8041C00FDCE7B3
:106A8000E770BDE8F08102461F20012908BF02F12E
:106A90001C0005D00729A8BF491EC90748BF1E20F2
:106AA000C0B270472DE9F8430546AC78697828787C
:106AB000EF7895F904603C2212FB041412FB0404E5
:106AC0004FF064084FF4C87904E00120F1B2FFF7F9
:106AD000DAFF3F18761E70B2EA88002823D400F04F
:106AE00035F80029F1D000F037F8EFD0510802EB6B
:106AF00091708008A2EB8002501E8041C00FE5E734
:106B000040F26D100EE000F021F849B100F024F8D9
:106B1000F6D0510802EB91739B08B2EB8300EFD1E2
:106B20004FF4B770C719521E92B2B2F5FA6FEADA93
:106B3000BFB2054800FB07442046BDE8F2830000D1
:106B4000FC800020D888002080510100494692FB3B
:106B5000F1F109FB11217047642092FBF0F008FB72
:106B6000102000287047015650B1B0FA80F18840DB
:106B7000C91CC1F58461090501EBD02140057047AE
:106B80000146704751EC100B00B500F003F841ECE2
:106B9000100B00BD40F2FF7C0B0D4DD0634566D25B
:106BA00030B421EA035141F4801103F2FD3C5FEA65
:106BB0005C0C01D300184941890041EA90718000C2
:106BC0004FF440140023E202D50AB1F5100107D4B6
:106BD0006D081DD2091B641900184941491BF7D5DE
:106BE0006D080AD20919641B00184941491BEFD5E9
:106BF0006D08F7D301E0520817D0C01861419B1A05
:106C0000AC4100184941801AA941F4D452080AD075
:106C1000C01AA1419B186C4100184941801AA94132
:106C2000E9D45208F4D15B1C6C4161084FEA33008F
:106C300001EB0C5130BC704750EA0103FBD030B47B
:106C4000B1FA81F311B9B0FA80F41B190B3BB3F11F
:106C500020042FBF00FA04F19940C3F1200420FA68
:106C600004F438BF21439840D3F101039DE7634505
:106C700014BF50EA410CDEE711F5801FDBD8D94381
:106C800002F0D2BC70470141F0B540F2FF7581EAD5
:106C9000030C0CF0004C15EA11541DBF15EA1357F4
:106CA000AC42AF42E5E0BC41C1F31301C3F31303AF
:106CB000801A994143F4801304D2641E001849419C
:106CC00080185941C90241EA5051B1FBF3F603FB68
:106CD0001611A2FB0675D7EBC020A94102D2761E81
:106CE00080185941C90241EA5051B1FBF3FE03FB40
:106CF0001E11A2FB0E75D7EBC020A94103D2AEF145
:106D0000010E80185941890241EA9051760546EA00
:106D10008E2EB1FBF3F603FB1611A2FB0675D7EB23
:106D20008020A94102D2761E80185941C90241EA49
:106D300050514EEA060EB1FBF3F603FB1611A2FB0F
:106D40000675D7EBC020A94102D2761E80185941A2
:106D5000C90241EA5051B1FBF3F703FB1711A2FB43
:106D60000735D3EBC020A94167F100070CBF0042F3
:106D700047F0010766F3D5274FEA1E31B80814F52E
:106D8000806412DDBD0775F1004250EB0E5051EBEF
:106D9000045111F5801F5CBF41EA0C01F0BD4CF0BD
:106DA0007F6141F0E0410020F0BDBD076D0840EA81
:106DB0000E5041F48011D4F10104B4F120060ADA36
:106DC000C4F120060200E04001FA06F3E140184356
:106DD000B24015430EE0342C13DCC6F1200445EA22
:106DE00040056D0820FA06F2154321FA06F0A1408D
:106DF0000D43002175F1004250F1000051EB0C01F0
:106E0000F0BD00205FEA0C01F0BDCFB992185B41E4
:106E1000B3FA83F704BFB2FA82F6BF190B3FB7F19A
