:100000004343323678325231FFFFFFFF0301F7FFDF
:10001000FFFF0701FFFFFFFFFFFFFFFFA80000003A
:1000200030303031BC4704002C00FFFF01F7FFFFE8
:080030000000000000000000C8
:1000A8000080002091400400914104009141040027
:1000B80091410400914104009141040091410400E0
:1000C80091410400914104009141040091410400D0
:0C00D80091410400914104005D410400CE
:1000E80001280000000000000000000000010030AE
:1000F80000000000000000000003FF18640000007A
:1001080000000000000000007856341200000000D3
:10011800BAAB000000000001000000000000000071
:1001280000008001100080FFFDFF58003AFFBBF37C
:10013800FFFFFFFFFFFFFFFFFFFFFFFFFFFFFFFFC7
:10014800FFFFFFFFFFFFFFFFFFFFFFFFFFFFFFFFB7
:10015800FFFFFFC5FFFFFFFF00FFFFFF00C5C5FF53
:10016800000000FF00000000FFFFFFFFFFFFFFFF90
:10017800FFFFFFFFFFFFFFFF00000000000000007F
:100188000100000000000F0000000E003600000013
:1001980000000000BC18002004000000000000005F
:1001A8000000000020000000B8010000300000003E
:1001B800300000000000000000000000E001000026
:1001C800040000000000000001000000FFFFFFFF26
:1001D800FF0000000100000008000000000000000F
:1001E800010000000002000000000000914104002E
:1001F80000000000080000004C0500001402000088
:10020800ABAB0000A3AB0000A7AB000019B5000022
:1002180045B5000001B500002700000000020000FD
:10022800DC180020040000000000000000000000AE
:100238000C00000044020000180000001800000034
:100248000000000000000000540200000800000048
:1002580000000000100000004C05000074020000BF
:10026800BDAC0000D5AB000055AC0000F5B50000F2
:100278004DB60000D9B5000028000000600200005B
:100288000C1900200400000000000000000000001D
:1002980020000000A4020000180000001800000060
:1002A8000000000000000000B40200000800000088
:1002B80000000000080000004C050000D402000007
:1002C8004FAD000011AD00003DAD000079B5000054
:1002D800B5B5000067B5000029000000C0020000A5
:1002E800E8180020040000000000000000000000E2
:1002F800240000000403000018000000180000009B
:1003080000000000000000001403000008000000C6
:10031800000000005005000034030000ABAD0000F1
:10032800B9AD0000D1AD0000C7AD0000ADB600000A
:10033800DDB6000089B600002A0000001C0300009A
:100348001419002004000000000000000000000054
:1003580014000000640300001C0000001C000000E2
:10036800000000000000000078030000000000000A
:10037800080000000000000001000000F168000013
:10038800DDAD0000E1AD0000F5680000F96800008F
:10039800E56800000369000024000000FFFFFFFF7C
:1003A80028190020040000000000000000000000E0
:1003B80028000000C40300002400000024000000FE
:1003C8000000000000000000E00300000000000042
:1003D800000000000000000008000000000000000D
:1003E8000A00000030190020B1710000010000006F
:1003F800F0030000FFFFFFFF501900200400000079
:100408000000000000000000100000001C040000B4
:1004180018000000180000000000000000000000A4
:100428002C04000008000000000000000C00000080
:10043800FFFFFFFF58190020040000000000000023
:10044800000000001C000000580400002400000008
:1004580024000000000000000000000074040000F8
:10046800000000000100000000000000080000007B
:1004780000000000FFFFFFFF6019002004000000DB
:100488000000000000000000380000009C0400008C
:100498002800000028000000000000000000000004
:1004A800BC0400000000000000000000FFFFFFFF88
:1004B800000000000800000000000000010000002B
:1004C800000000000600000034000000FFFFFFFFEE
:1004D800C81900200400000000000000000000000F
:1004E80054000000F40400003C0000003C00000040
:1004F80000000000000000002805000000000000C7
:1005080000000000010000000000000000000000E2
:1005180000000000000000000100000000000000D2
:1005280008000000000000000100000000000000BA
:1005380000000000000200000000000000000300AE
:1005480071AF0000540500005405000000000000D1
:100558001C19002049B30000F5B3000049A60000AB
:1005680079AB0000030000006005000000000000F7
:100578000000000020000000010001000000000051
:1005880000000000000000000100000080050000DD
:1005980059B1000025B20000B59700003F9D00004A
:1005A800639F00009BA40000FFA9000067AB000048
:1005B80053AD000098050000000400005DB3000082
:1005C800E4180020C9B10000CBB100000000000011
:1005D80005000600080009001600020102020302D5
:1005E800000301030105020500060106040B1406B9
:1005F8001506170600070107020703070009040983
:1006080007000A000C000D000E000F00100011007A
:100618001200130014001B00000101010002010276
:10062800020400040104030404040504060400058C
:100638000206030604060506060607060806090656
:100648000A060B060C060D060E060F061006110606
:100658001206130604070009000B010B020B030B1B
:1006680053554E004D4F4E005455450057454400D4
:10067800544855004652490053415400464F4F00D4
:100688004A414E00464542004D41520041505200F9
:100698004D4159004A554E004A554C0041554700B6
:1006A800534550004F4354004E4F560044454300B5
:1006B80084060000880600008C06000090060000F2
:1006C80094060000980600009C060000A0060000A2
:1006D800A4060000A8060000AC060000B006000052
:1006E800B40600000097B92EE5725CCB5DCAE473CE
:1006F800B82F0196BA2D03945FC8E671E7705EC9FA
:100708000295BB2CE3745ACD0691BF28BE290790E9
:100718005BCCE27559CEE077BC2B05920493BD2AD9
:10072800E17658CF51C6E87FB4230D9A0C9BB522C9
:10073800E97E50C7EB7C52C50E99B720B6210F98B9
:1007480053C4EA7DB2250B9C57C0EE79EF7856C1A9
:100758000A9DB324089FB126ED7A54C355C2EC7B99
:10076800B027099EA2351B8C47D0FE69FF6846D189
:100778001A8DA334188FA136FD6A44D345D2FC6B79
:10078800A037198E41D6F86FA4331D8A1C8BA53269
:10079800F96E40D7FB6C42D51E89A730A6311F8859
:1007A80043D4FA6DF3644ADD1681AF38AE39178049
:1007B8004BDCF26549DEF067AC3B15821483AD3A39
:1007C800F16648DF1087A93EF5624CDB4DDAF46329
:1007D800A83F1186AA3D13844FD8F661F7604ED919
:1007E8001285AB3C510010000000005500100000BD
:1007F8000000670018000000006F001800000000EB
:100808000400420000000043002300000000000034
:100818000086227E6DB24620290B2170104080523E
:100828003F065B4F666D7D077F6F090D614843D3B7
:100838005F777C395E79713D76301E753815373FA4
:10084800736B336D783E3E2A766E5B39641F2308DE
:10085800025F7C585E7B716F74100C753014545CA9
:100868007367506D781C1C14766E5B4630700100FF
:10087800360001000600000000000000000F000024
:10088800000000000000000000000000000003005D
:10089800FFFF00000403FFFF0000FFFF0F00E80355
:1008A8000005401F0310000100000000FF3F0F007B
:1008B8000800050B00000000000000000300010F05
:1008C8000000000000000000000000000000000020
:1008D8000000000000000000000000000000000010
:1008E8000000000000000000000000000000000000
:1008F800AD000002000000000001363601010001D1
:1009080002010001030100010401060608040000B9
:100918000C0100340D01000F10040101140100FF47
:100928001608000020020000220100FF2301000138
:10093800240100FE2501000826020000280100010C
:10094800290100012A0200002C01000F2E020000DC
:100958003001000131010008320200FF34010007B4
:10096800350102FF3601000037010001380100019E
:10097800390100FF3A01000F3C0200FF3E01010F60
:100988003F0100014001041F41010001420100FF35
:1009980043010080440800004E0100084F01000F89
:1009A80050010001510100FF5201000053010000F5
:1009B80054010001580400005C04000060040000B9
:1009C80064040000680400006C0400007004000067
:1009D80074040000780400007C040000800100FF1B
:1009E80081010001820100018301020284010001EA
:1009F800D70203001F0503000000000000000000EC
:100A080000000000FD0A03001B0B0300610A03003D
:100A1800350B0300650B03006B0B0300390D030056
:100A2800000000002F0D0300450E030075060300AB
:100A3800710B0300910B03001D0C0300C10E030092
:100A4800FB060300C5100300A1100300000000000E
:100A580041110300E1060300E90F03003915040002
:100A68005714040093150400451404006514040089
:100A7800FB160400FF160400271A04006919040075
:100A8800A11A0400491904005B190400F71A0400AC
:100A9800FB1A04005D8001006980010090170020A6
:100AA80040170020301800004818000060180000A7
:100AB800E800000078180000981800000000000006
:100AC8005054564F5349474E310000000000000073
:100AD800000000000000000000000000000000000E
:100AE80000000000000000000000000000000000FE
:100AF80000000000000000000000000000000000EE
:100B080000000000000000000000000000000000DD
:100B180000000000000000003C0010010305070968
:100B28000B0D0F00020406080A0C0DBFFB097074B8
:100B3800766F2E696E666F202020202020200B7093
:100B480074766F2E737769746368202020202000E4
:100B5800202020202020202020202020202020208D
:100B68000A323032362D30332D3330010000000088
:100B7800000000000000000000000000000000006D
:100B8800000000000000000000000000000000005D
:100B9800000000000000000000000000000000004D
:100BA800000000000000000000000000000000003D
:100BB800000000000000000000000000000000002D
:100BC800000000000000000000000000000000001D
:100BD800000000000000000000000000000000000D
:100BE80000000000000000000000000000000000FD
:100BF80000000000000000000000000000000000ED
:100C080000000000000000000000000000000000DC
:100C180000000000000000000000000000000000CC
:100C280000000000000000000000000000000000BC
:100C380000000000000000000000000000000000AC
:100C4800000000000000000000000000000000009C
:100C5800000000000000000000000000000000008C
:100C6800000000000000000000000000000000007C
:100C7800000000000000000000000000000000006C
:100C8800000000000000000000000000000000005C
:100C980000000000000000005054564F5349474ED2
:100CA800320000000257680002487A0002706600AD
:100CB80002506100036B6700026C78000370706D6E
:100CC800056D63706D300000056E63706D30000057
:100CD800057073697A65000003455252017300007C
:100CE80000000000000000000000000001200000DB
:100CF8002D42000000010000022000002D420000EB
:100D080000010000032000002D4200000100000047
:100D1800042000002D420000000100000500000032
:100D2800F5140100000000000600000000000000AB
:100D380000000000070000008BA1030001900000E4
:100D4800080000007FD2030000000000000000003F
:100D580000000000000000000A0000000000000081
:100D6800000000000B20000089D0030010000000E4
:100D78000C020000FD5E0300000000000D000000F2
:100D880000000000000000000E2000002D420000BE
:100D9800100100000F2000002D420000100000008C
:100DA800000000000000000000000000110000002A
:100DB800378903000000000012000000BD8803000E
:100DC8001000000013000000DBE2030000800000B8
:100DD80000000000000000000000000015000000F6
:100DE800F5BC03004100000016000000F5BC03003C
:100DF8005000000017010000DBE203000080000043
:100E0800180100001DF40300008000001900000014
:100E1800656E0100000000001A000000656E010008
:100E2800000000001B00000009E0030010000000A3
:100E38001C01000061AA0300000100001D01000060
:100E480061AA0300000100001E000000E9D40300AD
:100E5800100300001F010000D55503000800000022
:100E680020000000BFEE010000000000210000008B
:100E7800EFBE0100000000002200000081C2030054
:100E88001000000023000000FD5E030000000000C9
:100E9800000000000000000000000000000000004A
:100EA80000000000000000002601000045C7030004
:100EB8001000000027110000CD10040010000000F1
:100EC80028090000FBC303000000000029000000FF
:100ED80087070400100000002A700000E7A4030040
:100EE800000300002B22000089D00300100000003E
:100EF8002C000000E50A0400100000002D0200008C
:100F0800E50A0400100000002E010000997F03008C
:100F1800000400002F0000007D7A03000008000094
:100F280030000000F9D50300100000003101000076
:100F3800000000000000000032010000BFB2030002
:100F4800100000003301000015DD0300430000001D
:100F58003400000000000000000000003500000020
:100F68000000000000000000360000000000000043
:100F7800000000003711000001A803001000000065
:100F88003832000067130400000000003901000037
:100F980061AA0300000100003A0000009DC601009C
:100FA800000000003B00000095CC03001300000087
:100FB8003C00000000000000000000003D010000AF
:100FC800598503000000000002040504030400041E
:100FD8000C000C040D042A04040B02070A0011007B
:100FE800060000005054564F5349474E33BFFB0983
:100FF800003003262000000000FFFFFFFFFF000075
:10100800000000000000000000005054564F5349F3
:10101800474E34004F4144204E564D3100000000E9
:1010280000000000000000000000000000000000B8
:1010380000000000000000000000000000000000A8
:101048000000000000000000000000005054564F4F
:101058005349474E37000000000000000000000020
:101068000000000000000000000000000000000078
:101078000000000000000000000000000000000068
:101088000000000000000000000000000000000058
:101098000000000000000000000000000000000048
:1010A8000000000000000000000000000000000038
:1010B8000000000000000000000000000000000028
:1010C8000000000000000000000000000000000018
:1010D8000000000000000000000000000000000008
:1010E80000000000000000000000000000000000F8
:1010F80000000000000000000000000000000000E8
:1011080000000000000000000000000000000000D7
:1011180000000000000000000000000000000000C7
:1011280000000000000000005054564F5349474E3D
:101138003800000000000000000020015FBA010034
:1011480000000000010020015FBA0100000000005B
:101158000200200146FD01000000000003002001FC
:101168005EBA01000000000004004201350B0000D7
:101178000000000005004201460B000000000000CE
:1011880006004201680B0000000000000700200173
:10119800730B00000000000010004201570B000014
:1011A8000000000011002001FB7100200000000079
:1011B80000404201680B000000000000008042016E
:1011C8005D1000000300000000002103D67100201C
:1011D80006000000000010110000000007000000D9
:1011E800000030330000000007000000100030331A
:1011F800000000000700000001402033000000004C
:101208000700000002402033000000000800000032
:1012180000002033000000000A0000000000E23354
:10122800000000000A000000010018330000000060
:101238000C00000055003933000000000C000000CD
:101248001C0042330000000011000000040042337B
:1012580000000000110000004300233300000000DC
:1012680011000000510010110000000011000000E2
:10127800550010110000000011000000670018114F
:1012880000000000110000006F00181100000000AD
:1012980012000000550021010000000014000000A9
:1012A8000E00422200000000190000000000F0813A
:1012B8005014002019000000010023815814002058
:1012C80019000000020023012C7000201900000002
:1012D800030021810C1D0020190000000400238157
:1012E8005C14002019000000050021810E1D00205B
:1012F8001900000006003081F97100201900000073
:1013080007002101D2710020190000000800210106
:10131800D07100201900000009002181CE71002041
:1013280019000000FDFF21813A5700000004000069
:10133800000021040000000002040000000029153C
:101348000000000003040000000029040000000061
:101358000504000000002904000000000C0400003F
:1013680000003904000000000D04000000003904EA
:10137800000000002A0400000000390400000000FA
:101388000207000000002904000000000207000016
:1013980000021805C32A02000207000000033005F6
:1013A800AE540200020700000103220514150000D4
:1013B80002070000020322051815000002070000BA
:1013C80003031801C22A02000207000006031811CD
:1013D80000000000040B000000001B0510150000B1
:1013E800040B00000001291500000000040B000098
:1013F8000301291500000000040B00000601290460
:1014080000000000040B000000022105AE6100008E
:10141800040B0000010221059A640000040B00007F
:1014280002022105AE610000040B00000302210541
:1014380042650000040B000004022105AE610000B3
:10144800040B0000050221058A7C0000040B000043
:101458000003210400000000040B00000004210523
:10146800AE610000040B000001042105927C00001D
:10147800040B00000505211500000000040B000006
:101488000805211500000000040B00000B052904C5
:1014980000000000040B00001005280400000000F4
:1014A800040B000000062105AE610000040B0000DB
:1014B800010621059A640000040B000002062105BC
:1014C800AE610000040B0000030621054265000020
:1014D800040B000004062105AE610000040B0000A7
:1014E80005062105227C0000050B000001002102F1
:1014F8000000000001000401FEFF000000000000E1
:1015080000000000000000002100000001000000B1
:10151800E80300000000C842002474490A000000E3
:101528000200000004000000080000001000000095
:1015380020000000400000008000000000010000C2
:101548000002000000040000000800000010000075
:101558000020000000400000E8030000D0D1D2D3F2
:10156800D4D5D6D7D8D9DADBDCDDDEDF5A696742D5
:101578006565416C6C69616E636530396A00780035
:101588005BEC03009BEC0300ABEC03006C00F00089
:10159800B9410400F7410400074204006B00F00061
:1015A800C1EB0300FFEB0300ABEC03006600F000A7
:1015B800C1EB0300FFEB0300ABEC03006700140072
:1015C80053EE030081EE030093EE0300690014005C
:1015D80011EF0300C1EF030041EF0300EE28E80319
:1015E800C1E30300F3E60300E5E403002F00640011
:1015F800E9EF03004FF0030081F0030068000A00E0
:1016080055ED03000DEE03008DED03006D000400A1
:1016180099E90300EDE9030049EA030064000100C9
:1016280000000000000000005BE703006300010009
:1016380000000000000000005BE7030062000100FA
:1016480000000000000000005BE7030061000100EB
:1016580000000000000000005BE7030070000100CC
:1016680000000000000000005BE70300143E0000DB
:10167800C06D0020F8150020143E0000C26D002047
:1016880004160020143E0000C46D0020101600202F
:10169800143E0000C66D00201C160020143E0000F9
:1016A800C86D002028160020143E0000CA6D0020D6
:1016B80034160020143E0000CC6D00204016002097
:1016C800143E0000CE6D00204C160020143E000091
:1016D800D06D002058160020546D0020FB6D0300CB
:1016E8007C6A002026700300000002400929FF00E0
:1016F8000C6C0020F01600000020050000400000DF
:10170800303E0000FE71002000170000583E000027
:10171800646F002074160020803E0000F8600020EE
:101728009C160020803E0000186100209E160020B4
:10173800803E000038610020A0160020803E000096
:1017480058610020A2160020803E00007861002029
:10175800A416002000000000D9BB00002D7700006F
:101768000101010000000000FF000100000000006E
:1017780000000000A43E0000CC590020A81600205C
:10178800FF0000000000000080A90300A8620020FC
:101798008817000058520020E81600200000084072
:1017A800E8030000BC3E0000A46A0020A417000063
:1017B800000001401FFF000017000000001001405A
:1017C80021FF0100190000000020014023FF020052
:1017D8001B0000000030014025FF03001D00000031
:1017E8000000014020FF00001800000048540020BD
:1017F800B81700000000000094540020C41700002F
:1018080000000000E0540020D01700000000000095
:101818002C550020DC17000000000000785500203F
:10182800E8170000010000000208000000000000A6
:1018380000000000000101000000A220A017002005
:101848000308000000000000000000000001650916
:101858000000000000000000012C00000000000053
:10186800000000000001001E000000000000000051
:10187800022C000000000000000000000000000032
:101888000000000000000000000000000000000050
:10189800032C000000000000000000000000000011
:1018A8000000000001500000D00700000DF5030003
:1018B8008FF50300A1F60300021080005802000013
:1018C800E9F60300AFF7030053F70300D50002025F
:1018D8000304030404050800FF06FF0600011A02BA
:1018E80031032F2005007E03210731633352002284
:1018F800079B6E93AC00230D3D6257A634543554B4
:10190800991200240A3D629B57BD53DA112508AB92
:101918006613536700260A3C621753B36AA600276A
:1019280005196F332807B262A79A012908B2621312
:1019380053A5002A0A2C6213931A49C5002B0A2DB5
:10194800629B511C32A3082C079B5EA74A002D06F8
:101958000C6A33022E079B5E9756022F0834625F8B
:10196800B633003008B36257B92A003107B362971B
:10197800646B320A3462A7624E2A8F00330A3462DB
:101988003362D4482605340A34621B5535624E004A
:10199800350A346233F446322900360A3462A7F233
:1019A8008A322900370A34623372CC314700380A48
:1019B8003462A76252512605390A3462A7A24C3B09
:1019C80029003A07AA6233E2083B08B35E67235549
:1019D800023C07B3629BCA5C3D081C6633321A019D
:1019E8003E08B36293CB54023F09B362D74C192621
:1019F80000400C455E2BA35C492559430541093439
:101A080062A7A21C5306420A3462B3E248518E040C
:101A180043093462A7A22E930244093462B3A27325
:101A280024004509346233F4CA7904460934623320
:101A3800F4CA3500470A3462A7A24E332900480980
:101A4800346213E59866004907B362B3626B4A09CA
:101A5800346237735546004B093462135592A933E3
:101A68004C08346293BB47004D09346213C711CD4B
:101A7800004E09346213D75867004F093462A7A291
:101A8800332900500A3462B3A21C29670051093C6B
:101A98005EA7A25C6E14520A3462B3A21C29CA0063
:101AA800530A3462A762CAA84C0A5408B362B362E4
:101AB800170055083462133D930256093462139D8A
:101AC800492A005709346213CD71C400580A346298
:101AD8001365922ACA00590B35629375AA33CA282E
:101AE800025A09346233726C8F005B07B362336247
:101AF800735C0A34629333CA28A31C5D07B362334C
:101B08009B235E069372D7005F060C5E3302600665
:101B1800927213036108246237A24C03620A34628A
:101B280093F38A7224006307A36237B3006409340D
:101B3800625F8D28D30065082462A7D2C80A6609A7
:101B480034625B9533470067092C5EA762DA490166
:101B58006809346293F38A66006908B3629791ACA6
:101B6800066A09BB5E9B61A92A006B09346293CBA4
:101B780091A20C6C07B36223BB066D092562A35AB8
:101B88002AA9026E072462B3A2196F082462A7A2C9
:101B98004C0A70092C5EB3E248390371082C5E3791
:101BA80062DA057208246293929D017307A3623773
:101BB800F202740A346297E3CC292600750724627E
:101BC80013CD347607A36293AC0A7709256293553F
:101BD800525D007808246213935431790A2C5E13FD
:101BE800651A3129007A082462336239027B0B3C7A
:101BF80062AB324A1AC58C047C053163737D0C3C98
:101C080062A351CC48659424007E0714729754024D
:101C180000000004FFFF04010A346233F4CA7904A7
:101C280004020B3C5E33B34CED98000403093462A4
:101C38003374370004040B3462A7E2CC3129000462
:101C4800050B3462A762CAA84C0A040608B362B33B
:101C5800626B040708B362B3626B0408093462DF7D
:101C680096490104090C356227534CAA52C902044B
:101C78000A0D356293628A23552A5900040B0934E8
:101C88006233B34C3D040C0B346213559232950108
:101C9800040D06007E03040E0AB36293AC324500BD
:101CA800040F0ABB5E93BC464A0004100A3462A7BC
:101CB800A21C530604110B3462B3F28A7224000486
:101CC800120B3462B3E248518E04041309346233B0
:101CD800A46E0304140A3C5EA7FA6BC80004150A34
:101CE800346233F4CA790404160C35629392AA5606
:101CF800A5922A04170B3462A7628D645200041857
:101D08000A346213AD91A40C04190C3C6213938A33
:101D18006A242903041A0B3462135592A994010406
:101D28001B093462ABFA2503041C0A346213C71179
:101D3800CD00041D0A346213E5986600041E0A34B7
:101D480062A7A2332900041F09346233A467000480
:101D5800200B3462B3A21C29670004210A3462A74D
:101D6800A22E9302042209B362B362170004230A65
:101D7800346213CDB4470204240B35629B57A5AADD
:101D88001D0104250AB362935499920A04260A3C59
:101D98005E93FAD7C801042709B36293AC240B04F5
:101DA800280D356293924A2AA9A4D21804290E3D17
:101DB8005E93924A2AA9A4D2D828042A0D3562B380
:101DC80051463AC5141500042B0B356293F5544956
:101DD800A519042C0AB36213A34A6A01042D0B3413
:101DE80062B351DA792400042E0D3562135335920B
:101DF8004A2AC904042F0B346237A24C23CA0004B0
:101E08003009246237A24C0304310B3462A7F28AEA
:101E18003229000432092462B3561C09043308A38A
:101E2800623362090434092C5EB7921C3304350905
:101E38002462A7D2C80A04360A256293AA55A902C1
:101E4800043708A362B3E402043809246213D548AE
:101E58003204390B346213938A6A2419043A092428
:101E68006213476A06043B082462AB5A32043C0AF0
:101E7800256293D74AAA00043D09246213C7940136
:101E8800043E092462A7A24C0A043F08246233A432
:101E98001904400A2C5EB3A21C2903044108A3625A
:101EA80037B300044208A362B3620504430A2C5EF8
:101EB80013652A4B0004440BBB5E23AB91464A00D2
:101EC8000445092462139354310446092C5E13CD4A
:101ED800A10304470924621365DA0104480B25624B
:101EE80093924A2A8D0104490C2D5E93924A2A8DB9
:101EF8008D02044A092462A3654A0A044B09246234
:101F080013971A29044C09246293571C09044D0895
:101F1800A36223E502044E0A246293925A2A01041A
:101F28004F08A362B7D20A04510B34629332566940
:101F3800640504520B3C5E17679629C704045309CD
:101F480034625B0E5D03045408A3623752160455CD
:101F580009246237341A0A045609B3629791AC0609
:101F6800045709B36293B2AC0604580ABB5E9B617E
:101F7800A92A0004590A256227D348C902045A0A23
:101F8800256293E2489505045B0A3462176796A9AF
:101F980001045C093462DB1CA919045D06007E0398
:101FA800045E0B3C5E139386555902045F0AAB5ED0
:101FB80093AC91120004900834623F761B04910898
:101FC8002C623F760D04920A3462B7E2CC250004F5
:101FD80093092462B7E28C0004960E3D5E9392AAA0
:101FE80056A592AA510004970B2D5E93AA55A91ADB
:101FF80005049A0D3D5E1353A953AC724601049B28
:102008000B2D5E13D34CB1860104AE0C356293756B
:10201800AA33CA280204AF0B2D5E93539D51461173
:1020280004B00C35629375AA86CC280204B10B2D36
:102038005E93533564461104B20BBC5E939A39A67D
:10204800360A04B30A2D5E13A396350C04BA0A3473
:102058006293F38A660004BB0AB36213A34A56006C
:1020680004D80B3462A7621E33290004D9092462FC
:10207800A7474A0A04E209BB62B357AC0604E3085F
:10208800B362B3653504E80B3462A7E298322900DD
:1020980004E9092462A7864C0A04EE0B3C62333239
:1020A8008ACEA40004EF0A346233328A661A00002A
:1020B800830002020304030504060C00FE07FE0861
:1020C800FF0139028503AC2005006A07210739435F
:1020D80067A80022079B56275901230B3542AF1AE0
:1020E800AA4C69A80A240D4D3E37AF4AE59D54B560
:1020F800230025093D4247CEDC3905260C3D422FF9
:10210800A79872956454012705195767280ACB3E8A
:1021180037C514EB9803290BCB3E27C71CAB982275
:10212800002A0A3D42B7AA765ECD082B0A2D46370B
:10213800A3386446112C071B3E4F8D042D060D4E07
:1021480067082E06924267042F0C3D421FE58C72E9
:102158008D7246003009BC424F45CFA4003108BB00
:10216800422FC9AE01320A3D426FE58C727B0833BB
:102178000C3D42676894B3863A2D00340C3D423FCB
:10218800CB54A6A1334A00350C3D42E74623C38C05
:10219800745A00360C3D4257E68C46CA3A2D003731
:1021A8000D3D4267689433CA19651401380B3D42E6
:1021B8006F659D56D66901390C3D426F659D46464F
:1021C800394A003A07AA4267C4113B09333ECF4651
:1021D8006A24003C07AB4637D5053D081D4A6768A9
:1021E80038043E08AB46275725003F0A3D426FE5B5
:1021F80036CA7404400C3D426F6535525223C305FC
:10220800410A3D426F653D46B603420C3D4267C4F4
:102218002AA659C5A100430C3D426F658D32CA28D4
:10222800A705440D3D4267C42AA698628A43014522
:102238000C3D42E746198D94514643460D3D42E711
:1022480046198D9451461901470C3D426F658D32F0
:102258008A3B2D0048093D4227DB63643B4908BBA4
:102268004267C5AE014A0C3D427767945146659472
:10227800004B0B3D4227CB54EA14AB1C4C0E3D429D
:1022880027A38C32CA28A38C86004D093D4227AF6C
:1022980095B43B4E0A3D4227EBA992DC3A4F093DE3
:1022A800426F65EFB400500D3D4267A4AC87CA2861
:1022B800A38C00510A3D426F6557925105520B3D60
:1022C8004267A4AC872AAB1C530B3D426F650D37A0
:1022D800D46901540E3D4267C88C32CA28A38C22A7
:1022E8000055083D4227FB4E0B560A3D4227BB537B
:1022F80099720457093D42277B25D505580A3D4266
:1023080027EB5457B50E590C3D4227EB54679451AF
:1023180046115A0A3D42676894BBD1105B08CB3E10
:1023280067C43E075C0D3D4227C38C32CC30A30CFA
:10233800035D08CB3E67F639025E071D5637A73A9C
:102348005F060D3A670860069B562717610A2D42FB
:102358006FC334741A01620C3D4227A38C46CAF637
:102368005000630A2D426F658D725A00640B3D421E
:102378001F659486B6D308650A2D426FE5A1325CC5
:1023880000660B3D4257567967945106670B3D3AF4
:102398006F653B8D8CD202680B3D4227A38C46CAE1
:1023A800EE006908BB422F23D91A6A0ACC3A3F6368
:1023B800DD9649016B0C3D4227A38CB24CB3CA0190
:1023C8006C07BB4247F61A6D0A2D4247B55452496D
:1023D800156E082D422799DA0E6F092D426F653B5D
:1023E8002D00700C3D3A67A46C0F95514600710B97
:1023F8003D3A6F683B8D8C320A720B2D4227991A31
:1024080065941100730A2D426F68B8E15000740C8E
:102418003D4237A338644619652875082D42273B85
:10242800950A76092D4227DBA98E0077092D4227C8
:102438005B49750178092D4227A7BAAA03790A3D95
:102448003A27DBA96E23007A082D4267E8F6107B4D
:1024580009CB3E37C52AC73A7C06493FE7017D0AC2
:10246800CB3E27C73AC52A027E091D4A2FAA241344
:102478000000000008046404D0FFFF040011554266
:102488002FC34C8D8D321A29A38C860004010F4D61
:1024980042AFC663A38C46CA28A32104020F4D3A53
:1024A800676794D1AC628A1945050403105542BF89
:1024B800A6C6461965945146190104040D3D426F9C
:1024C800658D46CA28A70504050C3D426F650D3782
:1024D800D46901040609BB4267C5AE0104070ACBEB
:1024E8004227E515BB0604080D3D4277679451461F
:1024F80065940004090E3D424FA6986252954A160B
:1025080000040A0E3D4227C514531CA952C90204EF
:102518000B0D3D42676794D1AC628A01040C0E55DD
:1025280042BFA6B24CA54EB1CA01040D0E55422FAA
:10253800C34C6573A5A97500040E0E554227A78DD7
:10254800B33B8D8CD202040F0B4D3A27FB1E33A3ED
:102558000804100B3D426F653D46B60304110E3D5D
:102568004267A48C321A29EBA10004120D3D426780
:10257800A4AC87CA7A280004130E3D42E7461965C1
:10258800945146190104140F453E57A698628A29AA
:10259800A634760004150D3D42E746198D94514640
:1025A8004304160C3D42272555EDBC2A5504170D4A
:1025B8003D426FE58CD2863A2D0004180B3D422728
:1025C8009B2B4DAD0304190D554227A78DB3B9D2E6
:1025D800D43A041A0C3D4227CB54EA14AB1C041B12
:1025E8000D3D4277C514534C31451D041C0A3D422C
:1025F80027AF95B43B041D0A3D4227DB63643B04C7
:102608001E0A3D426F65EFB400041F083D42E7F61D
:102618001D04200E3D4267A4AC87CA28A38C000481
:10262800210D3D426F658D32CA28A70504220F3D52
:102638004267C88C32CA28A38C220004230C3D426E
:1026480027BBD3C8282D0004240C3D4237AF4A25A8
:1026580055ED0804250B3D4227EB5457B50E0426CB
:10266800114D3A27A698628A29A698864619050424
:10267800270D3D4227DB69649451460104280F3D2C
:10268800422725955452492595C6000429114D3AEB
:102698002725955452492595C6461905042A0D3D06
:1026A8004247A38C329A554C0B042B0C3D4227DB36
:1026B8005325956600042C0BBC4227D72BCA9100E2
:1026C800042D0D3D426FE58CD2C848A705042E0F96
:1026D8003D4227A64AA5915452492600042F0C3D95
:1026E800426F689D464CA50E04300B2D426FC334D3
:1026F800741A0104310C3D426F653452B6D302049A
:10270800320B2D4267A43C541E0A04330C2D42E7B9
:1027180046196594110004340C353E57A698624A50
:10272800630704350B2D426FE5A1325C0004360ABD
:102738002D4227553BAF0604370B2D426FE5A87293
:102748005A0004380A2D4227CB95A60E04390D45A8
:102758004227A78DB35C69EA00043A0AAC4227AA6B
:10276800245319043B0B2D4277C51453D401043C60
:102778000A2D4227AF95B40E043D0A2D4227EB31AE
:10278800B20E043E0A2D426F653B2D00043F082D12
:1027980042E7760704400D3D3A67A46C0F95514611
:1027A8000004410B2D426F658D725A0004420C2DB6
:1027B8004267C88C32CA280204430C3D3A27BBD36F
:1027C800C8282D0004440F4D3A37A3BC2A9554B5A8
:1027D800338A0004450A2D4227A7BAAA0304460FE4
:1027E8003D3A27A698628A696894510004470B2DE0
:1027F8004227EB3432CA2804480C2D422725955429
:1028080052690C04490F3D3A2725955452696C9436
:102818005100044A0B2D4247A38C66B500044B0AAD
:102828002D4227EBA9D20C044C0AAC4227E71547E6
:1028380002044D0AAC4267A3B44702044E0C2D4271
:1028480027A66A24956402044F0AAC426FC4B49266
:102858000C04500D45422FC34CAE3C54860B04511A
:102868000C3D42AFA6561E2AC30504520F4D3A2FFF
:10287800EF8C661553CC28270004530E4542BFA69B
:10288800C646196594110004540AAC426FE495D108
:102898000004550B2D426F68B8E15000045609B387
:1028A800422F23590D045709B3422765590D04587F
:1028B8000BC43A3F635DCBA40004590B2D424FA6CD
:1028C80098546501045A0C2D4227C51447AA2C00B8
:1028D800045B0C3D422FEF8C6615530C045C0CC452
:1028E80042B7C6512599CA00045D0D45422FC34C15
:1028F80065B9D2D401045E0E553A27A78DB33B8D36
:102908008CD202045F0B3D3A27BBC7CC2802046077
:102918000C3D42AF6D259554170004610A2D42AF56
:10292800AD92EA0204620D3D422F8F98D1AC625AF3
:102938000004630D3D422FA33C6246B35A00046471
:102948000D3D4227AE98E25831C52804650B2D424B
:1029580027AE38568C0204660D3D4237A798EA31F7
:1029680052520504670C354237A798EA31520104E0
:10297800680D3D4227A698D2B8461A6904690B2DFE
:102988004227A698C61A69046A0D4542E74E658A29
:10299800AB524915046B0B3542E74EE5AA540104C6
:1029A8006C0F4642E7D0AA19874A2BAD1600046D72
:1029B8000D3642E748CD38545A2D00046E11653A59
:1029C800AFCEE4CA19450D334A2BC305046F0F5522
:1029D8003AAFCEE4CA51C3B4325C0004700E3D4233
:1029E80027259554B533CA280204710C2D42272592
:1029F80055ED8C220004720C3D426F653D46D66948
:102A08000104730B2D426FE531725A0004740D3DB9
:102A18004227CB14AB9862CA1104750B2D4227CB01
:102A28002AA61C01047610554227B661962956310C
:102A3800C594230004770D454227B66196554C3955
:102A4800020478104D3A2FA798621A69A49534CADF
:102A58000904790D3D3A2F1D69A49534CA09047AF1
:102A68000C553E37AF4A7B553B02047B0C453E373D
:102A7800AF4A5BD58E00047C0C4D426F9319C5ECB0
:102A8800EA02047D0B3D426F9355D2AA0B047E0ED9
:102A98005542E7AA71AAADA492EA02047F0D454205
:102AA800E7AA71AA55525D00048010553A6F651B5C
:102AB800659451861B65940004810D3D3E6F658DBC
:102AC80032DC28A30404820C354637E59464955318
:102AD8000404830A1E5E1F8EA12100048408166266
:102AE8006F660104850815626FC9000486081562BF
:102AF8006F450104870816624FC701048811663ABA
:102B08002FA39ACAA8E6AF8C6A2AA3020489116681
:102B18003A2FA38C66869ABF32CA686628048A0F41
:102B2800653A27A78DB3BCD29CBA4609048B0F5DC2
:102B38003A27A78DB3B9D2D4354A00048C0D454243
:102B48002FA3BC339A554C0B048D0C3D422FEF8CB0
:102B58006615D302048E0E454267A46CA5A1B24641
:102B68001901048F0E453A67A46CA5A1B246190154
:102B78000490114D421F6534464619659451461913
:102B88000104910F3D421F653446461965941100B2
:102B980004920E3D426FA48CF28819659401049347
:102BA8000B2D426FA43C62461904940D4D3EE74636
:102BB800198D94DD150004950B3D3EE7462365BB52
:102BC8000204960E4E3A27F5E74CFDD230C30004B6
:102BD800970F3E3A27951B653453D230C3000498AB
:102BE8000F553A6FE58C728619E9B46B0004990C9D
:102BF800453A6FE51AEAB46B00049A104E3A27A7D3
:102C080058658DEA58679C6100049B0D3D3A27A6DC
:102C180052A758C38C02049C0D3D422725ABD429EA
:102C280026D500049D0B2D4227256B26D500049E32
:102C38000C3D422F8ED4D4295631049F0D45422F86
:102C4800A3BC632A758A0504A00E454247A6984A84
:102C5800AD53AC620004A10A2D4247A652A75804FE
:102C6800A212553A27A698621A29A698628A1A6566
:102C78001404A30F3D3A27A698468A296A9451005E
:102C880004A4104542278D14539C29A698628A00F3
:102C980004A50C2D42278D14678A290204A6115514
:102CA8003A67A6986252954A2AA91AE50404A70E1B
:102CB8003D3A67A69854A56A94130004A80F4D3EA0
:102CC8006F681453A592AA76860204A90C3D3E6F3C
:102CD8006514536B672804AA10553A6F658D32CA7C
:102CE80028A39C76860904AB0D3D3A6F658D72DA90
:102CF80019260004AC12553A67C88C32CA28A38C2E
:102D080032D228A30404AD0E3D3AE72A33CA48A3B9
:102D18008C120004AE0D3D4227EB546794514611C6
:102D280004AF0D3D3A27EB54679451461104B00D9A
:102D38003D4227EB540D9951461104B10D3D3A27F8
:102D4800EB540D9951461104B2114E3A27A71C5362
:102D580046199539E58C330C04B30F3E3A27C794CE
:102D6800514665CE38C30004B412553A679529A672
:102D780098628A29A69151460104B50F453A67958C
:102D880029A698621A19651404B612553A27A69806
:102D9800628A29C68D32D228A30004B70F453A2784
:102DA800A69862DC28238D320A04B80E4542275BB8
:102DB800495523A698320A04B90C3542275BD588B1
:102DC80029A30004BA0C3D4227A38C46CAEE00048E
:102DD800BB0ABC4227D72B9A0104BC0E4542575662
:102DE80031C5B1328A510104BD0C354257C6B132E2
:102DF8008A510104BE10553A575631C5B1328A512D
:102E080067980004BF0E453A57C6B1328A51679891
:102E18000004C009C34267C55E0304C110554227B8
:102E2800A78D53524955AB52491504C20C45422748
:102E3800A78D53B5F36A04C30F4D3A27CB54EA1450
:102E4800AB9C51540004C40C3C3A27AA24539993D0
:102E58000204C510553A77C514534C3145AD6B94EF
:102E68000004C60D3D3A77C51453D4354A0004C74B
:102E78000D553A27DB63647746510104C80D3D3A86
:102E880027EB31B2CE282A0004C90D553A27DB6357
:102E980064778D120004CA0C3D3A27EB31B2AE516B
:102EA8000204CB0E553A277BA79151D61925000469
:102EB800CC0D453A27DB69649475460904CD0F5556
:102EC8003A27AF91565249DB354A0004CE0C3D3AB9
:102ED80027AF95B4AE510204CF07C142E71004D022
:102EE8000D4D4227A74DADACC7C83A04D10D454298
:102EF80027A74D6D98864E2304D20C4D42AFA65697
:102F0800D663643B04D30C3D42AFA6364C43A711AD
:102F180004D40D3D426FA898E248658A6904D50A31
:102F28002D426FA7B45A0B04D60F4D4227A78DC761
:102F380046236594D11004D70D454227A74DAD3CD3
:102F480054860B04D80D3D426FE58CC6C83A2D0057
:102F580004D90B2D426FC331725A0004DA0E4D4268
:102F6800AFA656CE688CACD30204DB0C3D42AFA6AC
:102F7800361C23A70504DC0F4D42AFC629A9A4AA15
:102F880055A9A40A04DD0B3D42AFC6A9DA79350478
:102F9800DE0E4D42AFA656CE286AA8D30204DF0C37
:102FA8003D42AFA6568E2AA70504E00C3D4267E8CD
:102FB8007A439D160004E10C3D3A67E87A439D1672
:102FC8000004E20D4D42676898CD95A6D60104E34A
:102FD8000C3D42676898E54A530704E40C4D42AF3C
:102FE800C6D95C696A1D04E50C3D42AFC659AE34CA
:102FF800750004E60B4D42AFA656F64E0B04E70BE0
:103008003D42AFA656B6D30204E80C3D426F653D7B
:1030180046D6690104E90B2D426FE531725A000466
:10302800EA0E4D42AFA656D663649D160004EB0C1B
:103038003D42AFA6561E23A70504EC0F4D42AFC66E
:103048001B66984646394D0004ED0CBC422765B80E
:1030580051DA230104EE0E4D426768984DA532D22D
:10306800690104EF0E4D3A676898ED3432D2690170
:1030780004F00E4D42AFC6D9542A239D160004F120
:103088000E4D3AAFC6D94E23239D160004F20F55B4
:10309800422FCA8CB3A954463A2D0004F30F553A6F
:1030A8002FCA8CB39D46463A2D0004F40E4D42AF0C
:1030B800C6D94E23A38C320A04F50D3D42AFC6593A
:1030C800A79151460104F60F453EE746196594510C
:1030D800461A650004F70AB43E67E85A470004F840
:1030E8000D4D42AFC6D99E2AA9340304F90C3D42BE
:1030F800AFC6594F95660004FA0F4D3A6FA48CF28B
:10310800CE28238D720604FB0D3D3A6FA4BC33D242
:1031180028670004FC0E4D3A27EB5457B5CE2827F4
:103128000004FD0C3D3A27A7BAAA33CA0904FE0CCD
:103138003D4227EB540DD5D60104FF0B2D4227A79E
:103148006AA8760005000C3D421F659486B6D30830
:1031580005010ABC42BF1AD14C0305020D3D423796
:10316800A32C535249550B05030D3D4237A38CB28E
:103178004C49550B05040E3D4247C38CA28629A62F
:103188009C0005050C354247C38C72AC72020506DB
:103198000C4C3A47A39C34CA591705070C443A47C4
:1031A800A31C33CABA0005080E3D42E78A29A6A423
:1031B800924A320105090C2D42E78A29A6241300F8
:1031C800050A0F3D4227C514535C2AA9241300059C
:1031D8000B0C2D4227C514974A3201050C0C3D42B1
:1031E8006F658DE2D66901050D0B2D426F68147766
:1031F8005A00050E0E3D4267C88C322A534C3901DD
:10320800050F0C2D4267C88C32AA130005100D3D1E
:10321800426F680D6546392D0005110B2D426FE888
:1032280024735A0005120B3E42E78AFD6AA308057B
:10323800130B363EE78ABD72461105140C3E424711
:10324800F5CFAA4BA60005150B2E4247F55925992F
:103258000205160B3D4247AAE4AAED0005170C35F6
:103268003E472A55AA5A230005180D3D426FA898D3
:10327800F22A534C0305190A2D426FB55619050554
:103288001A0B3D426F6557925105051B0C3D3A6F6D
:10329800683B8D8C320A051C0A3D42277B25D505E3
:1032A800051D0A2D42275B497501051E0D3D422764
:1032B8002599AA9D629503051F0B2D4227259996EE
:1032C8004C390520114E3A47E594534E3275C9944E
:1032D80061460905210E363E47E594934C49A60CF4
:1032E800030522114D3A27C514531CA95249D52864
:1032F800270005230E3D3A27C51447AA548D7202AC
:1033080000000000290304002B030400410304000B
:103318001815AE15D5168015A8161F15D316001545
:1033280040158D16141520160015A115C815DA16A6
:10333800021581168F15D916F115DB1640152E15B5
:10334800A415A619FF0000001815AE15D51680158E
:10335800A8163F15D316001540158D1614152016FE
:103368000015A115C815DA1612158116CF15D9162C
:10337800F115DB1640152E15A415A619FF0000003F
:103388005054564F5349474E390000000000000082
:103398000000000000000000000000000000000025
:1033A8000000000000000000000000000000000015
:1033B8000000000000000000000000000000000005
:1033C80000000000000000000000000000000000F5
:10378800000000000000000000000000000050548D
:10379800564F5349474E410000000000000000000A
:1037A8000000000000000000000000000100000010
:1037B80000C20100030000000000000083F70000C1
:1037C80019FC0000C7F70000A955000075F80000B3
:1037D800E1FC000075F8000041FE000077F80000E9
:1037E800A955000075F80000E1FC0000DBF80000B6
:1037F800A9550000000000000000000015FA0000B4
:10380800A9550000000000000000000061FA000057
:10381800A95500000DFB0000A955000011FB000090
:10382800510001002DFB0000A95500000000000018
:103838000000000000000000000000000000000080
:10384800000000006FFB0000A501010085FB0000DF
:10385800A95500006FFB0000A501010085FB0000D1
:10386800A955000011FB000051000100B5FB000044
:10387800A955000013000000F55F020000000000D9
:1038880023DD00000100000023DD0000020000002D
:103898003F560200028000003D560200030000006F
:1038A8005D56020004000000A356020004800000D8
:1038B800FB56020005000000FD560200060000004D
:1038C8007557020030000000FF5C02003100000064
:1038D800015B020033000000B95D02003400000003
:1038E8005F5E020011000000015F0200140000008A
:1038F8005D5F020015000000D15A0200FFFF0000C2
:10390800000000008F000100441D00208700010016
:10391800421D002035002800F46A0020280001001C
:10392800271D002029000100281D00208400040014
:103938006470002086000100AD0600202A00010006
:10394800291D00202B0001002A1D00202C00010049
:103958002E1D00202D0008008C1800202E000100CC
:103968002F1D00202F000100301D00203000010015
:10397800311D0020320001000A72002033000100CE
:103988000B72002034000100321D002036000100B7
:103998000C72002038000100331D0020390001009E
:1039A8002D1D0020830002001C1D00206300010063
:1039B80010720020650001002B1D00206D00010021
:1039C8001172002071000800D46F00206600010009
:1039D800411D0020430001003C1D0020440002005E
:1039E800121D0020450001003D1D00204600020078
:1039F800141D002047000800DC6F0020480001006B
:103A08003E1D00204B0001003F1D00200400010066
:103A1800431D0020A1000100491D002037000100BE
:103A2800481D002088000100451D00203C000100C1
:103A3800341D00203D000100351D00204900020012
:103A4800161D002067000100127200204D000200C0
:103A5800181D00204E000100401D00204F000200EC
:103A68001A1D00203E0001003A1D002051000100EF
:103A78000D72002052000100371D00205300010084
:103A8800391D0020540001000E72002000000000C3
:103A9800000000001C190020FFFFFFFFFFFFFFFFD1
:103AA8000A000000F529020002000000EF240200CD
:103AB800050000008D26020007000000FF25020017
:103AC8000C000000CB1F02000D000000E9210200DD
:103AD800FF000000000000008E0000008E000100C2
:103AE8008E0002008E0003008F0000018F0000028C
:103AF8008F0000038E0001048E0000058E0008046C
:103B08008E00000489000006500000007F000100BC
:103B18003F0004003F0002003F0001007F00020058
:103B2800000000007864632E72756E74696D652EEE
:103B3800537461727475703A20276D61785061739F
:103B480073657327206578636565646564000000A4
:103B5800009A9EA0989D9D978DA58EB0AA9C000066
:103B680002040201010101090200000031311719A4
:103B78001A21241B1D1F313133310000313118192E
:103B88001A22311C1E20313134310000030071002B
:103B980030016000110070003102200350048000E1
:103BA8000700100061000000140063007300720039
:103BB800620043000000130006000000000004003B
:103BC800120000000000000000000400040037009C
:103BD80037003C02440000000000000000006500BF
:103BE800000035008100000005000000830000008F
:103BF800660000000000080009000A000B00000031
:103C080001017101010101011101010131010101EC
:103C1800010180010001100161013B0014006301F2
:103C280073017201620143010001130106013D01A4
:103C38003500040112010001000100010001040126
:103C48000401330133013C01440132013600000113
:103C580000016501000135008101000105018201B3
:103C680083010001660100010001080109010A0140
:103C78000B010000030271023001600211027002A0
:103C880001020202020280020002100261023A00EE
:103C980041006302730272026202430200021302CD
:103CA80038000002000204021202000200020002B0
:103CB800000204020402370037003C0244020002FA
:103CC800390000020002650200023502810200028A
:103CD8000502820283020002660200020002080254
:103CE80009020A020B020000010371030103010328
:103CF800010301030103220302030103000310036C
:103D08000003000300030003000300030003420351
:103D1800000324030603000300030403120325031E
:103D28002303250323030403040300030003000300
:103D38004403000300032303000365032100350344
:103D480081030003050300030003000300032503A8
:103D58002303080309030A030B03000000000500FE
:103D6800B100AB00A500B0001C003000380008000E
:103D78002C010200000120181A18182C34041E0007
:103D88000C0E020B040B0A070800110F88B224005E
:103D9800881300001000000000000001C0030000AC
:103DA80080070000000F0000001E0000003C00001B
:103DB8000078000000F0000000E0010000C00300EF
:103DC8000080070000000F0000001E0000003C00FB
:103DD800000078000000F0000000F0000000000083
:103DE80000000000000000000000000000000000CB
:103DF80000000000000000000000000000000000BB
:103E08000000000000BE040A00BE0208951C040061
:103E1800CD1C0400D31C0400AF1D04009B1E04002D
:103E2800F51E0400FD1E0400991F0400A11F0400D4
:103E3800A71F0400D71F0400F11F04003F2004003F
:103E480057200400CB20040009210400112104009C
:103E5800A123040035240400AB240400DB2404005F
:103E6800ED240400232504003B25040061260400FA
:103E7800A5260400B1260400E92E0400032F04003F
:103E8800392C04003B2C0400392D0400E12C0400DB
:103E98007D2D0400C92E0400AD2E0400313204002B
:103EA800A73204009B350400A53504007D370400C3
:103EB8009D3A0400D53E0400DD3E0400DF3E0400C8
:103EC800E53E0400ED3E04007D3F0400A53F0400EC
:103ED8000102000302000103220000000000211576
:103EE800110E0D0C0B0B0A0A090909090908080823
:103EF8000808080807070707070707070707070746
:103F080007000000303132333435363738396162D2
:103F1800636465666768696A6B6C6D6E6F707172F1
:103F2800737475767778797A0000000070B5044666
:103F38006569E678802000F0A5FA0A220321304658
:103F480000F0EAFA01462980207A40F00400207245
:103F58006078BDE8704000F0A2BC2DE9F84F044637
:103F6800257805F07F050E2D78D1207A676901073D
:103F780011D5DFF85824000911780123834019422C
:103F880009D1DFF84C140144487A20B12046FFF7E4
:103F9800CDFF0020ABE0B7F802A094F80390802092
:103FA80000F070FA207A460806F0010686F001064D
:103FB8000025B6024FF00008400748BF7E5F3879F9
:103FC80000F074FC00F080FCDFF80824DFF8083407
:103FD80000F09EFC00F072FD074600F08AF800F041
:103FE80088F800F0CEFD834614E0301A00B20028AD
:103FF8000BD5404200B208E000F07BF8217A8A072E
:1040080000B2F2D5B042B8BF002010FB008800F023
:1040180019FE6D1C00F0B5FDA0EB0B005045EBD36D
:104028000020002D63D0B8FBF5F000F049FF00F048
:1040380055FF4FF06632DFF8A43300F069FC044600
:104048000D46384600F040FC02460B4620462946FD
:1040580000F0BEFFBDE8F44F00F030BDE678032D58
:104068001CBF042D012D01D1002000E0802000F0AC
:1040780009FA0F2D14BF012200220321304600F057
:1040880002FA0F2D03D1BDE8F24F00F00FBC01F08A
:10409800C3F8032D02460B4604D101F0CFF801F016
:1040A800BBF815E0F9D0042D0AD1CD48CD4900F070
:1040B8002FFC01F0C3F801F0AFF80022CA4B05E06D
:1040C80001F0BCF801F0A8F80022C84B00F080FF0E
:1040D80000F0F4FC0146207AC20707D5646920681D
:1040E80001F0C8F8616801F031F901460846BDE8F9
:1040F800F28F0321484600F00CBAFEB504462C2086
:104108000899BB4D44432819022904D10C2A15D11A
:10411800FFF70CFF2CE000F108067788974204BFF0
:10412800B6889E420AD10B0006D10C2A0CBF042186
:1041380002210A9801801BE0012901D00020FEBD60
:10414800FFF70BFF0090285D099E00F07F00012813
:1041580018BF02280ED003281AD004280AD00E2827
:1041680020D00F28EAD104226946304601F037FAF8
:104178000120FEBD9F48008800F098FB009901F0DF
:1041880079F801F0C3FA00B20190022201A9ECE724
:1041980099480099006801F06DF801F0B7FAADF898
:1041A8000400F2E79548008800F080FB009901F0D0
:1041B80061F801F0ABFAADF80400E6E7F8B505469A
:1041C8002C214D438A4E77193846FFF7C6FE715D9C
:1041D80001F07F01032904460BD187480068214676
:1041E80001F048F801F092FA01B2787801F0E7FCA2
:1041F80015E0715D01F07F000F2805D1012000F066
:10420800B2FA68B14460F2BD01F07F0178780E29F6
:10421800214602D101F04CFD01E001F005FD00202E
:10422800F2BD00002DE9FE4F8046754F4D79754966
:1042380011F808A0504600F0FDF8814600F003F997
:10424800002000F01FF93A7869492C2042438C1865
:104258006D4966696162012005F07F0584F82800D0
:1042680040F6043161814FF48070032DA08106D19E
:1042780040F202404FF009096081002138E0042D26
:1042880008BF4FF008091FD00421504601F0A0FED6
:104298000C2010FB09F05D4901F800A0012D1DD18B
:1042A80008445B4A42600021009101916A4601215D
:1042B800404600F03DFA01AA0221404600F038FAD3
:1042C8000098002101F070FF6CD0207A40F00100C6
:1042D8002072009830600199716063E018BF022D68
:1042E800E1D00E2D06D00F2D5CD10C206081552118
:1042F800A18157E094F8280040F0020084F82800D3
:104308004FF4A161A1816A46666942480090012183
:1043180094F801B0584600F0E7F99DF80000002134
:104328000C2805DA0FF2F4013FA2085C115C490081
:104338003071207A00F0FD00014321720098000AD4
:104348000090010614BF3C20322070714FF47A703F
:10435800717990FBF1F171806A460221584600F0AC
:10436800C3F900281CBF009800280AD0207A40F022
:104378000800207200F00F0000994A1E40EA02105F
:104388002072002000906946584600F084FA48B12F
:1043980000993180009800B10420217A01F0FB01D6
:1043A8000843207284F8018084F802A084F80390FE
:1043B8000021207800F0800005432570A17116487F
:1043C800E0613978491C3970BDE8F78FF771002032
:1043D800C80A000038842A357BA0453F66665A3FE4
:1043E8009A9999999999B93F0000594000408F408E
:1043F8002C5700209A6400001C150000426500003C
:10440800F8710020B46F002003410000F815002067
:10441800308C11000132E600C5410000B964362035
:104428003010200B170810000000000001000100E8
:1044380001000100A0F11701082902D21738C0B203
:104448007047FF2070470C480178CA0700D57047AD
:1044580010B541F0010101700020084905E0C3B220
:104468000C246343FF22CA54401C054B1C78C2B27B
:10447800A242F4D310BD0000FD710020F815002001
:10448800FA6D03007047134601222DE9FE430928FF
:10449800044691461D4605D101F05BFF01F088FFF7
:1044A80080B234E05FEA09000BD001F0AAFF01A84E
:1044B80001F0E2FF01A9204601F0BEFF5FEA000813
:1044C80001D1002023E000270024002609E06946E6
:1044D800404601F090FF18B9BDF80000641C3F1871
:1044E800761CF0B24845F2D3E0B20228A4BFE4B289
:1044F800B7FBF4F73DB1B9B2404601F07FFF4FF486
:104508007A71B0FBF1F7404601F072FFB8B2BDE82E
:10451800FE8300230122B8E70023B6E770B50446FE
:104528002C214C43DFF804532E19304601F0AEFF1E
:104538002A5DDFF8FC1242F080022A55FF2008703D
:10454800304670BDF8B5BB4C2578A84211D2461C40
:10455800F6B2B64F09E02C2171437A18A2F12C006B
:1045680039442C2201F0A6FF761CAE42F3DB6D1E07
:104578002570F1BDF0B5B04BB04C1B5C245C024615
:1045880000E0491CAB4D2E78C8B2B04217D25FFA92
:1045980081FC2C25A54F15FB0CFC07EB0C05287896
:1045A800C0090CD06878904202BF2F7807F07F07C7
:1045B8009F4204BFA878A042E3D148B2F0BD4FF0B3
:1045C800FF30F0BDF0B50346002400200EE0E4B251
:1045D80066440E5507F00F076C1C0A2FACBF372630
:1045E8003026EDB2F6194E55401CC0B29E79B04245
:1045F800E5B212DAEF1CBA420FDB10B12D264E5588
:10460800641C1D182F7AC7F30316651C0A2EB4BF45
:104618004FF0300C4FF0370CD9E7E0B290423CBF76
:1046280000204855E0B2F0BD10B500F001F811E0E7
:10463800012303FA00F000F0FF0000EB0120804C9A
:10464800704710B5012303FA00F000F0FF0000EBFB
:1046580001207C4C81B22078BDE8104001F06EBF8B
:1046680070B500F006F8774E00F00AF800B90FE0D0
:1046780070BD0446012000FA04F404F0FF047047FA
:10468800307804EB0124A4B21546214601F086BF18
:1046980030782A462146BDE8704001F04FBF01221C
:1046A80002FA00F000F0FF0000EB0120644B07E085
:1046B800012202FA00F000F0FF0000EB0120614B3C
:1046C80081B2187801F03EBF012303FA01F101F02D
:1046D800FF0101EB0221002819BF59480078594A07
:1046E800107889B201F05ABF574B00EB800018448C
:1046F800022907BF90F8FC10D0F8FD0090F8AC1024
:10470800D0F8AD0001290ED002290AD0032907D01C
:10471800042908D0052904D0062918BF0B2905D17A
:1047280019E080B2FCE700F0FF00F9E700207047CD
:10473800454B00EB80001844022907BF90F8FC1095
:10474800D0F8FD0090F8AC10D0F8AD00072900D1E2
:1047580001E0002070471060012070470A78521C61
:10476800001D02F03FBB70B510260228054603DB8A
:104778000C2110FB01F6361D304602F03DFB04000B
:1047880003D0314601F082FE2570204670BD4206F6
:1047980002D5491E8941C90F01F0A2BC2C22234B26
:1047A800504318440079002818BFFFF7F0BF70473E
:1047B80038B500241F4D03E00021FFF7EFFF641C0C
:1047C8002978E0B28842F7D32048027802F0FD0247
:1047D800027031BD70B52C2606E0D5B2134C754376
:1047E8002C44521C20716171D4B29C42F5D370BD27
:1047F80070B52C220D4B0446191D54430C5D00E086
:10480800401C0C4D2E78C1B2B1420CD251435D18F8
:10481800297900291CBFA9780029F1D02979A1425A
:10482800EED1012070BD002070BD00002C57002083
:104838001E1D0020F8710020AC6F0020B46F00200E
:10484800D3130020D4130020C80A0000D47100201C
:10485800C000103070477CB5C000103046181446B0
:104868001D463146102002F030FB48B9009523461A
:1048780000223146102002F08DFB08B9012076BDD8
:10488800002076BDC00080B510304118102002F01D
:104898005FFB012002BD0B4604220021DBE702B5C5
:1048A8006B4604220021FFF7EDFF02BD50B1B0FABC
:1048B80080F18840C1F19D01C905020672F10042EC
:1048C80041EB102070472000C0F3C75181B1FF2988
:1048D80006D0C110400721F0E04101F16051704756
:1048E80041020CBF40F4E0016FF000410020704726
:1048F80000F0004100020AD0B0FA80FC00FA0CF087
:1049080001F16051A1EB0C5101EBD021400570473A
:1049180030B540F2FF7C1CEA11541DBF1CEA135548
:10492800644565453FE0641981EA030C6FF35F5302
:104938000CF0004C43F48013C90241F0004141EAF5
:10494800505EC5021100A5FB020200284FF00000CE
:10495800EEFB01204FF00001E3FB052118BF42F0F8
:104968000102401800214941E3FB0E01A4F58064CF
:104978000D0302D292184041494154F1010470DDFF
:10498800450872F1004250F1000051EB0451A1F5C5
:10499800801102D441EA0C0130BD40F2FF7E4CEA9E
:1049A8000E51002030BD0CEA1355644518BF65450B
:1049B80081EA030C0CF0004C41D050EA410E1CBFB8
:1049C80052EA430E02E06146002030BD24422C44E6
:1049D8001BD15FEA050EF6D0090302BF014600208D
:1049E800AEF1140EB1FA81F5AEEB050401FA05FE3D
:1049F8000C35C5F1200100FA05F5C8404EEA000E55
:104A08006FF35F5343F480139CE733F00043B3FA2A
:104A180083F504BFB2FA82FE75440B3D641BB5F101
:104A2800200E2FBF02FA0EF3AB40C5F1200E22FA7A
:104A38000EFE38BF43EA0E03AA40641C7CE750EA26
:104A4800410E14BF52EA430E6FF000014FF40015F7
:104A580015EB430F8EBF194615EB410F9DE7B4D8F0
:104A680030BDD4F10104B4F120050FDAC4F12005FA
:104A7800520828BF42F0010210FA05FE01FA05F5B6
:104A88007244E2BFE0402843E1400FE0352C9ADC55
:104A9800C5F1200452EA400220FA05F218BF42F09C
:104AA800010231FA05F0A1400A43002172F10042E7
:104AB80050F1000051EB0C0130BD090001F000423B
:104AC8008B1AA3F16051B1F5801F0ADBB1F17F6F3A
:104AD8001FD242EAC102C10071F1004142EB50709D
:104AE80070470B15C3F10903212B10D2890241EA43
:104AF800905180020128494141F0004121FA03F018
:104B0800C3F12003994071F10041504170471000F2
:104B180070476FF0000013EB103F5CBF000E42EAD5
:104B2800C050704738B5044602F0A2FA002504E0E8
:104B3800615D225C625521546D1C401E8542F7DB85
:104B480031BD38B5020048BF524200230A2500F0A3
:104B58000EF8002AFBDCFFE7002802D52D22CA54F4
:104B68005B1C0020C8540846BDE83240DAE70A2436
:104B780092FBF4F405FB14223032CA545B1C224623
:104B8800704710B502F0D2FA4FF47A71B0FBF1F425
:104B980002F0C9FA604310BD38B5044602F02EF998
:104BA80005460E480178220008D10A0710D441F0C2
:104BB80008010170022002F01FFC09E0012C07D156
:104BC8000A0705D501F0F7010170022002F0A9FBE0
:104BD8002846BDE8324002F01CB90000FD710020F3
:104BE800E0B5684601F069FE0198B0F5803F28BF3E
:104BF8004FF6FF7080B20EBD38B504460D4601F081
:104C0800A1FC29462046BDE8344001F06BBF0100F5
:104C18001FB502F088FA4FF47A71B1FBF0F44C43F7
:104C2800684602F091FA0020012102908DF80010E8
:104C380001946B4622460FF20D01974802F022FAC2
:104C48001FBD0000F8B502F071FA944D0646A86839
:104C580086422CD0371A02F066FA78434FF47A71FC
:104C6800B0FBF1F402F05FFA298847434FF47A70F9
:104C78007A18B7FBF0F100FB11218AB2B2F57A7FFE
:104C880005DB014692FBF1F1641C00FB1121298030
:104C98006CB1E968AE606418B4F57A7F06D36B68C6
:104CA800B4FBF0F1CB186B6000FB1144EC60F1BD74
:104CB8007A49486070477948406870472DE9F04163
:104CC800774BB1FBF3F703FB17113C250446B1FB07
:104CD800F5F53C2202FB151525704FF46163B1FB15
:104CE800F3F203FB12113C25B1FBF5F16170A270E0
:104CF800BFB24FF4FA634FF4B77E40F26D1C6425DF
:104D08004FF4C87814E060460FE068B1642091FB66
:104D1800F0F005FB10100028F5D04A0801EB92705E
:104D28008008B1EB8001EED170463F1ABFB25B1C20
:104D380099B2404691FBF0F008FB101060B1642274
:104D480091FBF2F205FB121242B14E0801EB96728A
:104D58009208B1EB820201D1724600E062469742A6
:104D6800D3DA0026267178B1642091FBF0F005FBB8
:104D7800101050B14A0801EB92708008A1EB800135
:104D8800481E8041C00F00E00120E380002102E0BE
:104D980001202271D1B200F022F887421CDBE3889F
:104DA8002279414693FBF1F1521C08FB11313F1A5D
:104DB8000029BFB2ECD0642093FBF0F005FB103063
:104DC8000028E6D0590803EB91708008A3EB800314
:104DD800581E8041C00FDCE7E770BDE8F08102464D
:104DE8001F20012908BF02F11C0005D00729A8BF10
:104DF800491EC90748BF1E20C0B270472DE9F843B5
:104E08000546AC7869782878EF7895F904603C22F3
:104E180012FB041412FB04044FF064084FF4C87921
:104E280004E00120F1B2FFF7DAFF3F18761E70B2F6
:104E3800EA88002823D400F035F80029F1D000F0E2
:104E480037F8EFD0510802EB91708008A2EB80028E
:104E5800501E8041C00FE5E740F26D100EE000F0F3
:104E680021F849B100F024F8F6D0510802EB91730B
:104E78009B08B2EB8300EFD14FF4B770C719521EED
:104E880092B2B2F5FA6FEADABFB2054800FB0744FE
:104E98002046BDE8F283000040670020946E0020A1
:104EA80080510100494692FBF1F109FB112170473D
:104EB800642092FBF0F008FB1020002870470143A3
:104EC80050B1B0FA80F18840C91CC1F58461090568
:104ED80001EBD021400570470146704740F2FF7C46
:104EE8000B0D4DD0634566D230B421EA035141F42D
:104EF800801103F2FD3C5FEA5C0C01D300184941C4
:104F0800890041EA907180004FF440140023E202C6
:104F1800D50AB1F5100107D46D081DD2091B641913
:104F280000184941491BF7D56D080AD20919641BB5
:104F380000184941491BEFD56D08F7D301E0520825
:104F480017D0C01861419B1AAC4100184941801A1A
:104F5800A941F4D452080AD0C01AA1419B186C4147
:104F680000184941801AA941E9D45208F4D15B1CC0
:104F78006C4161084FEA330001EB0C5130BC7047BB
:104F880050EA0103FBD030B4B1FA81F311B9B0FA99
:104F980080F41B190B3BB3F120042FBF00FA04F176
:104FA8009940C3F1200420FA04F438BF2143984003
:104FB800D3F101039DE7634514BF50EA410CDEE7D6
:104FC80011F5801FDBD8D94302F020BD7047015688
:104FD800F0B540F2FF7581EA030C0CF0004C15EABD
:104FE80011541DBF15EA1357AC42AF42E5E0BC416E
:104FF800C1F31301C3F31303801A994143F48013D7
:1050080004D2641E0018494180185941C90241EA76
:105018005051B1FBF3F603FB1611A2FB0675D7EB53
:10502800C020A94102D2761E80185941C90241EA1E
:105038005051B1FBF3FE03FB1E11A2FB0E75D7EB1B
:10504800C020A94103D2AEF1010E8018594189024E
:1050580041EA9051760546EA8E2EB1FBF3F603FB42
:105068001611A2FB0675D7EB8020A94102D2761E45
:1050780080185941C90241EA50514EEA060EB1FB67
:10508800F3F603FB1611A2FB0675D7EBC020A94166
:1050980002D2761E80185941C90241EA5051B1FB2B
:1050A800F3F703FB1711A2FB0735D3EBC020A94187
:1050B80067F100070CBF004247F0010766F3D527E8
:1050C8004FEA1E31B80814F5806412DDBD0775F18A
:1050D800004250EB0E5051EB045111F5801F5CBF9C
:1050E80041EA0C01F0BD4CF07F6141F0E041002045
:1050F800F0BDBD076D0840EA0E5041F48011D4F1AF
:105108000104B4F120060ADAC4F120060200E040E6
:1051180001FA06F3E1401843B24015430EE0342C7F
:1051280013DCC6F1200445EA40056D0820FA06F2B2
:10513800154321FA06F0A1400D43002175F1004204
:1051480050F1000051EB0C01F0BD00205FEA0C01AA
:10515800F0BDCFB992185B41B3FA83F704BFB2FA36
:1051680082F6BF190B3FB7F120062FBF02FA06F3EC
:10517800BB40C7F1200622FA06F638BF3343BA40CF
:105188001CB1E419641E33E77F4231F00041B1FAE3
:1051980081F404BFB0FA80F6A4190B3CB4F12006E0
:1051A8002FBF00FA06F1A140C4F1200620FA06F646
:1051B80038BF3143A0403C1B1AE7AC421ABF05EA8E
:1051C8001357AF4212E050EA41061CBF52EA4306A9
:1051D800BFE750EA4107304661461CBF41EA055126
:1051E800F0BD52EA430C08BFC143F0BD00204FF4A4
:1051F800001616EB410F98BF16EB430F08BF16EBCE
:10520800410F24BFC14305E016EB430F0CBF6146B5
:105218004CEA0551F0BD014110F0004160B148BFB2
:105228004042B0FA80F29040D21CC2F5846241EA52
:10523800025202EBD021400570470157C1F30A53CF
:1052480040F21E42D31A0CDDCA0283F3070342EA76
:10525800505242F00042DA4002EBE17282EAE17019
:1052680070476FEAE17203F2E13008B182F0004062
:1052780070470125FF2212EAD05C1DBF12EAD15304
:10528800944593422BE09C44D30780EA010243EA09
:10529800002043EA01211A40A1FB0030C04238BF78
:1052A80000187CF17F010BDBFE294ADA5B0842EA31
:1052B800C15153EA006373F1004C51EB1020704761
:1052C800D1F1080CDCF120012FDB5B0810FA01F1A9
:1052D8000B4320FA0CF073F100415041704794459C
:1052E8001CBF02EAD153934280EA010202F0004255
:1052F8001DD0400019D0490017D05BB9634514D0C0
:105308000902B1FA81F39940BCEB030CC00140F0EB
:105318000040C1E70002B0FA80FC10FA0CF0B3EBD1
:105328000C0CC90141F00041B6E71000704740007D
:105338000AD0490008D010F1807F94BF11F1807F16
:1053480002E042F0FF407047D043704790EA010FF7
:1053580040F16C8081F00041431A4FF000423EBF9B
:105368005340C01AC918D3095FEAD05C13EB400F49
:1053780034BFB3EB410F40E07CEBD1530CD342EA8E
:10538800012122D8D1EB402009D3400A28BF5FEA87
:10539800500140EBCC507047401A15D04002B0FA8B
:1053A80080F2521C9040400A4FEA3C23B3EB026360
:1053B80084BF00EB730007E040F400001A16DB0717
:1053C800C2F10102D04018437047182BFCDC31FAB7
:1053D80003F202FA03F3591A38BF42F00102D2EB82
:1053E80040203CBF0018ACF1010C5FEACC5CC20560
:1053F80072F100414CEB5020704713EB400F0FD275
:10540800C94209D0ACEBD153022B03DB4902172B5D
:10541800DDDD70479143401AC042D5D10020704766
:1054280013EB410FD0D36FF000007047421A3CBF16
:10543800801A8918C0F3C752FF2A4FF0004C22D0B7
:10544800C1F3C7534BB3D21AD2F119032EDD4CEA7C
:1054580001214CFA03F321EA0303D1404CEA00226C
:105468006FF3160052180FD353EAC2534CEA520294
:1054780073EB0C0C50EB1220420012F1807F38BF06
:1054880070476FF31600704753EA026322EA0C0272
:1054980073EB0C0C50EB12207047490212BF9A4272
:1054A80000EB5120EFE7D2F11703D2D57047016D19
:1054B800F8B50D4688B00446287800F0BAF80028F8
:1054C8003ED1DFF83C220021131D53F8310018B1FA
:1054D800491C0829F9DB33E005A80023002600272A
:1054E80080E8C80002F83140121D42F8315028788F
:1054F8008DF80000A8684188ADF802108188ADF8E1
:105508000410807900F00F008DF80600A868C179B2
:105518008DF80710A86881680291007B8DF80C004F
:10552800A8680169049105A928788DF814008DF8F8
:105538001C30CDF818D0204602F0EEFA012000E029
:10554800002009B0F0BDDFF8BC11086070472DE9F4
:10555800F041DFF8B4512C6880460F4600F069F836
:10556800002630B90020BDE8F081206800B9264641
:1055780004462CB120794045F7D1A7600120F2E715
:105588000C2001F039FC0028ECD00022026080F8E1
:10559800048087602968002914BF30602860EDE71F
:1055A80010B559490A6800E0126852B103681179C8
:1055B8001C7DA142F8D191680029F5D0BDE81040C2
:1055C8000847012010BD01F017BC10B5044610466D
:1055D8000A460146204602F021FB204610BD03E0A2
:1055E80011F8013B00F8013B13465A1E002BF7D176
:1055F8007047002818BF01F000BC704701700A0A04
:105608000B0C090E42708370C170001D7047002298
:105618003B4B03EBC201496811B10978884203D0BA
:10562800521C082AF5DB02E013F83200704700200C
:10563800704710B501460022314800EBC203586894
:1056480010B10478A14203D0521C082AF4DB00E010
:1056580010BD002010BDF0B58BB007460C461546AE
:105668001E462C21684602F00DFB397A8DF8001091
:10567800032906D1082239460DF1020001F0B2FBD8
:1056880003E011B13988ADF80210797A12988DF8D3
:105698000A107989ADF80C10810744BF01228DF8F2
:1056A8001C20C10644BF01228DF81D20010744BFFC
:1056B80001228DF81E20810644BF01228DF81F208B
:1056C800410644BF01228DF82020000644BF012175
:1056D8008DF821101398119B109A27788DF82200C5
:1056E8008DF81470ADF816500693ADF824600A9240
:1056F8002078FFF78CFF694602F012FA0BB0F0BD74
:1057080004680020487000204C700020C0F3C75186
:10571800D1F19E0108DD020242F00042CA4002EBCC
:10572800E07282EAE07070477FEAE07080F0004043
:1057380070470100F8B50D2805462DD201F05EFB33
:10574800DFF8BC371A7800240146BAB100265FFAA0
:1057580086FC2820DFF8AC7710FB0CFC6744787CCB
:10576800000904D0761CF0B21028F0DB06E0521EC7
:105778003C461A70607C40F0F0006074084601F006
:1057880048FB4CB1280014BF04F11C000020A061A4
:10579800E57504F10C00F2BDFFF722FA40F2013181
:1057A800884206DB05F11006B0B201F0BFF804002C
:1057B80001D10020F2BDB1B200F068FE280014BF8C
:1057C80004F110000020E060E5722046F2BD38B513
:1057D80004462079C0F30210022806D1E06820B1FF
:1057E800A17A022908BF01F008FB6079000910D0EE
:1057F80001F004FB05461C21204602F043FADFF8BD
:1058080000070178491C01702846BDE8324001F0C4
:1058180000BB2046BDE8324001F09CB82DE9F047B6
:105828000F46DFF8E416B1F8D4210546002628799A
:10583800C0F30219C40900F00F00C240D5F8008077
:10584800D00704D51CB92846FFF7C1FF33E001F0A3
:10585800D5FADFF8B8268246506800213B4602E0B8
:10586800014650F80C0C08B30768474502BF077992
:10587800C7F3021CCC4504BFFF09A742F0D1761C30
:105888001F0013D0F7B2BB42EAD150F80C3C45F8E0
:105898000C3C5468A04208BF556009B141F80C5C43
:1058A800002140F80C1CFFF792FF00E00546504627
:1058B80001F0AFFA0DB1012000E00020BDE8F0874B
:1058C80070B501F09BFA0646DFF8400644680025EB
:1058D800456005E0204654F80C4CFFF778FF6D1C36
:1058E800002CF7D1304601F094FAE8B270BD2DE9EA
:1058F800F0430C468FB0200448BF84F4004000F108
:10590800C780E007DFF8046640F1B68070780028A9
:1059180084F001091BD100F11808FFF761F900278D
:1059280040F20111884213DAB078401CB070C0B25E
:105938001F28A4BFB770FFF7C3FFB078052190FBFD
:10594800F1F101EB8101401A03D000F0A4F891E0D5
:10595800B770301D01F023F90400F8D0162106F1C4
:10596800080002F08FF921791625080910F00700C0
:1059780003D0022852D014D359E0C809E57A05901B
:1059880004970397029701F00F01E068019006F170
:105998000800A27A009216352389E28803F058FCA1
:1059A80044E0E179FF290CD02C20DFF8642541433D
:1059B80055181E2207A92846FEF704FE074605F1DA
:1059C8001808E0680168069107AB21790279049705
:1059D800001D03930290552306F10800D519CA0942
:1059E800059206AF3922009201970C2201F00F01AF
:1059F80003F02EFC1A35010018D198F810000107A1
:105A080015D5FF210020009102900190A179E0793D
:105A1800D8F80C7055230C22B84708E0E288E068F3
:105A2800E57A01F00F0103F0C3FB163570B9652D57
:105A380005DB30783222012100F080FD17E0307854
:105A4800012101F011F849F0010910E0607900F036
:105A58000F01022908DC411C61F303006071214633
:105A6800301D01F0DCF8002400F015F814B12046D0
:105A7800FFF7ADFE48460BE0A00708D5002171707E
:105A88000121307800F0F0FF84F0020000E00020EF
:105A98000FB0BDE8F083012070704FF47A7230784F
:105AA800022100F04BBD4FF6F07300F00F0003EA3F
:105AB8000213184340EA014070472DE9FE4F0C9D40
:105AC800DFF850A48B4690469946002700261AE036
:105AD800F1B22C22DFF838045143084443785B457F
:105AE80010D090F828100A060CD5446A54B100204A
:105AF80002900195FE2000904B4642465946F0B26E
:105B0800A0477F1C761C9AF80010F0B28842DFD3B9
:105B1800DFF804040278FF2A08BF0770BDE8F78F92
:105B28002DE9FE4F8B46DFF8F01381460878904642
:105B38001E4648B10C9900910024019443465A46E8
:105B48004946FF20FFF7B9FFDFF8D0130E9D08681C
:105B580020B900F074F901D528002ED0DDF834A062
:105B6800DFF8A8735046FFF7E5FD040020D0424651
:105B780059464846FFF797FF2060524609F00F0044
:105B880040EAC5102071A4F806B0A4F80880A672EF
:105B98000C99E06801F026F9102E0CBF03210121B1
:105BA8002046FFF73BFE18B92146381D00F0C1FF1B
:105BB800387803B0BDE8F04F45E1BDE8F78F03B58D
:105BC80083B000F00FF8292340F2024106E003B544
:105BD80083B000F007F8212340F20541FFF7A0FF4A
:105BE80005B000BD0021022204AB0291019200938E
:105BF8000022704738B5044684B00D461046FEF7BB
:105C080055FEC749096803F023FC039004210020CE
:105C180003AA0290019100923923002229462046C6
:105C2800FFF77EFF05B030BD7FB500F065F800F0E6
:105C38003CF8FFF76BFD00F022F84FF480720BE0A0
:105C48007FB5B84E00F059F800F02FF8FFF75EFD69
:105C580000F015F840F2031240F604312046FFF731
:105C68005FFF7FBD7FB5B04E00F047F800F01DF82C
:105C7800FFF74CFD00F003F84FF48372ECE7ADF842
:105C88000C00002503A800900226029501962923FE
:105C980070477FB500F030F800F007F8FFF736FDE1
:105CA80000F013F840F20552D6E72946FFF7E2BAAA
:105CB8007FB59C4E00F021F8FFF7F7FFFFF726FDB0
:105CC80000F003F84FF4A162C6E7ADF80C00002518
:105CD80003A80090022602950196212370477FB5FC
:105CE800924E00F00AF8FFF7E0FFFFF70FFDFFF70D
:105CF800C6FF40F20B52AFE78D4E044630880D4682
:105D0800FEF7D4BD03B583B00021012204AB029194
:105D1800019200934FF4A262282340F604315DE714
:105D2800FEB5844F054638680C461646FEF7BEFD9C
:105D38002146FFF79FFA03F017FC0190162001F0A7
:105D48005BF804001ED0022020700E227BA1601C8C
:105D580001F048F804F10F07042201A9384601F0C0
:105D680041F8676000203871787107F8066FC4F849
:105D78000B70022000901623224640F2027128463A
:105D880000F064F8F7BD1FB50B0018BF012301210F
:105D98008DF80C300292019103AC0094102300227C
:105DA8000621FFF7BDFE1FBD2DE9FC470F465A49E6
:105DB8000A9D064608789046994640B10195CDF867
:105DC800008055230C2231463846FFF776FE534BA8
:105DD800186810B900F033F82FD40C20FFF7AAFC8C
:105DE8000400DFF828A123D07A1C49463046FFF783
:105DF8005AFE206006F00F062079A57100F0800099
:105E080006433920A07246F01006E0682671E77153
:105E180084F808900C22414600F0E4FF0121204656
:105E2800FFF7FCFC20B921460AF1040000F081FECE
:105E38009AF80000BDE8FC4705E0BDE8F3873E4955
:105E4800487801077047012100F00EBE2DE9F047A0
:105E5800074688461400994618BFB9F1000F19D0B3
:105E68002E49089E086810B9FFF7E9FF0ED45FEACB
:105E7800161A08BF4FF0010A06F00F06022E0CBFD3
:105E880000204846FFF756FC050005D116B120460C
:105E980000F0B3FF002031E0002241463846FFF70A
:105EA80002FE286007F00F07287985F80B9000F0AC
:105EB8008000074347F0200700202F71A5F80680CF
:105EC8002881AE72022E08BFEC6008D0E8684A4606
:105ED800214600F087FF16B1204600F08EFF51469C
:105EE8002846FFF79BFC094C18B92946201D00F0ED
:105EF80020FE2078012100F0B7FD0120BDE8F087E1
