:020000040000FA
:0600000002190F020B8B38
:03001300020C4795
:03002B000216A713
:03003300020DD5E6
:03003B00020C9C18
:03004B0002158714
:03005300020AC0DE
:03005B000213DFAE
:0300630002140084
:03006B00020D7B08
:03007B00020DACC7
:10008300020B1F010020FD000201FE05000000011C
:10009300DD1FEF1F0000F51FFB1F00000000012004
:1000A30019201F202520000000000000000006008A
:1000B30004140004FF1801FF0D010612FFFFFFFFE8
:1000C300FFFFFF0101010400BC15000000E803006D
:1000D30000FFFF1016E803000064006400B801A0ED
:1000E300BB0D00A0BB0D00020200F8FF0705021EB6
:1000F3000401051E02051E020A0A01010808031075
:100103002702803E0102FEFFE8030A050001FFFF0C
:10011300020A1401E002000000C503423F1A511213
:100123003FF304B53F0000803EFFFFFF00050301DE
:1001330001FFFF3F00000000973F00000000FF00A9
:100143000000FF00C082C083E9FA5407F874F02866
:10015300F582E43484F583E0F879006022EAC4543C
:100163000F5403600814600914600D8012E5808049
:1001730002E5905870078007E5A0586002790102F4
:100183000270C082C083120275400478008003129B
:10019300032DE8F4FCEB600814601214601C802B40
:1001A300EA6005E842808023EC5280801EEA600505
:1001B300E842908016EC52908011E8C39420500BD3
:1001C300EA6005E842A08003EC52A0020270C082FC
:1001D300C08312027540047800800312032DE8F4F3
:1001E300FCE87003020270EB600814602C1460508A
:1001F300807BEC52F374016A601274026A601574B6
:10020300046A7003E8428FE842FD806153F7DFEC34
:10021300528F80F343F72080F6EC52F474016A6046
:100223001274026A601574046A7003E842F6E842C5
:10023300FE803A53F7BFEC52F680F343F74080F663
:10024300E8C394205027EC52F574016A60127402DB
:100253006A601574046A7003E842F7E842FF800D90
:1002630053F77FEC52F780F343F78080F6D083D0C7
:100273008222E9C4540F5403FB743F59C3943022C0
:1002830074F8120FD1E9C4540F5403FE743F59C3D9
:10029300943040047800800312032DE8F4FBE860F7
:1002A30077EE600814602B14604E806CEB52F352AF
:1002B300FD74016A600F74026A600F74046A7058F7
:1002C300E8428F805353F7DF800343F720EB528FCD
:1002D3008046EB52F452FE74016A600F74026A6046
:1002E3000F74046A7032E842F6802D53F7BF80031F
:1002F30043F740EB52F68020E8C39420501AEB44B6
:10030300E0FB52F552FF74016A601274026A6015D1
:1003130074046A7003E842F77F0102136053F77FA6
:10032300EB52F780F343F78080F6E95407FC74F04F
:100333002CF582E43484F583E0F822C082C0831272
:10034300027540047800800312032DE8F4FCE86092
:1003530038EB600814601214601C802DEA6005E815
:1003630042FD8025EC52FD8020EA6005E842FE80D4
:1003730018EC52FE8013E8C39420500DEA6005E8A0
:1003830042FF800574E04C52FF020270C082C083BA
:1003930012027540047800800312032DE8F4FCE890
:1003A300603FEB60081460151460228034EA600536
:1003B300E842808003EC5280E842FD8024EA600535
:1003C300E842908003EC5290E842FE8014E8C39424
:1003D30020500EEA6005E842A08003EC52A0E842F8
:1003E300FF020270743F59C394305042E9C4540F62
:1003F30054036007146013146020227801E8F4FBAF
:10040300EA602414601814601922740F59C3940409
:100413005004780280E7780480E3780880DFE842BC
:100423008C22E58C586004EB528C22E8428C2274B7
:10043300F5120FD174FB1217209081C0E0A2E15096
:1004430003121B939081C0E0A2E0400302053690A3
:1004530081D01219B374011219CA12199B90063E66
:10046300E4F0908029E0FEA3E0FFEE4F604785189B
:1004730082851983E4F0A818A919880889097808DE
:1004830012164575080175090078081216457C0097
:100493007D007A017B041224B17404121622E970E0
:1004A3000C851882851983E05E90063EF074011274
:1004B30016FA1221AB74011219CA780812195BE5F6
:1004C30008FA74011219CA780812195BE509FB745A
:1004D300011219CA780812195B741078081216C130
:1004E300E508541FFC9081C4E0F5FDA3E0F5FEA3ED
:1004F300E0F5FF9081CCE0F58FA3E0F5F6A3E0549F
:100503001FF5F77900E9FE74C82EF582E43481F50E
:1005130083E0601275080175090074052E780812CE
:100523001872E50842F709E9C3940340D88A808B1F
:10053300908CA074051216227F0402136012191FF7
:10054300601D12192E7005191919801A1217897056
:100553001F12179DC37003E6673319191940071853
:1005630018182208080874FFF618F618F618F62269
:1005730012179D60171219D4702192F01219DD70B1
:1005830019501720F014080808090909E7F6181983
:10059300E7F61819E7F61819E7F6221219DD60E6EF
:1005A300E869701F0808E62480F608E436F6185454
:1005B3007FB47F0CE654806007F6E418F618F62241
:1005C300181822E9C6CC08C6CD08C6CE08C6CFC0C7
:1005D300E0E8C0E0EAC0E0EBC0E009E9F809E7FAC7
:1005E30009E7FBE6F918E6F8C3EC98ED99EE9AEB08
:1005F300C2E7F5F0EFC2E795F0500E600CEBCFFBCE
:10060300EACEFAE9CDF9E8CCF8EAA2E7D2E7FAEBC9
:1006130033FB13F5F0EEA2E7D2E7FEEF33FFC5F0AD
:1006230013A2E730E601B313C5F0C3C0E0C0F07F07
:1006330000C39BFB605E9418600F401D14601AD0CA
:10064300E023F9D0E0F80207218AF0E9486003D2F9
:10065300F0E4AFF0FAF9F8803BEB30E40D89F0EA0F
:100663006003D2F0E4AFF0F9CAF8EB30E30D88F0A1
:10067300EF6002D2F0AFF0E4CAC9F8EB540760149C
:10068300FBC3EA13FAE913F9E813F8EF135002D2A4
:10069300E0FFDBEDD0E0C0E030E739C3E49FFFF5D6
:1006A300F0EC98FC42F0ED99FD42F0EE9AFE42F038
:1006B300D0E0F9D0E0F8E5F0607AE923F9EE20E73D
:1006C30042D8028067C3EF33FFEC33FCED33FDEE1A
:1006D30033FE80EAEC28FCED39FDEE3AFED0E02350
:1006E300F9D0E0F84002801BC3EE13FEED13FDECDE
:1006F30013FCEF135002D2E0FF08B800067F7F74AB
:10070300FF802EEF3350178CF020F00260100CBCEA
:10071300000C0DBD00080EBE000408E860DFE933DD
:10072300E813FFEE2313FE4F4D4C8008E95480FF7E
:10073300E4FEFDFCEE33EF33F47004FCFD7E80D069
:10074300E0FBD0E0FAD0E0F8D0E0CFC618CEC61870
:10075300CDC618CCC6F92212191F70041818182216
:1007630012192E700D74FFF61819F61819F61819C8
:10077300F622E7548066F61219DD700F1219D47051
:10078300F014F608F608F608F680D11219D4700CA6
:10079300F608F608768008E6447F80EC1217A0700E
:1007A3000C12178C60BFE65480F6E480BB12178CE2
:1007B300700519191980A5E869700C763F187680C1
:1007C30018F618F6E8F922E6CDC0E018ECC0E0E62A
:1007D30033CD33CDD313F6E719FCE7191933CC33F3
:1007E300C3947F400ECD9D502408E65480F6E41850
:1007F300F6800FF4043D14501408E6447FF618768F
:1008030080E418F618F6D0E0FCD0E0FD22CCD31338
:10081300CCFD18E4C6CBC0E018E4C6CAC0E00808A3
:10082300ED08C633E613F618E433C675F003C3CAFE
:1008330097CA09CB97CB199C40047D08802EBD0035
:100843000302090316B6FF050606081618C3CA33C2
:10085300CACB33CB33CA27CA09CB37CB193CC37DA9
:1008630008803E187D0820E75CC633C6CA33CACB6E
:1008730033CB33DDF1D5F0EB30E77BCA97CA09CB35
:10088300974ACB199C406F4B7025E620E021806688
:10089300187D08C3CA97CA09CB97CB199CD3C63313
:1008A300C6CA33CACB33CB3350C9DDE7D5F0E1D366
:1008B300E4C636C608C636C608C636C608C636C631
:1008C3001818188031C3CA97CA09CB97CB199CB3A0
:1008D3004097C633C6CA33CACB33CB33DD34D5F0E6
:1008E3002EC6A2E0C640C8CA27CA09CB37194A7028
:1008F300BECB3CB480B90808E63308E633601F1862
:100903001818D0E0FAD0E0FBD0E0FCD0E0FD2218CC
:100913007D08CA27CA09CB37CB193CD3808013F68D
:1009230018E4B67F11F618B6FF0EF618C60470D297
:100933000808768080CAF618F618F680C5001219E2
:100943001F604F12192E6012E7548066F612178942
:1009530070111219D4703B090909F4F618F618F648
:1009630018F62212179D70151219DD08080860EA9F
:10097300E6447FF618768018E4F618F6221219DD9D
:1009830060161219D47012E4F608F608F608E65455
:1009930080F609090918181822EAC0E0EBC0E0EC58
:1009A300C0E0EDC0E0E687F0A4FBACF008E687F01A
:1009B300A42CFCE435F0FA1809E687F0A42C4B606C
:1009C300027401CA35F0FCE433FB09E687F0D2F781
:1009D300A42CCB35F0FC1908E687F0A42BCC35F01A
:1009E300FBE433FD0819E687F0D2E7A42C4ACB35A4
:1009F300F0CD3400FC09E687F0D2E7A42DCC35F026
:100A0300FDE433FA0918E687F0D2F7A42CCD35F0CC
:100A1300CA3400FC08E687F0D2E7D2F7A42ACC3523
:100A2300F07A7E20E70B0ACB33CBCD33CDCC33CC5E
:100A330033CB3350147004ED30E00ED2F1E4CD3DEE
:100A4300CDCC3CCC3B5005DA05C2F1EB547FC63329
:100A530008E63392F0FBE73309E733C39A502D2BB3
:100A630070190C0D4C4D70151806E608C333700D44
:100A730020F10AA2F013F6E418800B4024E4F630C8
:100A8300F002768018F618F618F68024D33B14503B
:100A93001074FFA2F013F6187680E418F618F680A7
:100AA3000FA2F013F618E63303F618ECF618EDF67A
:100AB300D0E0FDD0E0FCD0E0FBD0E0FA22C0E0744F
:100AC300F1121037A2AFE433F509D2AF85A708AF0F
:100AD300A1EF5508FE74105E6006121CB975A1EFF4
:100AE30074085E6008121CBF75A1F78024EFA2E0B2
:100AF30092F0E508A2E082F05017906198E0F89038
:100B0300056CE0C398A2D265D0335002E8F075A11A
:100B1300FEE509A2E092AF7F02021096C0E074F2F4
:100B2300121037A2AFE433FED2AF9061A4E0F875A0
:100B33009B00E59158540860087591F7121D0780D2
:100B430023E59158541060087591EF121D0D801420
:100B5300E591A2E092F0E8A2E082F05007E0C2E063
:100B6300F0121E639061A3E0F8E5E9585404600EA7
:100B7300121E3975E9FB906193E0A2E640F2EEA202
:100B8300E092AF7F01021096C0E074F2121037A218
:100B9300AFE433FED2AF9061A5E0F8E5BF5854044B
:100BA300600675BFFB121E7B80D4C3E498F8E499FA
:100BB300F9120BEE8026C3E49AFAE49BFBE920E7E3
:100BC300E9120BEEE498F8E499F922C3E498F8E407
:100BD30099F9120BEEE498F8E499F9C3E49AFAE46C
:100BE3009BFB22EB20E7CFE920E7E0B90010BB0035
:100BF30008E88AF084F8AAF022E4FBC8FA22EB7032
:100C0300227B10C833C8C933C9335007C39AC3DB27
:100C1300F280069A50012ADBEAC833F4C8C933F4D8
:100C2300C9FA2275F008E4C833C8C933C933C99A6D
:100C3300C99B5004C92AC93BD5F0ECFBC833F4C89F
:100C4300E4C9FA22C0E0C0D0E8C0E0E9C0E0C08255
:100C5300C083A8C1E8C0E09004D9E0F8745828F52F
:100C630082E43404F583D0E0F09004D8E0F8A3E004
:100C7300687006E5959004DBF09004D9E004F0C3B6
:100C830094804002E4F0A374C6F0D083D082D0E015
:100C9300F9D0E0F8D0D0D0E032C0E0C0D0E8C0E076
:100CA300E9C0E0C082C08390055CE0F8A3E068700F
:100CB30008539AFBA374018022C2E990055CE0F813
:100CC300740128F074DC28F582E43404F583E0F53C
:100CD300C190055CE0C394804002E4F080AC120D47
:100CE3002C30F039120D718034120D2C20F0143099
:100CF300E72B74FFFCFBFA747F8022E4FCFBFA749D
:100D030080801AB48008BC00F2BB00EF800F50EB68
:100D1300F9E4C39AFAE49BFBE49CFCE499C6CC187F
:100D2300C6CB18C6CA18C6F922E4C9C608CAC6087B
:100D3300CBC6D3330308CCC63392F0C3947F402E83
:100D430094184019C9B90704CACBCC225025C3094A
:100D5300CA33CACB33CBCC33CC33D9F422F4600DB2
:100D6300C9CCC313CB13CBCA13CAD9F6CC22E4FC28
:100D7300FBFA2214FCFBFA22C0E074F2121037A231
:100D8300AFE433FED2AF900715E05589600FE589D4
:100D9300FA790012214B900715E0F45289C2C5EE8F
:100DA300A2E092AF7F01021096C0E074F2121037F6
:100DB300A2AFE433FED2AF900716E0558A600FE589
:100DC3008AFA790112214B900716E0F4528AC2EB9A
:100DD30080CDC0E074F2121037A2AFE433FED2AF7D
:100DE300900717E0558B600FE58BFA790212214BC0
:100DF300900717E0F4528BC2E880A4080808EAC001
:100E0300E0EBC0E086F0E7A4FA180986F0E7A42A2D
:100E1300FA180986F0E7A42AFA180986F0E7A42A43
:100E2300FA1986F0E7A4FBE5F02AFA190886F0E739
:100E3300A42BFBE5F03AFA190886F0E7A42BFBE5AF
:100E4300F03AFA18180986F0E7A4C5F02BFBE43A48
:100E5300FA1908E7C5F0C6A426F6E5F03BFBE43A29
:100E6300FA1886F0E7A4F6E5F00826F6E43B08F660
:100E7300E43A08F6D0E0FBD0E0FA22080808E630AE
:100E8300E7111217D9120E96080808C64480C6182F
:100E9300181822181818E9799EC608CAC608CBC6BE
:100EA30008CCC6C370207996CACBCC7019798ECB87
:100EB300CC70137986CC700EF9802ACA33CACB332F
:100EC300CBCC33CC331930E7F2CCCBCA33501470CC
:100ED30004EA30E00DE4CA3ACACB3BCBCC3CCC505D
:100EE3000209C3E913C6CC182313C6CB18C6CA1804
:100EF300C6F922E4CFC0E0E4CEC0E0E4CDC0E0E434
:100F0300CCC0E075F020E626F608E633F608E633B3
:100F1300F608E633F6181818EC33FCED33FDEE3320
:100F2300FEEF33FFC3EC9709ED9709EE9709EF97AF
:100F3300191919400FFFEC97FC09ED97FD09EE977E
:100F4300FE191906D5F0BFECF709EDF709EEF7091D
:100F5300EFF7191919D0E0FCD0E0FDD0E0FED0E0A6
:100F6300FF222518C582C0E0E51934FFC583C0E020
:100F7300E518C3958224F810AF0885831985821874
:100F83008008858319858218D2AFCEF0A3E520F0BF
:100F9300A37808E608F0A3DEFAEFF0A3E58124FACC
:100FA300F8E608F0A3E608F0A3E608F0A30808E6CD
:100FB30008F0A3E608F0A315811581D0E0FED0E088
:100FC300F8158115811581E8C0E0EEC0E0222518EF
:100FD300C582C0E0E51934FFC583C0E0E518C395B9
:100FE3008224F910AF0885831985821880088583C8
:100FF30019858218D2AFCEF0A3E520F0A37808E6D6
:1010030008F0A3DEFAEFF0A3E58124FBF8E608F08D
:10101300A3E608F0A30808E608F0A3E608F0A31582
:10102300811581D0E0FED0E0F815811581E8C0E09C
:10103300EEC0E022C0D02518C582C0E0E51934FF18
:10104300C583C0E0E518C3958224F310AF088583F8
:10105300198582188008858319858218D2AFC8F054
:10106300A3E9F0A3EAF0A3EBF0A37908E709F0A35F
:10107300D8FAECF0A3EDF0A3EEF0A3EFF0A3D0E0E9
:10108300F0A3D0E0F0A3D0E0F0A3E520F0A3E5F0D7
:10109300F0A322851983851882E0C0E0A3E0F9A3B9
:1010A300E0FAA3E0FBA37808E0F608A3DFFAE0FC8C
:1010B300A3E0FDA3E0FEA3E0FFA3E0C0E0A3E0C044
:1010C300E0A3E0F5D0A3E0F520A3E0A3F5F010AF93
:1010D300088583198582188008858319858218D22B
:1010E300AFD082D083D0E0F8D0E0321217DC1818EA
:1010F30018120EF61218BE191919221218BE191950
:1011030019080808E618181820E7E0120EF6121757
:10111300DC18181822090909E719191920E7DC084E
:101123000808E618181820E703020EF61217DC1851
:101133001818120EF61217DC1818181218BE1919FF
:1011430019221219BFB90003021184E49004017833
:101153007F79158002F0A3D8FCD9FA7A7F7B1890A7
:10116300008678C279018015E493A3AD82AE838AA9
:10117300828B83F0A3AA82AB838D828E83D8E9D935
:10118300E775820E7583FE740212160475820F755D
:1011930083397400121604E47375F0108E1A8F1BD2
:1011A30085821F85831E851882851983E0CEA3E07F
:1011B300CF851F82851E83EBC9EAC8EDCBECCAC37A
:1011C300E833C8E933C9EA33CAEB33CBC3EA9EF544
:1011D3001DEB9FF51CB35004AB1CAA1DEC33CCEDE7
:1011E30033CDD5F0DAAE1AAF1B2212191F601C12D1
:1011F300192E60171219DD70071219D47001D3224A
:10120300C0D01219D47006D0D0B322C32233D0D0A9
:10121300501430E0F6C3E7960809E7960809E79605
:101223000809E796B32220E0D5E6970809E6970870
:1012330009E6970809E697B322D083D082ECC0E091
:10124300EDC0E0E493A3FCE493A3FDED4C600D1229
:1012530013A0EC24FFFCED34FFFD80EFE493A3FC2B
:10126300E493A3FDED4C600D1214A7EC24FFFCEDF9
:1012730034FFFD80EFD0E0FDD0E0FCE493A3C0E0B9
:10128300E493C0E02212191F601B12192E6016127C
:1012930019DD70071219D4600CB322C0D01219D40F
:1012A3007005D0D022C32233D0D0501330E0EBC32B
:1012B300E7960809E7960809E7960809E7962220C2
:1012C300E0E4E6970809E6970809E6970809E69730
:1012D30022D083D082E9C0E0E493A3C386F0C5F0B3
:1012E30095F0F908E493A386F0C5F095F0700BE44C
:1012F30093A3C3994005E9048002A3E475F002A413
:101303002582F582E5F03583F583D0E0F9E493A3F4
:10131300C0E0E493C0E022851983851882E0A3FE30
:10132300E0A3F5207808E0A3F608DFFAE0A3FFE0E6
:10133300A3C0E0E0A3C0E0E0A3C0E0E0A3C0E0E01E
:10134300A3C0E010AF0885821885831980088582C1
:1013530018858319D2AFD083D08202160A851983E8
:10136300851882E0A3FEE0A3F5207808E0A3F60841
:10137300DFFAE0A3FFE0A3C0E0E0A3C0E0E0A3C086
:10138300E0E0A3C0E010AF088582188583198008C8
:10139300858218858319D2AFD083D08222C0E0C35F
:1013A300E49396087401939618400FE493667008CB
:1013B30008740193661870007019A3A3C3E493968D
:1013C300087401939618A3A3400DD0E0D0E0D0E0B9
:1013D300021278A3A3A3A3A3A3D0E022C0E074F2D4
:1013E300121037C2D99018BAE0C39400A2D265D0C4
:1013F300334005E0F91225957F01021096C0E07491
:10140300F2121037C2DC9018BCE0F9C39400A2D2E8
:1014130065D033400312259580DE74048004740282
:101423008000CCC0E0EDC0E0E518C39CCCAD195002
:10143300011D10AF068C188D1980068C188D19D2DA
:10144300AF121566D0E0FDD0E0FC2274028000CC20
:10145300C0E0EDC0E0E518C39CCCAD1950011D10F0
:10146300AF068C188D1980068C188D19D2AF121502
:1014730022D0E0FDD0E0FC2212191F602512192EA4
:1014830060201219DD70030219D4080808E766709A
:10149300101819E766700A1819E76670041819E737
:1014A3006622F422C0E0C0F088F0E4936670080876
:1014B30074019366187000A8F0A3A3700BD0F0D04A
:1014C300E0D0E0D0E0021278A3A3D0F0D0E022D0A5
:1014D30083D082CCC0E0E493A360061215A71470F6
:1014E300FAE493A3600612170A1470FAD0E0FCE43E
:1014F30093A3C0E0E493C0E022C008C3E096F508DC
:1015030008A3E096420808A3E096420808A3E096E1
:101513004208A2D265D033E5087001D3D00822CAAD
:10152300C0E0E493A3C582CCC582C583CDC583F057
:10153300A3C582CCC582C583CDC583DAE5D0E0CA15
:1015430022A2E792D65002F40430F70663F0FF05B7
:10155300F0B3400384800384F40430D60563F0FFC2
:1015630005F022CAC0E0E0A3C582CCC582C583CD05
:10157300C583F0A3C582CCC582C583CDC583DAE616
:10158300D0E0CA22C0E0C0D0C082C08375AF009053
:101593000754E02401F0A3E03400F0D083D082D0DC
:1015A300D0D0E032C0E0E493A3D39C5010E493A3E3
:1015B300C39C400AD0E0D0E0D0E00214EFA3A3A381
:1015C300D0E022C008C3E096F50808A3E0964208DD
:1015D30008A3E096420808A3E09645087001D3D01B
:1015E30008227009080808226016181818C6C333A1
:1015F300C608C633C608C633C608C633C6D5E0EA2E
:1016030022C09FF59FE473D09F22D083D082C09FD6
:10161300E493C0E0740193C0E0740293F59F220049
:10162300C0D0251810AF08F518500C05198008F51F
:101633001850020519D2AFD0D0227404800A740363
:101643008006740280027401C0E0F404121658D0BC
:10165300E012196A222518F58210AF08F518400C1C
:1016630015198008F51840021519D2AF8519832280
:101673006017080808C6A2E713C618C613C618C61B
:1016830013C618C613C6D5E0E922BB0102E722C080
:1016930082C08389828A83BB0003E08002E493D003
:1016A30083D08222C0E0C0D0E8C0E0A8A8D2AFC2F5
:1016B300C7E8A2E792AFD0E0F8D0D0D0E03260160E
:1016C300080808C6C313C618C613C618C613C61817
:1016D300C613C6D5E0EA22C3E0C696F608A3E0C661
:1016E30096F608A3E0C696F608A3E0C696F622256A
:1016F30018F8E43519F9222518FAE43519FB2225DF
:1017030018FCE43519FD22C0E0E493A36C7009D002
:10171300E0D0E0D0E00214EFA3A3D0E0222518101C
:10172300AF08F518400C15198008F5184002151973
:10173300D2AF22E76670100809E766700A0809E766
:101743006670040809E76622C3E09608A3E09608DA
:10175300A3E09608A3E096A2D265D03322E0667098
:101763001008A3E066700A08A3E066700408A3E00B
:101773006622C3E4939608740193960874029396C1
:10178300087403939622181818E60846087009E6A9
:1017930026087005E633F4220822191919E70947C8
:1017A300097009E727097005E733F4220922C3E02A
:1017B30096F008A3E096F008A3E096F008A3E0965D
:1017C300F022C3E697F60809E697F60809E697F6C6
:1017D3000809E697F622181818E4C396F608E49663
:1017E300F608E496F608E496F622E026F608A3E067
:1017F30036F608A3E036F608A3E036F622E657F6F7
:101803000809E657F60809E657F60809E657F622E7
:10181300E627F60809E637F60809E637F60809E683
:1018230037F622E493F608740193F608740293F6EC
:1018330008740393F622E056F608A3E056F608A3CD
:10184300E056F608A3E056F622E056F008A3E05669
:10185300F008A3E056F008A3E056F022E046F008B3
:10186300A3E046F008A3E046F008A3E046F02270A8
:101873000422600D18C6C333C608C633C6D5E0F4C8
:101883001822E667F60809E667F60809E667F60828
:1018930009E667F622E026F008A3E036F008A3E0A5
:1018A30036F008A3E036F022E647F60809E647F6E5
:1018B3000809E647F60809E647F622E4C397F7095D
:1018C300E497F709E497F709E497F722600D08C650
:1018D300A2E713C618C613C6D5E0F322C6F4C6089A
:1018E300C6F4C608C6F4C608C6F4C622C3E0960802
:1018F300A3E09608A3E09608A3E09622C3E7960820
:1019030009E7960809E7960809E7962275D0007556
:10191300813F75180175190400021145E608460850
:10192300C3134608336002E633F422E7094709C3C9
:10193300134709336002E733F422600C08C6C3136C
:10194300C618C613C6D5E0F422E6F008A3E6F008ED
:10195300A3E6F008A3E6F022E0F608A3E0F608A366
:10196300E0F608A3E0F622CAC0E0E6F0A308DAFA3C
:10197300D0E0FA22E0FCA3E0FDA3E0FEA3E0FF2217
:10198300EAF0A3EBF0A3ECF0A3EDF022E0FAA3E07E
:10199300FBA3E0FCA3E0FD22E8F0A3E9F0A3EAF057
:1019A300A3EBF022ECF0A3EDF0A3EEF0A3EFF02213
:1019B300E0F8A3E0F9A3E0FAA3E0FB22E5C754F8BB
:1019C3004401F5C77901222518F582E43519F58319
:1019D30022E72719471947194722E62618461846CA
:1019E300184622C2AF75D69F0200002212160D655B
:1019F300C40512160D92C50512160D358907121668
:101A03000D9F890712160DC0890712160DFE89074F
:101A130012160D438A0712160D698A0712160D72E4
:101A23008A0712160D208B0712160D848B071216C8
:101A33000D2F7F0012160DBBCB0412160DA5CC047F
:101A430012160DAACD0412160D7CCE0412160D78B3
:101A5300D10412160D9ED10412160DDBD1041216F9
:101A63000D14D20412160D92D20412160DFCD304D7
:101A730012160D6CD40412160D06D50412160DD2CF
:101A8300D60412160DA4F80412160DB2F804121699
:101A93000DC3F90412160D73FA0412160DFFFB049D
:101AA30012160DA9FE0412160D99C20612160D2563
:101AB300C30612160D40C40612160D5CC406121698
:101AC3000DA6C50612160DC6AB0712160DD7AB072A
:101AD30012160D9CAC0712160DABAC0712160DB601
:101AE300AC0712160DF7FF0212160DC0B30712163C
:101AF3000DECB30712160D25B60712160D0EB1071E
:101B030012160D1EB10712160D30B10712160D96DF
:101B1300B10712160DD6AD0712160D59AE071216E0
:101B23000DBFAE0712160DA9970712160DE49707FE
:101B330012160D40980712160D98980712160D1FCE
:101B4300990712160D5B990712160D12B607121696
:101B53000D22B60712160D92E50612160DF5E506CF
:101B630012160D44E60612160D71E60612160DC77F
:101B7300E60612160DBFFF0312160DA18E071216ED
:101B83000DEB8E0712160D818F0712160D079007A6
:101B930012160D38900712160D50900712160DC429
:101BA300900712160DDA900712160DED9007121614
:101BB3000DF7900712160D1CF00512160DBCF30558
:101BC30012160DEEF30512160D1AF40512160DC1B9
:101BD300F40512160D4EF60512160DB8E204121690
:101BE3000D22E30412160DD4E30412160D9DE40432
:101BF30012160DF9E50412160D1AE70412160D5606
:101C0300E80412160D3EEA0412160D71EA041216C8
:101C13000DD7EA0412160D09EB0412160D90EC040D
:101C230012160D00ED0412160D35ED0412160D49B2
:101C3300ED0412160DBFED0412160DBECF051216DC
:101C43000D35D20512160D96D30512160D9DD50529
:101C530012160DF2AE0612160D1EAF0612160D8FDA
:101C6300B10612160DCFB10612160D0FB2061216DB
:101C73000D23B20612160D3CB20612160D2DB30635
:101C830012160DD2B30612160DE6B30612160D4B3D
:101C9300A50712160D6FA50712160D88A5071216B4
:101CA3000DBAA50712160DEAA50712160D17A607FA
:101CB30012160D79A60712160D88A60712160D9295
:101CC300A60712160D9FA60712160D0B8C071216E8
:101CD3000D2B8C0712160D6A8C0712160D858C07B7
:101CE30012160DA48C0712160D0A8D0712160D136A
:101CF3008D0712160D708D0712160D948D0712168F
:101D03000D558E0712160D628E0712160D738E0770
:101D130012160DB2FF0412160DCAFF0412160DF6A9
:101D2300FF0412160D9DC70612160DF1C8061216F2
:101D33000DFFC80612160D12C90612160D27C90685
:101D430012160D3CC90612160D4FC90612160DC305
:101D5300C90612160D28CA0612160DCACA0612168D
:101D63000D8ECB0612160D9ECB0612160DADCB06AD
:101D730012160DDFAF0712160D03B00712160D2B47
:101D8300B00712160D53B00712160D8695071216DB
:101D93000DAD950712160DCB950712160D3E96073E
:101DA30012160D2E860712160D47860712160D53AF
:101DB300860712160D67860712160D8586071216FB
:101DC3000D8F860712160D99860712160DAC86071E
:101DD30012160D36870712160DAB870712160DDF85
:101DE300870712160D2D880712160D7A880712160B
:101DF3000D95880712160D9F880712160DC58807C3
:101E030012160D2A890712160D05FF0612160D2745
:101E1300FF0612160DE67F0012160DF7B305121614
:101E23000D21B40512160D3EB40512160D51B4055D
:101E330012160D67B40512160DC5B40512160DFD65
:101E4300B40512160DF5B80512160D3ABA05121699
:101E53000D6DBA0512160DD0BA0512160D49BC0543
:101E630012160D71BC0512160D86BC0512160D96C1
:101E7300BC0512160DDABC0512160D35BD0512167A
:101E83000D45BD0512160D96AA0712160DB0AA0729
:101E930012160DD8AA0712160DF1AA0712160D1560
:101EA300AB0712160D33AB0712160D4AAB0712160A
:101EB3000D78AB0712160D93AB0712160DA7B407D7
:101EC30012160D43F80612160D53F80612160D5886
:101ED300F90612160D8AF90612160DB0F906121636
:101EE3000DD3F90612160DEAF90612160D24FA0699
:101EF30012160D89FA0612160DCBFA0612160D0AE2
:101F0300FB0612160D3BFB0612160D72FB0612168C
:101F13000D64930612160D3A940612160D65940677
:101F230012160D82940612160D7D950612160DBF1C
:101F3300950612160D2D960612160D7F960612168D
:101F43000DE7960612160DC9970612160DA29806EE
:101F530012160D87E90612160DDCE90612160D2E70
:101F6300EA0612160D6FEA0612160D82EA0612161B
:101F73000DBAEA0612160D21EB0612160DB7EB0683
:101F830012160D5BD80512160D86D80512160D51C3
:101F9300D90512160D98D90512160D29DA05121650
:101FA3000DA2DD0512160D15DF0512160D0D9A0390
:101FB30012160D539A0312160D6D9B0312160D93F1
:101FC3009B0312160D589E0312160D819F031216C2
:101FD3000D2AA30312160D94A30312160D31A403A5
:101FE30012160D84A40312160D48A50312160D989C
:101FF300A50312160DCAA50312160DCDA5031216BD
:102003000DDDA50312160DEFA50312160D34A6035D
:1020130012160DD7A70312160D44A80312160D8F1F
:10202300A80312160D2BA90312160DB7A903121636
:102033000D89AB0312160D30AD0312160DCFAD0390
:1020430012160DE6AF0312160DC4B00312160D746B
:10205300B20312160D0C9F0712160D269F071216B8
:102063000D689F0712160D9B9F0712160DB59F074C
:1020730012160DCE9F0712160D33A00712160D6E02
:10208300A00712160DF0860612160D2787061216E4
:102093000D71870612160DC5870612160D95880653
:1020A30012160DCB880612160DF8880612160D4A65
:1020B300890612160D68890612160D8C89061216EA
:1020C3000DB2890612160D348A0612160DBE8A0643
:1020D30012160DEF8A0612160D358B0612160D53C6
:1020E3008B0612160D818B0612160DA58B06121682
:1020F3000DDB8B0612160D3A8C0612160D5C8C0640
:1021030012160DBB8C0612160DF48C0612160D0258
:102113008D0612160DB69F0512160DF09F051216A9
:102123000D2FA10512160D82A20512160DB7A905D2
:1021330012160D8BA40612160D74A50612160DB5F4
:10214300A50612160D64A60612160DCEAC071216BE
:102153000D3FAD0712160DA2AD0712160DDDA90531
:1021630012160DFCAA0512160D74AC0512160DBB42
:10217300AD0512160D13AE0512160D53AE0512164C
:102183000D61AE0512160D91AE0512160D21AF05A8
:1021930012160DBEAF0512160DCAB00512160D6646
:1021A300B20512160DECB30512160D4CED06121600
:1021B3000D25EE0612160D61EE0612160D8AEE06B9
:1021C30012160D5FF00612160DF8B80612160D154D
:1021D300B90612160D5AB90612160D90B906121643
:1021E3000D47BA0612160DE8BB0612160D55BC06AE
:1021F30012160DB2BD0612160DB6930412160DBAC1
:10220300940412160D2D950412160D4496041216FD
:102213000D90960412160D039A0412160D4B9A0490
:1022230012160DFF9A0412160D149C0412160D5E5D
:102233009C0412160D959C0412160DFE9C04121696
:102243000D439D0412160D959D0412160DE79D0472
:1022530012160D409E0412160DA39E0412160D11A4
:102263009F0412160D669F0412160D64A004121625
:102273000DC9A00412160DDDA10412160DA6A007A8
:1022830012160DE3A00712160D08A10712160D244E
:10229300A10712160D39A10712160D6AD0061216E0
:1022A3000D79D10612160D21D20612160D1BD30677
:1022B30012160D3CD30612160D56D30612160DF840
:1022C300D30612160D29D40612160DA9D40612161A
:1022D3000DB58A0512160D178B0512160DAB8B055E
:1022E30012160D3F8D0512160D80900512160D96D0
:1022F300900512160D4B910512160D8193051216BA
:102303000DA9A60712160DBBA60712160DCFA70718
:1023130012160DD2A70712160D50A90712160D8615
:10232300A90712160DA0A90712160DE2A907121686
:102333000DF2A90712160D8CAA0712160DE0F70568
:1023430012160DEAF70512160D24F80512160D8D57
:10235300F80512160DAAF80512160D4CF9051216FA
:102363000D55F90512160D9AF90512160DC3F90547
:1023730012160DD0F90512160D41FA0512160DCCE1
:10238300FA0512160D1AFB0512160D58FB05121647
:102393000DBDFB0512160DE0FB0512160D57FC05CE
:1023A30012160DAEFC0512160DE9FC0512160D1ED4
:1023B300FD0512160D30FD0512160D42FD05121610
:1023C3000D61FD0512160D6AFD0512160D25FE059C
:1023D30012160D71FE0512160DAFFE0512160DD065
:1023E300BD0612160D10BF0612160D33BF061216C8
:1023F3000D44BF0612160D43C10612160D63C10626
:1024030012160DEBB40712160D06B50712160D249E
:10241300830712160D68830712160DB08307121671
:102423000D96850712160D25860712160D27B2077E
:1024330012160D00800412160D24810412160D5E6F
:10244300810412160D08830412160D32830412162A
:102453000DA7850412160DE7850412160D7D87045A
:1024630012160D1A880412160D6C880412160D0F1D
:10247300890412160D47890412160D898904121650
:102483000DF88A0412160D468C0412160D778E046D
:1024930012160DA58E0412160DCC8E0412160DD530
:1024A3008E0412160D258F0412160DB78F04121603
:1024B3000DE6920412160D69930412160DFCB5076E
:1024C30012160D8EE10612160DA4E10612160D4822
:1024D300E20612160D87E20612160DA4E206121684
:1024E3000DD5E20612160D22E30612160D55E3066C
:1024F30012160D90E30612160D85E50612160D6FE2
:10250300990612160D159B0612160D569C061216E9
:102513000D6E9C0612160D1FD90612160D56DA06FD
:1025230012160DB5DB0612160DBFC60512160DEBFE
:10253300C60512160D25C70512160DEBC905121691
:102543000D43CA0512160D8DCA0512160DB1CA0523
:1025530012160D2ECC0512160D8BCC0512160DE896
:10256300CE0512160D4AE80512160D73E90512166B
:102573000D72EA0512160DB6EB0512160DD5EC0514
:1025830012160DA7ED0512160DA9990712160D7750
:102593009A0712160DABEC0212160D70ED0212160D
:1025A3000D7BED0212160D2CEE0212160D8BEE02B0
:1025B30012160D71F00212160DE1F00212160DE65D
:1025C300F20212160D1FF30212160DC8F5021216AF
:1025D3000DF0F50212160D72F60212160DEDF6024B
:1025E30012160D50F80212160DADF80212160D2B2D
:1025F300F90212160DECFD0212160DE6CB061216A9
:102603000D0DCC0612160D1BCE0612160D42CE066C
:1026130012160D97CE0612160D65CF0612160DDD96
:10262300CF0612160D5B930712160D73930712163E
:102633000D72940712160D79940712160DA29407C2
:1026430012160DD8AE0712160D37AF0712160D75F9
:10265300AF0712160DB6AF0712160DE3A906121631
:102663000D09AA0612160D49AB0612160D3EAC064D
:1026730012160D65AC0612160DFEAC0612160D529F
:10268300AD0612160D6DAE0612160D308D0612161E
:102693000DD28D0612160DF28E0612160D449006FB
:1026A30012160D02920612160DD9ED0412160D2DF7
:1026B300EE0412160D57EF0412160D83F0041216D2
:1026C3000D71F10412160D0DF40412160DC4F50468
:1026D30012160D0FF60412160D1DF80412160DB086
:1026E300F40612160DFDF40612160D80F5061216E9
:1026F3000D0CF80612160DFFA70712160D79A80781
:1027030012160D94A80712160D5B9D0712160D5E87
:102713009E0712160DC69E0712160DA49B071216CE
:102723000DEF9B0712160D3F9C0712160D5A9C07BF
:1027330012160DC4A30712160D1FA40712160D1BA4
:10274300A50712160D0A910712160D73910712169B
:102753000DE9910712160D04920712160D73E00589
:1027630012160DECE00512160D04E20512160D57B4
:10277300E30512160DF2E40512160D45E5051216D2
:102783000DB7E50512160DFAE60512160D09F10649
:1027930012160D91F20612160DDAF20612160DB389
:1027A300F30612160D2DF40612160D67710012169C
:1027B3000DD8710012160D3F720012160DC3720070
:1027C30012160DBE730012160DE0730012160D01E2
:1027D300760012160DF0760012160D5877001216B9
:1027E3000D93770012160DCD780012160D75790032
:1027F30012160DBE790012160D317A0012160D83D2
:102803007A0012160D2E7C0012160D587C0012163B
:102813000D99B20712160DD8B20712160D008006D5
:1028230012160D5A800612160D16810612160D3F4A
:10283300820612160D6F820612160D91830612166A
:102843000D08840612160D86840612160D6B850676
:1028530012160D9CB50712160DAFB50712160DDB38
:10286300FE0512160DEAFE0512160D39BA031216ED
:102873000DE0FF0112160DE6FF0112160DECFF012C
:1028830012160D77D70412160DE2D70412160DBBDC
:10289300D80412160D12DA0412160D81DA04121678
:1028A3000D2FDB0412160D08DC0412160DF7DC04E1
:1028B30012160D4DDE0412160DA0E00412160D7251
:1028C300430012160D7E430012160DE0430012164C
:1028D3000DEA430012160D7D440012160DB9440093
:1028E30012160D75450012160D88450012160DD8E7
:1028F300450012160D42460012160DA74600121689
:102903000DDD460012160D37C20512160D0E4900D5
:1029130012160DE24A0012160DC84B0012160D1ABC
:102923004D0012160D704F0012160DD950001216DD
:102933000D76510012160D1E560012160D0C57007F
:1029430012160DAA570012160DD6570012160D7245
:10295300580012160D87580012160DAB58001216A8
:102963000D11590012160D2E590012160D5859004B
:1029730012160DD55A0012160DF65A0012160D7CBA
:102983005B0012160D225C0012160D695C00121614
:102993000DDC5C0012160D685D0012160DCC5D0097
:1029A30012160D2C5E0012160DC25E0012160D3D9E
:1029B3005F0012160D705F0012160DD25F00121623
:1029C3000D34610012160DA4610012160D5362003E
:1029D30012160DA9630012160D41640012160DADF7
:1029E300640012160DF0660012160D7C68001216B4
:1029F3000DA7680012160D8D6A0012160D236C00C8
:102A030012160D2C6D0012160D6DBF0412160D2536
:102A1300C00412160D2CC10412160DAAC1041216FD
:102A23000DE3C20412160D04C30412160D02C404EE
:102A330012160DADC40412160D05C80412160D307E
:102A4300CA0412160D63B40712160D008003121682
:102A53000D58800312160DDE800312160DF081034C
:102A630012160D3D820312160D23830312160D3A1F
:102A7300830312160D8C830312160DC483031216DF
:102A83000DD7830312160D2D840312160D868403AE
:102A930012160D9E840312160D0E870312160DA532
:102AA300870312160DCF870312160D07880312161C
:102AB3000D2D8A0312160D738A0312160DBD8A0398
:102AC30012160D918B0312160DD28B0312160DF5F0
:102AD3008B0312160D3C8C0312160D5E8C0312161B
:102AE3000DDF8C0312160D6C8D0312160DC68D03AC
:102AF30012160D0E8E0312160D838F0312160DFF81
:102B0300910312160D8C920312160DB8930312162D
:102B13000DF3930312160DC0940312160D009503C3
:102B230012160D03950312160D0D950312160D20A3
:102B3300950312160DA1950312160DD795031216C0
:102B43000D03960312160D2A960312160D4E9603C5
:102B530012160DE5960312160DFE960312160D318D
:102B6300970312160D51970312160D8E9703121623
:102B73000DC5970312160DC4980312160DF799038A
:102B830012160DA0B10712160DACB10712160DF2F5
:102B9300B10712160DFAFF0212160D45CC031216D9
:102BA3000D68CC0312160D3FCD0312160D88CD030D
:102BB30012160DE0CD0312160D3ACE0312160D8632
:102BC300CE0312160DFCCE0312160D8ACF03121676
:102BD3000D02D00312160D45D00312160D22D40395
:102BE30012160D69D60312160D9CD60312160D1A72
:102BF300D70312160D9FD70312160D77D80312169B
:102C03000DA1D90312160D8CDA0312160D69DB031D
:102C130012160DA5DC0312160D49DE0312160DDB89
:102C2300DE0312160DE2E00312160D4FA304121673
:102C33000DEFA30412160D59A40412160D00A504DA
:102C430012160D64A50412160D97A60412160DBDD7
:102C5300A70412160D36A80412160D0EAA04121696
:102C63000DAEAA0412160D51AB0412160DB0AB042F
:102C730012160D6BAC0412160D31AE0412160DD4E0
:102C8300AF0412160D80B00412160D95B10412167E
:102C93000D72E10312160DEAE10312160D32E2037F
:102CA30012160D76E20312160DBFE20312160D097A
:102CB300E30312160D3EE30312160DBCE3031216D3
:102CC3000D16E40312160D6FE50312160DF8E50356
:102CD30012160D54E60312160D6EE60312160D9529
:102CE300E60312160DEDE60312160D57E80312164E
:102CF3000D76E80312160D9EE90312160D1BEA0367
:102D030012160D88EA0312160DEAEA0312160D9A3B
:102D1300EB0312160D6CED0312160D57EE0312168C
:102D23000D51EF0312160D57F00312160D73F10335
:102D330012160D81F10312160D5AF20312160DFA33
:102D4300F20312160D3EF30312160D53F30312167C
:102D53000D64F40312160D07F50312160D5FF50348
:102D630012160D12FD0112160D4BFE0112160D085F
:102D7300FF0112160D6CFF0112160D0080071216CB
:102D83000D1B800712160D5F800712160D85800735
:102D930012160DAB800712160DC3800712160D26EF
:102DA300810712160D3B810712160D5D820712165D
:102DB3000D66820712160D6F820712160D788207B1
:102DC30012160D82820712160DD1D40612160DB1FA
:102DD300D80612160DB6D80612160DB8D806121656
:102DE3000D84FE0212160DDEB50712160D05B3078C
:102DF30012160DB5FF0612160D22B50712160D5A3F
:102E0300DD0612160D78B00712160DA2B0071216C2
:102E13000D38A20712160D4EB50712160DC0B507D1
:102E230012160D66B30712160D13B40712160DCA48
:102E3300FB0612160D23D90112160D7AD9011216AB
:102E43000DE6D90112160D72DA0112160D28DB01F7
:102E530012160D70DB0112160D89DB0112160DAC73
:102E6300DB0112160DCEDB0112160D0CDC0112165E
:102E73000D5BDC0112160D86DC0112160DE4DC017C
:102E830012160D8BDD0112160D33DE0112160DAF76
:102E9300DE0112160D7CDF0112160DC8DF011216BA
:102EA3000D50E00112160D89E00112160D1AE10111
:102EB30012160D2BE10112160D9DE10112160D36AE
:102EC300E20112160DA0E20112160D90E301121693
:102ED3000DB5E30112160DB2E40112160DBFE401A4
:102EE30012160DC8E40112160DB1E60112160DCD2E
:102EF300E70112160D5EE80112160DCFE801121656
:102F03000DA9EA0112160D74EE0112160D88EE01D9
:102F130012160D98EE0112160DA2EE0112160DAB4C
:102F2300EE0112160DB4EE0112160DBEEE011216CD
:102F33000DEDEE0112160D1BEF0112160D26EF011A
:102F430012160D4AEF0112160D6EEF0112160DE067
:102F5300EF0112160D29F00112160D45F00112169C
:102F63000DB6F00112160D02F10112160D4BF1010F
:102F730012160D89F10112160D0AF20112160DD562
:102F8300F30112160D74F40112160D3CF50112161D
:102F93000DC8F70112160D1DF80112160D45F801A3
:102FA30012160D78F90112160DBDF90112160D1244
:102FB300FA0112160DC0FA0112160D65FB01121665
:102FC3000D9AFB0112160D3AFC0112160DB6FC0107
:102FD30012160DED870112160D1F880112160D53DF
:102FE300880112160D078A0112160DDB8A011216CB
:102FF3000D3A8B0112160D508C0112160D9C8C018B
:1030030012160D398F0112160DAE910112160DFA1B
:10301300920112160D92930112160D9E9301121630
:103023000DE7930112160D1A940112160DA69401C1
:1030330012160DB8950112160DF9960112160DF818
:10304300970112160D22980112160D8D9801121672
:103053000DE6980112160D59990112160D8F9B0159
:1030630012160D159D0112160D009E0112160D4E1E
:103073009F0112160D86A10112160D7DA4011216D1
:103083000D8CA40112160D20A50112160DCBA5015E
:1030930012160D0EA60112160D57A60112160DA734
:1030A300A60112160D14A70112160D80A701121600
:1030B3000D9CA70112160DCBA70112160D0AA8012C
:1030C30012160DF2A80112160DA1A90112160D1860
:1030D300AC0112160D4AAD0112160D19AE011216EE
:1030E3000D9BAE0112160DDDB20112160DF4B201E5
:1030F30012160D23B30112160D7EB30112160DB174
:10310300B30112160D0CB40112160D28B4011216D8
:103113000D89B40112160DD9B40112160D88B5012B
:1031230012160D4BB60112160D13B70112160D5FD1
:10313300B90112160DEBBA0112160D42BC0112169B
:103143000D5EBD0112160D61BD0112160D90BD017C
:1031530012160D7FBF0112160D48C00112160D89FC
:10316300C00112160DDFC10112160D55C201121650
:103173000D88C20112160DECC20112160D0DC50108
:1031830012160D6CC50112160D42C60112160D560C
:10319300C60112160D6AC60112160D97C601121644
:1031A3000DC7C60112160D6BC80112160D68C901B1
:1031B30012160DB6C90112160DDDC90112160DB88E
:1031C300CA0112160D5ECB0112160DE4CC011216C4
:1031D3000D2BCD0112160D98CD0112160DEDCE015A
:1031E30012160D96CF0112160DCACF0112160DE25B
:1031F300CF0112160D85D00112160D01D30112163F
:103203000DA9D40112160DCDD40112160DEBD40164
:1032130012160DB7D50112160D05D90112160D00A0
:10322300800212160D32800212160DB2840212169B
:103233000D01850212160D47850212160DEA85024D
:1032430012160D4F860212160D93860212160DFAF0
:10325300870212160D26890212160D238D021216ED
:103263000DA28D0212160DC88E0212160D2B8F029F
:1032730012160D77900212160D0F930212160D9C63
:10328300930212160DA6930212160DCE9302121676
:103293000D96940212160D2B950212160D549502DB
:1032A30012160D81950212160DD6970212160DA352
:1032B300980212160DE2980212160D649902121664
:1032C3000D0F9A0212160D419A0212160D8C9A02D4
:1032D30012160DC59A0212160D149B0212160D70CA
:1032E3009B0212160DF29B0212160D579C02121628
:1032F3000DCF9C0212160D789E0212160D709F02BE
:1033030012160DB1A00212160D05A40212160D61BC
:10331300A60212160D1AA70212160D62A7021216A2
:103323000D43A90212160D7EA90212160D87A902DA
:1033330012160D90A90212160D9BA90212160DBAB0
:10334300A90212160D6DAA0212160DCAAA021216AE
:103353000DD4AA0212160DDEAA0212160D2AAB0212
:1033630012160D72AB0212160D76AC0212160D0F69
:10337300AD0212160DD6AD0212160D00AF021216D3
:103383000D2BB00212160D21B10212160D39B10226
:1033930012160D6DB10212160D8BB10212160DD35A
:1033A300B10212160D0CB20212160DC3B20212169E
:1033B3000D84B30212160DF7B30212160D73B40285
:1033C30012160D0FB50212160D35B60212160DF1B7
:1033D300B60212160D91B70212160D7EB80212161E
:1033E3000DD6B80212160D9CB90212160DBFB90202
:1033F30012160DD4BA0212160D1FBB0212160D7B44
:10340300BB0212160DE3BB0212160D07BC02121605
:103413000D2FBC0212160D74BC0212160D98BC02BD
:1034230012160D1CBD0212160D05BE0212160D4A10
:10343300BE0212160D73BE0212160D11BF02121632
:103443000D7CBF0212160D8ABF0212160DB6BF0203
:1034530012160D97C00212160D36950512160D6E33
:10346300950512160D8F950512160DD19505121699
:103473000D35960512160D3F960512160D4F96053E
:1034830012160D86960512160D2F9A0512160DF7B4
:103493009B0512160DDB9D0512160D7D9E0512165A
:1034A3000D079F0512160D87C20212160DEBC202FD
:1034B30012160D49C30212160D94C30212160DAF54
:1034C300C30212160DD6C30212160DF3C30212164F
:1034D3000DFFC30212160D90C50212160DA9C502E7
:1034E30012160D25C60212160D38C60212160D4805
:1034F300C60212160DECC60212160D58C802121699
:103503000D6BC90212160D0BCA0212160D15CA0253
:1035130012160D94CA0212160DA5CA0212160DE454
:10352300CA0212160D12CB0212160DDFCB021216AF
:103533000D36CC0212160D6FCC0212160DC5CC023D
:1035430012160DE3CC0212160D31CD0212160DFC2C
:10355300CD0212160D4ACE0212160D97CE02121686
:103563000D1ACF0212160D44CF0212160D7ACF0296
:1035730012160D89CF0212160DE8CF0212160D6036
:10358300D00212160DA1D00212160DF1D00212169E
:103593000D1CD10212160D36D10212160D50D10296
:1035A30012160D25D20212160D2FD20212160D6A13
:1035B300D20212160D7AD20212160D83D2021216FD
:1035C3000DD4D20212160DE8D20212160D0AD4023D
:1035D30012160D1FD40212160DB2D40212160D26A6
:1035E300D50212160DCBD50212160DD6D502121620
:1035F3000D36D70212160D52D70212160D9ED702A0
:1036030012160D0CD80212160D3ED80212160D58C2
:10361300D80212160D9AD80212160DEDDA021216FE
:103623000D85DB0212160DFCDB0212160D59DE02AC
:1036330012160D71DE0212160D74DE0212160D80C3
:10364300DE0212160D94DE0212160D9CDE02121615
:103653000DD3DE0212160DC7DF0212160D51E00262
:1036630012160DD3E00212160D53E10212160D2AA3
:10367300E20212160D4CE20212160DE5E2021216D8
:103683000D42E30212160D45E30212160DB4E302D6
:1036930012160D00E50212160D13E60212160D9E08
:1036A300E60212160DB1E70212160D76E8021216A3
:1036B3000DA7E80212160DCDE80212160DD6E80288
:1036C30012160D05E90212160DB5E90212160D6563
:1036D300EA0212160DD8EA0212160D7BEB0212163D
:1036E3000DEEEB0212160D2DEC0212160D76EC0206
:1036F30012160D3EB90312160DA9B80312160D5C6E
:10370300B80312160DDAB70312160D5FB7031216BC
:103713000DDFB60312160D95B60312160D39B60357
:1037230012160DE8B50312160DABB50312160D658F
:10373300B50312160D2AB50312160D0DBF05121689
:103743000DB1BE0512160D20B50312160D03B503F8
:1037530012160D23BE0512160DC7BD0512160D2B2D
:10376300B40312160DAFB30312160D28A2061216D8
:103773000DE9A00612160D65A00612160D329F065E
:1037830012160D94BE0412160DBABD0412160DF0D6
:10379300BC0412160D5FBB0412160D28BB041216CF
:1037A3000DFABA0412160DAEBA0412160D17BA04A6
:1037B30012160D87B90412160D61B90412160D16EF
:1037C300B90412160DE0B80412160D63B8041216EC
:1037D3000DFEB70412160DADB70412160DD5B604BF
:1037E30012160D45B60412160DF9B50412160D7412
:1037F300B50412160D2FB50412160D13B5041216C7
:103803000D75BD0512160DBBB30412160D77B50762
:1038130012160DDACA0312160DAFC70312160D37AF
:10382300C50312160D25C30312160DE9C2031216A2
:103833000DE3C10312160D8BBF0312160D8DB304D6
:1038430012160D5AB30412160DDEB20412160D4CE5
:10385300B70612160D17BF0312160DA7B5061216DB
:103863000DB5B40612160DFAB30612160D6A8A05C3
:1038730012160DDCBD0312160D118A0512160D5F0B
:10388300470012160DDC890512160DA789051216BD
:103893000D73890512160D06890512160DEE88059E
:1038A30012160DC9880512160D9A850512160D6D8F
:1038B300830512160D6D810512160DF38005121680
:1038C3000DA4800512160D5E800512160D008005ED
:1038D30012160DB1FD0312160D36FD0312160DCE91
:1038E300FB0312160D9BBD0312160D55FA03121698
:1038F3000DDEF70312160D63F60312160D07F6031A
:1039030012160DF8F50312160D4AFF05000000808C
:10391300FB000000002001E687000001002001E613
:1039230087000002002001E787000003002001E573
:10393300870000040042016D800000050042017E03
:1039430080000006004201A080000007002001ABB8
:10395300800000100042018F80000011002001BC94
:103963000A000000404201A080000000804201EAFA
:103973008106000000101100000700000030330032
:10398300000700100030330000070001402033001F
:10399300000700024020330000080000002033002D
:1039A300000A000000E23300000A0001001833009F
:1039B300000C005500393300000C001C004233009A
:1039C30000110004004233000011004300233300C0
:1039D30000110051001011000011005500101100DA
:1039E30000110067001811000011006F001811008A
:1039F30000120055002101000014000E00422200B5
:103A03000000040000210400000204000029150046
:103A13000003040000290400000504000029040039
:103A2300000C040000390400000D040000390400F8
:103A3300002A0400003904000002070000290400E2
:103A430000020700021805E387020700033005E9B7
:103A530087020701032205A486020702032205A8A1
:103A630086020703031801E1870207060318110002
:103A730000040B00001B058C86040B0001291500B4
:103A830000040B030129150000040B06012904009F
:103A930000040B00022105D187040B01022105D587
:103AA30087040B02022105D187040B03022105D7EA
:103AB30087040B04022105D187040B05022105DDD0
:103AC30087040B000321040000040B00042105D12B
:103AD30087040B01042105D387040B050521150079
:103AE30000040B080521150000040B0B0529040035
:103AF30000040B100528040000040B00062105D167
:103B030087040B01062105D587040B02062105D185
:103B130087040B03062105D787040B04062105D16F
:103B230087040B05062105D987000000000000016A
:103B330020D33800010220D33800010320D33801F9
:103B4300000420D3380001050033210000060000E3
:103B530000000007007F1A019008008F2500000075
:103B630000000000000A00000000000B2083251065
:103B7300000C026B3700000D00000000000E20D384
:103B83003810010F20D3381000000000000000009F
:103B930000000000000000000000001300A3260046
:103BA3008000000000000015004D1F410016004D6D
:103BB3001F50001701A326008018018727008019D2
:103BC30000F52500001A00F52500001B00852610CE
:103BD300001C014D1C00011D014D1C00011E001F96
:103BE3002610031F014F3808002000093900002167
:103BF30000C11A00002200A71F100023006B37002A
:103C03000000000000000000000000000026012367
:103C13002510002711B928100028091125000029B3
:103C230000172810002A70D51B00032B22832510B0
:103C3300002C004D2810002D024D2810002E01A34A
:103C43001A00042F00F519000830003D261000313A
:103C530001000000003200000000003300000000FB
:103C630000340000000000350000000000360000B2
:103C73000000003700000000003800000000003999
:103C8300014D1C00013A000B2800003B005F251387
:103C9300003C00000000003D00000000008F000118
:103CA30000AD16870001000C1935000400D118255A
:103CB300000200D51826000200D71827000200D9F9
:103CC3001828000100E31829000100E41884000407
:103CD30000E51886000100E9182A000100EA182B04
:103CE300000100EB182C000100EF182D00080090D4
:103CF300162E000100F0182F000100F1183000010A
:103D030000F21831000100F3183200010098163355
:103D1300000100991634000100F418360001009ADE
:103D23001638000100F51839000100EE188300026F
:103D3300000A1963000100AA1664000100EC18656B
:103D4300000100ED186D000100AB1671000800883A
:103D53001666000100091943000100FA1844000225
:103D630000FB1845000100FD1846000200FE18473D
:103D7300000800A2164800010000194B00010001D1
:103D830019040001000D19A10001001019370001E9
:103D9300000F19880001000E193C0001009B163D1D
:103DA300000100F61849000200021967000100AC87
:103DB300164D00020004194E00010006194F0002BF
:103DC3000007193E000100A11651000100F7185227
:103DD300000100F81853000100F918540001009C79
:103DE3001600000000000000013636010100010248
:103DF300010001030100010401060605020000079A
:103E03000100340801000F090401010D0100FF0E38
:103E130008000017020000190100FF1A0100011B2E
:103E23000100FE1C0100081D0200001F010001200B
:103E3300010001210200002301000F2402000026DB
:103E430001000127010008280200FF2A0100072BB7
:103E53000102402C0100002D0100012E0100012F61
:103E63000100FF30010B1D310800003A0100083B3F
:103E730001000F3C0100013D0100FF3E0400004230
:103E8300040000460400004A0400004E04000052EF
:103E9300040000560400005A0400000020202020E3
:103EA30020202020202828282828202020202020E7
:103EB30020202020202020202020202088101010C7
:103EC300101010101010101010101010040404041F
:103ED3000404040404041010101010101041414194
:103EE30041414101010101010101010101010101FF
:103EF3000101010101010110101010101042424292
:103F030042424202020202020202020202020202CE
:103F13000202020202020210101010206A0078004E
:103F23004B27512757276C00F000F726FD26032760
:103F33006B00F0000F27152757276600F0000F27A7
:103F43001527572767001400212727272D276900E6
:103F5300140033273F273927EE22E803BB26D9264F
:103F6300D3266400010000000000F1266300010075
:103F730000000000F1266200010000000000F126AD
:103F83006100010000000000F12670000100000044
:103F93000000F1260103710301030103010301037F
:103FA30001032203020301031003000300030003C0
:103FB300000300030003000342030003240306037A
:103FC3000003000304031203250323032503230330
:103FD300040304030003000300034403000300037A
:103FE3002303000365032100350381030003050355
:103FF30000030003000300032503230303007100F0
:104003003001600011007000310220035004800071
:10401300100061000000140063007300720062006E
:10402300430000001300060000000000040012001B
:104033000000000000000000040004003700370007
:104043003C02440000000000000000006500000086
:10405300350081000000050000008300000003021A
:1040630071023001600211027002010202020202B7
:104073008002100261023A0041006302730272027D
:10408300620243020002130238000002000204022B
:1040930012020002000200020002040204023700BE
:1040A30037003C02440200023900000200026502AC
:1040B300000235028102000205028202830200022D
:1040C300010171010101010111010101310101012D
:1040D30001018001100161013B00140063017301C0
:1040E3007201620143010001130106013D01350024
:1040F3000401120100010001000100010401040197
:10410300330133013C014401320136000001000157
:104113006501000135008101000105018201830170
:10412300000136000100060000000F00000000003F
:10413300000000000000000003FFFF00000403FF75
:10414300FF0000FFFF0FF4010005C404032000017A
:1041530000000B000000000000000003010F00003E
:10416300000000000000000000000000000000004C
:10417300000000000000000000000000000000003C
:10418300B529F129BB29DD28C129F729C129032A2A
:10419300C729DD28C129F729CD29DD28D329DD2821
:1041A300D929DD28DF29DD28E529DD28EB29DD28CC
:1041B30000000000000000000000000000000000FC
:1041C30000000000000000000000000000000000EC
:1041D3000000000000000000000000000A000000D2
:1041E30002000000040000000800000010000000AE
:1041F30020000000400000008000000000010000DB
:10420300000200000004000000080000001000008D
:1042130000200000004000000000432C1300132C7A
:104223000100432C0200B92B0300BF2B0400C52B54
:104233000500CB2B0600D72B3000EF2B3300FB2BD5
:104243003400012C1100072C14000D2C1500E92B50
:10425300FFFF000051001000005500100000670030
:104263001800006F00180000040042000043002300
:10427300000007ECFDFDFDECDCDCCCBCACAC9C9C95
:104283008C7C7C6C6C5C5C5C4C4C3C3C2C2C1C1C1B
:104293000BF1F5F5E5D5D5C5B5A5A5959585757549
:1042A300656555554545453525251515050A91324D
:1042B3000261320573320767320C49320D5532FF02
:1042C300000000160F00000B150B020002220F3333
:1042D30000000E5A6967426565416C6C69616E63E3
:1042E30065303901030507090B0D0F0002040608A9
:1042F3000A0C0D015000D00799279F27A5273030BE
:1043030016181920231A1C1E3000393D3F373C3C38
:10431300362C442D00011916181616182303000015
:10432300034A49434E181A2505023030171819213C
:10433300301B1D1F300C0E020B040B0A0708000F65
:10434300020402010101010902E803000000BE04A6
:104353000AF60093420E007542E803040903030AB8
:10436300100408280C0405080400FFFF0C1E1EC0DF
:1043730082C083E9901574F002458174F4120F65CD
:104383008A088B09EB5480604D800EEEFAEFFB1226
:104393002931EEFAEFFB122367901574E0F912232B
:1043A300798A0A8B0BAE0AAF0BEE4F60208E828F99
:1043B30083E0641A60D5EEFAEFFB1228D7E9F974AB
:1043C300FF6960CEEEFAEFFB12236D80CCAA08E5FD
:1043D300096480FB80047A007B0002475374F71260
:1043E3000F657AFF0257A274F6120F65E9FEEAFF22
:1043F3007A047B00124AA9A808A909EA496034EFA4
:104403008A828B83A3A3A3F0EE8A828B83A31244B5
:104413006EE4F0A3F0901581124ACE7009901581D5
:10442300E8F0A3E9803FE0FB8A828B83A3A3A3E0A8
:104433006F700479008031EAFCEBFD8A828B831272
:104443004ACE70E474FF6F700C8C828D83124475B6
:10445300E4F0A38010901581125F3390158112440C
:1044630075EAF0A3EBF0790102589AA3F08A828BE4
:104473008322126A878882898322C082C083EA12D8
:104483006D1A3BF583E0FA90158180048882898355
:10449300125D62601C88828983A3A3A3E0FBEA6B9D
:1044A300600574FF6B70E588828983A3A3E0F980BC
:1044B3000279FF02458174F4120F65EAFEEBFF8A6D
:1044C30082F583125F331228D7E9F50874FF697008
:1044D300030245707A197B00122361EA4B700302D1
:1044E30045708A828B837434125ACBA3A3EA2402C5
:1044F300FCE43BFD74061215668E828F8312515FB6
:10450300126A628A828B83A3A3A3A3A3A3A3A3ECAC
:10451300F0A3ED12516FA3A3A3A3A3EA240AFCE41F
:104523003BFD740C1215668E828F83125FCDC81209
:104533006D1A38F583E0C0E0EA2416F582E43BF512
:1045430083D0E0F0EE240CF8E43FF98882F583127F
:104553006A66EA2417F582E43BF583ECF0A3EDF0F9
:1045630088828983E4F0A3F0A90812236D790102FC
:104573004753C082C08390157F125F338000D0837E
:10458300D08202160A74F4120F658A088B09ECFEB6
:10459300EDFF7A081246267004791080351246988A
:1045A300A3124682740C1219CA12706DA3A3A3A39B
:1045B30012715F901579124ACE9015796011124AE3
:1045C300B18003EAFCEB124AC970F88C828D831226
:1045D300463602475374F4120F6589088A09ECFEC4
:1045E300EDFF7A0A12462670047910803312468D45
:1045F300E4F0A312463CE50912463CA3EEF0A3EF18
:10460300F090157B124ACE90157B6011124AB1804F
:1046130003EAFCEB124AC970F88C828D831246368A
:104623000247537B0012241B8A0A8B0BA80AA90B8F
:10463300EA4922126A87790022125793A3A32274AC
:10464300F4120F6589088A09ECFEEDFF7A0612461B
:104653002670047910802512468D12468290157DAE
:10466300124ACE90157D6011124AB18003EAFCEB29
:10467300124AC970F88C828D83124636024753E57D
:1046830009125798EEF0A3EFF0221246988A828B14
:1046930083A3A3A3228A828B83E4F012446EA3A391
:1046A300E508F02274F2120F65EAFEEBFF8C088D29
:1046B300091229438B0DA90DEA4960198A828B835C
:1046C300A3A3A3EEF0A3EF12578FE508F0A3E50928
:1046D300F0790080027901025F2974F4120F657486
:1046E300F7121720E9FE8518828519837401F0EC0F
:1046F3007006EDC39406404D74036A4B6047740122
:104703001216F2880A890B780A1216457C127D006C
:104713007A007B00EE124758121622E9601CE4F57A
:104723000AF50B780A121645740312170274021263
:1047330016FA12298B7402121622851882851983A0
:10474300E064017004790180027900740912162271
:104753007F0402131AF912294974022274E8120F12
:104763006574FA12172089128A168B178C088D0923
:1047730012389D8A148B15EA4B700579020248EEB4
:10478300AA08AB09A912122961E9F50FA2E6401C98
:1047930090157F125D626014E82419F582E439F5FF
:1047A30083E064017006E50FD2E6F50F7C067D0019
:1047B3007900AA18AB1912234F741F1219CA125188
:1047C300676009E054FCF0E044018003E054FC120C
:1047D3007145125D62602B741E1219CAE0FE888255
:1047E3008983A3121421EEFD74021219CAE0540343
:1047F300FCAA08AB09A9121229017402121622E9B4
:10480300700579010248EE74221219CA125D6260C2
:1048130012851882851983E04404F074021219CAC0
:10482300126A8374201219CA1251676005E04408A2
:104833008003E054F7F074211219CA12516760051E
:10484300E044108003E054EFF074241219CAE0C06E
:10485300E074041219CAD0E0F074051219CAEEF01C
:104863007803851882851983E054046002780574FF
:10487300251219CA124EFBE82510FEE43511FF126A
:104883004B9F6063AC0AAD0BAA18AB1912293D7498
:10489300271219CA125EB9121641AC10AD1112617A
:1048A30021121622750C1E780C121649750C777599
:1048B3000D15780C121645780A1216458E0C8F0DBD
:1048C300780C1216457808121645A90FAC14AD15CD
:1048D300AA16AB171238A97409121622E9FEAA0AFE
:1048E300AB0B12242180027E10EEF974068004EED5
:1048F300F974021216227F1002131AEEFCEFFDAABE
:1049030010AB11A90A12387F740B2274EA120F65D7
:1049130074FE121720890B8A148B158C0E8D0F7E53
:10492300007F00750A0074181219CA124EFB801119
:10493300124ABF1229978B09EE2AFEEF3509FF05AC
:104943000A126A6A502EE50A75F006124EB2240363
:10495300FEE43FFFA3A3E070E60EEE70010F888232
:104963008983A3A3A3A3124ACE8882898360C11239
:104973005CD380C2EEFAEFFB124AA98A0C8B0DEAD4
:104983004B7003024A9E750A008030A818A9198843
:10499300128913781212164578081216458A828BEB
:1049A30083124ABF12299D740412162212705DE508
:1049B3000828F508E50939F509050A126A6A5077E6
:1049C300E50A75F006A4F8A9F0E51028F582E511CB
:1049D300126A46124AB68A828B83A31256FEF012DB
:1049E30057671256F9F0E5082403F5085002050944
:1049F30088828983E070C2EA24030812576B124A43
:104A0300B6A38582088583098A828B83A3A3A3A384
:104A1300124AB18C82F583E5824583700302498E85
:104A2300AC08AD09AA82AB8388828983E0F9122995
:104A33006D8A088B098082780C1216458E088F09BF
:104A4300780812164574201219CA124EF11216492B
:104A5300E4F508F509780812164574221219CA12EA
:104A63004EF112164974221219CA124EF112164946
:104A73007508007808121649750801780812164956
:104A8300AC0EAD0FAA14AB15A90B124908121622CE
:104A9300E9FEAA0CAB0D12242180027E10EEF974FC
:104AA30002121622802F12241B8A088B0922E0FC93
:104AB300A3E022E0850882850983F022127133AADC
:104AC3000EAB0FA90B22FD8C828D83125F37EA4B4D
:104AD30022AA12AB137F0E02131AEEF9024AD874FC
:104AE300EC120F65890A8A108B11ECFEEDFF74142A
:104AF3001219CA124CF57003024B85A808A9097C48
:104B030000800D124CD850010B124D085001090CB6
:104B1300850C82850D83E0FAECC39A40E674016A42
:104B2300700AA3E07006750E01750F00780812165F
:104B330045780E121645741C1219CA124CD212165D
:104B430049E4F50CF50D780C121645741E1219CABA
:104B5300124CD2121649741E1219CA124CD21216D2
:104B630049750B00780B121649750B04780B121656
:104B7300491248FE121622E9FEAA08AB09122421A3
:104B830080027E10024CBFAA0EAB0F7F0C02131AD9
:104B9300850A82850B83E0F912297F22EEFAEFFB67
:104BA30012241B8A0A8B0BEA4B22F8E4350DF98891
:104BB30082F583124EE1A322851082851183E0F8EA
:104BC300E508C3982274EC120F65890A8A108B11C9
:104BD300ECFEEDFF74141219CA124CC4F5087509E2
:104BE300007402780812187285080E85090FAA0E40
:104BF300AB0F126A5E7003024CBD7900804AE9F57F
:104C03001275130074027812121872E50C2512FC47
:104C1300E50D3513FD8C82F583A3125AC68C828D64
:104C230083A3126210F0EC2403FC50010DF5828D76
:104C330083126211A3F08C828D83126210A3A3F0FE
:104C4300EA2404FA50010B09850C82850D83E0F8F0
:104C5300E9C39840A9740168700AA3E07006750E51
:104C630001750F007808121645780E121645741C4C
:104C73001219CA124CD2121649E4F50CF50D780C30
:104C8300121645741E1219CA124CD2121649741EFA
:104C93001219CA124CD2121649750B00780B121650
:104CA30049750B07780B1216491248FE121622E9B2
:104CB300FEAA08AB0912242180027E10EEF9024BF2
:104CC3008E124CC8221255CD850C82F583E022E06A
:104CD300F50B780B22EC75F003A4FAABF0E50C2A84
:104CE300FAE50D3BFB8A82F583124F0EF0EA2402AC
:104CF300FA22124CC875F003A4F50EE5F0F50FAADD
:104D03000E1270CA22F5828B831250C3124F07A36F
:104D1300A3F0E82403F82274E8120F6574FE121757
:104D230020124F551219CA124EFB8009EE2402FEBF
:104D3300E43FFF0508124BBB502FE50875F00D1239
:104D43004EB22404FEE43FFFE070E8A3E070DDEE22
:104D53002405FEE43FFFE82404F50AE439124ECDAE
:104D630060D1124B93EE2980C6124B9F7003024E03
:104D7300AD8A0E8B0F7508008018E50C2409FAE440
:104D8300350DFB8A82124EDB124F03F08C0E8D0F12
:104D93000508124BBB4003024E4AE50875F00D129D
:104DA3004F15AA82AB83124BB6F0E50C2402124BCB
:104DB300AD124F2AA3F0E50E2404F50E5002050FA1
:104DC300850C82850D83E070C7E50E2402FCE43573
:104DD3000FFD850E82850F83A3A882A9838A828B08
:104DE30083E07096E50C2404F512E4350DF5138584
:104DF3001282124EDBF0E50C2405F516E4350DF5B1
:104E03001785168212643B124F3F2407F8E4350DD1
:104E1300F98882124EDB124F4DF0E50E2405F50E94
:104E23005002050F851282851383124ED47003023C
:104E33004D93AC0EAD0FE50C240BF582E4350DF567
:104E430083124EE9024D93780A1216458E0C8F0D8C
:104E5300780C12164574221219CA124EF112164911
:104E6300E4F50CF50D780C12164574241219CA12C8
:104E73004EF112164974241219CA124EF112164930
:104E8300750800780812164975080978081216493A
:104E9300AC14AD15740B1219CA124EC2121622E9C4
:104EA300FEAA0AAB0B12242180027E100248F2A450
:104EB300F8A9F0E51028F582E51112505FEE2212F1
:104EC3005F37A90912387F740B22F50B850A82F527
:104ED30083E0F9122973E922F583124EE122E0857A
:104EE3000E82850F83221250C88A0E8B0F22E0F5A3
:104EF300087808228E828F83E0F510A3E0F5112253
:104F0300124F072212446F124F0E22A3E0888289A8
:104F13008322126BF885820C85830D124EE1F08596
:104F23000C82850D83A322124F2E22A3F08882893F
:104F330083A3E0850E82850F83A3A322F0851682C7
:104F430085178312577CF0E50C22A3A3124F2EA3DF
:104F5300A322851882851983EAF0A3EBF089098CD3
:104F6300148D157E007F00750800741A2274EA12EE
:104F73000F65890B8A108B118C0E8D0F7E007F00BD
:104F8300750A0074161219CA1255C9800312502CDF
:104F9300850C82850D83126A7040F2126A5A607E14
:104FA300A808A909750A008003125068850C828538
:104FB3000D83E0FAE50AC39A40EF78081216458E8E
:104FC3000C8F0D780C121645741E1219CA12502636
:104FD300121649E4F50CF50D780C121645742012DF
:104FE30019CA12502612164974201219CA125026D1
:104FF300121649750A00780A121649750A0A780AC0
:10500300121649AC0EAD0FAA10AB11A90B12490829
:10501300121622E9FEAA08AB0912242180027E108F
:10502300024ADDE0F50A780A22E50A75F005A4F8DC
:10503300A9F0E50C28F582E50D12505FA3A3A31296
:105043007071A3A3E0F91229858B09EA2403F8E41C
:105053003509F9EE28FEEF39FF050A2239F583A356
:10506300A882A98322E50A75F005A4FAABF01250D1
:10507300B7858214858315124F0F12714B1250C3DB
:10508300F0E5142402FAE435158A12F5138A82F541
:10509300831250C3A3F0E82403FCE439FD85148292
:1050A300851583A3A3A31250C88A128B13A812A930
:1050B30013050A22E50C2AF582E50D3BF583A322AD
:1050C300124F0FA322E0FAA3E0FB8512828513831C
:1050D300E0F912296D2274F6120F6574FE1217207F
:1050E300E9FE740C1219CA12515F12516712516F03
:1050F300E0C0E074011219CAD0E0F0A818A9198819
:105103000889097808121645750802750900780898
:1051130012164574161219CA124EF1121649741555
:105123001219CA12142174161219CA124EF1121648
:105133004974161219CA124EF112164975080078ED
:105143000812164975080B7808121649EEF9124928
:1051530008121622740212162202589A12706888D4
:1051630082F58322E085188285198322F08882895B
:1051730083A32274F1120F6574EB121720EAFEEB7E
:10518300FFC200EA2420F8E43F8808F5098882F585
:1051930083C3E09403A3E09400500579010255AA68
:1051A30090157F12716174021219CA127161740E23
:1051B3001219CAE4F0A3F0740A1219CAE4F0A3F0B6
:1051C300740C1219CAE4F0A3F0EA2422F8E43F882D
:1051D3000AF50B8882F583126A6674041219CAAA47
:1051E30082AB831229378A0C8B0DA80CA90D740A84
:1051F3001219CA127161850882850983125F33EA25
:10520300C398F8EB99F9850A82850B83E028F8A304
:10521300E039F9740C1219CA126A8374081219CA94
:10522300E0901578F0EE2414F508E43FF5098508BD
:1052330082F583E0F912389D8A828B83E582458368
:10524300700C90157FE4F0A3F079020255AA125571
:10525300FD602BEE2404F50AE43FF50BA3121421A1
:10526300740B1219CAE0FD74061219CAE05403FC48
:1052730012560C1229017402121622E9700C9015B1
:105283007FE4F0A3F079030255AA12560C122961A8
:10529300E9F50E850A82850B83125F33EAFCEBFD89
:1052A300901579800488828983125D6270030253AA
:1052B3009D88828983A3A31255C9C3EA950CEB95F4
:1052C3000D40E288828983A3A3A3A3C3E09CA3E048
:1052D3009D40D2E8FCE9FD74041219CAE05407703A
:1052E3000D74091219CAE0640B70030253A1E50E91
:1052F300A2E640030253A1EE2419F582E43FF583AD
:10530300E060030253A174021219CA1255D5707ECC
:1053130074021219CA125D5D70747C00850882855F
:105323000983E0F912296774011219CA7401F07430
:10533300091219CA1255B21219CAE0F50C780C12E7
:10534300164974071219CA121421750C01780C122C
:10535300164974081219CA126C18F50C780C121637
:105363004974051216F2880C890D780C12164574CF
:10537300091219CA1255F41219CA1255BD1219CAC3
:105383001255E31216227C0112560C12296790154E
:105393007FE4F0A3F079050255AA7C007D00740434
:1053A3001219CAE0F8540360030254C5E8540460B8
:1053B300057E8402550474091219CAE0F8C39417D0
:1053C30040030254C1E8F50A750B007402780A120F
:1053D30018727483250AF5827441350BF583E493BF
:1053E300F8740193F9E84970030254C18508828572
:1053F3000983E0C0E074101219CAD0E0F0740C12F3
:1054030019CA125F3374111219CA127161740A1224
:1054130019CA125F3374131219CA1271617410120C
:1054230016FA8882898312119A8B09A909740E12BC
:1054330019CA127161EA49604B74091219CAE0F57D
:10544300087509007402780812187274852508F526
:105453008274413509F583E493F87401938882F5E6
:1054630083E5824583601274021216FA12119A744C
:105473000E1219CA125D62600B740E1219CA125F02
:105483003312242174091219CAE0F86054740268B3
:10549300604F740368604A74066860457408686006
:1054A30040740C68603B7411686036741368603133
:1054B300741568602C740B6860277E0080437E82BD
:1054C300803FEC4D602B8C828D83A3A3A31255FDEB
:1054D300601F74021216FA12119AE9FE74FF6E70BD
:1054E3000B90157FE4F0A3F0F90255AA74016E70D6
:1054F3001074041219CAE0540460047E8380027E8F
:105503008174021219CA1255D5707574021219CA20
:10551300125D5D706B74041219CAE0FA5410706066
:1055230074011219CAEEF074091219CA1255B21293
:1055330019CA124EF112164974071219CA1214210C
:105543007508017808121649EA131313541F6401EE
:105553005401F508780812164974051216F28808E2
:105563008909780812164574091219CA1255F412DA
:1055730019CA1255BD1219CA1255E3121622D200C6
:1055830090157FE4F0A3F0EE700479008019748421
:105593006EA200700A50047907800C7906800850C7
:1055A300047909800279087415121622025CCDE091
:1055B300851882851983F0740822E02406FAA3E093
:1055C3003400FB7409221255CD22E0F50CA3E0F55B
:1055D3000D22125FCDC82415F582E438F583E0224D
:1055E300A3E0C8126D1E38F583E0F912292B740766
:1055F3002212700F12712F740922A3A3A3125FCD7D
:105603008882F583E582458322850A82850B83128E
:105613005F37850882850983E0F92274F4120F65E8
:105623008A088B09ECFEEDFF7C067D0079001223CE
:105633004F850882850983E054FCF8A3E0F98E8244
:105643008F83E05403FAE84A850882850983F0A32F
:10565300E9125707A2E25004D2F08002C2F0850893
:1056630082850983E054FBF0A2F0E433F50A750B5D
:10567300007402780A121872E0450A125707A2E36F
:10568300850882850983E050044408800254F71298
:105693005707A2E45004D2F08002C2F08508828545
:1056A3000983E054EFF0A2F0E433F50A7404780AB6
:1056B300121872E0450A126127850882850983E082
:1056C300540460108E828F83E0FAA3E0F9EA126635
:1056D300B550010F8E828F831256F9A3A3126695DC
:1056E300850882850983A3A3A3A3A3F0EE2402FA6A
:1056F300E43FFB0247531256FEA322E0850882854E
:105703000983A322125ACFE02274F7120F658A820B
:105713008B83E054038C828D8312578A540412576F
:105723008354081257835410F88C828D83E048F019
:10573300A3AC82AD838A828B83E05404601012573A
:105743006712577D12516F125773FC50010D8A82F5
:105753008B83A3A3A312577C12578F125773FAE4B8
:105763003DFB803EEA2402F8E43BF98882F583227C
:1057730012577DA3F0EC240222A3E08C828D8322B6
:10578300F88C828D83E04812446FE02212579322F3
:10579300125798A322F08A828B83A3A3A3A3221276
:1057A30028D17F0102131AC082C08390157B800425
:1057B3008A828B83124ACE60138A828B83A3A3E0EF
:1057C300F8E968600B74FF6870E680047A007B0078
:1057D30002458174F0120F658A088B09ECFEEDFF18
:1057E3001229438A0C8B0DEA4B60787C0080010CF4
:1057F300850C82850D83A3A3A3A3A3A3A3E0F8EC45
:10580300C398505FECF50E750F007403780E1218F1
:1058130072850C82850D83A3A3A3A3A3A3A3A3E0F3
:10582300250EF8A3E0350FF98882F583E493FA7423
:105833000193FBE5086A7003E5096B70B2A3A3E467
:1058430093FA740193FBEE6A7002EF6B70A174100C
:105853001219CA126A66898388827408121522791A
:10586300018002790080031216227F0802131A7442
:10587300F6120F6512589F6005125F3080047A009C
:105883007B00801374F6120F6512589F6005125F38
:105893002E80047A007B007F0202131A1229438AA6
:1058A300828B83E58245832274F7120F65E9FFEA51
:1058B300FCEBFD90157D800488828983125D626014
:1058C3004688828983A3A3E06F70ED7E0080010E7A
:1058D30088828983A3A3A3E0FAEEC39A50DAEE7514
:1058E300F003A4FA85F008AB0888828983A3A3A3F5
:1058F300A3E02AFAA3E03BFB8A82F583E06C700302
:10590300A3E06D70CA80047A007B000257A574F689
:10591300120F6512295B8A828B83E58245836006B9
:10592300A3A3E0F98002790002589A74F6120F6576
:10593300ECFF12295B8B09A909EA496015EA2402E5
:10594300F582E439F583EF6005E0D2E68003E0C237
:10595300E6F002589A74F1120F65EAFEEBFFECFAD7
:10596300EDFBEE4F7003025AC3EC2402F50CE43B4B
:10597300F50D8C828D83A3AC82AD838E088F097560
:105983000A00E91214D2044142905A4344A25AE055
:10599300E25B5AE8E90E5A2108005A090E5A0A1D19
:1059A3005A0B5B5A10005A18005A190E5A1A1D5AEC
:1059B3001B5B5A20005A210E5A221D5A235B5A247C
:1059C3006C5A25755A267E5A27875A28005A290E5B
:1059D3005A2A1D5A2B5B5A2C6C5A2D755A2E7E5AF5
:1059E3002F875A30005A310E5A380E5A395B5A3AB9
:1059F300875AEA5B5AF0875AF1B45AC35A8E828F98
:105A030083125AC6ECFAEDFB025AC312668E8C82DD
:105A13008D83F00A0AAB0D025AC38E828F837808F6
:105A230012195B8A828B83E508125ACB7808121904
:105A33005BE5098C828D83125ACB780812195B744B
:105A43001078081216C1850C82850D83E508F0EAEB
:105A53002403FA506B0B80688E828F8312141D12FD
:105A630023CD7404121622805778081216417C0540
:105A7300804678081216417C06803D78081216414C
:105A83007C07803478081216417C08802B78081232
:105A930016418E828F83E02401FCE43400800F786A
:105AA300081216418E828F83125C61FCE439FD80FB
:105AB3000978081216417C107D001261211216220A
:105AC300025CCD126216F022125ACF22F08E828F20
:105AD3008322C082C083E91214D203202FED5A38E7
:105AE3003AED5AE0E2ED5A00F15A79018002790069
:105AF30002458174F2120F6574FE121720EAFEEB61
:105B0300FF8C088D091229858518828519837401F4
