:100000004343323678325231FFFFFFFF0301F7FFDF
:10001000FFFF0701FFFFFFFFFFFFFFFFA80000003A
:1000200030303031656203002C00FFFF01F7FFFF25
:080030000000000000000000C8
:1000A80000400120015C030039FB021039FB0210FB
:1000B80039FB021039FB021039FB021039FB021020
:1000C80039FB021039FB021039FB021039FB021010
:0C00D80039FB021039FB021011FB021072
:1010000001000000000000000000000000000000DF
:10101000FFFFFFFFF02D0020040000000000000093
:10102000000000001400000064160000180000001A
:10103000D0140000C01000005C2D0020040000004F
:101040000000000000000000240000005015000017
:10105000180000004DF7020008000000B011000069
:1010600074100000C1C8021001BB021091EB021005
:10107000DDE5021081E00210B9E5021071E5021011
:101080003100000001000000010000007C1600009B
:1010900000000000FFFFFFFFC82D0020040000003B
:1010A0000000000000000000280000003C160000C6
:1010B000240000001E0000001800000000000000D6
:1010C00028130000D41000009BEC021025E202104F
:1010D00005EB021025DE0210FDE10210E1E4021032
:1010E0002F00000034000000240028000000000051
:1010F0003C2D0020FFFFFFFF102E00200400000009
:10110000000000000000000038000000F0160000A1
:101110002800000001000000100000000000000096
:1011200000000000F7F1021000001A00100000009B
:1011300004000000541700008E4B0100080000005E
:1011400036000000D02D0020182E002009001D00C0
:10115000F30A0100642D00200100000000001200CD
:10116000FFFFFFFF002E0020040000000000000031
:101170000000000010000000B4160000180000007D
:101180000000000000001300FFFFFFFF782E00208A
:1011900004000000000000000000000054000000F7
:1011A000181700003C000000000001002D000000A6
:1011B00004100000EB1901003000000000000000E6
:1011C000B0110000D811000055350300D9DB021022
:1011D00059EC0210CDD6021085DE02104DE502104A
:1011E00029E5021030000000000016000000000099
:1011F00000000000FF7F0000802E0020FFFFFFFFA7
:10120000F82D002004000000000000000000000095
:1012100058000000801600003400000039FB021066
:1012200001002F0006000000000000002000000068
:10123000010000001BF80210280000002813000025
:101240005012000093EC02106DEB02104DEC0210F6
:1012500029E00210BDE4021099E402102D00000004
:1012600000000000A42D0020040000000000000089
:101270000000000010000000681500002C000000B5
:10128000000000000000030000000F003C00000010
:1012900000000000000000002FF902101000000004
:1012A0000800000064170000FFFFFFFF082E002069
:1012B0000400000000000000000000001C0000000E
:1012C000CC160000240000003C120000542D002029
:1012D0000400000000000000000000000C000000FE
:1012E000D8140000180000002B25010000000000A9
:1012F00000000000080000000100000004000000E1
:101300000000000000001400000000004C3200004B
:10131000000019000000180024000000395D0300DF
:101320000040000000020000041000000000100057
:1013300055F002100C00000083F7020000000000CE
:10134000342D002004000000000000000000000018
:1013500020000000A01400003000000064320000F3
:101360000100000043F802009B1301000000000090
:101370000000170000020000310000000000230000
:101380000000150001000000C0110000C02D002069
:101390000400000000000000000000002000000029
:1013A000181600002400000028FA0200B42D0020C6
:0813B000200000007817000086
:1013C000C5F60200D7F80200DBF80200DFF80200E1
:1013D000E3F80200E7F80200EBF80200253403000E
:1013E000D9340300E1330300D55C0300B75C03008C
:1013F000B1340300BD340300075D03000D35030065
:101400008D360300A1360300012800000000000013
:10141000000000000001003000000000000000009B
:101420000003FF186400000000000000000000003E
:101430007856341200000000BAAB00000000000132
:10144000000000000000000000008001100080FF8C
:10145000FDFF58003AFFBBF3FFFFFFFFFFFFFFFF59
:10146000FFFFFFFFFFFFFFFFFFFFFFFFFFFFFFFF8C
:10147000FFFFFFFFFFFFFFFFFFFFFFC5FFFFFFFFB6
:1014800000FFFFFF00C5C5FF000000FF00000000D7
:10149000FFFFFFFFFFFFFFFFFFFFFFFFFFFFFFFF5C
:1014A000300000000000000000000000C814000030
:1014B000040000000000000001000000FFFFFFFF2B
:1014C000FF00000001000000080000000000000014
:1014D00000000000000000001800000000000000F4
:1014E00000000000E81400000800000000000000F8
:1014F000100000002813000008150000315D0300F3
:10150000D1FA020059FA02000DF9020061F9020055
:10151000F1F802002E000000F41400009C2D0020C1
:101520000400000000000000000000002000000097
:10153000381500001800000018000000000000002E
:101540000000000048150000080000000000000036
:1015500018000000000000000000000060150000FE
:1015600008000000000000002C0000000000000047
:10157000000000008C1500000400000000000000C6
:1015800001000000FFFFFFFFFFFFFFFF080000005A
:1015900000000000B0110000AC150000553603003B
:1015A000653603008136030075360300A3F9020097
:1015B000CDF9020081F9020032000000941500000C
:1015C000AC2D00200400000000000000000000001E
:1015D00014000000DC1500001C0000001C000000CE
:1015E0000000000000000000F015000000000000F6
:1015F0000800000000000000010000000356000089
:10160000355D030073B10000075600000B56000063
:10161000F7550000155600002400000000000000EF
:101620000000000034160000000000000000000070
:10163000000000000800000000000000240000007E
:10164000000000000000000058160000000000002C
:101650000000000000000000080000000000000082
:101660000A00000018000000000000000000000058
:10167000741600000800000000000000F17D00006A
:10168000340000000000000000000000AC16000064
:101690000000000000000000010000000000000049
:1016A0000100000000000000000000000800000031
:1016B0000000000018000000000000000000000012
:1016C000C416000008000000000000002400000014
:1016D0000000000000000000E8160000000000000C
:1016E00001000000000000000800000000000000F1
:1016F000280000000000000000000000101700009B
:101700000000000000000000FFFFFFFF00000000DD
:1017100008000000000000003C0000000000000085
:10172000000000004C170000000000000000000056
:1017300001000000000000000000000000000000A8
:101740000000000001000000000000000800000090
:1017500000000000BDF8020025DD0210B9330300CF
:1017600075DF021001000000000000000000000012
:10177000000001000000010015F9021001E602104E
:101780002DDA021045E7021041D10210C9D3021030
:10179000A5DF02102DE4021061EA021011360300E9
:1017A00005000600080009001600020102020302FB
:1017B000000301030105020500060106040B1406DF
:1017C00015061706000701070207030700090409A9
:1017D00007000A000C000D000E000F0010001100A1
:1017E0001200130014001B0000010101000201029D
:1017F00002040004010403040404050406040005B3
:10180000020603060406050606060706080609067C
:101810000A060B060C060D060E060F06100611062C
:101820001206130604070009000B010B020B030B41
:101830000097B92EE5725CCB5DCAE473B82F0196B0
:10184000BA2D03945FC8E671E7705EC90295BB2CA0
:10185000E3745ACD0691BF28BE2907905BCCE27590
:1018600059CEE077BC2B05920493BD2AE17658CF80
:1018700051C6E87FB4230D9A0C9BB522E97E50C770
:10188000EB7C52C50E99B720B6210F9853C4EA7D60
:10189000B2250B9C57C0EE79EF7856C10A9DB32450
:1018A000089FB126ED7A54C355C2EC7BB027099E40
:1018B000A2351B8C47D0FE69FF6846D11A8DA33430
:1018C000188FA136FD6A44D345D2FC6BA037198E20
:1018D00041D6F86FA4331D8A1C8BA532F96E40D710
:1018E000FB6C42D51E89A730A6311F8843D4FA6D00
:1018F000F3644ADD1681AF38AE3917804BDCF265F0
:1019000049DEF067AC3B15821483AD3AF16648DFDF
:101910001087A93EF5624CDB4DDAF463A83F1186CF
:10192000AA3D13844FD8F661F7604ED91285AB3CBF
:10193000D88D0020F8850020C48C0020A0860020CF
:1019400000000000188A0020E08D0020948A00200A
:10195000D48C0020CC870020143300004C330000CE
:101960005C3300006833000078330000E48C002012
:10197000D48E0020D88E0020DC8E00208030002005
:10198000E08E0020E48E0020E88E0020EC8E002007
:10199000F08E0020F48C002034860020988B0020EC
:1019A000F887002088330000FC330000703400000A
:1019B000E434000058350000CC350000E435000068
:1019C000F0350000159000207C8D00208430002030
:1019D000B08A002034890020169000201790002043
:1019E0006C870020AC8B00203482002018900020EF
:1019F000D01F000058200000000000000000000080
:101A0000FC350000D87F0020F48E0020F88E0020E6
:101A1000983000209C300020FC8E00200C36000006
:101A2000308B0020688300200000000000000000D0
:101A3000DC1B00200000000000000000000000008F
:101A400000000000D4860020A8790020288E002005
:101A5000014A031049480310D549031015470310E4
:101A6000C32003005D49031081470310A146031002
:101A70009548031045450310254A031021440310DF
:101A8000ED47031099490310E14803102149031061
:101A90005553031089520310CD52031065500310A3
:101AA0008D4E03105D16030047170300C519030090
:101AB0000000000059510310ED500310651B030096
:101AC000CD4B03102952031011530310A9550310D5
:101AD0007555031069530310DD5503103555031078
:101AE0001729030021540310855C03100D560310C1
:101AF0004D5D0310A9640310B55B03106D5703100F
:101B0000E5610310095E0310C558031085600310DA
:101B100071610310B16203109963031055630310E0
:101B2000FD600310B15E0310E11F0300D55A0310DE
:101B3000D559031009630310D96303101964031006
:101B4000555F0310C56403104D62031071640310E8
:101B50008D64031055640310E164031029750310AC
:101B600079720310A16B0310F57203109D740310BA
:101B7000797403102D74031061730310FD73031047
:101B80005574031015750310D96C0310FD74031000
:101B9000DD260300E17403103D75031045280300A2
:101BA000F9640310CD6803102D710310C174031084
:101BB000F56E0310B973031029670310056E031047
:101BC000C56F0310F1290300A1770310797D03107D
:101BD0003D7E031049750310157E0310357D0310FB
:101BE00099760310997C0310257B031071780310FC
:101BF000B57D0310ED7C0310857E03102D79031055
:101C0000B97A0310917B0310B1790310ED7B0310B7
:101C1000E97D0310617E0310357A0310D57E031031
:101C2000457C0310A57E0310BD7E03101B15030029
:101C3000D9800310E97E03104983031089840310BF
:101C40008D8103107D820310E58403102B84031023
:101C5000C583031091870310618803104588031022
:101C6000F1850310B18803107D880310C988031023
:101C70001D870310A186031001850310E18803105E
:101C800099880310F9870310B3250300359C0310CE
:101C9000819D0310E99A0310359B0310C19B03102B
:101CA000419A0310F18803101D8C0310618F0310FB
:101CB000F1940310919E0310C19E03103D9E0310EA
:101CC000699E0310259E0310619D03100D9E031055
:101CD000819B0310ED93031055990310C9970310CE
:101CE000D9980310BD950310959C0310C19D031056
:101CF000A59E03107D9E0310C991031025250300A6
:101D0000699C0310DD9D031095900310FD9B03104B
:101D1000CD990310158E0310019D0310E19C031053
:101D2000219D0310419D0310BD9C0310F59D0310E0
:101D3000A19D031055980310E1920310999A031086
:101D4000B99E0310559E031045130300931303001F
:101D500039A20310B713030069A1031075A2031081
:101D6000C59E0310B9A10310F9A1031015A103101A
:101D70009DA20310A52A0300AD2A0300AF2A030089
:101D8000ED2A0300012B0300072B030031A90310E8
:101D9000ADA20310FD1D0300B9A8031099A50310FF
:101DA000F718030039A803106DA9031005180300E4
:101DB0006DAC031099B1031009AF031059B10310B2
:101DC00001B103109DA903108D210300F917030031
:101DD000011803009121030095210300FD17030062
:101DE000992103009D210300A1210300A5210300E7
:101DF000A9210300F1B9031075BA031081BB0310C8
:101E0000DD2C0300152D0300F52D0300952E030096
:101E10007F2F0300BD2F0300433003007130030008
:101E2000D1300300053103002731030045310300A1
:101E3000A7310300F3310300FB3103003532030007
:101E4000B7320300CF32030059330300D917030020
:101E50008521030089210300AD210300C523030070
:101E6000E9C603108121030071100300E51203008D
:101E70007DB1000017B20000B1B10000AFA80200B0
:101E8000897A0200E1120300DB130300DF13030071
:101E9000E113030077140300155B00002B5B0000C7
:101EA000115B0000135B0000E15A00003D5D030080
:101EB000495D0300475600006F560000B958000006
:101EC0004D5800007B5800004D5900003959000062
:101ED000315700008D5600007959000083570000EB
:101EE000DBFD0210B923010045070100F559000090
:101EF000D35A00008D190100B3190100E519010042
:101F0000C7190100E93000201C9000201D9000201E
:101F10001B9000201E9000201F900020EA3000201F
:101F20008F8E00003F84010091CB01000B730100F4
:101F30007B730100EDCC010059CD0100E573010078
:101F400033730100E7720100A77301001DCB01008C
:101F500015CB01008D490200614902007F7B020020
:101F6000EDCA010053CB010061CB01006FCB010032
:101F700003C90100C3C601006948020027490200E5
:101F8000652C03005FCC0100297B0200357B020039
:101F900000000000E5CF010013CB010025CF0100B8
:101FA000B7CF010000000000038F0000CD800100CA
:101FB0009B870100F1C80100000000000000000044
:101FC000558C010089C9010031480200417B0200A3
:101FD000360001000600000000000000000F0000B5
:101FE00000000000000000000000000000000300EE
:101FF000FFFF00000403FFFF0000FFFF0F00E803E6
:102000000005401F0310000100000000FF3F0F000B
:102010000800050B00000000000000000300010F95
:1020200000000000000000000000000000000000B0
:1020300000000000000000000000000000000000A0
:102040000000000000000000000000000000000090
:10205000AD00000200000000000136360101000161
:10206000020100010301000104010606080400004A
:102070000C0100340D01000F10040101140100FFD8
:102080001608000020020000220100FF23010001C9
:10209000240100FE2501000826020000280100019D
:1020A000290100012A0200002C01000F2E0200006D
:1020B0003001000131010008320200FF3401000745
:1020C000350102FF3601000037010001380100012F
:1020D000390100FF3A01000F3C0200FF3E01010FF1
:1020E0003F0100014001041F41010001420100FFC6
:1020F00043010080440800004E0100084F01000F1A
:1021000050010001510100FF520100005301000085
:1021100054010001580400005C0400006004000049
:1021200064040000680400006C04000070040000F7
:1021300074040000780400007C040000800100FFAB
:10214000810100018201000183010202840100017A
:1021500083B5010035B80100000000000000000058
:102160000000000005BE010023BE010069BD0100A2
:102170003DBE01006DBE010073BE010045C00100FF
:10218000000000003BC0010055C1010087B90100FB
:1021900079BE010099BE010029BF0100D1C1010033
:1021A0000FBA0100D5C30100B1C301000000000057
:1021B00051C40100F5B90100F9C2010039890200DA
:1021C0005788020093890200458802006588020052
:1021D000FB8A0200FF8A0200D785020019850200EF
:1021E00051860200F98402000B850200A7860200D6
:1021F000AB860200AD720100B9720100142C002000
:10220000C42B0020F82E0000102F0000282F000003
:1022100008140000402F0000602F000000000000A4
:102220005054564F5349474E310000000000000003
:10223000000000000000000000000000000000009E
:10224000000000000000000000000000000000008E
:10225000000000000000000000000000000000007E
:10226000000000000000000000000000000000006E
:1022700000000000000000003C00100103050709F9
:102280000B0D0F00020406080A0C0DBFFB09707449
:10229000766F2E696E666F202020202020200B7024
:1022A00074766F2E73776974636820202020200075
:1022B000202020202020202020202020202020201E
:1022C0000A323032362D30332D3330010000000019
:1022D00000000000000000000000000000000000FE
:1022E00000000000000000000000000000000000EE
:1022F00000000000000000000000000000000000DE
:1023000000000000000000000000000000000000CD
:1023100000000000000000000000000000000000BD
:1023200000000000000000000000000000000000AD
:10233000000000000000000000000000000000009D
:10234000000000000000000000000000000000008D
:10235000000000000000000000000000000000007D
:10236000000000000000000000000000000000006D
:10237000000000000000000000000000000000005D
:10238000000000000000000000000000000000004D
:10239000000000000000000000000000000000003D
:1023A000000000000000000000000000000000002D
:1023B000000000000000000000000000000000001D
:1023C000000000000000000000000000000000000D
:1023D00000000000000000000000000000000000FD
:1023E00000000000000000000000000000000000ED
:1023F00000000000000000005054564F5349474E63
:10240000320000000000000000000000000000009A
:1024100001200000873A00000001000002200000B7
:10242000873A00000001000003200000873A000006
:102430000100000004200000873A000000010000B5
:102440000500000000000000000000000600000081
:1024500000000000000000000700000095A002003E
:1024600001900000080000000000000000000000D3
:102470000000000000000000000000000A00000052
:1024800000000000000000000B0000000000000041
:10249000000000000C02000000000000000000002E
:1024A0000D00000000000000000000000E200000F1
:1024B000873A0000100100000F200000873A00005A
:1024C00010000000000000000000000000000000FC
:1024D00000000000000000000000000000000000FC
:1024E000000000000000000013000000C70103000E
:1024F000008000000000000000000000000000005C
:1025000015000000000000000000000016000000A0
:10251000000000000000000017010000C7010300D8
:102520000080000018010000000000000080000092
:1025300019000000B95B0100000000001A00000053
:10254000B95B0100000000001B000000000000005B
:10255000000000001C01000000000000000100005D
:102560001D01000000000000000100001E0000002E
:1025700000000000000000001F010000DF920200C8
:102580000800000020000000D757020000000000F3
:1025900021000000000000000000000022000000F8
:1025A0000000000000000000230000000000000008
:1025B000000000000000000000000000000000001B
:1025C00000000000000000000000000026000000E5
:1025D00000000000000000002700000000000000D4
:1025E00000000000280000000000000000000000C3
:1025F0002900000049100300100000002A0000001C
:1026000000000000000000002B000000000000009F
:10261000000000002C00000000000000000000008E
:102620002D00000000000000000000002E0000004F
:1026300000000000000000002F000000000000006B
:1026400000000000300000001DFF0200100000002C
:102650003101000000000000000000003200000016
:102660000000000000000000330000000000000037
:10267000000000003422000065A3020002000000F8
:1026800035000000000000000000000036000000DF
:102690000000000000000000370000000000000003
:1026A00000000000380000000000000000000000F2
:1026B0003901000000000000000100003A000000A5
:1026C00000000000000000003B00000000000000CF
:1026D000000000003C200000FF4801000000000056
:1026E0003D0000000000000000000000020405049E
:1026F000030400040C000C040D042A04040B02075C
:102700000A001100060000005054564F5349474E2E
:1027100033BFFB07003003262000000000FFFFFF4F
:10272000FFFF000000000000000000000000505407
:10273000564F5349474E34004F4144204E564D3179
:102740000000000000000000000000000000000089
:102750000000000000000000000000000000000079
:102760000000000000000000000000000000000069
:102770005054564F5349474E3700000000000000A8
:102780000000000000000000000000000000000049
:102790000000000000000000000000000000000039
:1027A0000000000000000000000000000000000029
:1027B0000000000000000000000000000000000019
:1027C0000000000000000000000000000000000009
:1027D00000000000000000000000000000000000F9
:1027E00000000000000000000000000000000000E9
:1027F00000000000000000000000000000000000D9
:1028000000000000000000000000000000000000C8
:1028100000000000000000000000000000000000B8
:1028200000000000000000000000000000000000A8
:102830000000000000000000000000000000000098
:102840000000000000000000000000005054564F3F
:102850005349474E380000000000000000002011DE
:102860008662010000000000010020118662010064
:10287000000000000200201187620100000000003B
:102880000300201143530100000000000400421126
:102890008D22000000000000050042119E22000071
:1028A0000000000006004211C022000000000000ED
:1028B00007002011CB220000000000001000421190
:1028C000AF2200000000000011002011EB8F00205B
:1028D0000000000000404211C02200000000000083
:1028E0000080421179270000010000002000201123
:1028F000FC2800200100000021002011FD280020FC
:102900000300000000002103C48F00200600000027
:10291000000010110000000007000000000030332C
:10292000000000000700000010003033000000002D
:1029300007000000014020330000000007000000F5
:102940000240203300000000080000000000203397
:10295000000000000C0000005500393300000000AA
:102960000C0000001C0042330000000012000000B8
:102970005500210100000000190000000000F08156
:102980000429002019000000010023810C290020E7
:102990001900000002002301188E00201900000019
:1029A00003002181A83000201900000004002381C9
:1029B000102900201900000005002181AA30002004
:1029C0001900000006003081E98F00201900000086
:1029D00007002101C08F002019000000080021011C
:1029E000BE8F00201900000009002181BC8F00204B
:1029F00019000000FDFF2181F23C000000040000EE
:102A0000000021040000000002040000000029155D
:102A10000000000003040000000029040000000082
:102A20000504000000002904000000000C04000060
:102A300000003904000000000D040000000039040B
:102A4000000000002A04000000003904000000001B
:102A50000207000000002904000000000207000037
:102A6000000218050E840100020700000003300573
:102A70000F8401000207000001032205DC2B000087
:102A80000207000002032205E02B000002070000FD
:102A9000030318010F630100020700000603181169
:102AA00000000000040B000000001B05D82B0000F4
:102AB000040B00000001291500000000040B0000B9
:102AC0000301291500000000040B00000601290481
:102AD00000000000040B0000000221059E3E0000E3
:102AE000040B000001022105E6400000040B000079
:102AF000020221059E3E0000040B00000302210596
:102B00006A4F0000040B0000040221059E3E0000F5
:102B1000040B000005022105365C0000040B0000D8
:102B20000003210400000000040B00000004210544
:102B30009E3E0000040B0000010421053E5C0000E5
:102B4000040B00000505211500000000040B000027
:102B50000805211500000000040B00000B052904E6
:102B600000000000040B0000100528040000000015
:102B7000040B0000000621059E3E0000040B00002F
:102B800001062105E6400000040B000002062105B5
:102B90009E3E0000040B0000030621056A4F000062
:102BA000040B0000040621059E3E0000040B0000FB
:102BB0000506210512540000050B0000010021024A
:102BC0000000000001000401FEFF00000000000002
:102BD00000000000000000002100000001000000D3
:102BE000E80300000000C8420A00000002000000E4
:102BF0000400000008000000100000002000000099
:102C00004000000080000000000100000002000001
:102C10000004000000080000001000000020000078
:102C200000400000E8030000D0D1D2D3D4D5D6D7DD
:102C3000D8D9DADBDCDDDEDF5A6967426565416CD5
:102C40006C69616E636530396A0078008B0B030034
:102C5000CB0B0300DB0B03006C00F000115C0300E6
:102C60004F5C03005F5C03006B00F000F10A03009F
:102C70002F0B0300DB0B03006600F000F10A0300DA
:102C80002F0B0300DB0B030067001400830D030010
:102C9000B10D0300C30D030069001400410E0300D1
:102CA000F10E0300710E0300EE28E803AD020300ED
:102CB000DF050300D10303002F006400190F030098
:102CC0007F0F0300B10F030068000A00850C0300AA
:102CD0003D0D0300BD0C03006D00040085080300DA
:102CE000D108030091090300640001000000000006
:102CF0000000000047060300630001000000000020
:102D00000000000047060300620001000000000010
:102D10000000000047060300610001000000000001
:102D200000000000470603007000010000000000E2
:102D3000000000004706030090360000848B00204E
:102D4000942A002090360000868B0020A02A0020C4
:102D500090360000888B0020AC2A002090360000BE
:102D60008A8B0020B82A0020903600008C8B00202F
:102D7000C42A0020903600008E8B0020D02A00202C
:102D800090360000908B0020DC2A00209036000056
:102D9000928B0020E82A002090360000948B0020BF
:102DA000F42A0020188B002012F602004C88002024
:102DB00013F60200000002400929FF00D889002014
:102DC000B42D00000020050000400000AC360000DB
:102DD000EE8F0020C42D0000D4360000588D002056
:102DE000102B0020FC360000387F0020382B0020FC
:102DF000FC360000587F00203A2B0020FC360000F3
:102E0000787F00203C2B0020FC360000987F0020BB
:102E10003E2B0020FC360000B87F0020402B002015
:102E2000000000006D680100C18300000101010085
:102E300000000000FF000100000000000000000092
:102E400020370000086F0020442B002020370000AE
:102E500008700020842B0020FF000000000000000C
:102E600080A9030060800020582E00000000084068
:102E7000E803000038370000748800206C2E000042
:102E8000000001401FFF000017000000001001407B
:102E900021FF0100190000000020014023FF020073
:102EA0001B0000000030014025FF03001D00000052
:102EB0000000014020FF00001800000008730020FF
:102EC000802E000000000000547300208C2E0000B3
:102ED00000000000A0730020982E000000000000F9
:102EE000EC730020A42E00000000000038740020C5
:102EF000B02E0000010000000208000000000000E9
:102F0000000000000001010000005328242C0020D4
:102F10000308000000000000000000000001650937
:102F20000000000000000000012C00000000000074
:102F3000000000000001001E000000000000000072
:102F4000022C000000000000000000000000000053
:102F50000000000000000000000000000000000071
:102F6000032C000000000000000000000000000032
:102F70000000000063E80000F9EC0000A7E8000092
:102F80004142000055E90000D7ED000055E900007E
:102F90002FEF000057E900004142000055E9000012
:102FA000D7ED0000BBE90000414200000000000036
:102FB00000000000F5EA00004142000000000000AF
:102FC0000000000041EB000041420000EDEB00007A
:102FD00041420000F1EB000031F100000DEC000077
:102FE000414200000000000000000000000000005E
:102FF0000000000000000000000000004FEC000096
:1030000085F2000065EC0000414200004FEC00003A
:1030100085F2000065EC000041420000F1EB000089
:1030200031F1000095EC0000414200001300000067
:103030001D0C0200000000000FCE00000100000087
:103040000FCE0000020000006702020002800000B4
:103050006502020003000000850202000400000077
:10306000CB020200048000002303020005000000E0
:1030700025030200060000009D030200300000004E
:103080002709020031000000290702003300000078
:10309000E109020034000000870A0200110000006C
:1030A000290B020014000000850B0200150000002F
:1030B000F9060200FFFF0000000000008F00010081
:1030C000E030002087000100DE30002035002800BD
:1030D000C488002028000100C3300020290001001E
:1030E000C430002084000400588E002086000100B7
:1030F0007D1B00202A000100C53000202B000100AC
:10310000C63000202C000100CA3000202D0008002D
:10311000042D00202E000100CB3000202F000100E4
:10312000CC30002030000100CD3000203200010002
:10313000F88F002033000100F98F002034000100D7
:10314000CE30002036000100FA8F00203800010048
:10315000CF30002039000100C93000208300020078
:10316000B830002063000100FE8F002065000100E0
:10317000C73000206D000100FF8F002071000800A3
:10318000B08D002066000100DD300020430001000A
:10319000D830002044000200AE300020450001007D
:1031A000D930002046000200B0300020470008005F
:1031B000B88D002048000100DA3000204B000100EB
:1031C000DB30002004000100DF300020A1000100FE
:1031D000E530002037000100E430002088000100C5
:1031E000E13000203C000100D03000203D00010013
:1031F000D130002049000200B230002067000100F9
:10320000009000204D000200B43000204E0001006C
:10321000DC3000204F000200B63000203E000100EC
:10322000D630002051000100FB8F00205200010029
:10323000D330002053000100D5300020540001009D
:10324000FC8F002000000000000000007B73746110
:103250007469632D696E7374616E63652D6E616D43
:10326000657D00007B656D7074792D696E73746186
:103270006E63652D6E616D657D000000B42D0020CC
:10328000FFFFFFFFFFFFFFFF0A00000073F90100CF
:10329000020000006FF40100050000000DF60100BF
:1032A000070000007FF501000C00000047EF01005F
:1032B0000D00000065F10100FF00000000000000AB
:1032C0008E0000008E0001008E0002008E000300C0
:1032D0008F0000018F0000028F0000038E000104A8
:1032E0008E0000058E0008048E0000048900000690
:1032F000500000007F0001003F0004003F0002007A
:103300003F0001007F0002008E0002048E000102D7
:103310008E00010100000000020000000200000019
:103320000A0000000200000002000100000000008E
:10333000000000000000000000000000000000008D
:1033400000000000000000000E00000000A6AAAC73
:10335000A4A9A9A399B19ABCB6A8000002040201CD
:103360000101010902000000313117191A21241B43
:103370001D1F313133310000313118191A22311C2F
:103380001E20313134310000030071003001600033
:10339000110070003102200350048000070010006B
:1033A00061000000140063007300720062004300BB
:1033B00000001300060000000000040012000000DE
:1033C00000000000000004000400370037003C0249
:1033D000440000000000000000006500000035000F
:1033E000810000000500000083000000660000006E
:1033F0000000080009000A000B0000000101710133
:1034000001010101110101013101010101018001ED
:103410000001100161013B0014006301730172019E
:10342000620143010001130106013D013500040161
:103430001201000100010001000104010401330137
:1034400033013C01440132013600000100016501F5
:1034500000013500810100010501820183010001A5
:10346000660100010001080109010A010B010000C9
:1034700003027102300160021102700201020202B5
:10348000020280020002100261023A00410063025F
:103490007302720262024302000213023800000249
:1034A00000020402120200020002000200020402F2
:1034B0000402370037003C024402000239000002D7
:1034C000000265020002350281020002050282024A
:1034D00083020002660200020002080209020A02D8
:1034E0000B02000001037103010301030103010347
:1034F000010322030203010300031003000300037E
:10350000000300030003000300034203000324033D
:10351000060300030003040312032503230325030A
:103520002303040304030003000300034403000314
:103530000003230300036503210035038103000317
:10354000050300030003000300032503230308030E
:1035500009030A030B03000003047104020460045E
:1035600011047004020402040104020400041004A3
:1035700061040004140463047304720462044304C9
:1035800000041304060400040004040412040004EC
:10359000000400040004510464000004000400045A
:1035A000440400040004000400046504000435041D
:1035B000810464000504000483040004660400041C
:1035C0000004080409040A040B04000000000500BC
:1035D000BD00B700B100BC001C003000380008007E
:1035E00038010200000120181A18182C34041E009B
:1035F0000C0E020B040B0A070800110F88B22400FE
:10360000881300001000000000000001C00300004B
:1036100080070000000F0000001E0000003C0000BA
:103620000078000000F0000000E0010000C003008E
:103630000080070000000F0000001E0000003C009A
:10364000000078000000F0000000F0000000000022
:10365000000000000000000000000000000000006A
:10366000000000000000000000000000000000005A
:103670000000000000BE040A00BE020830313233F0
:10368000343536373839616263646566000000009E
:10369000ED360300253703002B37030007380300FE
:1036A000F33803004D39030055390300F1390300A5
:1036B000F9390300FF3903002F3A0300493A0300A8
:1036C000973A0300AF3A0300233B0300613B03003A
:1036D000693B0300F93D03008D3E0300033F0300F7
:1036E000333F0300453F03007B3F0300933F03004C
:1036F000B9400300FD4003000941030041490300B4
:103700005B49030091460300934603009147030081
:1037100039470300D5470300214903000549030049
:10372000894C0300FF4C0300F34F0300FD4F0300DF
:10373000D5510300F5540300DD590300E55903009A
:10374000E7590300ED590300F5590300855A0300BA
:10375000AD5A03005D4000218940002195400021C1
:103760003B410021074C657900F009F86179694017
:10377000490703D50121044A8903116070BD70B562
:103780000249084780030021081104402D59000018
:1037900000F00AF800480047577F000000F00AF8E0
:1037A000004800471B880000806B0C490007000F91
:1037B00048717047094A0A4918235079CB56497E07
:1037C000C018814201DD084602E00F2800DD0F200D
:1037D000D189090909010143D1817047E002002123
:1037E000880000210122274B02212548184710B5E7
:1037F000254880472548406A00280DD124490A20E1
:103800000856002809DA401C07D008462038406ACC
:103810002049884200D1804710BDFFF7E3FF10BD6B
:1038200000211E4B1C4A0846184701201C49400233
:1038300008601C48FB220178114001701248EC38E6
:10384000004710B51849884711492039012807D089
:10385000020404D50020088514484862012010BDE8
:103860004A6A094BEC3B9A4201D1114A05E00749EB
:103870004A6A104B9A42F2D10F4A4A6210BD0000C8
:10388000060800009F060000A19202000801002126
:103890005401002163920200E7400021B5B4020008
:1038A00080E100E080030021F7960200DD40002166
:1038B0002341002169950200194100210102000302
:1038C0000200010370B50446257805F07F050E2D32
:1038D00002D19FEDAA0A70BDE678032D1CBF042D0E
:1038E000012D01D1002000E0802000F08BF90F2D88
:1038F00014BF012200220321304600F084F90F2D6D
:1039000004D100EE100AB8EE400A70BD00F0C4F910
:10391000032D41EC100B04D100F0D0F900F0BCF9FC
:1039200017E0F9D0042D0CD153EC102B9448954995
:1039300000F0E0F900F0C2F900F0AEF90022924B7D
:1039400005E000F0BBF900F0A7F900228F4B00F072
:10395000A7FA00F0C9FB00EE100A207AC10708D5CB
:103960006069D0ED000AB0EE401A90ED010A01EE58
:10397000200A70BD7FB504462C204443844D28198D
:1039800000F108014E88964204BF8988994245D1CA
:1039900008990B0006D10C2A0CBF042102210A98B9
:1039A000018017E0012939D1FFF78CFF8DED000A66
:1039B000295D099801F07F01012918BF02290CD067
:1039C00003291DD0042908D00F2927D104226946D4
:1039D00000F055FC012004B070BD6E49DDED000A19
:1039E0000A8800EE102AB8EE400A60EE200AFDEECA
:1039F000E00A10EE903A1BB20193022201A9E7E718
:103A00006549D1ED000A60EE200AFDEEE00A10EEF5
:103A1000902AADF8042001A90222D9E70020DAE7B4
:103A200070B504462C214C43594D2E192DED028BB7
:103A30003046FFF747FF295D01F07F010329B0EE13
:103A4000408A0DD1544890ED000A707828EE000AA3
:103A5000BDEEC00A10EE101A09B200F0ACFE0EE086
:103A6000285D00F07F000F2806D1012001F0B1F899
:103A700030B180ED018A03E0707800F0B4FE0020E0
:103A8000BDEC028B70BD2DE9FC478046434F4D795C
:103A9000434911F80890484600F08CF8064600F0BB
:103AA00092F8002000F0AEF83A7839492C204243D1
:103AB0008C183C49D4F814A06162012005F07F0500
:103AC00084F8280040F6043161814FF48070032DA2
:103AD000A08105D140F202400926608100214BE01F
:103AE000042D08BF08262CD00421484601F048F9CF
:103AF0000C2010FB06F02C4901F80090012D33D169
:103B000008442A4A42600021009101916A4601213D
:103B1000404601F037F801AA0221404601F032F890
:103B20009DED000AB5EE400AF1EE10FA09D0207AB8
:103B300040F0010020720098CAF800000199CAF80C
:103B4000041084F8018084F80290E6700021207847
:103B500000F0800005432570A1711548E0613978B7
:103B6000491C3970BDE8F387681E0128CBD90E388F
:103B7000E7D10C2060815521A181E2E7000000001F
:103B80009A9999999999B93F0000594000408F40FE
:103B900080140020E6400000E42B0000E88F0020A5
:103BA000348C002075390000942A0020308C1100DC
:103BB000213A0000A0F11701082902D21738C0B23B
:103BC0007047FF2070470C480178CA0700D570473E
:103BD00010B541F0010101700020084905E0C3B2B1
:103BE0000C246343FF22CA54401C054B1C78C2B20C
:103BF000A242F4D310BD0000ED8F0020942A0020D3
:103C000083BE02007047134601222DE9FE430928B6
:103C1000044691461D4605D101F06FFA01F09CFA69
:103C200080B234E05FEA09000BD001F0BEFA01A8CF
:103C300001F0F6FA01A9204601F0D2FA5FEA000885
:103C400001D1002023E000270024002609E0694676
:103C5000404601F0A4FA18B9BDF80000641C3F18F2
:103C6000761CF0B24845F2D3E0B20228A4BFE4B219
:103C7000B7FBF4F73DB1B9B2404601F093FA4FF407
:103C80007A71B0FBF1F7404601F086FAB8B2BDE8B0
:103C9000FE8300230122B8E710F0004160B148BF65
:103CA0004042B0FA80F29040D21CC2F5846241EAF0
:103CB000025202EBD021400570470143C1F30A5381
:103CC00040F21E42D31A0CDDCA0283F3070342EA14
:103CD000505242F00042DA4002EBE17282EAE170B7
:103CE00070476FEAE17203F2E13008B182F0004000
:103CF0007047010030B540F2FF7C1CEA11541DBF33
:103D00001CEA1355644565453FE0641981EA030CDC
:103D10006FF35F530CF0004C43F48013C90241F081
:103D2000004141EA505EC5021100A5FB02020028D5
:103D30004FF00000EEFB01204FF00001E3FB0521F6
:103D400018BF42F00102401800214941E3FB0E0177
:103D5000A4F580640D0302D292184041494154F108
:103D6000010470DD450872F1004250F1000051EB92
:103D70000451A1F5801102D441EA0C0130BD40F29A
:103D8000FF7E4CEA0E51002030BD0CEA135564450D
:103D900018BF654581EA030C0CF0004C41D050EA95
:103DA000410E1CBF52EA430E02E06146002030BDC6
:103DB00024422C441BD15FEA050EF6D0090302BF52
:103DC00001460020AEF1140EB1FA81F5AEEB050408
:103DD00001FA05FE0C35C5F1200100FA05F5C840D1
:103DE0004EEA000E6FF35F5343F480139CE733F009
:103DF0000043B3FA83F504BFB2FA82FE75440B3D6B
:103E0000641BB5F1200E2FBF02FA0EF3AB40C5F1D3
:103E1000200E22FA0EFE38BF43EA0E03AA40641CAD
:103E20007CE750EA410E14BF52EA430E6FF00001E6
:103E30004FF4001515EB430F8EBF194615EB410FDC
:103E40009DE7B4D830BDD4F10104B4F120050FDAF8
:103E5000C4F12005520828BF42F0010210FA05FE05
:103E600001FA05F57244E2BFE0402843E1400FE06B
:103E7000352C9ADCC5F1200452EA400220FA05F202
:103E800018BF42F0010231FA05F0A1400A430021B7
:103E900072F1004250F1000051EB0C0130BD010005
:103EA000F0B540F2FF7581EA030C0CF0004C15EA06
:103EB00011541DBF15EA1357AC42AF42E5E0BC41B7
:103EC000C1F31301C3F31303801A994143F4801320
:103ED00004D2641E0018494180185941C90241EAC0
:103EE0005051B1FBF3F603FB1611A2FB0675D7EB9D
:103EF000C020A94102D2761E80185941C90241EA68
:103F00005051B1FBF3FE03FB1E11A2FB0E75D7EB64
:103F1000C020A94103D2AEF1010E80185941890297
:103F200041EA9051760546EA8E2EB1FBF3F603FB8B
:103F30001611A2FB0675D7EB8020A94102D2761E8E
:103F400080185941C90241EA50514EEA060EB1FBB0
:103F5000F3F603FB1611A2FB0675D7EBC020A941AF
:103F600002D2761E80185941C90241EA5051B1FB74
:103F7000F3F703FB1711A2FB0735D3EBC020A941D0
:103F800067F100070CBF004247F0010766F3D52731
:103F90004FEA1E31B80814F5806412DDBD0775F1D3
:103FA000004250EB0E5051EB045111F5801F5CBFE5
:103FB00041EA0C01F0BD4CF07F6141F0E04100208E
:103FC000F0BDBD076D0840EA0E5041F48011D4F1F8
:103FD0000104B4F120060ADAC4F120060200E04030
:103FE00001FA06F3E1401843B24015430EE0342CC9
:103FF00013DCC6F1200445EA40056D0820FA06F2FC
:10400000154321FA06F0A1400D43002175F100424D
:1040100050F1000051EB0C01F0BD00205FEA0C01F3
:10402000F0BDCFB992185B41B3FA83F704BFB2FA7F
:1040300082F6BF190B3FB7F120062FBF02FA06F335
:10404000BB40C7F1200622FA06F638BF3343BA4018
:104050001CB1E419641E33E77F4231F00041B1FA2C
:1040600081F404BFB0FA80F6A4190B3CB4F1200629
:104070002FBF00FA06F1A140C4F1200620FA06F68F
:1040800038BF3143A0403C1B1AE7AC421ABF05EAD7
:104090001357AF4212E050EA41061CBF52EA4306F2
:1040A000BFE750EA4107304661461CBF41EA05516F
:1040B000F0BD52EA430C08BFC143F0BD00204FF4ED
:1040C000001616EB410F98BF16EB430F08BF16EB17
:1040D000410F24BFC14305E016EB430F0CBF6146FF
:1040E0004CEA0551F0BD640001F000428B1AA3F1C7
:1040F0006051B1F5801F0ADBB1F17F6F1FD242EA38
:10410000C102C10071F1004142EB507070470B15C4
:10411000C3F10903212B10D2890241EA9051800298
:104120000128494141F0004121FA03F0C3F1200385
:10413000994071F1004150417047100070476FF095
:10414000000013EB103F5CBF000E42EAC050704706
:10415000F8B50D4688B00446287800F0BAF8002873
:104160003ED1DFF83C220021131D53F8310018B175
:10417000491C2029F9DB33E005A80023002600278D
:1041800080E8C80002F83140121D42F8315028780A
:104190008DF80000A8684188ADF802108188ADF85C
:1041A0000410807900F00F008DF80600A868C1792E
:1041B0008DF80710A86881680291007B8DF80C00CB
:1041C000A8680169049105A928788DF814008DF874
:1041D0001C30CDF818D0204601F09AF8012000E0FC
:1041E000002009B0F0BDDFF8BC11086070472DE970
:1041F000F041DFF8B4512C6880460F4600F069F8B2
:10420000002630B90020BDE8F081206800B92646BC
:1042100004462CB120794045F7D1A7600120F2E790
:104220000C2001F075FC0028ECD00022026080F820
:10423000048087602968002914BF30602860EDE79A
:1042400010B559490A6800E0126852B10368117943
:104250001C7DA142F8D191680029F5D0BDE810403D
:104260000847012010BD01F053BC10B504461046AC
:104270000A460146204601F0ABFC204610BD03E093
:1042800011F8013B00F8013B13465A1E002BF7D1F1
:104290007047002818BF01F03CBC704701700A0A43
:1042A0000B0C090E42708370C170001D7047002214
:1042B0003B4B03EBC201496811B10978884203D036
:1042C000521C202AF5DB02E013F832007047002070
:1042D000704710B501460022314800EBC203586810
:1042E00010B10478A14203D0521C202AF4DB00E074
:1042F00010BD002010BDF0B58BB007460C4615462A
:104300001E462C21684601F097FC397A8DF8001082
:10431000032906D1082239460DF1020001F0EEFB17
:1043200003E011B13988ADF80210797A12988DF84E
:104330000A107989ADF80C10810744BF01228DF86D
:104340001C20C10644BF01228DF81D20010744BF77
:1043500001228DF81E20810644BF01228DF81F2006
:10436000410644BF01228DF82020000644BF0121F0
:104370008DF821101398119B109A27788DF8220040
:104380008DF81470ADF816500693ADF824600A92BB
:104390002078FFF78CFF694600F0BEFF0BB0F0BD40
:1043A0002C7700203C8E0020408E0020F8B50D2890
:1043B00005462DD201F0AEFBDFF8B0351A780024A7
:1043C0000146BAB100265FFA86FC2820DFF8A07506
:1043D00010FB0CFC6744787C000904D0761CF0B21A
:1043E0003028F0DB06E0521E3C461A70607C40F03C
:1043F000F0006074084601F098FB4CB1280014BF2F
:1044000004F11C000020A061E57504F10C00F2BD70
:1044100001F03BFC40F20121884206DB05F1100669
:10442000B0B201F010F9040001D10020F2BDB1B228
:1044300001F0CAFC280014BF04F110000020E06065
:10444000E5722046F2BD38B504462079C0F302106B
:10445000022806D1E06820B1A17A022908BF01F044
:1044600058FB6079000910D001F054FB05461C216F
:10447000204601F0E1FBDFF8F4040178491C0170EB
:104480002846BDE8324001F050BB2046BDE832402E
:1044900001F0EDB82DE9F0470F46DFF8D814B1F878
:1044A000D421054600262879C0F30219C40900F07A
:1044B0000F00C240D5F80080D00704D51CB92846AB
:1044C000FFF7C1FF33E001F025FBDFF8AC248246A3
:1044D000506800213B4602E0014650F80C0C08B33E
:1044E0000768474502BF0779C7F3021CCC4504BFE4
:1044F000FF09A742F0D1761C1F0013D0F7B2BB42D0
:10450000EAD150F80C3C45F80C3C5468A04208BF76
:10451000556009B141F80C5C002140F80C1CFFF714
:1045200092FF00E00546504601F0FFFA0DB1012070
:1045300000E00020BDE8F08770B501F0EBFA064618
:10454000DFF8340444680025456005E0204654F84F
:104550000C4CFFF778FF6D1C002CF7D1304601F0B2
:10456000E4FAE8B270BD2DE9F0430C468FB02004A8
:1045700048BF84F4004000F1CA80E007DFF8F86328
:1045800040F1B9807078002884F001091BD100F156
:10459000180801F07AFB002740F20111884213DA73
:1045A000B078401CB070C0B21F28A4BFB770FFF72E
:1045B000C3FFB078052190FBF1F101EB8101401AB6
:1045C00003D000F0B0F894E0B770301D01F074F93A
:1045D0000400F8D0162106F1080001F02DFB217926
:1045E0001625080910F0070003D0022852D014D372
:1045F00059E0C809E57A059004970397029701F0FE
:104600000F01E068019006F10800A27A00921635C9
:104610002389E28802F088FF44E0E179FF290CD089
:104620002C20DFF85823414355181E2207A928469D
:1046300000F000FA074605F11808E06801680691E5
:1046400007AB217902790497001D0393029055234B
:1046500006F10800D519CA09059206AF3922009261
:1046600001970C2201F00F0102F05EFF1A350100E4
:1046700018D198F81000010715D5FF2100200091EE
:1046800002900190A179E079D8F80C7055230C22A2
:10469000B84708E0E288E068E57A01F00F0102F02F
:1046A000FFFE163578B9DFF8D8120020652D0870A6
:1046B00002DB00F033F803E000F02CF849F00109C8
:1046C00000F02CF812E0607900F00F01022908DCFC
:1046D000411C61F3030060712146301D01F02CF98B
:1046E000002400F020F800F019F814B12046FFF77C
:1046F000AAFE48460BE0A00708D5002171700121F1
:10470000307801F03EF884F0020000E000200FB0A5
:10471000BDE8F0833078012101F033B830783222DF
:10472000012103F001B8012070704FF47A723078E3
:10473000022102F0F9BF4FF6F07300F00F0003EA18
:104740000213184340EA014070472DE9F84F0B9DD2
:10475000894E8246884693461F462846FFF726FE26
:10476000040022D0DDF830905A4641465046FFF70B
:10477000E2FF20602A460AF00F0040EAC9102071CB
:10478000A4F80680A4F808B0A7720A99E06801F0BE
:10479000B5F9102F0CBF032101212046FFF77AFE47
:1047A00018B92146301D01F051F8FFF7B3FF3078FA
:1047B000BDE8F84F80E003B583B000F00CF8292382
:1047C00040F2024118E003B583B000F004F8212361
:1047D00040F2054110E00021022204AB0291019257
:1047E000009300227047F8B5664900F009F84FF4CD
:1047F0008072FFE740F60431FFF7A7FF05B000BD68
:104800000A8800EE902AF8EE600A20EE800ABDEEDB
:10481000C00A10EE102AADF80C200023022103AAD2
:10482000029301910092292370471FB50B0018BF16
:10483000012301218DF80C300292019103AC009408
:10484000102300220621FFF780FF1FBD2DE9F0474E
:1048500080460E46924699460C20FFF7A7FD0400BD
:10486000454F23D0089D721C49464046FFF763FF21
:10487000206008F00F01207900F08000084340F02C
:1048800010002071A5713920A072E67184F808909B
:104890000C22E068514601F031F901212046FFF772
:1048A000F9FD18B92146381D00F0D0FF3878FFF720
:1048B00032FF3878BDE8F0473222012102F034BFE0
:1048C0002DE9F0478046894614009A4618BFBAF190
:1048D000000F11D0089E370908BF012706F00F0608
:1048E000022E0CBF00205046FFF760FD050005D1E9
:1048F00016B1204601F00DF9002035E000224946AE
:104900004046FFF718FF286008F00F01287900F0F3
:104910008000084340F02000287185F80BA000209B
:10492000A5F806902881AE72022E08BFEC6008D070
:10493000E8685246214601F0E1F816B1204601F040
:10494000E8F839462846FFF7A5FD0B4C18B929466B
:10495000201D00F07BFF2078FFF7DDFE207832225B
:10496000012102F0E1FE0120BDE8F087BB3000200C
:10497000F864002020220000B88900208014002064
:10498000408D0020E640000070B504462C214C43C9
:10499000DFF804532E19304601F016FA2A5DDFF8CD
:1049A000FC1242F080022A5500200870304670BD8B
:1049B000F8B5DFF8EC422578A84212D2461CF6B2D0
:1049C000DFF8D47209E02C2171437A18A2F12C008F
:1049D00039442C2202F0C0FF761CAE42F3DB6D1E80
:1049E0002570F1BDF0B5AF4BAF4C1B5C245C0246AB
:1049F00000E0491CAA4D2E78C8B2B04217D25FFA27
:104A000081FC2C25A44F15FB0CFC07EB0C0528782A
:104A1000C0090CD06878904202BF2F7807F07F075A
:104A20009F4204BFA878A042E3D148B2F0BD4FF046
:104A3000FF30F0BDF0B50346002400200EE0E4B2E4
:104A400066440E5507F00F076C1C0A2FACBF3726C3
:104A50003026EDB2F6194E55401CC0B29E79B042D8
:104A6000E5B212DAEF1CBA420FDB10B12D264E551B
:104A7000641C1D182F7AC7F30316651C0A2EB4BFD9
:104A80004FF0300C4FF0370CD9E7E0B290423CBF0A
:104A900000204855E0B2F0BD10B500F001F811E07B
:104AA000012303FA00F000F0FF0000EB01207F4C2F
:104AB000704710B5012303FA00F000F0FF0000EB8F
:104AC00001207B4C81B22078BDE8104002F02CBE62
:104AD00070B500F00EF8764E00F003F800B90FE064
:104AE00070BD307804EB0124A4B21546214602F0D3
:104AF0004BBE0446012000FA04F404F0FF047047A2
:104B000030782A462146BDE8704002F00DBE0122F1
:104B100002FA00F000F0FF0000EB0120634BFFE71A
:104B200081B2187802F004BE1CB500F045F80CBF45
:104B300002F1FC0102F1AC01052202F0FDFE9DF83C
:104B40000000012816D002280FD0032807D004281F
:104B500010D0052809D0062818BF0B2810D10DF158
:104B6000010108682060012016BD0DF101010868EF
:104B700080B2F7E70DF10101086800F0FF00F1E7EE
:104B8000002016BD1CB500F017F80CBF02F1FC01A7
:104B900002F1AC01052202F0CFFE9DF800000728CB
:104BA00008D10DF10100016800EE101A84ED000A31
:104BB000012016BD002016BD14463E4A00EB8000C1
:104BC00002440229684670470A78521C001D00F012
:104BD00095BF70B510260228054603DB0C2110FB9B
:104BE00001F6361D304600F093FF040003D0314635
:104BF00001F0EAF82570204670BD420602D5491E34
:104C00008941C90F00F044B92C22234B504318446A
:104C10000079002818BFFFF7F0BF704738B50024AF
:104C20001F4D03E00021FFF7EFFF641C2978E0B27D
:104C30008842F7D32048027802F0FD02027031BDAD
:104C400070B52C2606E0D5B2134C75432C44521C8B
:104C500020716171D4B29C42F5D370BD70B52C2225
:104C60000D4B0446191D54430C5D00E0401C0C4DD7
:104C70002E78C1B2B1420CD251435D182979002976
:104C80001CBFA9780029F1D02979A142EED10120D9
:104C900070BD002070BD000080140020BA300020DC
:104CA000E88F0020248C0020348C00207F280020F6
:104CB0008028002020220000C28F0020C000103079
:104CC00070477CB5C0001030461814461D4631466A
:104CD000102002F08EFE48B900952346002231468E
:104CE000102002F0EBFE08B9012076BD002076BD51
:104CF000C00080B510304118102002F0BDFE012028
:104D000002BD0B4604220021DBE702B56B460422FC
:104D10000021FFF7EDFF02BD00F03F02282A0ADA6A
:104D2000012200F01F0012FA00F004D07F4A09B1FE
:104D30001060704710617047F8B500F04CF81EDA4B
:104D400000F043F81BD07A490A681043086024F049
:104D5000605402F066FF00F04CF830001CBF032ED8
:104D6000042E02D144F4C04408E0012E08BF44F4EC
:104D7000804403D0022E08BF44F4005449E0F1BD42
:104D8000F8B500F028F81FDA00F01FF81CD06849C9
:104D90000A6822EA0000086044F0005402F041FF73
:104DA00000F027F830001CBF032E042E02D144F47B
:104DB000C04408E0012E08BF44F4804403D0022E12
:104DC00008BF44F4005424E0F1BD012100F01F00AD
:104DD00011FA00F07047850005F0FC0505F18045EB
:104DE00005F501250E462F4600F03F013C682829B5
:104DF0007047002139706F1C220AA91C3A70230CDD
:104E00000B704FEA146C05F803CF24F4C04402F091
:104E10002FBF02F006FF240A3C70BDE8F24002F00A
:104E200027BF70B500F02CF8254600F03F022E6831
:104E3000282A24DA012200F01F0002FA00F0C243FF
:104E4000E8B13B4B29B11968084326F06056186059
:104E500004E01868024046F000561A6002F0E1FED5
:104E60000021631C2970320AA11C1A70350C0D70C8
:104E7000360E04F8036FBDE8704002F0F9BE70BD55
:104E8000840004F0FC0404F1804404F5012470471C
:104E900000F03F02282A0DDA012200F01F0012FA6A
:104EA00000F007D0214A136C0343136409B110606A
:104EB0007047106170470000F8B50D4600F03F01E3
:104EC000282931DAFFF7DCFF1A4A2668137800F048
:104ED0003F00834228D31849184F02F0CBFE3740D9
:104EE000032D15D8DFE805F002050B0814490F4320
:104EF0000EE0144807430BE047F4E02708E006F40F
:104F0000E026B6F5C02F0CBF47F4A02747F4C02712
:104F100002F087FE621C390AA51C11703B0C2B7035
:104F20003F0E04F8037F78E7F1BD000090200240B7
:104F3000D0200240C1FC0200F5130100FFFFF8E79A
:104F40000000061800000510F8B504460D460126BD
:104F50000027344203D02946F8B2FFF7ADFF7F1C8B
:104F60007600F8B22028F4DBF1BDE80370B502F05A
:104F700058FE06467D484068FA246FF0F90560B196
:104F8000B0F90C108C42C8BF0C46B0F90E10006886
:104F90008D42B8BF0D460028F2D12946204600F0C8
:104FA00005F83046BDE8704002F062BEF0B46F4BC9
:104FB000B3F90040A0421ADA6D4D6E4C2E78256888
:104FC000A5F5407576B2821C7543D7052D1105EB0A
:104FD000E735803D12F1F90F2ADA4FF4803505F4F8
:104FE0007F4525631880206A40F004002062B3F9F1
:104FF000020088421ADA5E4C5E4A25781468A4F5ED
:1050000040746DB2881E6C43C605241104EBE6346F
:10501000803C10F1F90F15DA4FF4803404F47F442A
:1050200054635980106A40F008001062F0BC704769
:10503000FA2AA8BF4FF47F45D1DA002DCFD54E4ACA
:105040001540CEE7FA28A8BF4FF47F44E6DA002CDB
:10505000E4D549480440E3E72DE9F0474448454D8D
:1050600001782A68414E454F4FF47F432B63FA2164
:1050700031802A6A22F004022A620022007829681C
:105080006A636FF0F9007080296A21F008012962D3
:10509000F86B7468D0F8001088470FFA80FAE4B112
:1050A000B4F90E90D4F80080D145BCBFB4F90C100F
:1050B0008A450FDBD145B8BFB4F90C902146301DAD
:1050C00002F066FE0020226920752346A468494646
:1050D0005046A0475FEA0804E2D1FFF747FF686A3D
:1050E00000F00C006862686A10F00C0FF7D13968A4
:1050F0000A6ABDE8F0473520104770B584B002F069
:1051000090FD1F4D0446287808BB684602F0A8FDB4
:105110001C490A78019201218DF808106B461A4A41
:105120003521281D02F05AFD1848194B816C21F0D9
:10513000040181640322816C21F008018164026012
:1051400009211A6816680220B047012028702046FD
:1051500002F08EFD04B070BD00B50E4881B001684C
:105160000A68904700B201B000BD00007430002012
:105170000C1300502850094000FF0100B00100103E
:10518000F8890020670A03005950000000500940C8
:1051900084010010EC01001001680A6810470268E1
:1051A0009368184702681369184770B502F039FD13
:1051B00018490546087860B9012217480A70047832
:1051C0003CB1164E304656F80C1B4A699047641E97
:1051D000F8D12846BDE8704002F04ABD000000004A
:1051E00030B50C4C237881B000227BB10A4C257875
:1051F000A8420BD209B900BF0CA100EB40029200FB
:10520000064B98189B589A6990470246104601B081
:1052100030BD00001290002083BE0200382D000037
:1052200002A1D1E90023C0E900237047000000007B
:1052300001000000DFF800F0F5EA02102DE9F0416E
:10524000102705460E469046082B38BF082398B213
:1052500000F0F9F9040010D0267000F037F800F0E3
:105260003BF840B9FFF7E6FF00F0B2FA00F03CF877
:105270000028F7D0477800F042F83846BDE8F081C2
:105280002DE9F8430546089810260F4690469946A2
:105290000C2838BF0C2080B200F0D5F9040012D0E1
:1052A000277000F013F8C4F8089000F015F840B922
:1052B000FFF7C0FF00F08CFA00F016F80028F7D0D6
:1052C000467800F01CF83046BDE8F283002060709C
:1052D000A570C4F80480704721460A48007800F0A1
:1052E000D5B90849087070472178284600F0F8BA07
:1052F0000A4608230421A1E7FFF7C2FF02BD2046AA
:1053000000F0B5B9029000200A460823142195E761
:105310000A460823202191E70A46082322218DE727
:105320000A4608234D2189E70A4608232C2185E7F0
:105330000A460823B02181E70A460823B6217DE703
:105340000B460C210091002270470A460823C12118
:1053500074E703230022CD2170E780B5FFF7F0FF4B
:10536000C421C9E738B5044601252078801F46D0FE
:10537000423848D018383ED0401E3CD0401E01284C
:1053800041D9801E2FD0401E33D0401E31D0801E08
:105390002FD0801E032836D9001F2AD0401E28D0C7
:1053A000401E26D0401E24D0401E02282BD9C01EED
:1053B00021D0401E23D0401E25D0C01E23D0801EE9
:1053C00021D015381FD0401E17D0C01E012884BF21
:1053D0003038062817D91B3815D0801E012812D95D
:1053E000093810D012E0606908B100F092FBE06962
:1053F00006E0E06804E0606902E0E06A00E0A068BE
:1054000008B100F086FBFFF77AFF00E00025284690
:1054100032BD0100DFF800F021CD0210DFF800F00E
:10542000B1BF0210DFF800F09DEB0210DFF800F0D2
:1054300025DB0210DFF800F0C5E20210DFF800F013
:10544000C3EC0210DFF800F0E7E90210DFF800F02B
:10545000BBEC0210DFF800F04DEA0210DFF800F0BC
:1054600045DF0210F8B542F20C74DFF810562E1921
:10547000307901281DD02846002101E040F8041BA6
:1054800042F210722A449042F8D3E82129600020A9
:1054900042F22462DFF8E8753060C5F8E82005F1D3
:1054A000E801796000F006F8B8607D60FC600120DA
:1054B0003071F1BDF8B500260027051D15F0030079
:1054C0001CBF291D0D1A00F025FB0146DFF8B02591
:1054D000112D34BF546894682068002803D580F0EB
:1054E000004000271AE03B0014D03368D4F800C015
:1054F0006344AB42336011D334461846ECB1401BD1
:10550000042811D3605145F000402060D3685D1B32
:10551000D56011E0A842F1D2012726460444206854
:105520000028DAD1002408E0D36820681B1AD36071
:10553000256845F000452560241D11600846F3E00C
:1055400038B5040019D0DFF8385500F0E3FA2860C8
:1055500054F8041C002903D42969491C29610BE073
:1055600021F0004144F8041CEA688918E960211F11
:105570006A68914238BF69607CE131BD2DE9F04134
:1055800000F0C8FADFF8F82493680024002500260C
:10559000002709E00E4601251C4604E011D581F0E4
:1055A0000041002547460B441968B046BE4238BF4B
:1055B000B8460029F2D1106000F0B7FA4046BDE8C5
:1055C000F081002DE6D0D4F800C08C44C4F800C0AF
:1055D0008E19E8E710B5044642F21070DFF8A01407
:1055E0002060CA686260FFF7C9FF09282CBF08382D
:1055F0000020A06010BD80B5FFF734FF4BF6BE2041
:1056000002BD084656E708469AE702B56846FFF726
:10561000E1FF01BD01207047F0B5DFF8684425784F
:105620002E460F2E0BDA1823DFF85C745E43BB198D
:10563000586000201D70D960986018745A616D1C04
:105640002570681EF0BD38B504460025200001D144
:10565000002032BD04F10C0000F05AFA28B10560B8
:10566000FF220481827200F10C05284632BD80B50C
:1056700008B9052002BD10F8021CFF2901D0042042
:1056800002BD0C3800F045FA002002BD2DE9F041C2
:105690000C00064602D10520BDE8F0810020DFF8AD
:1056A000E85300E0401CDFF8DC231378C1B29942D4
:1056B00017D2C7B218214F43EA5DB242F2D100F0CF
:1056C00029FA8046E8192146083000F0BFF84FF467
:1056D0000041304600F055F8404600F026FA002020
:1056E000DAE70320D8E7F8B505460E4600F012FACF
:1056F00000240021DFF8902300E0491CDFF88473C8
:105700003F78CBB2BB420FD2182717FB03F3D75C0D
:10571000AF42F2D1D1188C6801E054F80C4C002C47
:105720001CBF2178B142F8D100F0FFF92046F2BD4C
:105730002DE9F84380464FF000090026DFF8484382
:10574000DFF8405316E000F01CF812E01822504336
:10575000215C41450DD1271807F1080000F0ACF895
:105760008146B86800284FF40041F0B2EBD100F058
:1057700046F8761C2978F0B28842E7D34846BDE85F
:10578000F2832DE9F04781468A4603260025BD4C69
:1057900018E01821BC48694347183A784A450FD1A8
:1057A00000F0B8F98046786901684AEA01010160B1
:1057B000F86808B1FFF72EFE404600F0B6F9002663
:1057C0006D1CEDB220788542E3DB3046BDE8F08702
:1057D00070B504460025AB4E0DE01821AA48694378
:1057E00008444268A24204D1C0684FF0FF31FFF77D
:1057F00015FE6D1CEDB230788542EEDB70BD2DE9F3
:10580000F04180460C4600279E4E04E02878404533
:1058100010D07F1CFFB23078874215DA18229A49DF
:105820007A438D18B8F1FF0FF0D1FFF703FD6968D7
:105830008142EED100F06EF969690A6822EA040437
:105840000C60BDE8F04170E1BDE8F08138B5054677
:105850000C4600F05FF96CB1002144F80C1C2A687A
:1058600012B92C6006E00A4652F80C1C0029FAD145
:1058700042F80C4CBDE8324057E12DE9F8430446AC
:105880000D46904600F046F9814620680027002624
:1058900028B100E07F1C50F80C0C0028FAD14745D5
:1058A00004D229462046FFF7D1FF0126484600F0E2
:1058B0003CF93046BDE8F28338B5044600F02AF9D9
:1058C0002168002541B10D46A5F10C0100230A68AD
:1058D0002260FF240B608C7200F027F9284632BD4D
:1058E000F8B507460E4600F015F900240025002102
:1058F000654A00E0491C634B1B7899421BDA182368
:105900004B4312F803E0BE45F4D1D1188C6801E096
:10591000254614467CB1237854F80C2CB342F7D1B9
:10592000002D0CBF8A6045F80C2C0021FF2244F8A2
:105930000C1C04F8022CF7E638B504460D4600F0BE
:10594000E9F8216845F80C1C256093E770B504461A
:105950000D46164600F0DEF8A5F10C0123680A6832
:105960009D420CBF226046F80C2C0022FF230A60E7
:105970008B72BDE87040D8E0F8B5424C424A657879
:105980000026002311E018275F4302EB070CD75DC8
:10599000874204D10F0018BF01278CF810709CF8C3
:1059A00010703E4318BF01265B1C2778BB42EADB20
:1059B00002F037F90746300009D1012D28460FD1F2
:1059C00002F0D3FA022002F0D0FA002508E0280005
:1059D00006D1012002F034FB022002F031FB012548
:1059E000384602F045F965703046F2BD01468868D8
:1059F000496808472DE9F84189B080460F461646A8
:105A00001D0008BF022035D02C68F4B90C20FFF728
:105A100051FD040015D00823242200216846FFF719
:105A200001FD00200590ADF81000069400236A46A1
:105A300041461648FFF7FAFC20606760A6602068C0
:105A400008B9082016E02C600CE000F063F8054669
:105A5000206802F029FE10B12068FFF7EBFC284611
:105A600000F063F820684146FFF7E8FC2068FFF784
:105A7000E9FC00200AB0BDE8F0810000F43000200D
:105A8000708B00201C01002084740020ED59000060
:105A900070B505001CBF2C68002C01D0206808B927
:105AA000022070BD00F036F80646206802F0FCFDCA
:105AB00010B12068FFF7BEFC2046FFF7C7FC204668
:105AC00000F027F800202860304600F02EF8002073
:105AD00070BD20B10068002818BFFFF7ABBC70474D
:105AE00010B513465A1E3BB110F8013B11F8014B9B
:105AF000A342F6D0002010BD012010BD03E011F834
:105B0000013B00F8013B13465A1E002BF7D17047AA
:105B1000D0E415E580B5FFF79DFCADF8000002F07C
:105B200080F8ADF80200009802BD01B5BDF8020092
:105B300002F09EF8BDF80000BDE80240FFF78EBC01
:105B400080B5022100F002F880B202BD012901D126
:105B500000787047022904D10178407801EB0020D9
:105B60007047032907D102784378807802EB03213C
:105B700001EB0040704704290AD10278437802EB18
:105B800003218278C07801EB024101EB006070478D
:105B90004FF0FE30704701700A0A0B0C090E42707C
:105BA0008370C170001D704710B540B1002300E044
:105BB0005B1CDCB2944204D2045D8C42F8D000201D
:105BC00010BD012010BD80B502F09AFD80B202BD6B
:105BD00062F30F2262F31F42401810F0030308D053
:105BE000C91A1FD3DB0748BF00F8012D28BF20F8D2
:105BF000022D130030B414461546103928BF20E991
:105C00003C00FAD8490728BF20E90C0048BF40F8FB
:105C1000042D890028BF20F8022D48BF00F8012D6F
:105C200030BC7047C91818BF00F8012DCB0728BF3A
:105C300000F8012D70470A00002202F08DBD0A0015
:105C4000DFF800F0699C031038B50446FFF762FFE7
:105C5000054651480178220008D10A0710D441F0C6
:105C600008010170022002F0EBF909E0012C07D1D4
:105C70000A0705D501F0F7010170022002F075F95D
:105C80002846BDE83240FFF750BFE0B56846FFF751
:105C9000A1FC0198B0F5803F28BF4FF6FF7080B29D
:105CA0000EBD80B501281DD13B4801780A0702D5F9
:105CB0004FF0FF3002BD394A106808B1880611D58F
:105CC000012002F0B8FF02F07BF8C00744BF0120BA
:105CD00002F04BF932490120C1F8340100210020C3
:105CE00002F015FA002002BD80B503F010FC08B1E7
:105CF00004F0ABFA012000F091FE012002BD80B556
:105D000004F01BFFBDE80240002000F087BE2549DB
:105D1000087820B100220A70081D05F011BA7047FA
:105D200010B502F04DF810F0060F03D0FFF788FF12
:105D3000002010BD1B4C201D05F004FA2070201D12
:105D400005F007FA012010BD38B5174D124C2A682E
:105D5000217878B941F0300121701046002105F01A
:105D6000FEF928684FF0FF31FFF758FB207800F06C
:105D7000CF000FE041F0100121704FF47A710B4B0E
:105D80001D684843B0FBF5F11046FFF747FB20784C
:105D900000F0EF00207031BDED8F00201C8E002040
:105DA000042F00202488002098280020601600007E
:105DB00038B504460D4601F0BBFC29462046BDE837
:105DC0003440FFF71CBDE8030022FFF705BF2000A9
:105DD000DFF800F0E5EB0210DFF800F0C1DD0210A3
:105DE000DFF800F001CE02102DE9F04F9FB0012145
:105DF000FEF7F9F9DFF84C2BDFF84C1BDFF84C5BB2
:105E0000049200200190009000234FF47A72DFF892
:105E1000040C05F06DF90499086008232422002180
:105E200016A8FFF7D5FF00208DF8700016AA0021F4
:105E300005F12C00FFF7D0FF05F12C00A862FFF759
:105E4000F9F9A96A05F11402FFF7E6FB687305F199
:105E5000180200F0CDFBDFF8E41B087005F11C020E
:105E600000F0C6FBA8730020E873287405F021FC3D
:105E7000DFF8200B90F8260004281ABF082800201D
:105E80000420DFF8146BDFF8148B7178DFF8104B07
:105E900001F0FB01084300F0F7007070B8F83670AD
:105EA000307800F0FC00F9B240EA9110307005F053
:105EB00053FC687C00281FBF00216974607EFF28A6
:105EC00004D001220121012005F0E4FCDFF8489B09
:105ED0000020A9F80000ADF806000DF1060300F05F
:105EE00031FC80B90DF1060000900223002201214F
:105EF000102001F0E3FD30B9BDF80610B8F8290014
:105F00000140A9F80010F807DFF8341B029138D4DB
:105F100000218DF8041001AB01220321102001F0B3
:105F200068FD70BB01A8009001230022032110200E
:105F300001F0C4FD28BB9DF80400DFF8087B401C7D
:105F40008DF804009DF8040004280EDB002000F00A
:105F500053FB00F0BFFF687B6422202101F0E4FBCB
:105F6000388840F002003880C3E100F045FB687BD0
:105F700041F27072202101F0D7FB388840F0010017
:105F80003880DFF8C41A087810B1012005F007FC4A
:105F9000002005F0D3FF06F02FF90020288128808B
:105FA0004FF6FF7906F0B8FA04228DF82520012279
:105FB000DFF8981A07918DF824208DF820208DF8AD
:105FC00026208DF818208DF828208DF82A20002111
:105FD0000746059103228DF829108DF82720ADF88A
:105FE000229005A9687BFFF7A7F906F03CF9ADF808
:105FF000040006F058F9DFF8C41C087808B900F06E
:10600000ABFE687B342107F01BFB687B002107F0A7
:1060100017FB0FF2D8520121012007F0D3FB4421D6
:1060200005A8FFF709FE01218DF852108DF85310D5
:106030008DF82C108DF82D108DF82A108DF82B105E
:106040008DF826108DF827108DF829108DF828105E
:106050008DF82E108DF82F108DF824108DF8251046
:1060600005A9687BFFF750F9DFF8E01C00200870F5
:10607000FF220821DFF8D809FFF7AAFDDFF8D419BD
:10608000DFF8D429DFF8D439002008804FF0FF3042
:1060900010601860DFF8C809A0F80090002009F02F
:1060A0005BF9607EFF2834D0DFF8B809DFF8B81953
:1060B000DFF8B8A9016001200AF032F9DFF8B00971
:1060C00090F80090494650460AF044FA4946504636
:1060D00009F0FFFB697BA86A002209F02DFCB4F8E7
:1060E000090008B9B8F86B00DFF88819DFF88829CB
:1060F0000880D4F80D001060B4F80B0018B998F8B7
:106100009C0100F07F00DFF874190880012009F07D
:1061100023F90FB106F086FCB8F85800DFF86049A3
:106120004FF47A7B0BFB00F020602346042205210C
:10613000102001F05EFC60B903A9039000910423D4
:1061400000220521102001F0B9FC10B10398206055
:1061500002E0234601F01EF905F040FB052005F0A2
:10616000A8FA0021DFF81C29C8B2105C002863D10E
:10617000491CCBB2102BF7DBDFF80C490AF02AFAE6
:1061800020460AF0F8FA0AF0DAFA5946B1FBF0F1C3
:10619000DFF8F808414320460AF0E9FAA87B401CE2
:1061A0008DF8000068460AF02FFBBDF804000121BD
:1061B0000AF04CFE0BF03DF908F5CE70DFF8F42B39
:1061C000C0781BFB00FB0100C2F800B018BF012023
:1061D0000299DFF8BC280870002010700BF0C5F998
:1061E00000F0B7FB0023DFF8682BDFF8680B09210C
:1061F00001F0A5FE029930780A7800F0BF0040EA6D
:106200008210307004206F7BFFF71DFA04000AD063
:106210000421FFF7D9FD942020700121E170384658
:106220002146FFF733FA012000F0F8FB0020FFF7CA
:106230000BFD00F0FBFD5CE0A96A05F1200200F017
:10624000D8F9E87305F1240200F0D2F9287493E735
:106250000BF0EFF9686990B1FFF75CFC6C69002105
:106260006961FFF762FC687B214600F013FC04467D
:10627000FFF750FC69690C436C61FFF756FCA96994
:1062800049B10020A861DFF8B4271078FEF76BF958
:10629000A9690843A861E96939B10020E861A87BD0
:1062A00000F060FDE9690843E861296A39B100201E
:1062B0002862E87B00F080FD296A08432862696A49
:1062C00039B100206862287C00F076FD696A0843D5
:1062D0006862307881060CD56869E969AA69084363
:1062E000296A1043084307BF686A0028A86AFFF7B5
:1062F00091F8A86ADFF8309B4FF0FF31FFF78EF876
:1063000000280AD1F5E7012000F088FB2046FFF7BE
:1063100029F810B92046FFF7AAF9687BDFF8E8AC46
:10632000FFF706FA040000F043812078D6280AD14E
:106330000BF0B0F9E078227900EB0223002198B24B
:106340000AF084FDE6E7D328DFF8107B2BD1E08943
:1063500034280FD10BF09EF9DFF8041B00200880D1
:10636000A9F800003870707800F0E30070700BF04E
:10637000CCF9CFE70028CDD1A07C0828CADB287B48
:10638000062818BF0728C5D1A169DFF81C0B0BF040
:106390001AFB0028BED0686940F400306861A86A22
:1063A000FFF738F8B6E79AF8000008B10BF041F9AA
:1063B0002278687B7178623A032A43F6982A0ED9CC
:1063C000121F12D02C3A00F08980921E25D0313A4B
:1063D00000F0CF80521F7AD0521E75D096E7880603
:1063E00094D550460BF0CDFC90E7A07A801DFFF7C6
:1063F0002AF907008AD0A079387021897980A07A9B
:106400003871A27AE168781DFFF778FB384609F009
:10641000E9FE3846FFF72BF978E7E0782873012882
:1064200010D101F0F30171703078C1060AD440F048
:106430001000307000F0BCFA20B1DFF85C1B0120C6
:1064400005F0F5FE95F90C10B9F80020012000FACE
:1064500001F10A4206D11143A9F8001000200121E0
:106460000BF0F9F80BF051F9287B01280DD0062824
:1064700010D0029A3178137801F0BF0141EA8311FC
:106480003170092818BF072804D0687B4021FFF726
:106490008FFC3BE7707841070FD440F00400707028
:1064A00050460BF089FD002038705046717841F05D
:1064B000200171700BF065FC03E041F288300BF0B5
:1064C0007BFD05F08BF921E7FEF743FF1EE7002176
:1064D0008DF800106946FEF738FF17E7608AADF8BF
:1064E0001600A08AADF81800A07B8DF82300208A42
:1064F000ADF8240020798DF8220002281CBF012865
:106500000F2808D0032809D10822A11D0DF11A0077
:10651000FFF7F4FA02E0E088ADF81A00E08AADF87F
:106520002600207E8DF82800607E8DF82900E07E10
:106530008DF82A00207F8DF82B00607F8DF82C00CD
:10654000A07E8DF82D00206A0C9004F124000178C3
:106550008DF834104188ADF8401001798DF8421063
:10656000C188ADF8381080680F9005A807F05BFD72
:10657000CCE6207988B1012815D00528F8D1E1783A
:106580000D29F5D0049800684FF47A7104F0E3FD0A
:10659000DFF8800404F0D4FDB8E6012000F03EFAF4
:1065A00000F044FCB2E6E07800287FF4ACAEF7E7F8
:1065B00009F032FD9AF8000000280ED0DFF8302BE9
:1065C000DFF888371078197841B1002805D101200B
:1065D00010700BF02EF80BF023F83BE6002803D0E8
:1065E000002010700BF008F832E6000000000004F4
:1065F000A96A0020FFF710B880B58DF800006B463F
:1066000001220321102001F037FA01BD70B58AB0D4
:10661000002400BF45A20094D2E9005604A90DF160
:106620000203C1E9005600F08DF800287BD00DF17F
:10663000020302220121102001F01EFA6A46022103
:10664000832001F0FDF988B96B46022200218320E6
:1066500001F072FADFF89C2ABDF800101088884219
:1066600004D00221832001F024FA012402AA082187
:106670002D2001F0E5F988B902AB082200212D2078
:1066800001F05AFA082202A904A80BF095FE28B1DD
:1066900004AA08212D2001F00CFA641CDFF8585AD6
:1066A000DFF8A81329600020019001AA04218420AA
:1066B00001F0C6F980B901AB04220021842001F069
:1066C0003BFA28680199884206D0019001AA04216A
:1066D000842001F0EEF9641C200020D00DF1180098
:1066E00014A1102201F038F9AC4890F85A1006AD08
:1066F000102908BF00F15B05622001F0BAF90146DC
:106700002A46622001F0D5F90020ADF80000632090
:1067100001F0AFF901466A46632001F0CAF98B49DE
:106720000120487420460AB070BD0000FFFFFFFF43
:10673000FFFFFFFF01030507090B0D0F0002040611
:10674000080A0C0D02220121102001F052B97047F5
:106750002DE9FC47DFF8A419DFF8A4290D78DFF84C
:10676000A419DFF8A499002046F2020349F820306A
:1067700041F82020401CC0B28542F7DA00218DF894
:106780000010684605F037FE002800F0D8804FF46E
:106790008040002701904FF4005ADFF80082DFF8B4
:1067A0006C09B849C45DCE5D08EB070208EB07032E
:1067B000507A03F13801002814BF0A78002202F051
:1067C0000303920500F03F0C654510DB002818BF5D
:1067D000A0420CD0120E0AD1022B08BF504604D0A2
:1067E000012B0CBF01984FF4C04049F82C0008EB76
:1067F0000700407E002814BF0A7C002202F003013B
:10680000920500F03F039D4212DB002818BFA04212
:106810000ED0120E0CD1022908BF4FF0202005D057
:1068200001290CBFDFF8400BDFF8400B49F82300CB
:10683000002C46D004F03F04A54242DB012E18BFD5
:10684000022E04D00E2E1CBF342E0F2E02D1DFF8E4
:106850001C0B34E03146F8B20BF042FE98B93146D9
:10686000F8B20BF01BFE70B90A2E03D0062E0CD026
:106870000D2E16D14FF48060DFF8F41AC95D02299D
:1068800006D1514609E0062EF4D14FF40060F3E73B
:1068900001290CBF01994FF4C041084340F40000A6
:1068A0000DE0DFF8CC0AC05D022808BFDFF8C40A9B
:1068B00005D001280CBFDFF8C80BDFF8C80B49F87A
:1068C00024007F1C0F2F7FF76AAF354B597EFF29BD
:1068D00035D0987DDFF8B02BDFF8B04BDFF8B05B38
:1068E00000F03F00107001F03F01DA7D02F03F023E
:1068F00022701B7EDFF89C4B03F03F03237029704E
:10690000DFF8944BDFF8945B2184E561247EDFF8A7
:10691000F45B05EB8414FF2504F8380F6270A37054
:10692000E570DFF8E44B49F82240DFF8E02B49F846
:10693000202049F82320DFF8D80B49F82100BDE8D2
:10694000F3870000248E0020036A000070280020D6
:10695000704730B599B068466421FFF76DF9384942
:10696000087801248DF8084090B100214FF40050C0
:106970000CF09BFADFF83C44DFF8985B2168039148
:10698000012200F00FF821680391022200F00AF8BA
:1069900019B030BDE48000200E8E002020220000BF
:1069A00008270000ADF810206946687BFEF7A0BC00
:1069B0007CB50020072100220023DFF85C5BEE5C41
:1069C0000DF803605B1C082BF9DBDFF8505B00233C
:1069D000EE5C9219401C0FE000206EBDC6B2032E83
:1069E000F6D1E85CD2B24240C8B21DF80060B242B3
:1069F000F2D100220020491E5B1C202BEED3012087
:106A00006EBDDFF8B00C416941F400314161806A2C
:106A1000FEF700BD28880020B88F002080B5002830
:106A200019BF02218DF8001000228DF80020DFF838
:106A3000840C407B6946FEF77BFC01BDB8890020D1
:106A4000418D0020BA8F00200C8E002000F8FF0737
:106A500004290020BC8F00200C29002010290020D0
:106A6000AA3000204029002000840C24582800006F
