:020000040000FA
:060000000219DD020CFEF6
:03002B0002178831
:03003300020EB802
:03004B000214C3D9
:03005300020C3369
:03005B0002150289
:0300630002152360
:03006B00020E5E24
:03007B00020E8FE3
:10008300020C920139B11DB71DBD1DC31DC91DCF82
:100093001DD51DDB1DE11DE71DF31D000000000044
:1000A3000000000000ED1DF91DFF1D0020FD0039BB
:1000B3000502010A08000000015324652400006BB7
:1000C3002471240000000077248F2495249B2400AE
:1000D30000000000000000060004140004FF1806DE
:1000E30012FFFFFFFFFFFFFF0000FFFF37220000AB
:1000F300FFFF3D220000FFFF8B220000FFFF552280
:100103000000FFFF5B220000FFFF61220000FFFFF2
:1001130067220000FFFF6D220000FFFF792200002D
:10012300FFFF7F220000FFFF85220000FFFFA322C5
:100133000000FFFFA9220000FFFF97220000FFFF3E
:100143009D220000FFFF91220000FFFFBB22000061
:10015300FFFFC1220000FFFFC7220000FFFFCD22E7
:100163000000FFFFD3220000FFFFD9220000FFFFA2
:10017300DF220000FFFFE5220000FFFFEB2200006B
:10018300FFFFF1220000FFFF49220000FFFF4F2283
:100193000000FFFFF7220000FFFF43220000FFFFE4
:1001A3000F230000FFFF03230000FFFF15230000C0
:1001B300FFFF21230000FFFF2D230000FFFF332358
:1001C3000000FFFF1B230000FFFF09230000FFFFC8
:1001D30027230000FFFF73220000FFFF39230000E5
:1001E300FFFF3F230000FFFF51230000FFFF5723C2
:1001F3000000FFFF5D230000FFFF63230000FFFFFC
:1002030069230000FFFF45230000FFFF6F23000069
:10021300FFFF75230000FFFF7B230000FFFFB522D4
:100223000000FFFF4B230000FFFFFD220000FFFF44
:10023300AF220000FFFF81230000FFFF87230000A0
:10024300FFFF8D230000FFFF93230000FFFF99238F
:100253000000FFFF9F230000FFFFA5230000FFFF17
:10026300AB230000FFFFB1230000FFFFB723010111
:100273000104004419000000E8030000FFFF98197F
:10028300E803000064006400B801A0BB0D00A0BB3C
:100293000D00020200F8FF0705021E0401051E02FD
:1002A300051E020A0A0101080803102702803E0105
:1002B30002FEFFE8030A050001FFFF020A1401E042
:1002C3000100B0423BAAB83F0000003F8C90633965
:1002D300AA0CA33A00941E3C8042633DCFFE753EB8
:1002E3001572313F8096184BF304353F1872313F36
:1002F3002292D43EDD9B2A3F04000040FFFF7F7F14
:10030300FFFF7FFF0100803405030101FFA64600C4
:100313000000003E4600000000FF000000FF00C098
:1003230082C0831204124004780080031204CAE8D6
:10033300F4FCEB600814601214601C802BEA600567
:10034300E842808023EC5280801EEA6005E84290F8
:100353008016EC52908011E8C39420500BEA60059C
:10036300E842A08003EC52A002040DC082C08312B5
:1003730004124004780080031204CAE8F4FCE87015
:100383000302040DEB600814602C146050807BECB6
:1003930052F374016A601274026A601574046A701D
:1003A30003E8428FE842FD806153F7DFEC528F8010
:1003B300F343F72080F6EC52F474016A601274027E
:1003C3006A601574046A7003E842F6E842FE803AF4
:1003D30053F7BFEC52F680F343F74080F6E8C3943B
:1003E300205027EC52F574016A601274026A60159A
:1003F30074046A7003E842F7E842FF800D53F77F05
:10040300EC52F780F343F78080F6D083D08222E961
:10041300C4540F5403FB743F59C394302274F8122D
:1004230010B4E9C4540F5403FE743F59C3943040CD
:1004330004780080031204CAE8F4FBE86077EE60F6
:100443000814602B14604E806CEB52F352FD740160
:100453006A600F74026A600F74046A7058E8428F0E
:10046300805353F7DF800343F720EB528F8046EB33
:1004730052F452FE74016A600F74026A600F7404CE
:100483006A7032E842F6802D53F7BF800343F7408A
:10049300EB52F68020E8C39420501AEB44E0FB5261
:1004A300F552FF74016A601274026A601574046A7B
:1004B3007003E842F77F0102144453F77FEB52F7CE
:1004C30080F343F78080F6E95407FC74762CF582B9
:1004D300E43488F583E0F822C082C083120412401A
:1004E30004780080031204CAE8F4FCE8603FEB6080
:1004F300081460151460228034EA6005E8428080A5
:1005030003EC5280E842FD8024EA6005E8429080D3
:1005130003EC5290E842FE8014E8C39420500EEAA4
:100523006005E842A08003EC52A0E842FF02040DFC
:10053300743F59C394305042E9C4540F54036007C5
:10054300146013146020227801E8F4FBEA60241499
:10055300601814601922740F59C39404500478026C
:1005630080E7780480E3780880DFE8428C22E58C1A
:10057300586004EB528C22E8428C2274F51210B4BA
:1005830074FA1217EB9081C0E0A2E04003020684E4
:100593009081D0121A817402121A98121A69900863
:1005A30070E4F0A3F0908029E0FEA3E0FFEE4F603B
:1005B30052851882851983E4F0A3F0A818A9198835
:1005C3000889097808121726750802750900780842
:1005D3001217267C007D007A017B041228797404AB
:1005E300121703E97015851882851983E05EF8A355
:1005F300E05FF9900870E8F0A3E9F074021217C302
:1006030012260F7402121A987808121A29E508FAAA
:100613007402121A987808121A29E509FB74021257
:100623001A987808121A29741078081217A2E50884
:10063300541FFC9081C4E0F5FDA3E0F5FEA3E0F5B3
:10064300FF9081CCE0F58FA3E0F5F6A3E0541FF50E
:10065300F77900E9FE74C82EF582E43481F583E06E
:10066300601275080175090074052E78081218F4D4
:10067300E50842F709E9C3940340D88A808B908C3C
:10068300A074061217037F040214441219FC604677
:100693001219ED603DE9687008F618F618F618F6B9
:1006A30022748067F71206C2090909748067F7226A
:1006B3001219ED601D1219FC7005191919801A120F
:1006C300187E701F121892C37003E6673319191945
:1006D30040071818182208080874FFF618F618F6C9
:1006E30018F6221218926017121AA2702192F012B1
:1006F3001AAB7019501720F014080808090909E704
:10070300F61819E7F61819E7F61819E7F622121A78
:10071300AB60E6E869701F0808E62480F608E43653
:10072300F618547FB47F0CE654806007F6E418F69D
:1007330018F622181822E9C6CC08C6CD08C6CE087A
:10074300C6CFC0E0E8C0E0EAC0E0EBC0E009E9F8EA
:1007530009E7FA09E7FBE6F918E6F8C3EC98ED991F
:10076300EE9AEBC2E7F5F0EFC2E795F0500E600C9E
:10077300EBCFFBEACEFAE9CDF9E8CCF8EAA2E7D26F
:10078300E7FAEB33FB13F5F0EEA2E7D2E7FEEF3324
:10079300FFC5F013A2E730E601B313C5F0C3C0E011
:1007A300C0F07F00C39BFB605E9418600F401D1474
:1007B300601AD0E023F9D0E0F80208948AF0E948FF
:1007C3006003D2F0E4AFF0FAF9F8803BEB30E40DCC
:1007D30089F0EA6003D2F0E4AFF0F9CAF8EB30E352
:1007E3000D88F0EF6002D2F0AFF0E4CAC9F8EB5421
:1007F300076014FBC3EA13FAE913F9E813F8EF13DC
:100803005002D2E0FFDBEDD0E0C0E030E739C3E4D3
:100813009FFFF5F0EC98FC42F0ED99FD42F0EE9A63
:10082300FE42F0D0E0F9D0E0F8E5F0607AE923F990
:10083300EE20E742D8028067C3EF33FFEC33FCEDD1
:1008430033FDEE33FE80EAEC28FCED39FDEE3AFE93
:10085300D0E023F9D0E0F84002801BC3EE13FEED95
:1008630013FDEC13FCEF135002D2E0FF08B80006AF
:100873007F7F74FF802EEF3350178CF020F00260DF
:10088300100CBC000C0DBD00080EBE000408E8608F
:10089300DFE933E813FFEE2313FE4F4D4C8008E9E5
:1008A3005480FFE4FEFDFCEE33EF33F47004FCFDF3
:1008B3007E80D0E0FBD0E0FAD0E0F8D0E0CFC618DD
:1008C300CEC618CDC618CCC6F9221219ED7004187D
:1008D3001818221219FC700D74FFF61819F618195E
:1008E300F61819F622E7548066F6121AAB700F1247
:1008F3001AA270F014F608F608F608F680D1121A58
:10090300A2700CF608F608768008E6447F80EC12A5
:100913001895700C12188160BFE65480F6E480BB12
:10092300121881700519191980A5E869700C763FB2
:1009330018768018F618F6E8F922E6CDC0E018EC30
:10094300C0E0E633CD33CDD313F6E719FCE719192D
:1009530033CC33C3947F400ECD9D502408E654809E
:10096300F6E418F6800FF4043D14501408E6447FAF
:10097300F6187680E418F618F6D0E0FCD0E0FD22F5
:10098300CCD313CCFD18E4C6CBC0E018E4C6CAC070
:10099300E00808ED08C633E613F618E433C675F02D
:1009A30003C3CA97CA09CB97CB199C40047D08801F
:1009B3002EBD0003020A7616B6FF050606081618B2
:1009C300C3CA33CACB33CB33CA27CA09CB37CB19F4
:1009D3003CC37D08803E187D0820E75CC633C6CA49
:1009E30033CACB33CB33DDF1D5F0EB30E77BCA979A
:1009F300CA09CB974ACB199C406F4B7025E620E080
:100A0300218066187D08C3CA97CA09CB97CB199C66
:100A1300D3C633C6CA33CACB33CB3350C9DDE7D5CC
:100A2300F0E1D3E4C636C608C636C608C636C608DD
:100A3300C636C61818188031C3CA97CA09CB97CBD4
:100A4300199CB34097C633C6CA33CACB33CB33DD05
:100A530034D5F02EC6A2E0C640C8CA27CA09CB3790
:100A6300194A70BECB3CB480B90808E63308E633B4
:100A7300601F181818D0E0FAD0E0FBD0E0FCD0E0FB
:100A8300FD22187D08CA27CA09CB37CB193CD3806E
:100A93008013F618E4B67F11F618B6FF0EF618C6E3
:100AA3000470D20808768080CAF618F618F680C556
:100AB300001219ED604F1219FC6012E7548066F6BC
:100AC30012187E7011121AA2703B090909F4F61864
:100AD300F618F618F6221218927015121AAB0808B7
:100AE3000860EAE6447FF618768018E4F618F622E2
:100AF300121AAB6016121AA27012E4F608F608F680
:100B030008E65480F609090918181822EAC0E0EB30
:100B1300C0E0ECC0E0EDC0E0E687F0A4FBACF00879
:100B2300E687F0A42CFCE435F0FA1809E687F0A474
:100B33002C4B60027401CA35F0FCE433FB09E687F1
:100B4300F0D2F7A42CCB35F0FC1908E687F0A42BE0
:100B5300CC35F0FBE433FD0819E687F0D2E7A42C8B
:100B63004ACB35F0CD3400FC09E687F0D2E7A42D5B
:100B7300CC35F0FDE433FA0918E687F0D2F7A42C5C
:100B8300CD35F0CA3400FC08E687F0D2E7D2F7A4EB
:100B93002ACC35F07A7E20E70B0ACB33CBCD33CD8D
:100BA300CC33CC33CB3350147004ED30E00ED2F1A0
:100BB300E4CD3DCDCC3CCC3B5005DA05C2F1EB5442
:100BC3007FC63308E63392F0FBE73309E733C39A72
:100BD300502D2B70190C0D4C4D70151806E608C3DB
:100BE30033700D20F10AA2F013F6E418800B4024B1
:100BF300E4F630F002768018F618F618F68024D35F
:100C03003B14501074FFA2F013F6187680E418F624
:100C130018F6800FA2F013F618E63303F618ECF675
:100C230018EDF6D0E0FDD0E0FCD0E0FBD0E0FA22F6
:100C3300C0E074F112111AA2AFE433F509D2AF8503
:100C4300A708AFA1EF5508FE74105E6006121FD906
:100C530075A1EF74085E6008121FDF75A1F7802489
:100C6300EFA2E092F0E508A2E082F05017906198BD
:100C7300E0F8900778E0C398A2D265D0335002E839
:100C8300F075A1FEE509A2E092AF7F02021179C0DF
:100C9300E074F212111AA2AFE433FED2AF9061A452
:100CA300E0F8759B00E59158540860087591F712B8
:100CB30020278023E59158541060087591EF122086
:100CC3002D8014E591A2E092F0E8A2E082F05007B3
:100CD300E0C2E0F01221899061A3E0F8E5E95854FD
:100CE30004600E12215F75E9FB906193E0A2E64078
:100CF300F2EEA2E092AF7F01021179C0E074F2122A
:100D0300111AA2AFE433FED2AF9061A5E0F8E5BFBC
:100D1300585404600675BFFB1221A180D4120D75CF
:100D230030F043120DBA803E8A088B098C0A8D0B72
:100D33007808120D7520F01430E72B74FFFCFBFAD2
:100D4300747F8022E4FCFBFA7480801AB48008BCB0
:100D530000F2BB00EF800F50EBF9E4C39AFAE49B77
:100D6300FBE49CFCE499C6CC18C6CB18C6CA18C6CB
:100D7300F922E4C9C608CAC608CBC6D3330308CCD4
:100D8300C63392F0C3947F402E94184019C9B90713
:100D930004CACBCC225025C309CA33CACB33CBCC2C
:100DA30033CC33D9F422F4600DC9CCC313CB13CBAA
:100DB300CA13CAD9F6CC22E4FCFBFA2214FCFBFAD0
:100DC30022C3E498F8E499F9120E058026C3E49A45
:100DD300FAE49BFBE920E7E9120E05E498F8E499AD
:100DE300F922C3E498F8E499F9120E05E498F8E4BB
:100DF30099F9C3E49AFAE49BFB22EB20E7CFE920BD
:100E0300E7E0B90010BB0008E88AF084F8AAF022F2
:100E1300E4FBC8FA22EB70227B10C833C8C933C97C
:100E2300335007C39AC3DBF280069A50012ADBEAE8
:100E3300C833F4C8C933F4C9FA2275F008E4C833D7
:100E4300C8C933C933C99AC99B5004C92AC93BD5F8
:100E5300F0ECFBC833F4C8E4C9FA22C0E074F21220
:100E6300111AA2AFE433FED2AF900A08E0558960AD
:100E73000FE589FA79001225AF900A08E0F4528948
:100E8300C2C5EEA2E092AF7F01021179C0E074F215
:100E930012111AA2AFE433FED2AF900A09E0558AC9
:100EA300600FE58AFA79011225AF900A09E0F4523E
:100EB3008AC2EB80CDC0E074F212111AA2AFE43300
:100EC300FED2AF900A0AE0558B600FE58BFA7902E8
:100ED3001225AF900A0AE0F4528BC2E880A40808F6
:100EE30008EAC0E0EBC0E086F0E7A4FA180986F050
:100EF300E7A42AFA180986F0E7A42AFA180986F063
:100F0300E7A42AFA1986F0E7A4FBE5F02AFA190800
:100F130086F0E7A42BFBE5F03AFA190886F0E7A47C
:100F23002BFBE5F03AFA18180986F0E7A4C5F02B75
:100F3300FBE43AFA1908E7C5F0C6A426F6E5F03B48
:100F4300FBE43AFA1886F0E7A4F6E5F00826F6E49F
:100F53003B08F6E43A08F6D0E0FBD0E0FA220808B2
:100F630008E630E71112186A120F79080808C64418
:100F730080C618181822181818E9799EC608CAC618
:100F830008CBC608CCC6C370207996CACBCC7019DF
:100F9300798ECBCC70137986CC700EF9802ACA3344
:100FA300CACB33CBCC33CC331930E7F2CCCBCA33F7
:100FB30050147004EA30E00DE4CA3ACACB3BCBCC00
:100FC3003CCC500209C3E913C6CC182313C6CB1873
:100FD300C6CA18C6F922E4CFC0E0E4CEC0E0E4CD2F
:100FE300C0E0E4CCC0E075F020E626F608E633F670
:100FF30008E633F608E633F6181818EC33FCED333D
:10100300FDEE33FEEF33FFC3EC9709ED9709EE973F
:1010130009EF97191919400FFFEC97FC09ED97FD9C
:1010230009EE97FE191906D5F0BFECF709EDF7099C
:10103300EEF709EFF7191919D0E0FCD0E0FDD0E085
:10104300FED0E0FF222518C582C0E0E51934FFC5B4
:1010530083C0E0E518C3958224F810AF088583198F
:101063008582188008858319858218D2AFCEF0A3B4
:10107300E520F0A37808E608F0A3DEFAEFF0A3E595
:101083008124FAF8E608F0A3E608F0A3E608F0A343
:101093000808E608F0A3E608F0A315811581D0E05F
:1010A300FED0E0F8158115811581E8C0E0EEC0E0BF
:1010B300222518C582C0E0E51934FFC583C0E0E5E9
:1010C30018C3958224F910AF088583198582188087
:1010D30008858319858218D2AFCEF0A3E520F0A34B
:1010E3007808E608F0A3DEFAEFF0A3E58124FBF825
:1010F300E608F0A3E608F0A30808E608F0A3E6086C
:10110300F0A315811581D0E0FED0E0F8158115819B
:10111300E8C0E0EEC0E022C0D02518C582C0E0E5FB
:101123001934FFC583C0E0E518C3958224F310AFDB
:10113300088583198582188008858319858218D2CA
:10114300AFC8F0A3E9F0A3EAF0A3EBF0A37908E7B3
:1011530009F0A3D8FAECF0A3EDF0A3EEF0A3EFF0BF
:10116300A3D0E0F0A3D0E0F0A3D0E0F0A3E520F01B
:10117300A3E5F0F0A322851983851882E0C0E0A3DC
:10118300E0F9A3E0FAA3E0FBA37808E0F608A3DF05
:10119300FAE0FCA3E0FDA3E0FEA3E0FFA3E0C0E0D0
:1011A300A3E0C0E0A3E0F5D0A3E0F520A3E0A3F51E
:1011B300F010AF0885831985821880088583198507
:1011C3008218D2AFD082D083D0E0F8D0E0321218A8
:1011D3006D181818120FD912198C1919192212190E
:1011E3008C191919080808E618181820E7E0120FD7
:1011F300D912186D18181822090909E719191920A5
:10120300E7DC080808E618181820E703020FD912CC
:10121300186D181818120FD912186D1818181219FA
:101223008C19191922121A8DB90003021267E4905E
:101233000371789779198002F0A3D8FCD9FA7A0759
:101243007B1C900086789D79038015E493A3AD827F
:10125300AE838A828B83F0A3AA82AB838D828E8333
:10126300D8E9D9E775828775839D74071216E575EA
:1012730082AF75833A74001216E5E4730475F010B7
:101283008E1A8F1B85821F85831E8518828519837D
:10129300E0CEA3E0CF851F82851E83EBC9EAC8EDAC
:1012A300CBECCAC3E833C8E933C9EA33CAEB33CB5F
:1012B300C3EA9EF51DEB9FF51CB35004AB1CAA1D9E
:1012C300EC33CCED33CDD5F0DAAE1AAF1B221219C5
:1012D300ED601C1219FC6017121AAB7007121AA2E8
:1012E3007001D322C0D0121AA27006D0D0B322C389
:1012F3002233D0D0501430E0F6C3E7960809E796BE
:101303000809E7960809E796B32220E0D5E697088F
:1013130009E6970809E6970809E697B322D083D030
:1013230082ECC0E0EDC0E0E493A3FCE493A3FDED05
:101333004C600D121484EC24FFFCED34FFFD80EFB0
:10134300E493A3FCE493A3FDED4C600D1215CAECEA
:1013530024FFFCED34FFFD80EFD0E0FDD0E0FCE4A2
:1013630093A3C0E0E493C0E0221219ED601B1219AD
:10137300FC6016121AAB7007121AA2600CB322C0DB
:10138300D0121AA27005D0D022C32233D0D050136A
:1013930030E0EBC3E7960809E7960809E7960809E2
:1013A300E7962220E0E4E6970809E6970809E6971E
:1013B3000809E69722851983851882E0A3FEE0A336
:1013C300F5207808E0A3F608DFFAE0A3FFE0A3C066
:1013D300E0E0A3C0E0E0A3C0E0E0A3C0E0E0A3C07E
:1013E300E010AF08858218858319800885821885E7
:1013F3008319D2AFD083D0820216EBD083D082E997
:10140300C0E0E493A3C386F0C5F095F0F908E49334
:10141300A386F0C5F095F0700BE493A3C399400540
:10142300E9048002A3E475F002A42582F582E5F0C5
:101433003583F583D0E0F9E493A3C0E0E493C0E0FF
:1014430022851983851882E0A3FEE0A3F52078089E
:10145300E0A3F608DFFAE0A3FFE0A3C0E0E0A3C047
:10146300E0E0A3C0E0E0A3C0E010AF0885821885E8
:1014730083198008858218858319D2AFD083D082DF
:1014830022C0E0C3E49396087401939618400FE4D6
:101493009366700808740193661870007019A3A30B
:1014A300C3E49396087401939618A3A3400DD0E068
:1014B300D0E0D0E002135CA3A3A3A3A3A3D0E022B4
:1014C300C0E0C0D0E8C0E0C008C009C00AC00BC07B
:1014D30082C083E5AFA2E55010908A127808121AF1
:1014E3002990075F7808121953C2C1D083D082D0E4
:1014F3000BD00AD009D008D0E0F8D0D0D0E032C069
:10150300E074F212111AC2D9901C67E0C39400A2CE
:10151300D265D0334005E0F91228DF7F010211794B
:10152300C0E074F212111AC2DC901C69E0F9C39492
:1015330000A2D265D03340031228DF80DE7404801A
:101543000474028000CCC0E0EDC0E0E518C39CCC7D
:10155300AD1950011D10AF068C188D1980068C181B
:101563008D19D2AF121667D0E0FDD0E0FC227402D1
:101573008000CCC0E0EDC0E0E518C39CCCAD1950B1
:10158300011D10AF068C188D1980068C188D19D289
:10159300AF121645D0E0FDD0E0FC221219ED602514
:1015A3001219FC6020121AAB7003021AA208080871
:1015B300E76670101819E766700A1819E766700471
:1015C3001819E76622F422C0E0C0F088F0E49366BD
:1015D30070080874019366187000A8F0A3A3700B39
:1015E300D0F0D0E0D0E0D0E002135CA3A3D0F0D0E1
:1015F300E022D083D082CCC0E0E493A3600612162D
:10160300A71470FAE493A360061218011470FAD0B9
:10161300E0FCE493A3C0E0E493C0E022C008C3E08D
:1016230096F50808A3E096420808A3E09642080846
:10163300A3E0964208A2D265D033E5087001D3D067
:101643000822CAC0E0E493A3C582CCC582C583CD7A
:10165300C583F0A3C582CCC582C583CDC583DAE536
:10166300D0E0CA22CAC0E0E0A3C582CCC582C5834C
:10167300CDC583F0A3C582CCC582C583CDC583DA2E
:10168300E6D0E0CA22700908080822601618181864
:10169300C6C333C608C633C608C633C608C633C670
:1016A300D5E0EA22C0E0E493A3D39C5010E493A3D3
:1016B300C39C400AD0E0D0E0D0E0021612A3A3A35B
:1016C300D0E022C008C3E096F50808A3E0964208DC
:1016D30008A3E096420808A3E09645087001D3D01A
:1016E3000822C09FF59FE473D09F22D083D082C08D
:1016F3009FE493C0E0740193C0E0740293F59F22CA
:1017030000C0D0251810AF08F518500C0519800833
:10171300F51850020519D2AFD0D0227404800A7490
:10172300038006740280027401C0E0F404121739C6
:10173300D0E0121A38222518F58210AF08F51840A8
:101743000C15198008F51840021519D2AF851983B5
:1017530022BB0102E722C082C08389828A83BB0045
:1017630003E08002E493D083D08222601708080844
:10177300C6A2E713C618C613C618C613C618C613DF
:10178300C6D5E0E922C0E0C0D0E8C0E0A8A8D2AF47
:10179300C2C7E8A2E792AFD0E0F8D0D0D0E0326081
:1017A30016080808C6C313C618C613C618C613C638
:1017B30018C613C6D5E0EA222518F8E43519F9222C
:1017C3002518FAE43519FB222518FCE43519FD2206
:1017D300C3E0C696F608A3E0C696F608A3E0C6964D
:1017E300F608A3E0C696F622251810AF08F51840B0
:1017F3000C15198008F51840021519D2AF22C0E064
:10180300E493A36C7009D0E0D0E0D0E0021612A3F9
:10181300A3D0E022E76670100809E766700A08099A
:10182300E76670040809E76622C3E09608A3E0961A
:1018330008A3E09608A3E096A2D265D03322E0661F
:10184300701008A3E066700A08A3E066700408A39A
:10185300E06622C3E096F008A3E096F008A3E096C2
:10186300F008A3E096F022181818E4C396F608E4EB
:1018730096F608E496F608E496F622181818E60891
:1018830046087009E626087005E633F42208221993
:101893001919E70947097009E727097005E733F4C0
:1018A300220922C3E4939608740193960874029361
:1018B30096087403939622C3E697F60809E697F60B
:1018C3000809E697F60809E697F622E026F608A344
:1018D300E036F608A3E036F608A3E036F622E6275C
:1018E300F60809E637F60809E637F60809E637F693
:1018F30022700422600D18C6C333C608C633C6D58A
:10190300E0F41822E056F008A3E056F008A3E056EE
:10191300F008A3E056F022E056F608A3E056F608D6
:10192300A3E056F608A3E056F622E647F60809E6D2
:1019330047F60809E647F60809E647F622E657F6AA
:101943000809E657F60809E657F60809E657F622A6
:10195300E026F008A3E036F008A3E036F008A3E0A1
:1019630036F022E046F008A3E046F008A3E046F094
:1019730008A3E046F022E493F608740193F6087492
:101983000293F608740393F622E4C397F709E497E6
:10199300F709E497F709E497F722600D08C6A2E771
:1019A30013C618C613C6D5E0F322C6F4C608C6F498
:1019B300C608C6F4C608C6F4C622C3E09608A3E068
:1019C3009608A3E09608A3E09622C3E7960809E7E2
:1019D300960809E7960809E7962275D00075813FB6
:1019E30075187175190300021228E6084608C31317
:1019F3004608336002E633F422E7094709C3134775
:101A030009336002E733F422600C08C6C313C61817
:101A1300C613C6D5E0F422E6F008A3E6F008A3E671
:101A2300F008A3E6F022E0F608A3E0F608A3E0F648
:101A330008A3E0F622CAC0E0E6F0A308DAFAD0E091
:101A4300FA22E0FCA3E0FDA3E0FEA3E0FF22EAF01C
:101A5300A3EBF0A3ECF0A3EDF022E0FAA3E0FBA3E9
:101A6300E0FCA3E0FD22E8F0A3E9F0A3EAF0A3EB96
:101A7300F022ECF0A3EDF0A3EEF0A3EFF022E0F8F8
:101A8300A3E0F9A3E0FAA3E0FB22E5C754F844017D
:101A9300F5C77901222518F582E43519F58322E784
:101AA3002719471947194722E626184618461846A4
:101AB30022C2AF75D69F020000221216EEE0C802C2
:101AC3001216EEEAC8021216EEF4C8021216EEFE61
:101AD300C8021216EE08C9021216EE12C902121635
:101AE300EE19C9021216EE20C9021216EE27C90218
:101AF3001216EE2EC9021216EE35C9021216EE3C6C
:101B0300C9021216EE43C9021216EE4AC902121690
:101B1300EE51C9021216EE58C9021216EE5FC9023F
:101B23001216EEBFC9021216EE1FCA021216EE7F7C
:101B3300CA021216EEDFCA021216EE3FCB021216CB
:101B4300EE9FCB021216EEFFCB021216EE5FCC0213
:101B53001216EEBFCC021216EE1FCD021216EE7F46
:101B6300CD021216EE53D0021216EE27D30212162E
:101B7300EEFBD5021216EEBDD8021216EE91DB0271
:101B83001216EE65DE021216EE39E1021216EE0DA2
:101B9300E4021216EEE1E6021216EEB5E90212169F
:101BA300EEE6E9021216EE17EA021216EE48EA0210
:101BB3001216EE79EA021216EEAAEA021216EEDB0A
:101BC300EA021216EE0CEB021216EE3DEB021216AF
:101BD300EE6EEB021216EE9FEB021216EED0EB0244
:101BE3001216EE90EE021216EEC1EE021216EEF887
:101BF300EE021216EE2FEF021216EE08F002121684
:101C0300EE20F0021216EE38F0021216EE3BF0024E
:101C13001216EE7FF0021216EE82F0021216EEB7E3
:101C2300F0021216EEBEF0021216EEF0F2021216D7
:101C3300EEFAF2021216EE1BF3021216EE09F4028A
:101C43001216EE2AF4021216EE34F4021216EE43C2
:101C5300F4021216EE74F5021216EE27FA021216A9
:101C6300EE97FA021216EEBFFB021216EECFFB023C
:101C73001216EED9FB021216EE07FC021216EED470
:101C830077001216EEF977001216EE4E7800121650
:101C9300EE8F78001216EE6479001216EEFD7900CD
:101CA3001216EE457A001216EED97A001216EEB528
:101CB3007B001216EEA67C001216EEDD7D001216D6
:101CC300EE007F001216EE21E6061216EE55E6062A
:101CD3001216EE86E6061216EEC6E6061216EE4D4E
:101CE300E8061216EE91E9061216EEB693051216E1
:101CF300EEEA94051216EEE195051216EE7B9605B3
:101D03001216EED996051216EE6997051216EE9E77
:101D130099051216EE149B051216EE7E9B051216FC
:101D2300EE499D051216EE4C9E051216EEC09E0559
:101D33001216EE00A1051216EE51A2051216EE1CA4
:101D4300DC011216EE87DC011216EE38DD011216E5
:101D5300EE33E0011216EE12E3011216EEA2E301D6
:101D63001216EEFDE6011216EEA3E9011216EE4D70
:101D7300EA011216EEC3EB011216EE10EC01121675
:101D8300EE09EE011216EE3FEE011216EE08EF0118
:101D93001216EEBAEF011216EE44F0011216EE849B
:101DA300F1011216EE31F2011216EE39F301121699
:101DB300EE77F6011216EECFF6011216EE33F701A7
:101DC3001216EE9FF7011216EE19F8011216EE7BAA
:101DD300F8011216EEDCF8011216EE60F901121684
:101DE300EE00FA011216EED4FA011216EEC0FB0150
:101DF3001216EEC5FB011216EE9CFC011216EEBC88
:101E0300FD011216EEF3D3061216EE1FD4061216B8
:101E1300EE63D4061216EE16D5061216EEB8D606E3
:101E23001216EE58D7061216EE0FD8061216EE5FEC
:101E33008C071216EEF38C071216EE218E0712167C
:101E4300EE3D8E071216EEEAFE011216EEFBFE01C0
:101E53001216EEC0FF011216EECFFF011216EEDAD4
:101E6300FF011216EEF5FF011216EE90B3071216DC
:101E7300EEF0B3071216EEECAF071216EEFCAF0747
:101E83001216EE0EB0071216EE74B0071216EE8C91
:101E9300AC071216EE0FAD071216EE75AD0712164C
:101EA300EEFB94071216EE3695071216EE9E950773
:101EB3001216EEF695071216EE8496071216EED753
:101EC30096071216EE03B4071216EE13B407121692
:101ED300EE2AEE061216EE8DEE061216EEDCEE0676
:101EE3001216EE09EF061216EE5FEF061216EE2C2F
:101EF300B3071216EE6F9F071216EE14CD051216D6
:101F0300EE7ECD051216EE30CE051216EEF9CE0595
:101F13001216EE55D0051216EE76D1051216EEB254
:101F2300D2051216EE9AD4051216EECDD40512166A
:101F3300EE33D5051216EE65D5051216EEECD60571
:101F43001216EE6ED7051216EE82D7051216EEF8AC
:101F5300D7051216EE8FFE031216EEA3FE0312161A
:101F6300EEE4FE031216EEBAFF031216EECEFF03E3
:101F73001216EEF8C4061216EE24C5061216EE95D6
:101F8300C7061216EED5C7061216EE15C8061216A8
:101F9300EE29C8061216EE42C8061216EE33C9061B
:101FA3001216EED8C9061216EEECC9061216EE1179
:101FB300A4071216EE35A4071216EE4EA407121646
:101FC300EE80A4071216EEB0A4071216EEDDA407E6
:101FD3001216EE3FA5071216EE4EA5071216EE587F
:101FE300A5071216EE65A5071216EE46FD06121694
:101FF300EE66FD061216EEA5FD061216EEC0FD06F0
:102003001216EEDFFD061216EE45FE061216EE4E12
:10201300FE061216EEABFE061216EECFFE061216E3
:10202300EE90FF061216EE9DFF061216EEAEFF06A9
:102033001216EEABFF051216EEC3FF051216EEEFF6
:10204300FF051216EE88DD061216EEDEDE06121608
:10205300EEECDE061216EEFFDE061216EE14DF06B7
:102063001216EE29DF061216EE3CDF061216EEB04C
:10207300DF061216EE15E0061216EEB7E00612168C
:10208300EE7BE1061216EE8BE1061216EE9AE106DE
:102093001216EE62FF041216EE86FF041216EEAE5F
:1020A300FF041216EED6FF041216EEDCB107121669
:1020B300EE5599071216EE7C99071216EE9A9907B8
:1020C3001216EE0D9A071216EE5889071216EE71C4
:1020D30089071216EE7D89071216EE9189071216EB
:1020E300EEAF89071216EEB989071216EEC38907F8
:1020F3001216EED689071216EE608A071216EED56F
:102103008A071216EE098B071216EE578B07121663
:10211300EEA48B071216EEBF8B071216EEC98B07C0
:102123001216EEEF8B071216EE548C071216EE8E74
:10213300AE071216EEB0AE071216EEE77F001216C8
:10214300EE4294061216EE6C94061216EE8994066D
:102153001216EE9C94061216EEB294061216EE10A8
:1021630095061216EE4895061216EE4099061216BB
:10217300EE859A061216EEB89A061216EE1B9B0609
:102183001216EE949C061216EEBC9C061216EED1A5
:102193009C061216EEE19C061216EE259D061216FB
:1021A300EE809D061216EE909D061216EE16A807F7
:1021B3001216EE30A8071216EE58A8071216EE7183
:1021C300A8071216EE95A8071216EEB3A807121663
:1021D300EECAA8071216EEF8A8071216EE13A907FF
:1021E3001216EEA2B2071216EE3BFC021216EE4BCB
:1021F300FC021216EE50FD021216EE82FD021216BA
:10220300EEA8FD021216EECBFD021216EEE2FD025F
:102213001216EE1CFE021216EE81FE021216EEC319
:10222300FE021216EE02FF021216EE33FF02121620
:10223300EE6AFF021216EE0D9A041216EE3D9A0490
:102243001216EE5E9A041216EE7C9A041216EE999A
:102253009A041216EEE39A041216EEFB9A0412166F
:10226300EE0A9B041216EE429B041216EE629B04C6
:102273001216EE9E9B041216EEFD9B041216EE6ED2
:102283009C041216EE239D041216EEB29D04121640
:10229300EEB69E041216EE919F041216EEBB9F0437
:1022A3001216EED89F041216EE59A0041216EE6E03
:1022B300A1041216EE9CA1041216EEB1A10412168B
:1022C300EEFEA1041216EE51A2041216EEC5A304EB
:1022D3001216EEE4A3041216EE0AA4041216EE1B61
:1022E300A4041216EE34A4041216EE65A404121606
:1022F300EE8EA4041216EE8DA5041216EE06A704A4
:102303001216EE45A7041216EE55A7041216EE6533
:10231300A7041216EEA4A7041216EE09A8041216B7
:10232300EEB5A8041216EE1DA9041216EE6DA9044B
:102333001216EE83A9041216EEC9A9041216EEE2D0
:10234300A9041216EEECA9041216EEF6A90412164D
:10235300EE06AA041216EEA6AA041216EEEBAB04BE
:102363001216EEC3AC041216EE1BAD041216EE46A3
:10237300AD041216EE54AD041216EE5CAD04121643
:10238300EE64AD041216EEA0AF041216EEA9B1046A
:102393001216EEB2B1041216EEBBB1041216EEC45D
:1023A300B1041216EEDAB1041216EEE3B1041216FA
:1023B300EEECB1041216EEF3B1041216EEF5B1040D
:1023C3001216EEFCB2041216EE1CB4041216EEEA58
:1023D300B5041216EED4B7041216EE00B9041216A1
:1023E300EE20B9041216EE03BC041216EE58BC0418
:1023F3001216EE3BBD041216EEF5BD041216EE10D6
:10240300BF041216EE15C2041216EEF5C30412161B
:10241300EE8DC5041216EEADC7041216EE42CF03BD
:102423001216EE88CF031216EEA2D0031216EEC8D0
:10243300D0031216EE8FD3031216EE0FD403121627
:10244300EE38D5031216EEC0D8031216EE34D903B4
:102453001216EED1D9031216EE21DA031216EEE5A7
:10246300DA031216EE35DB031216EE6CDB031216DB
:10247300EE6FDB031216EE7FDB031216EE91DB0326
:102483001216EED6DB031216EE79DD031216EEE614
:10249300DD031216EE31DE031216EECDDE03121645
:1024A300EE59DF031216EE2BE1031216EED2E2030E
:1024B3001216EE71E3031216EE97E5031216EE758C
:1024C300E6031216EE25E8031216EE99A20712167A
:1024D300EEB3A2071216EEF5A2071216EE28A30713
:1024E3001216EE41A3071216EEADA3071216EED98C
:1024F300A3071216EE0ABA061216EE40BA06121611
:10250300EE94BA061216EE64BB061216EE9ABB06DA
:102513001216EEC7BB061216EE19BC061216EE37DC
:10252300BC061216EE5BBC061216EEDDBC061216D6
:10253300EE67BD061216EEADBD061216EECBBD0656
:102543001216EEF9BD061216EE1DBE061216EE5356
:10255300BE061216EEB2BE061216EED4BE06121652
:10256300EE33BF061216EE3DBF061216EE76BF0619
:102573001216EE85BF061216EE93BF061216EE80F4
:102583008A061216EEBA8A061216EEF98B06121690
:10259300EE588D061216EE1C94061216EEB5D806EA
:1025A3001216EEF6D8061216EEA5D9061216EE840A
:1025B300AB071216EEF5AB071216EE58AC07121660
:1025C300EEFAE2051216EE1EE4051216EEABE50571
:1025D3001216EE06E7051216EE71E7051216EEB4B3
:1025E300E7051216EEC2E7051216EEF2E70512161C
:1025F300EE84E8051216EE21E9051216EE46EA0509
:102603001216EEF8EB051216EEA9ED051216EE1FE3
:10261300F2061216EE07F3061216EE43F30612162F
:10262300EE78F3061216EE54F5061216EEFECE06FB
:102633001216EE1BCF061216EE60CF061216EE969A
:10264300CF061216EE4DD0061216EEEED106121676
:10265300EE56D2061216EED5D3061216EE12D80592
:102663001216EE16D9051216EE89D9051216EEA02A
:10267300DA051216EEECDA051216EE5FDE05121617
:10268300EEA7DE051216EE73DF051216EEBDDF05AB
:102693001216EE55E0051216EEBAE0051216EE9E7E
:1026A300E1051216EE07A1071216EE44A107121652
:1026B300EE69A1071216EE85A1071216EE9AA1077D
:1026C3001216EEC09D061216EE229E061216EEC6D6
:1026D3009E061216EE4AA0061216EE07A30612165F
:1026E300EE1DA3061216EEDFA3061216EE6FA50764
:1026F3001216EE81A5071216EE95A6071216EE988E
:10270300A6071216EE40AF071216EE76AF071216A3
:10271300EE90AF071216EED2AF071216EEE2AF0736
:102723001216EE56AD061216EE90AD061216EEF91F
:10273300AD061216EE16AE061216EEB8AE06121659
:10274300EEC1AE061216EE06AF061216EE2FAF0658
:102753001216EE3CAF061216EEADAF061216EE38A9
:10276300B0061216EE86B0061216EEC4B0061216A6
:10277300EE29B1061216EE4CB1061216EEC3B106DF
:102783001216EE1AB2061216EE55B2061216EE8A9B
:10279300B2061216EE9CB2061216EEAEB206121670
:1027A300EECDB2061216EED6B2061216EE91B306AF
:1027B3001216EEDDB3061216EE1BB4061216EEC5A4
:1027C300A6071216EE05A8071216EEC2FF0212168E
:1027D300EEDEFF021216EE4E86071216EE92860703
:1027E3001216EEDA86071216EEC088071216EE4F9F
:1027F30089071216EEFEB0071216EE0080051216B8
:10280300EE2481051216EE5E81051216EE0883058D
:102813001216EE3283051216EEA785051216EEE7A1
:1028230085051216EE7D87051216EE1A8805121617
:10283300EE6C88051216EE0F89051216EE47890510
:102843001216EE8989051216EEF88A051216EE465F
:102853008C051216EE778E051216EEA58E0512164E
:10286300EECC8E051216EED58E051216EE258F05CB
:102873001216EEB78F051216EEE692051216EE69E2
:1028830093051216EEDAB3071216EE26EA061216AF
:10289300EE3CEA061216EEE0EA061216EE1FEB060F
:1028A3001216EE3CEB061216EE6DEB061216EEBA9E
:1028B300EB061216EEEDEB061216EE28EC061216D8
:1028C300EE1DEE061216EE47B4061216EEEDB50631
:1028D3001216EE2EB7061216EE46B7061216EE1CA9
:1028E300C9041216EECDC9041216EE1ECA0412163E
:1028F300EE34CA041216EEDECA041216EE41CB04FD
:102903001216EE5ECE041216EECECE041216EED7DB
:10291300D0041216EE10D1041216EEACD304121624
:10292300EEC4D3041216EEECD3041216EE6AD404EA
:102933001216EEE5D4041216EEB0D6041216EEFE0D
:10294300D7041216EE7CD8041216EE24DE041216F7
:10295300EE2A97071216EE4297071216EE419807D2
:102963001216EE4898071216EE7198071216EE8E9D
:10297300AD071216EEEDAD071216EE2BAE071216CB
:10298300EE6CAE071216EE70B1071216EEAFB1077A
:102993001216EE46A9071216EE55A9071216EEB542
:1029A300A9071216EEDCFF061216EE57A906121639
:1029B300EEE8FF061216EE85C1051216EE9CC3055E
:1029C3001216EEEFC3051216EE78C4051216EEF3D7
:1029D300C4051216EEB5C5051216EEDFC5051216AF
:1029E300EEFFC5051216EE0EC6051216EE51C6050C
:1029F3001216EE5DC6051216EE94C6051216EEDD2E
:102A0300C6051216EEF7C6051216EE23C7051216F3
:102A1300EE93C7051216EE28C8051216EE4CC8052C
:102A23001216EEC1C8051216EEB6C9051216EE3718
:102A3300CA051216EE84CA051216EEB8CA05121696
:102A4300EED6C8021216EEDBCB051216EE15CC0538
:102A53001216EE52CC051216EE65CC051216EE8256
:102A6300CC051216EEB5CC051216EED9CC0512160E
:102A7300EEDF49001216EEEB49001216EE4D4A0046
:102A83001216EE574A001216EEEA4A001216EE2606
:102A93004B001216EEE24B001216EEF54B00121627
:102AA300EE454C001216EEAF4C001216EE144D001C
:102AB3001216EE4A4D001216EECC4D001216EE7BA6
:102AC3004F001216EE4F51001216EE355200121639
:102AD300EE8753001216EEDD55001216EE46570030
:102AE3001216EEE357001216EE8B5C001216EE7907
:102AF3005D001216EE175E001216EE435E0012160C
:102B0300EEDF5E001216EEF45E001216EE185F00A2
:102B13001216EE7E5F001216EE9B5F001216EEC5D4
:102B23005F001216EE4261001216EE636100121688
:102B3300EEE961001216EE8F62001216EED6620005
:102B43001216EE4963001216EED563001216EE3923
:102B530064001216EE9964001216EE2F6500121629
:102B6300EEAA65001216EEDD65001216EE3F660052
:102B73001216EEA167001216EE1168001216EEC0CF
:102B830068001216EE166A001216EEAE6A001216EE
:102B9300EE1A6B001216EE5D6D001216EEE96E0072
:102BA3001216EE146F001216EEFA70001216EE9063
:102BB30072001216EE9973001216EEABB3051216DD
:102BC300EE62B4051216EE69B5051216EEE7B50509
:102BD3001216EE29B7051216EE4AB7051216EE02C3
:102BE300B8051216EEADB8051216EE8DBC05121619
:102BF300EEA9BE051216EE10C0051216EEE8B207D6
:102C03001216EE69F8051216EE09F9051216EE7A98
:102C1300F9051216EE35FE051216EEC3FE05121661
:102C2300EE0080041216EE5880041216EEDE8004C5
:102C33001216EEF081041216EE3D82041216EE23F4
:102C430083041216EE3A83041216EE8C83041216D2
:102C5300EEC483041216EED783041216EE2D8404F9
:102C63001216EE8684041216EE9E84041216EE0EDD
:102C730087041216EEA587041216EECF87041216E8
:102C8300EE0788041216EE2D8A041216EE738A04D8
:102C93001216EEBD8A041216EE918B041216EED2B2
:102CA3008B041216EEF58B041216EE3C8C041216EE
:102CB300EE5E8C041216EEDF8C041216EE6C8D049D
:102CC3001216EEC68D041216EE0E8E041216EE8345
:102CD3008F041216EEFF91041216EE8C9204121654
:102CE300EEB893041216EEF393041216EEC0940496
:102CF3001216EE0095041216EE0395041216EE0D4D
:102D030095041216EE2095041216EEA195041216E0
:102D1300EED795041216EE0396041216EE2A9604C5
:102D23001216EE4E96041216EEE596041216EEFEF9
:102D330096041216EE3197041216EE5197041216EA
:102D4300EE8E97041216EEC597041216EEC498047D
:102D53001216EEF799041216EE77B0071216EE83E9
:102D6300B0071216EEC9B0071216EEF2FF011216E3
:102D7300EE62E9031216EE85E9031216EE5CEA032E
:102D83001216EEA5EA031216EEFDEA031216EE572B
:102D9300EB031216EEA3EB031216EE19EC03121655
:102DA300EEA7EC031216EE1FED031216EE62ED030F
:102DB3001216EE3FF1031216EE86F3031216EEB966
:102DC300F3031216EE37F4031216EEBCF4031216D5
:102DD300EE94F5031216EEBEF6031216EEA9F703F0
:102DE3001216EE86F8031216EEC2F9031216EE66F9
:102DF300FB031216EEF8FB031216EEFFFD03121689
:102E0300EE1CA4051216EEBCA4051216EE26A505AB
:102E13001216EECDA5051216EE31A6051216EE64B6
:102E2300A7051216EE8AA8051216EE03A9051216B7
:102E3300EEDBAA051216EE7BAB051216EE1EAC05F1
:102E43001216EE7DAC051216EE38AD051216EEFE27
:102E5300AE051216EEA1B0051216EE4DB10512160F
:102E6300EE62B2051216EE46DE041216EEBEDE0464
:102E73001216EE06DF041216EE4ADF041216EE9364
:102E8300DF041216EEDDDF041216EE12E004121652
:102E9300EE90E0041216EEEAE0041216EE43E204AA
:102EA3001216EECCE2041216EE28E3041216EE42DA
:102EB300E3041216EE69E3041216EEC1E3041216DC
:102EC300EE2BE5041216EE4AE5041216EE72E60442
:102ED3001216EEEFE6041216EE5CE7041216EEBECF
:102EE300E7041216EE6EE8041216EE40EA04121618
:102EF300EE2BEB041216EE25EC041216EE2BED046A
:102F03001216EE47EE041216EE55EE041216EE2ECE
:102F1300EF041216EECEEF041216EE12F0041216A0
:102F2300EE27F0041216EE38F1041216EEDBF1046C
:102F33001216EE33F2041216EE2D92071216EE66F7
:102F430093071216EE2394071216EE8794071216B0
:102F5300EE2A83071216EE4583071216EE898307BE
:102F63001216EEAF83071216EED583071216EEED97
:102F730083071216EE5084071216EE6584071216A5
:102F8300EE8785071216EE9085071216EE998507D0
:102F93001216EEA285071216EEAC85071216EED3B3
:102FA300E1061216EEB3E5061216EEB8E5061216A2
:102FB300EEBAE5061216EEFC9D071216EEBCB30739
:102FC3001216EE578F071216EE66AA071216EE4177
:102FD300B2071216EE789B071216EE64B3071216A9
:102FE300EE0FF6061216EE53AB031216EEAAAB0360
:102FF3001216EE16AC031216EEA2AC031216EE581E
:10300300AD031216EEA0AD031216EEB9AD03121600
:10301300EEDCAD031216EEFEAD031216EE3CAE036C
:103023001216EE8BAE031216EEB6AE031216EE14A4
:10303300AF031216EEBBAF031216EE63B003121604
:10304300EEDFB0031216EEACB1031216EEF8B103C5
:103053001216EE80B2031216EEB9B2031216EE4A3E
:10306300B3031216EE5BB3031216EECDB3031216BF
:10307300EE66B4031216EED0B4031216EEC0B50317
:103083001216EEE5B5031216EEE2B6031216EEEFD4
:10309300B6031216EEF8B6031216EEE1B8031216D3
:1030A300EEFDB9031216EE8EBA031216EEFFBA0343
:1030B3001216EED9BC031216EEA4C0031216EEB814
:1030C300C0031216EEC8C0031216EED2C0031216C6
:1030D300EEDBC0031216EEE4C0031216EEEEC003DD
:1030E3001216EE1DC1031216EE4BC1031216EE5655
:1030F300C1031216EE7AC1031216EE9EC103121615
:10310300EE10C2031216EE59C2031216EE75C20375
:103113001216EEE6C2031216EE32C3031216EE7B4C
:10312300C3031216EEB9C3031216EE3AC403121602
:10313300EE05C6031216EEA4C6031216EE6CC70301
:103143001216EEF8C9031216EE4DCA031216EE75E7
:10315300CA031216EEA8CB031216EEEDCB0312161A
:10316300EE42CC031216EEF0CC031216EE95CD030D
:103173001216EECACD031216EE6ACE031216EEE64F
:10318300CE031216EEE68A011216EE188B01121602
:10319300EE4C8B011216EE008D011216EED48D014A
:1031A3001216EE338E011216EE498F011216EE95AA
:1031B3008F011216EE3292011216EEA79401121627
:1031C300EEF395011216EE8B96011216EE97960109
:1031D3001216EEE096011216EE1397011216EE9FE9
:1031E30097011216EEB198011216EEF2990112161A
:1031F300EEF19A011216EE1B9B011216EE869B014D
:103203001216EEDF9B011216EE529C011216EE8887
:103213009E011216EE0EA0011216EEF9A00112166F
:10322300EE47A2011216EE7FA4011216EE76A70155
:103233001216EE85A7011216EE19A8011216EEC496
:10324300A8011216EE07A9011216EE50A9011216D3
:10325300EEA0A9011216EE0DAA011216EE79AA012B
:103263001216EE95AA011216EEC4AA011216EE0367
:10327300AB011216EEEBAB011216EE9AAC0112166D
:10328300EE11AF011216EE43B0011216EE12B101A8
:103293001216EE94B1011216EED6B5011216EEED2A
:1032A300B5011216EE1CB6011216EE77B601121610
:1032B300EEAAB6011216EE05B7011216EE21B701FA
:1032C3001216EE82B7011216EED2B7011216EE8174
:1032D300B8011216EE44B9011216EE0CBA01121619
:1032E300EE58BC011216EEE4BD011216EE3BBF010F
:1032F3001216EE57C0011216EE5AC0011216EE89CD
:10330300C0011216EE78C2011216EE41C301121665
:10331300EE82C3011216EED8C4011216EE4EC50199
:103323001216EE81C5011216EEE5C5011216EE0660
:10333300C8011216EE65C8011216EE3BC90112163A
:10334300EE4FC9011216EE63C9011216EE90C901C0
:103353001216EEC0C9011216EE64CB011216EE610D
:10336300CC011216EEAFCC011216EED6CC0112161A
:10337300EEB1CD011216EE57CE011216EEDDCF01DE
:103383001216EE24D0011216EE91D0011216EEE6BB
:10339300D1011216EE8FD2011216EEC3D20112160C
:1033A300EEDBD2011216EE7ED3011216EEFAD50130
:1033B3001216EEA2D7011216EEC6D7011216EEE4CC
:1033C300D7011216EEB0D8011216EEFEDB0112166B
:1033D300EE0080021216EE3280021216EEB2840262
:1033E3001216EE0185021216EE4785021216EEEA58
:1033F30085021216EE4F86021216EE9386021216FD
:10340300EEFA87021216EE2689021216EE238D02B9
:103413001216EEA28D021216EEC88E021216EE2BB3
:103423008F021216EE7790021216EE0F9302121607
:10343300EE9C93021216EEA693021216EECE9302A0
:103443001216EE9694021216EE2B95021216EE54F5
:1034530095021216EE8195021216EED697021216F7
:10346300EEA398021216EEE298021216EE64990287
:103473001216EE0F9A021216EE419A021216EE8CF3
:103483009A021216EEC59A021216EE149B02121637
:10349300EE709B021216EEF29B021216EE579C027E
:1034A3001216EECF9C021216EE789E021216EE70E2
:1034B3009F021216EEB1A0021216EE05A402121616
:1034C300EE61A6021216EE1AA7021216EE62A70208
:1034D3001216EE43A9021216EE7EA9021216EE8709
:1034E300A9021216EE90A9021216EE9BA902121659
:1034F300EEBAA9021216EE6DAA021216EECAAA02BB
:103503001216EED4AA021216EEDEAA021216EE2A42
:10351300AB021216EE72AB021216EE76AC02121664
:10352300EE0FAD021216EED6AD021216EE00AF028A
:103533001216EE2BB0021216EE21B1021216EE395C
:10354300B1021216EE6DB1021216EE8BB102121613
:10355300EED3B1021216EE0CB2021216EEC3B20291
:103563001216EE84B3021216EEF7B3021216EE73BE
:10357300B4021216EE0FB5021216EE35B60212168B
:10358300EEF1B6021216EE91B7021216EE7EB802F3
:103593001216EED6B8021216EE9CB9021216EEBF40
:1035A300B9021216EED4BA021216EE1FBB0212169D
:1035B300EE7BBB021216EEE3BB021216EE07BC0251
:1035C3001216EE2FBC021216EE74BC021216EE98FF
:1035D300BC021216EE1CBD021216EE05BE02121636
:1035E300EE4ABE021216EE73BE021216EE11BF02AF
:1035F3001216EE7CBF021216EE8ABF021216EEB648
:10360300BF021216EE97C0021216EE0080061216C3
:10361300EE3880061216EE5980061216EE9B8006CF
:103623001216EEFF80061216EE0981061216EE1927
:1036330081061216EE5081061216EEF98406121652
:10364300EEC186061216EEA588061216EE47890607
:103653001216EED189061216EE2F81031216EE937F
:1036630081031216EEF181031216EE3C8203121649
:10367300EE5782031216EE7E82031216EE9B82032E
:103683001216EEA782031216EE3884031216EE51B9
:1036930084031216EECD84031216EEE08403121691
:1036A300EEF084031216EE9485031216EE008703E0
:1036B3001216EE1388031216EEB388031216EEBD2C
:1036C30088031216EE3C89031216EE4D8903121677
:1036D300EE8C89031216EEBA89031216EE878A035B
:1036E3001216EEDE8A031216EE178B031216EE6D18
:1036F3008B031216EE8B8B031216EED98B03121665
:10370300EEA48C031216EEF28C031216EE3F8D0319
:103713001216EEC28D031216EEEC8D031216EE2274
:103723008E031216EE318E031216EE908E031216CE
:10373300EE088F031216EE498F031216EE998F03CC
:103743001216EEC48F031216EEDE8F031216EEF876
:103753008F031216EECD90031216EED790031216B6
:10376300EE1291031216EE2291031216EE2B910321
:103773001216EE7C91031216EE9091031216EEB21E
:1037830092031216EEC792031216EE5A9303121601
:10379300EECE93031216EE7394031216EE7E940389
:1037A3001216EEDE95031216EEFA95031216EE4686
:1037B30096031216EEB496031216EEE6960312164D
:1037C300EE0097031216EE4297031216EE95990335
:1037D3001216EE2D9A031216EEA49A031216EE0198
:1037E3009D031216EE199D031216EE1C9D0312166D
:1037F300EE289D031216EE3C9D031216EE449D0324
:103803001216EE7B9D031216EE6F9E031216EEF94F
:103813009E031216EE7B9F031216EEFB9F031216F6
:10382300EED2A0031216EEF4A0031216EE8DA1033E
:103833001216EEEAA1031216EEEDA1031216EE5CC8
:10384300A2031216EEA8A3031216EEBBA4031216CC
:10385300EE46A5031216EE59A6031216EE1EA70393
:103863001216EE4FA7031216EE75A7031216EE7E7D
:10387300A7031216EEADA7031216EE5DA8031216E8
:10388300EE0DA9031216EE80A9031216EE23AA0366
:103893001216EE96AA031216EED5AA031216EE1E00
:1038A300AB031216EEB1A8061216EE54A8061216B2
:1038B300EE45A8061216EE70A7061216EE22A7060C
:1038C3001216EE19A6061216EEE2FC061216EE709A
:1038D300FC061216EEF1FA061216EEA7FA061216F7
:1038E300EE91FA061216EED3C8021216EE99C8022A
:1038F3001216EEFAF9061216EE82FE041216EE8F77
:10390300C8021216EE85C8021216EEA8FD0412169E
:10391300EEDEFC041216EE4DFB041216EE16FB044B
:103923001216EEE8FA041216EE9CFA041216EE05CD
:10393300FA041216EE75F9041216EE4FF904121674
:10394300EE04F9041216EECEF8041216EE51F80442
:103953001216EEECF7041216EE9BF7041216EEC3E2
:10396300F6041216EE33F6041216EEE7F5041216F9
:10397300EE62F5041216EE1DF5041216EE01F504BF
:103983001216EEA9F3041216EE7BF3041216EE4898
:10399300F3041216EECCF2041216EE52CD061216F2
:1039A300EEADCB061216EE7BC8021216EEBBCA06AC
:1039B3001216EE50C7021216EE59C6021216EE0C7C
:1039C300C6021216EE4DC5021216EEBFC40212163F
:1039D300EE6EC3021216EE55C3021216EE41C20278
:1039E3001216EE00CA061216EE1EF8051216EEC5E2
:1039F300F7051216EE90F7051216EE00C202121624
:103A0300EE5BF7051216EE27F7051216EEBAF6056A
:103A13001216EEA2F6051216EE58C1021216EE7D2C
:103A2300F6051216EE28CB051216EE4EF305121606
:103A3300EE21F1051216EE21EF051216EEA7EE05A3
:103A43001216EE58EE051216EE12EE051216EEB42D
:103A5300ED051216EEF7C2061216EE79C20612161D
:103A6300EE4EC1061216EED0BF061216EEC1BF0609
:103A73001216EE3082071216EE1882071216EE8E19
:103A830081071216EEFA80071216EE1EAA06121608
:103A9300EE9080071216EE4880071216EE2F80076D
:103AA3001216EE0080071216EEE2FF0600000080F9
:103AB300FBA11A273F5A5DB03E7C85233FF086B6B3
:103AC3003EE202203F0A23BC3ED3931C3FAD24C1F8
:103AD3003E9E38193F1D86C53E8BF1153F4647C9AB
:103AE3003E1ABF123F6D6CCC3E0AA20F3F0EFDCEB5
:103AF3003E419B0C3FE702D13EB2AB093F2589D241
:103B03003E42D4063FB39BD33EB215043FB646D4E0
:103B13003E9370013F1C96D43E7DCAFD3E5295D420
:103B23003EA7E7F83E124FD43E7738F43E3FCDD35D
:103B33003E5FBCEF3EDC18D33E7B72EB3E033AD2D2
:103B43003E9F59E73EEB37D13E6770E33EF718D00F
:103B53003E44B5DF3EBDE2CE3E8826DC3E1E9ACD16
:103B63003E6EC2D83E5443CC3E2987D53E03E2CABB
:103B73003EE372D23E4979C93ECB83CF3ECF0BC8D9
:103B83003E16B8CC3ED89BC63E020ECA3E4C2BC551
:103B93003EDC83C73EC4BBC33EFE17C53E964EC242
:103BA3003ED3C8C23EDCE4C03ED994C03E807FBF52
:103BB3003E9E7ABE3E3D1FBE3EC278BC3EACC4BCF8
:103BC3003EF78DBA3E4470BB3E01B9B83E6122BA9E
:103BD3003EB5F8B63E4ADBB83EF84BB53E2F9BB731
:103BE3003EBFB1B33E3262B63E0E29B23E6730B538
:103BF3003EF8B0B03ED505B43E9C48AF3E7AE2B243
:103C03003E29EFAD3E4BC6B13ED6A3AC3E38B1B074
:103C13003EEB65AB3E29A3AF3EB534AA3E039CAE53
:103C23003E910FA93EA99BAD3EE1F5A73EF7A1AC9E
:103C33003E12E7A63ECAAEAB3E9BE2A53EFEC1AA3C
:103C43003EF8E7A43E6ADBA93EAEF6A33EE8FAA837
:103C53003E4A0EA33E5020A83E5E2EA23E794BA7BD
:103C63003E8356A13E3B7CA63E5886A03E6FB2A53E
:103C73003E80BD9F3EECEDA43EA5FB9E3E8C2EA454
:103C83003E75409E3E2874A33EA28B9D3E9BBEA2E2
:103C93003EE3DC9C3EBF0DA23EF2339C3E7161A12C
:103CA3003E8E909B3E8CB9A03E7AF29A3EF015A0D0
:103CB3003E79599A3E7A769F3E54C5993E09DB9EDA
:103CC3003ED735993E7F439E3ECEAA983EBCAF9DDC
:103CD3003E0B24983EA31F9D3E61A1973E16939CE5
:103CE3003EA322973EFA099C3EABA7963E34849BA3
:103CF3003E5030963EAA019B3E6FBC953E41829A50
:103D03003EE34B953EE3059A3E8DDE943E768C99D9
:103D13003E4B74943EE515993E000D943E18A298CF
:103D23003E8FA8933EFB30983EDC46933E78C29785
:103D33003ECEE7923E7D56973E4A8B923EF4EC96FA
:103D43003E3B31923ECD85963E88D9913EF52096F5
:103D53003E1C84913E5ABE953EE230913EEB5D950A
:103D63003EC6DF903E99FF943EB690903E53A39497
:103D73003E9F43903E0C49943E70F88F3EB2F093C1
:103D83003E18AF8F3E3A9A933E87678F3E95459391
:103D93003EAE218F3EB5F2923E7EDD8E3E8FA192E6
:103DA3003EEA9A8E3E1552923EE4598E3E3C049270
:103DB3003E5F1A8E3EF8B7913E4EDC8D3E3F6D91CD
:103DC3003EA79F8D3E0424913E5C648D3E3FDC9074
:103DD3003E652A8D3EE595903EB5F18C3EEB5090C5
:103DE3003E43BA8C3E490D903E05848C3EF6CA8F05
:103DF3003EF24E8C3EE8898F3E011B8C3E184A8F63
:103E03003E29E88B3E7D0B8F3E62B68B3E0ECE8EF7
:103E13003EA4858B3EC4918E3EE7558B3E98568ECD
:103E23003E24278B3E821C8E3E53F98A3E7CE38DD3
:103E33003E6ECC8A3E7EAB8D3E6EA08A3E82748DF2
:103E43003E4D758A3E813E8D3E044B8A3E75098DFB
:103E53003E8D218A3E59D58C3EE3F8893E26A28CBD
:103E63003E00D1893ED66F8C3EDFA9893E653E8CEC
:103E73003E7B83893ECD0D8C3ECE5D893E08DE8B35
:103E83003ED438893E12AF8B3E8814893EE5808B41
:103E93003EE5F0883E7E538B3EE8CD883ED7268BA9
:103EA3003E8BAB883EECFA8A3ECB89883EB9CF8AFB
:103EB3003EA468883E3AA58A3E1248883E697B8ABA
:103EC3003E1128883E45528A3E9E08883EC7298A6D
:103ED3003EB6E9873EEE018A3E54CB873EB5DA898A
:103EE3003E76AD873E18B4893E1890873E158E897D
:103EF3003E3773873EA868893ED156873ECD4389B6
:103F03003EE33A873E821F893E691F873EC3FB8893
:103F13003E6104873E8ED8883EC8E9863EDFB58879
:103F23003E9CCF863EB393883EDBB5863E097288BE
:103F33003E819C863EDD50883E8D83863E2C3088B4
:103F43003EFC6A863EF40F883ECD52863E33F087B0
:103F53003EFC3A863EE7D0873E8823863E0BB287F7
:103F63003E6F0C863EA093873EAFF5853EA27587D4
:103F73003E46DF853E0E58873E32C9853EE43A878A
:103F83003E71B3853E211E873E029E853EC2018758
:103F93003EE388853EC7E5863E1174853E2CCA867E
:103FA3003E8D5F853EF0AE863E534B853E12948632
:103FB3003E6237853E9079863EBA23853E675F86AB
:103FC3003E5810853E9645863E3BFD843E1B2C861F
:103FD3003E62EA843EF612863ECBD7843E24FA85BF
:103FE3003E75C5843EA3E1853E5FB3843E72C985B9
:103FF3003E87A1843E91B1853EEC8F843EFC99853A
:104003003E8E7E843EB482853E6B6D843EB66B8568
:104013003E815C843E0155853ED04B843E943E8573
:104023003E573B843E6E28853E142B843E8D12857D
:104033003E071B843EF0FC843E2E0B843E96E784B1
:104043003E89FB833E7ED2843E17EC833EA7BD842C
:104053003ED6DC833E0FA9843EC6CD833EB6948410
:104063003EE6BE833E9A80843E36B0833EBA6C847D
:104073003EB3A1833E1659843E5E93833EAC458492
:104083003E3685833E7B32843E3977833E831F846D
:104093003E6769833EC20C843EC05B833E38FA832D
:1040A3003E424E833EE4E7833E000000002001DFF2
:1040B3008A000001002001DF8A000002002001DEE7
:1040C3008A000003002001E08A0000040042016D21
:1040D300800000050042017E80000006004201A02E
:1040E30080000007002001AB800000100042018F18
:1040F30080000011002001310D000000404201A0AA
:1041030080000000804201EA8306000000101100D5
:1041130000070000003033000007001000303300B8
:104123000007000140203300000700024020330055
:104133000008000000203300000C00550039330054
:10414300000C001C00423300001200550021010046
:1041530000000400002104000002040000291500EF
:1041630000030400002904000005040000290400E2
:10417300000C040000390400000D040000390400A1
:10418300002A04000039040000020700002904008B
:1041930000020700021805DB8A020700033005DC72
:1041A3008A0207010322058A8A0207020322058E77
:1041B3008A020703031801DA8A02070603181100AB
:1041C30000040B00001B05728A040B000129150073
:1041D30000040B030129150000040B060129040048
:1041E30000040B00022105CE8A040B01022105D035
:1041F3008A040B02022105CE8A040B03022105D493
:104203008A040B04022105CE8A040B05022105D67C
:104213008A040B000321040000040B00042105CED3
:104223008A040B01042105D28A040B05052115001C
:1042330000040B080521150000040B0B05290400DD
:1042430000040B100528040000040B00062105CE12
:104253008A040B01062105D08A040B02062105CE30
:104263008A040B03062105D48A040B04062105CE18
:104273008A040B05062105D88A00030000203300B9
:10428300000003010020330000000303002133007A
:104293000000030400213300000003070021330062
:1042A30000000308003011000000030F0018110084
:1042B3000000030A401911000000030B4021110004
:1042C3000000030C40210100000000000000000179
:1042D30020553A00010220553A00010320553A01C6
:1042E300000420553A00010500000000000600000C
:1042F30000000007000000000008000000000000AC
:1043030000000000000A00000000000B0000000095
:10431300000C02000000000D00000000000E2055FC
:104323003A10010F20553A1000104C8B3A0000113F
:1043330000091D10001200271D10001300000000CB
:104343008014001B1D000015000000000016000073
:104353000000001701000000801801000000801910
:10436300004B2900001A004B2900001B000000002D
:10437300001C01000000011D01000000011E0000DF
:104383000000001F019B39080020009F2900002125
:1043930000411E00002200391D1000230000000010
:1043A30000000000000000000000000000260000E4
:1043B3000000002700000000002809D92800002978
:1043C300008D2910002A00000000002B00000000CF
:1043D300002C00000000002D00000000002E000053
:1043E3000000002F00000000003000692910003198
:1043F3000100000000320000000000330000000054
:10440300003400000000003500000000003600000A
:1044130000000037000000000038000000000039F1
:1044230001000000013A00000000003B0000000012
:10443300003C00000000003D00000000008F000170
:1044430000351A870001003F1E35000400041E25B5
:10445300000200081E260002000A1E270002000CAC
:104463001E28000100161E29000100171E840004E7
:1044730000181E860001001C1E2A0001001D1E2BB1
:104483000001001E1E2C000100221E2D0008001832
:104493001A2E000100231E2F000100241E300001EC
:1044A30000251E31000100261E32000100201A33B0
:1044B300000100211A34000100271E3600010022EA
:1044C3001A38000100281E39000100211E83000252
:1044D300003D1E63000100321A640001001F1E65C7
:1044E300000100201E6D000100331A710008001046
:1044F3001A660001003C1E430001002D1E44000209
:10450300002E1E45000100301E46000200311E47EA
:104513000008002A1A48000100331E4B0001003432
:104523001E04000100401EA1000100431E370001CC
:1045330000421E88000100411E3C000100231A3D79
:10454300000100291E49000200351E6700010034E6
:104553001A4D000200371E4E000100391E4F0002A3
:10456300003A1E3E000100291A510001002A1E5282
:104573000001002B1E530001002C1E5400010024D7
:104583001A0000000000000001363601010001029C
:1045930001000103010001040106060502000007F2
:1045A3000100340801000F090401010D0100FF0E91
:1045B30008000017020000190100FF1A0100011B87
:1045C3000100FE1C0100081D0200001F0100012064
:1045D300010001210200002301000F240200002634
:1045E30001000127010008280200FF2A0100072B10
:1045F3000102402C0100002D0100012E0100012FBA
:104603000100FF30010B1D310800003A0100083B97
:1046130001000F3C0100013D0100FF3E0400004288
:10462300040000460400004A0400004E0400005247
:10463300040000560400005A040000010371030142
:104643000301030103010301032203020301031016
:1046530003000300030003000300030003000342FD
:1046630003000324030603000300030403120325CA
:1046730003230325032303040304030003000300AC
:1046830003440300030003230300036503210035F0
:104693000381030003050300030003000300032554
:1046A3000323030300710030016000110070003127
:1046B3000220035004800010006100000014006316
:1046C3000073007200620043000000130006000044
:1046D30000000004001200000000000000000004BD
:1046E300000400370037003C0244000000000000D3
:1046F3000000006500000035008100000005000097
:104703000083000000030271023001600211027095
:10471300020102020202028002100261023A004117
:104723000063027302720262024302000213023840
:104733000000020002040212020002000200020052
:104743000204020402370037003C0244020002392B
:104753000000020002650200023502810200020528
:1047630002820283020002010171010101010111B0
:104773000101013101010101018001100161013BCE
:10478300001400630173017201620143010001130C
:104793000106013D01350004011201000100010081
:1047A30001000104010401330133013C01440132DE
:1047B300013600000100016501000135008101009F
:1047C300010501820183010001360001000600009A
:1047D300000F0000000000000000000000000003C4
:1047E300FFFF00000403FFFF0000FFFF0FF40100C1
:1047F30005C4040320000100000B000000000000BA
:10480300000003010F000000000000000000000092
:104813000000000000000000000000000000000095
:1048230000000000000000672BA32B6D2B8F2A7361
:104833002BA92B732BB52B792B8F2A732BA92B7FAA
:104843002B8F2A852B8F2A8B2B8F2A912B8F2A979D
:104853002B8F2A9D2B8F2A000000000000000000F0
:104863000000000000000000000000000000000045
:104873000000000000000000000000000000000035
:104883000000000000192E1300E92D0100192E026B
:10489300008F2D0300952D04009B2D0500A12D06EF
:1048A30000AD2D3000C52D3300D12D3400D72D118F
:1048B30000DD2D1400E32D1500BF2DFFFF00000ABE
:1048C30000000002000000040000000800000010C7
:1048D30000000020000000400000008000000000F5
:1048E30001000000020000000400000008000000B6
:1048F300100000002000000040000007ECFDFDFD5B
:10490300ECDCDCCCBCACAC9C9C8C7C7C6C6C5C5CD4
:104913005C4C4C3C3C2C2C1C1C0A433402133405C9
:1049230025340719340CFB330D0734FF0000001640
:104933000F00000B150B020002220F3300000E01C3
:10494300030507090B0D0F00020406080A0C0D5A94
:104953006967426565416C6C69616E6365303914E2
:104963000AE5D5C5B5A5A5958585756530301618B5
:104973001920231A1C1E30000119161816161823A5
:10498300030000393D3F373C3C362C442D00034A9D
:1049930049434E181A250502303017181921301BC8
:1049A3001D1F300C0E020B040B0A0708000F020434
:1049B3000201010101090200BE040AE8030000FA32
:1049C30006FE48E80362490E001003030A040408C4
:1049D300280C0905081E00FF1E040CFFC082C083BB
:1049E300E99018F9F0024BEE74F41210488A088B20
:1049F30009EB5480604D800EEEFAEFFB122AE3EED2
:104A0300FAEFFB1227479018F9E0F91227598A0A9F
:104A13008B0BAE0AAF0BEE4F60208E828F83E06468
:104A23001A60D5EEFAEFFB122A89E9F974FF69607F
:104A3300CEEEFAEFFB12274D80CCAA08E50964807D
:104A4300FB80047A007B00024DC074F71210487A91
:104A5300FF025E0F74F6121048E9FEEAFF7A047B48
:104A630000125116A808A909EA496034EF8A828B1B
:104A730083A3A3A3F0EE8A828B83A3124ADBE4F021
:104A8300A3F090190612513B7009901906E8F0A3A0
:104A9300E9803FE0FB8A828B83A3A3A3E06F7004CA
:104AA30079008031EAFCEBFD8A828B8312513B70E3
:104AB300E474FF6F700C8C828D83124AE2E4F0A3DE
:104AC30080109019061265A0901906124AE2EAF0C6
:104AD300A3EBF07901025F07A3F08A828B83221292
:104AE30070F48882898322C082C083EA1273873B71
:104AF300F583E0FA9019068004888289831263CFD4
:104B0300601C88828983A3A3A3E0FBEA6B6005741E
:104B1300FF6B70E588828983A3A3E0F9800279FFA4
:104B2300024BEE74F4121048EAFEEBFF8A82F5831F
:104B33001265A0122A89E9F50874FF697003024B14
:104B4300DD7A197B00122741EA4B7003024BDD8AA1
:104B5300828B837434126138A3A3EA2402FCE43BFE
:104B6300FD74061216678E828F831257CC1270CF94
:104B73008A828B83A3A3A3A3A3A3A3A3ECF0A3ED94
:104B83001257DCA3A3A3A3A3EA240AFCE43BFD740A
:104B93000C1216678E828F8312663AC81273873897
:104BA300F583E0C0E0EA2416F582E43BF583D0E028
:104BB300F0EE240CF8E43FF98882F5831270D3EA0F
:104BC3002417F582E43BF583ECF0A3EDF0888289AA
:104BD30083E4F0A3F0A90812274D7901024DC0C068
:104BE30082C0839019041265A08000D083D0820212
:104BF30016EB74F41210488A088B09ECFEEDFF7A69
:104C030008124C93700479108035124D05A3124C91
:104C1300EF740C121A981276DAA3A3A3A31277CC1B
:104C23009018FE12513B9018FE601112511E800322
:104C3300EAFCEB12513670F88C828D83124CA3027E
:104C43004DC074F412104889088A09ECFEEDFF7A0E
:104C53000A124C93700479108033124CFAE4F0A3D7
:104C6300124CA9E509124CA9A3EEF0A3EFF0901999
:104C73000012513B901900601112511E8003EAFC8F
:104C8300EB12513670F88C828D83124CA3024DC007
:104C93007B001227E38A0A8B0BA80AA90BEA492295
:104CA3001270F4790022125E00A3A32274F412108E
:104CB3004889088A09ECFEEDFF7A06124C937004CA
:104CC30079108025124CFA124CEF90190212513BC5
:104CD300901902601112511E8003EAFCEB12513647
:104CE30070F88C828D83124CA3024DC0E509125ECD
:104CF30005EEF0A3EFF022124D058A828B83A3A366
:104D0300A3228A828B83E4F0124ADBA3A3E508F093
:104D13002274F2121048EAFEEBFF8C088D09122A66
:104D2300F58B0DA90DEA4960198A828B83A3A3A38E
:104D3300EEF0A3EF125DFCE508F0A3E509F07900BE
:104D43008002790102659674F412104874F7121701
:104D5300EBE9FE8518828519837401F0EC7006ED8A
:104D6300C39406404D74036A4B604774011217BB2A
:104D7300880A890B780A1217267C127D007A007B39
:104D830000EE124DC5121703E9601CE4F50AF50B9A
:104D9300780A12172674031217CB74021217C31260
:104DA3002B3D7402121703851882851983E0640171
:104DB300700479018002790074091217037F0402D9
:104DC30013B8F9122AFB74022274E812104874FA19
:104DD3001217EB89128A168B178C088D09123A1356
:104DE3008A148B15EA4B70057902024F5BAA08AB54
:104DF30009A912122B13E9F50FA2E6401C9019041E
:104E03001263CF6014E82419F582E439F583E06472
:104E1300017006E50FD2E6F50F7C067D007900AA46
:104E230018AB1912272F741F121A981257D460093E
:104E3300E054FCF0E044018003E054FC1277B2122A
:104E430063CF602B741E121A98E0FE88828983A3B5
:104E5300121544EEFD7402121A98E05403FCAA08DA
:104E6300AB09A912122AB37402121703E970057968
:104E730001024F5B7422121A981263CF60128518D5
:104E830082851983E04404F07402121A981270F0B8
:104E93007420121A981257D46005E044088003E086
:104EA30054F7F07421121A981257D46005E0441095
:104EB3008003E054EFF07424121A98E0C0E0740405
:104EC300121A98D0E0F07405121A98EEF078038560
:104ED3001882851983E05404600278057425121A38
:104EE30098125568E82510FEE43511FF12520C6044
:104EF30063AC0AAD0BAA18AB19122AEF7427121A66
:104F030098126526121722AC10AD1112678E121774
:104F130003750C1E780C12172A750CFC750D187886
:104F23000C121726780A1217268E0C8F0D780C1286
:104F330017267808121726A90FAC14AD15AA16ABBD
:104F430017123A2B7409121703E9FEAA0AAB0B12C4
:104F530027E980027E10EEF974068004EEF97402EC
:104F63001217037F100213B8EEFCEFFDAA10AB116A
:104F7300A90A122AB9740B2274EA12104874FE1299
:104F830017EB890B8A148B158C0E8D0F7E007F0017
:104F9300750A007418121A98125568801112512C50
:104FA300122B498B09EE2AFEEF3509FF050A127011
:104FB300D7502EE50A75F00612551F2403FEE43F71
:104FC300FFA3A3E070E60EEE70010F88828983A32E
:104FD300A3A3A312513B8882898360C112634080DB
:104FE300C2EEFAEFFB1251168A0C8B0DEA4B7003DB
:104FF30002510B750A008030A818A9198812891369
:10500300781212172678081217268A828B83125178
:105013002C122B4F74041217031276CAE50828F5D5
:1050230008E50939F509050A1270D75077E50A75BD
:10503300F006A4F8A9F0E51028F582E5111270B383
:105043001251238A828B83A3125D6BF0125DD412FB
:105053005D66F0E5082403F5085002050988828996
:1050630083E070C2EA240308125DD8125123A3859A
:1050730082088583098A828B83A3A3A3A312511E6B
:105083008C82F583E58245837003024FFBAC08AD48
:1050930009AA82AB8388828983E0F9122B1F8A08CD
:1050A3008B098082780C1217268E088F09780812D4
:1050B30017267420121A9812555E12172AE4F5085F
:1050C300F50978081217267422121A9812555E12DF
:1050D300172A7422121A9812555E12172A7508009D
:1050E300780812172A750801780812172AAC0EAD32
:1050F3000FAA14AB15A90B124F75121703E9FEAAD9
:105103000CAB0D1227E980027E10EEF97402121720
:1051130003802F1227E38A088B0922E0FCA3E022F5
:10512300E0850882850983F0221277A0AA0EAB0FCF
:10513300A90B22FD8C828D831265A4EA4B22AA124D
:10514300AB137F0E0213B8EEF902514574EC121043
:1051530048890A8A108B11ECFEEDFF7414121A9819
:1051630012536270030251F2A808A9097C00800D52
:1051730012534550010B1253755001090C850C82D3
:10518300850D83E0FAECC39A40E674016A700AA3C2
:10519300E07006750E01750F007808121726780E59
:1051A300121726741C121A9812533F12172AE4F589
:1051B3000CF50D780C121726741E121A9812533F11
:1051C30012172A741E121A9812533F12172A750BBC
:1051D30000780B12172A750B04780B12172A124F3B
:1051E3006B121703E9FEAA08AB091227E980027EB6
:1051F3001002532CAA0EAB0F7F0C0213B8850A8240
:10520300850B83E0F9122B3122EEFAEFFB1227E331
:105213008A0A8B0BEA4B22F8E4350DF98882F58371
:1052230012554EA322851082851183E0F8E508C349
:10523300982274EC121048890A8A108B11ECFEED47
:10524300FF7414121A98125331F508750900740289
:1052530078081218F485080E85090FAA0EAB0F12F1
:1052630070CB700302532A7900804AE9F512751353
:1052730000740278121218F4E50C2512FCE50D35C2
:1052830013FD8C82F583A31261338C828D83A31269
:10529300687DF0EC2403FC50010DF5828D831268C8
:1052A3007EA3F08C828D8312687DA3A3F0EA24048D
:1052B300FA50010B09850C82850D83E0F8E9C39848
:1052C30040A9740168700AA3E07006750E01750F9A
:1052D300007808121726780E121726741C121A98D3
:1052E30012533F12172AE4F50CF50D780C1217260A
:1052F300741E121A9812533F12172A741E121A9808
:1053030012533F12172A750B00780B12172A750BCD
:1053130007780B12172A124F6B121703E9FEAA081C
:10532300AB091227E980027E10EEF90251FB1253FA
:105333003522125C3A850C82F583E022E0F50B7886
:105343000B22EC75F003A4FAABF0E50C2AFAE50D99
:105353003BFB8A82F58312557BF0EA2402FA221280
:10536300533575F003A4F50EE5F0F50FAA0E127789
:105373003722F5828B83125730125574A3A3F0E8BA
:105383002403F82274E812104874FE1217EB125526
:10539300C2121A981255688009EE2402FEE43FFFF8
:1053A3000508125228502FE50875F00D12551F24D9
:1053B30004FEE43FFFE070E8A3E070DDEE2405FEA9
:1053C300E43FFFE82404F50AE43912553A60D112A8
:1053D3005200EE2980C612520C700302551A8A0E2F
:1053E3008B0F7508008018E50C2409FAE4350DFBD2
:1053F3008A82125548125570F08C0E8D0F050812D3
:10540300522840030254B7E50875F00D125582AADD
:1054130082AB83125223F0E50C240212521A125566
:1054230097A3F0E50E2404F50E5002050F850C82B8
:10543300850D83E070C7E50E2402FCE4350FFD857E
:105443000E82850F83A3A882A9838A828B83E0704F
:1054530096E50C2404F512E4350DF513851282123A
:105463005548F0E50C2405F516E4350DF5178516BA
:1054730082126AA81255AC2407F8E4350DF9888224
:105483001255481255BAF0E50E2405F50E500205E3
:105493000F8512828513831255417003025400ACA9
:1054A3000EAD0FE50C240BF582E4350DF583125593
:1054B30056025400780A1217268E0C8F0D780C12A0
:1054C30017267422121A9812555E12172AE4F50C45
:1054D300F50D780C1217267424121A9812555E12C1
:1054E300172A7424121A9812555E12172A75080087
:1054F300780812172A750809780812172AAC14AD10
:1055030015740B121A9812552F121703E9FEAA0AE3
:10551300AB0B1227E980027E10024F5FA4F8A9F0BB
:10552300E51028F582E5111256CCEE221265A4A9E6
:1055330009122AB9740B22F50B850A82F583E0F967
:10554300122B25E922F58312554E22E0850E828522
:105553000F83221257358A0E8B0F22E0F508780845
:10556300228E828F83E0F510A3E0F5112212557489
:1055730022124ADC12557B22A3E0888289832212FD
:10558300726585820C85830D12554EF0850C8285DC
:105593000D83A32212559B22A3F088828983A3E063
:1055A300850E82850F83A3A322F085168285178338
:1055B300125DE9F0E50C22A3A312559BA3A3228558
:1055C3001882851983EAF0A3EBF089098C148D15F1
:1055D3007E007F00750800741A2274EA121048894D
:1055E3000B8A108B118C0E8D0F7E007F00750A00C5
:1055F3007416121A98125C368003125699850C821F
:10560300850D831270DD40F21270C7607EA808A971
:1056130009750A0080031256D5850C82850D83E037
:10562300FAE50AC39A40EF78081217268E0C8F0DFD
:10563300780C121726741E121A9812569312172AF0
:10564300E4F50CF50D780C1217267420121A981233
:10565300569312172A7420121A9812569312172A65
:10566300750A00780A12172A750A0A780A12172A85
:10567300AC0EAD0FAA10AB11A90B124F7512170385
:10568300E9FEAA08AB091227E980027E1002514AFB
:10569300E0F50A780A22E50A75F005A4F8A9F0E511
:1056A3000C28F582E50D1256CCA3A3A31276DEA334
:1056B300A3E0F9122B378B09EA2403F8E43509F93F
:1056C300EE28FEEF39FF050A2239F583A3A882A944
:1056D3008322E50A75F005A4FAABF01257248582FC
:1056E3001485831512557C1277B8125730F0E514E0
:1056F3002402FAE435158A12F5138A82F5831257C8
:1057030030A3F0E82403FCE439FD85148285158376
:10571300A3A3A31257358A128B13A812A913050A40
:1057230022E50C2AF582E50D3BF583A32212557C75
:10573300A322E0FAA3E0FB851282851383E0F9122A
:105743002B1F2274F612104874FE1217EBE9FE7435
:105753000C121A981257CC1257D41257DCE0C0E03F
:105763007401121A98D0E0F0A818A91988088909B9
:10577300780812172675080275090078081217268B
:105783007416121A9812555E12172A7415121A9863
:105793001215447416121A9812555E12172A7416AB
:1057A300121A9812555E12172A75080078081217F4
:1057B3002A75080B780812172AEEF9124F7512177B
:1057C300037402121703025F071276D58882F583EA
:1057D30022E085188285198322F088828983A32297
:1057E30074F112104874EB1217EBEAFEEBFFC200E0
:1057F300EA2420F8E43F8808F5098882F583C3E0AA
:105803009403A3E0940050057901025C17901904F6
:105813001277CE7402121A981277CE740E121A9857
:10582300E4F0A3F0740A121A98E4F0A3F0740C12D3
:105833001A98E4F0A3F0EA2422F8E43F880AF50B6F
:105843008882F5831270D37404121A98AA82AB83E8
:10585300122AE98A0C8B0DA80CA90D740A121A9846
:105863001277CE8508828509831265A0EAC398F86A
:10587300EB99F9850A82850B83E028F8A3E039F9CF
:10588300740C121A981270F07408121A98E0901897
:10589300FDF0EE2414F508E43FF509850882F5834D
:1058A300E0F9123A138A828B83E5824583700C9068
:1058B3001904E4F0A3F07902025C17125C6A602B0E
:1058C300EE2404F50AE43FF50BA3121544740B12FE
:1058D3001A98E0FD7406121A98E05403FC125C79DE
:1058E300122AB37402121703E9700C901904E4F03E
:1058F300A3F07903025C17125C79122B13E9F50EFE
:10590300850A82850B831265A0EAFCEBFD9018FEE5
:105913008004888289831263CF7003025A0A8882C3
:105923008983A3A3125C36C3EA950CEB950D40E281
:1059330088828983A3A3A3A3C3E09CA3E09D40D251
:10594300E8FCE9FD7404121A98E05407700D740919
:10595300121A98E0640B7003025A0EE50EA2E64099
:1059630003025A0EEE2419F582E43FF583E0600347
:10597300025A0E7402121A98125C42707E7402125A
:105983001A981263CA70747C00850882850983E0C3
:10599300F9122B197401121A987401F07409121A6E
:1059A30098125C1F121A98E0F50C780C12172A74DF
:1059B30007121A98121544750C01780C12172A74E1
:1059C30008121A98127285F50C780C12172A7405AE
:1059D3001217BB880C890D780C1217267409121A3A
:1059E30098125C61121A98125C2A121A98125C506F
:1059F3001217037C01125C79122B19901904E4F03D
:105A0300A3F07905025C177C007D007404121A98D8
:105A1300E0F854036003025B32E8540460057E84BB
:105A2300025B717409121A98E0F8C39417400302D9
:105A33005B2EE8F50A750B007402780A1218F474E9
:105A43002A250AF5827448350BF583E493F874012B
:105A530093F9E8497003025B2E850882850983E088
:105A6300C0E07410121A98D0E0F0740C121A981255
:105A730065A07411121A981277CE740A121A98122A
:105A830065A07413121A981277CE74101217C38874
:105A930082898312127D8B09A909740E121A981236
:105AA30077CEEA49604B7409121A98E0F508750934
:105AB30000740278081218F4742C2508F5827448CF
:105AC3003509F583E493F87401938882F583E582BD
:105AD3004583601274021217C312127D740E121AD8
:105AE300981263CF600B740E121A981265A01227D6
:105AF300E97409121A98E0F86054740268604F74EC
:105B03000368604A74066860457408686040740CF2
:105B130068603B741168603674136860317415688B
