:020000040000FA
:060000000219CD020CF113
:03002B0002177841
:03003300020EAB0F
:03004B000214B3E9
:03005300020C2676
:03005B000214F29A
:0300630002151370
:03006B00020E5131
:03007B00020E82F0
:10008300020C850139A11DA71DAD1DB31DB91DBFEF
:100093001DC51DCB1DD11DD71DE31D000000000094
:1000A3000000000000DD1DE91DEF1D0020FD0039EB
:1000B3000502011F08000000014324552400005BD2
:1000C3002461240000000067247F2485248B2400FE
:1000D30000000000000000060004140004FF1806DE
:1000E30012FFFFFFFFFFFFFF0000FFFF27220000BB
:1000F300FFFF2D220000FFFF7B220000FFFF4522B0
:100103000000FFFF4B220000FFFF51220000FFFF12
:1001130057220000FFFF5D220000FFFF692200005D
:10012300FFFF6F220000FFFF75220000FFFF9322F5
:100133000000FFFF99220000FFFF87220000FFFF5E
:100143008D220000FFFF81220000FFFFAB22000091
:10015300FFFFB1220000FFFFB7220000FFFFBD2217
:100163000000FFFFC3220000FFFFC9220000FFFFC2
:10017300CF220000FFFFD5220000FFFFDB2200009B
:10018300FFFFE1220000FFFF39220000FFFF3F22B3
:100193000000FFFFE7220000FFFF33220000FFFF04
:1001A300FF220000FFFFF3220000FFFF05230000F2
:1001B300FFFF11230000FFFF1D230000FFFF232388
:1001C3000000FFFF0B230000FFFFF9220000FFFFE9
:1001D30017230000FFFF63220000FFFF2923000015
:1001E300FFFF2F230000FFFF41230000FFFF4723F2
:1001F3000000FFFF4D230000FFFF53230000FFFF1C
:1002030059230000FFFF35230000FFFF5F23000099
:10021300FFFF65230000FFFF6B230000FFFFA52204
:100223000000FFFF3B230000FFFFED220000FFFF64
:100233009F220000FFFF71230000FFFF77230000D0
:10024300FFFF7D230000FFFF83230000FFFF8923BF
:100253000000FFFF8F230000FFFF95230000FFFF37
:100263009B230000FFFFA1230000FFFFA723010141
:100273000104006118000000E8030000FFFFB51847
:10028300E803000064006400B801A0BB0D00A0BB3C
:100293000D00020200F8FF0705021E0401051E02FD
:1002A300051E020A0A0101080803102702803E0105
:1002B30002FEFFE8030A050001FFFF020A1401E042
:1002C3000100B0423BAAB83F0000003F8C90633965
:1002D300AA0CA33A00941E3C8042633DCFFE753EB8
:1002E3001572313F8096184BF304353F1872313F36
:1002F3002292D43EDD9B2A3F04000040FFFF7F7F14
:10030300FFFF7FFF0100803405030101FF984600D2
:10031300000000304600000000FF000000FF00C0A6
:1003230082C0831204124004780080031204CAE8D6
:10033300F4FCEB600814601214601C802BEA600567
:10034300E842808023EC5280801EEA6005E84290F8
:100353008016EC52908011E8C39420500BEA60059C
:10036300E842A08003EC52A002040DC082C08312B5
:1003730004124004780080031204CAE8F4FCE87015
:100383000302040DEB600814602C146050807BECB6
:1003930052F374016A601274026A601574046A701D
:1003A30003E8428FE842FD806153F7DFEC528F8010
:1003B300F343F72080F6EC52F474016A601274027E
:1003C3006A601574046A7003E842F6E842FE803AF4
:1003D30053F7BFEC52F680F343F74080F6E8C3943B
:1003E300205027EC52F574016A601274026A60159A
:1003F30074046A7003E842F7E842FF800D53F77F05
:10040300EC52F780F343F78080F6D083D08222E961
:10041300C4540F5403FB743F59C394302274F8122D
:1004230010A7E9C4540F5403FE743F59C3943040DA
:1004330004780080031204CAE8F4FBE86077EE60F6
:100443000814602B14604E806CEB52F352FD740160
:100453006A600F74026A600F74046A7058E8428F0E
:10046300805353F7DF800343F720EB528F8046EB33
:1004730052F452FE74016A600F74026A600F7404CE
:100483006A7032E842F6802D53F7BF800343F7408A
:10049300EB52F68020E8C39420501AEB44E0FB5261
:1004A300F552FF74016A601274026A601574046A7B
:1004B3007003E842F77F0102143453F77FEB52F7DE
:1004C30080F343F78080F6E95407FC74762CF582B9
:1004D300E43488F583E0F822C082C083120412401A
:1004E30004780080031204CAE8F4FCE8603FEB6080
:1004F300081460151460228034EA6005E8428080A5
:1005030003EC5280E842FD8024EA6005E8429080D3
:1005130003EC5290E842FE8014E8C39420500EEAA4
:100523006005E842A08003EC52A0E842FF02040DFC
:10053300743F59C394305042E9C4540F54036007C5
:10054300146013146020227801E8F4FBEA60241499
:10055300601814601922740F59C39404500478026C
:1005630080E7780480E3780880DFE8428C22E58C1A
:10057300586004EB528C22E8428C2274F51210A7C7
:1005830074FB1217DB9081C0E0A2E0400302067700
:100593009081D0121A717401121A88121A59900894
:1005A3005FE4F0908029E0FEA3E0FFEE4F60478513
:1005B3001882851983E4F0A818A91988088909788D
:1005C3000812171675080175090078081217167CAA
:1005D300007D007A017B0412286974041216F3E982
:1005E300700C851882851983E05E90085FF07401B2
:1005F3001217B31225FF7401121A887808121A19F8
:10060300E508FA7401121A887808121A19E509FB29
:100613007401121A887808121A19741078081217BC
:1006230092E508541FFC9081C4E0F5FDA3E0F5FEBC
:10063300A3E0F5FF9081CCE0F58FA3E0F5F6A3E00E
:10064300541FF5F77900E9FE74C82EF582E434816E
:10065300F583E0601275080175090074052E7808AA
:100663001218E4E50842F709E9C3940340D88A80E5
:100673008B908CA074051216F37F040214341219A4
:10068300EC60461219DD603DE9687008F618F6184B
:10069300F618F622748067F71206B5090909748003
:1006A30067F7221219DD601D1219EC70051919196B
:1006B300801A12186E701F121882C37003E6673314
:1006C30019191940071818182208080874FFF61892
:1006D300F618F618F6221218826017121A92702171
:1006E30092F0121A9B7019501720F0140808080989
:1006F3000909E7F61819E7F61819E7F61819E7F6DE
:1007030022121A9B60E6E869701F0808E62480F647
:1007130008E436F618547FB47F0CE654806007F67D
:10072300E418F618F622181822E9C6CC08C6CD0834
:10073300C6CE08C6CFC0E0E8C0E0EAC0E0EBC0E048
:1007430009E9F809E7FA09E7FBE6F918E6F8C3EC63
:1007530098ED99EE9AEBC2E7F5F0EFC2E795F0500A
:100763000E600CEBCFFBEACEFAE9CDF9E8CCF8EA60
:10077300A2E7D2E7FAEB33FB13F5F0EEA2E7D2E7F9
:10078300FEEF33FFC5F013A2E730E601B313C5F064
:10079300C3C0E0C0F07F00C39BFB605E9418600F92
:1007A300401D14601AD0E023F9D0E0F80208878ACC
:1007B300F0E9486003D2F0E4AFF0FAF9F8803BEBDC
:1007C30030E40D89F0EA6003D2F0E4AFF0F9CAF83F
:1007D300EB30E30D88F0EF6002D2F0AFF0E4CAC96A
:1007E300F8EB54076014FBC3EA13FAE913F9E813AF
:1007F300F8EF135002D2E0FFDBEDD0E0C0E030E7CA
:1008030039C3E49FFFF5F0EC98FC42F0ED99FD420B
:10081300F0EE9AFE42F0D0E0F9D0E0F8E5F0607A2D
:10082300E923F9EE20E742D8028067C3EF33FFECF8
:1008330033FCED33FDEE33FE80EAEC28FCED39FDAD
:10084300EE3AFED0E023F9D0E0F84002801BC3EE7D
:1008530013FEED13FDEC13FCEF135002D2E0FF087F
:10086300B800067F7F74FF802EEF3350178CF02083
:10087300F00260100CBC000C0DBD00080EBE00049D
:1008830008E860DFE933E813FFEE2313FE4F4D4C16
:100893008008E95480FFE4FEFDFCEE33EF33F4708F
:1008A30004FCFD7E80D0E0FBD0E0FAD0E0F8D0E09D
:1008B300CFC618CEC618CDC618CCC6F9221219DD7C
:1008C3007004181818221219EC700D74FFF6181919
:1008D300F61819F61819F622E7548066F6121A9BD1
:1008E300700F121A9270F014F608F608F608F680E4
:1008F300D1121A92700CF608F608768008E6447F47
:1009030080EC121885700C12187160BFE65480F6E3
:10091300E480BB121871700519191980A5E8697074
:100923000C763F18768018F618F6E8F922E6CDC063
:10093300E018ECC0E0E633CD33CDD313F6E719FC72
:10094300E7191933CC33C3947F400ECD9D5024084F
:10095300E65480F6E418F6800FF4043D14501408AE
:10096300E6447FF6187680E418F618F6D0E0FCD05B
:10097300E0FD22CCD313CCFD18E4C6CBC0E018E4D1
:10098300C6CAC0E00808ED08C633E613F618E43318
:10099300C675F003C3CA97CA09CB97CB199C400409
:1009A3007D08802EBD0003020A6916B6FF05060600
:1009B300081618C3CA33CACB33CB33CA27CA09CBE9
:1009C30037CB193CC37D08803E187D0820E75CC601
:1009D30033C6CA33CACB33CB33DDF1D5F0EB30E7C3
:1009E3007BCA97CA09CB974ACB199C406F4B70259A
:1009F300E620E0218066187D08C3CA97CA09CB9711
:100A0300CB199CD3C633C6CA33CACB33CB3350C9F5
:100A1300DDE7D5F0E1D3E4C636C608C636C608C658
:100A230036C608C636C61818188031C3CA97CA090D
:100A3300CB97CB199CB34097C633C6CA33CACB33C3
:100A4300CB33DD34D5F02EC6A2E0C640C8CA27CAD0
:100A530009CB37194A70BECB3CB480B90808E633DA
:100A630008E633601F181818D0E0FAD0E0FBD0E096
:100A7300FCD0E0FD22187D08CA27CA09CB37CB1961
:100A83003CD3808013F618E4B67F11F618B6FF0E38
:100A9300F618C60470D20808768080CAF618F618CD
:100AA300F680C5001219DD604F1219EC6012E7548D
:100AB3008066F612186E7011121A92703B090909BA
:100AC300F4F618F618F618F6221218827015121A90
:100AD3009B08080860EAE6447FF618768018E4F677
:100AE30018F622121A9B6016121A927012E4F60874
:100AF300F608F608E65480F609090918181822EAD8
:100B0300C0E0EBC0E0ECC0E0EDC0E0E687F0A4FBA2
:100B1300ACF008E687F0A42CFCE435F0FA1809E6FB
:100B230087F0A42C4B60027401CA35F0FCE433FB5C
:100B330009E687F0D2F7A42CCB35F0FC1908E68739
:100B4300F0A42BCC35F0FBE433FD0819E687F0D293
:100B5300E7A42C4ACB35F0CD3400FC09E687F0D26C
:100B6300E7A42DCC35F0FDE433FA0918E687F0D27B
:100B7300F7A42CCD35F0CA3400FC08E687F0D2E7A1
:100B8300D2F7A42ACC35F07A7E20E70B0ACB33CBFD
:100B9300CD33CDCC33CC33CB3350147004ED30E0B4
:100BA3000ED2F1E4CD3DCDCC3CCC3B5005DA05C2B1
:100BB300F1EB547FC63308E63392F0FBE73309E7E2
:100BC30033C39A502D2B70190C0D4C4D701518060C
:100BD300E608C333700D20F10AA2F013F6E418807F
:100BE3000B4024E4F630F002768018F618F618F677
:100BF3008024D33B14501074FFA2F013F6187680B0
:100C0300E418F618F6800FA2F013F618E63303F68D
:100C130018ECF618EDF6D0E0FDD0E0FCD0E0FBD008
:100C2300E0FA22C0E074F112110DA2AFE433F5092A
:100C3300D2AF85A708AFA1EF5508FE74105E60061A
:100C4300121FC975A1EF74085E6008121FCF75A14A
:100C5300F78024EFA2E092F0E508A2E082F05017BB
:100C6300906198E0F890078DE0C398A2D265D033E5
:100C73005002E8F075A1FEE509A2E092AF7F0202FF
:100C8300116CC0E074F212110DA2AFE433FED2AFC7
:100C93009061A4E0F8759B00E591585408600875CD
:100CA30091F71220178023E591585410600875912D
:100CB300EF12201D8014E591A2E092F0E8A2E082F9
:100CC300F05007E0C2E0F01221799061A3E0F8E56B
:100CD300E9585404600E12214F75E9FB906193E0CB
:100CE300A2E640F2EEA2E092AF7F0102116CC0E0F7
:100CF30074F212110DA2AFE433FED2AF9061A5E0FE
:100D0300F8E5BF585404600675BFFB12219180D4E7
:100D1300120D6830F043120DAD803E8A088B098CAA
:100D23000A8D0B7808120D6820F01430E72B74FF3E
:100D3300FCFBFA747F8022E4FCFBFA7480801AB413
:100D43008008BC00F2BB00EF800F50EBF9E4C39ABC
:100D5300FAE49BFBE49CFCE499C6CC18C6CB18C60A
:100D6300CA18C6F922E4C9C608CAC608CBC6D33313
:100D73000308CCC63392F0C3947F402E94184019D5
:100D8300C9B90704CACBCC225025C309CA33CACB7D
:100D930033CBCC33CC33D9F422F4600DC9CCC31399
:100DA300CB13CBCA13CAD9F6CC22E4FCFBFA221428
:100DB300FCFBFA22C3E498F8E499F9120DF88026B3
:100DC300C3E49AFAE49BFBE920E7E9120DF8E498FF
:100DD300F8E499F922C3E498F8E499F9120DF8E4D8
:100DE30098F8E499F9C3E49AFAE49BFB22EB20E731
:100DF300CFE920E7E0B90010BB0008E88AF084F8E7
:100E0300AAF022E4FBC8FA22EB70227B10C833C895
:100E1300C933C9335007C39AC3DBF280069A500122
:100E23002ADBEAC833F4C8C933F4C9FA2275F008D7
:100E3300E4C833C8C933C933C99AC99B5004C92A02
:100E4300C93BD5F0ECFBC833F4C8E4C9FA22C0E0CF
:100E530074F212110DA2AFE433FED2AF900936E063
:100E63005589600FE589FA790012259F900936E0CC
:100E7300F45289C2C5EEA2E092AF7F0102116CC0A9
:100E8300E074F212110DA2AFE433FED2AF90093732
:100E9300E0558A600FE58AFA790112259F90093798
:100EA300E0F4528AC2EB80CDC0E074F212110DA2BD
:100EB300AFE433FED2AF900938E0558B600FE58B7A
:100EC300FA790212259F900938E0F4528BC2E88028
:100ED300A4080808EAC0E0EBC0E086F0E7A4FA182B
:100EE3000986F0E7A42AFA180986F0E7A42AFA1873
:100EF3000986F0E7A42AFA1986F0E7A4FBE5F02AAD
:100F0300FA190886F0E7A42BFBE5F03AFA190886EC
:100F1300F0E7A42BFBE5F03AFA18180986F0E7A4EA
:100F2300C5F02BFBE43AFA1908E7C5F0C6A426F688
:100F3300E5F03BFBE43AFA1886F0E7A4F6E5F0089F
:100F430026F6E43B08F6E43A08F6D0E0FBD0E0FAF4
:100F530022080808E630E71112185A120F6C080825
:100F630008C64480C618181822181818E9799EC6AE
:100F730008CAC608CBC608CCC6C370207996CACBAC
:100F8300CC7019798ECBCC70137986CC700EF98026
:100F93002ACA33CACB33CBCC33CC331930E7F2CCA8
:100FA300CBCA3350147004EA30E00DE4CA3ACACB1A
:100FB3003BCBCC3CCC500209C3E913C6CC1823135A
:100FC300C6CB18C6CA18C6F922E4CFC0E0E4CEC027
:100FD300E0E4CDC0E0E4CCC0E075F020E626F608FE
:100FE300E633F608E633F608E633F6181818EC335A
:100FF300FCED33FDEE33FEEF33FFC3EC9709ED97C2
:1010030009EE9709EF97191919400FFFEC97FC099F
:10101300ED97FD09EE97FE191906D5F0BFECF70918
:10102300EDF709EEF709EFF7191919D0E0FCD0E055
:10103300FDD0E0FED0E0FF222518C582C0E0E5190F
:1010430034FFC583C0E0E518C3958224F810AF08C8
:101053008583198582188008858319858218D2AF04
:10106300CEF0A3E520F0A37808E608F0A3DEFAEFBC
:10107300F0A3E58124FAF8E608F0A3E608F0A3E676
:1010830008F0A30808E608F0A3E608F0A315811505
:1010930081D0E0FED0E0F8158115811581E8C0E02C
:1010A300EEC0E0222518C582C0E0E51934FFC583F0
:1010B300C0E0E518C3958224F910AF08858319852C
:1010C30082188008858319858218D2AFCEF0A3E5F4
:1010D30020F0A37808E608F0A3DEFAEFF0A3E58199
:1010E30024FBF8E608F0A3E608F0A30808E608F0F6
:1010F300A3E608F0A315811581D0E0FED0E0F81532
:10110300811581E8C0E0EEC0E022C0D02518C58279
:10111300C0E0E51934FFC583C0E0E518C395822418
:10112300F310AF0885831985821880088583198594
:101133008218D2AFC8F0A3E9F0A3EAF0A3EBF0A3BF
:101143007908E709F0A3D8FAECF0A3EDF0A3EEF0E9
:10115300A3EFF0A3D0E0F0A3D0E0F0A3D0E0F0A39E
:10116300E520F0A3E5F0F0A322851983851882E03A
:10117300C0E0A3E0F9A3E0FAA3E0FBA37808E0F65C
:1011830008A3DFFAE0FCA3E0FDA3E0FEA3E0FFA3D6
:10119300E0C0E0A3E0C0E0A3E0F5D0A3E0F520A326
:1011A300E0A3F5F010AF08858319858218800885C0
:1011B3008319858218D2AFD082D083D0E0F8D0E0F3
:1011C3003212185D181818120FCC12197C1919193C
:1011D3002212197C191919080808E618181820E7AB
:1011E300E0120FCC12185D18181822090909E71923
:1011F300191920E7DC080808E618181820E7030285
:101203000FCC12185D181818120FCC12185D18188D
:101213001812197C19191922121A7DB90003021226
:101223005AE490037178B479188002F0A3D8FCD9FA
:10123300FA7A247B1B900086789D79038015E493CA
:10124300A3AD82AE838A828B83F0A3AA82AB838D04
:10125300828E83D8E9D9E775829875839C740712C7
:1012630016D575829F75833A74001216D575F010E2
:101273008E1A8F1B85821F85831E8518828519838D
:10128300E0CEA3E0CF851F82851E83EBC9EAC8EDBC
:10129300CBECCAC3E833C8E933C9EA33CAEB33CB6F
:1012A300C3EA9EF51DEB9FF51CB35004AB1CAA1DAE
:1012B300EC33CCED33CDD5F0DAAE1AAF1B221219D5
:1012C300DD601C1219EC6017121A9B7007121A9238
:1012D3007001D322C0D0121A927006D0D0B322C3A9
:1012E3002233D0D0501430E0F6C3E7960809E796CE
:1012F3000809E7960809E796B32220E0D5E69708A0
:1013030009E6970809E6970809E697B322D083D040
:1013130082ECC0E0EDC0E0E493A3FCE493A3FDED15
:101323004C600D121474EC24FFFCED34FFFD80EFD0
:10133300E493A3FCE493A3FDED4C600D1215BAEC0A
:1013430024FFFCED34FFFD80EFD0E0FDD0E0FCE4B2
:1013530093A3C0E0E493C0E0221219DD601B1219CD
:10136300EC6016121A9B7007121A92600CB322C01B
:10137300D0121A927005D0D022C32233D0D050138A
:1013830030E0EBC3E7960809E7960809E7960809F2
:10139300E7962220E0E4E6970809E6970809E6972E
:1013A3000809E69722851983851882E0A3FEE0A346
:1013B300F5207808E0A3F608DFFAE0A3FFE0A3C076
:1013C300E0E0A3C0E0E0A3C0E0E0A3C0E0E0A3C08E
:1013D300E010AF08858218858319800885821885F7
:1013E3008319D2AFD083D0820216DBD083D082E9B7
:1013F300C0E0E493A3C386F0C5F095F0F908E49345
:10140300A386F0C5F095F0700BE493A3C399400550
:10141300E9048002A3E475F002A42582F582E5F0D5
:101423003583F583D0E0F9E493A3C0E0E493C0E00F
:1014330022851983851882E0A3FEE0A3F5207808AE
:10144300E0A3F608DFFAE0A3FFE0A3C0E0E0A3C057
:10145300E0E0A3C0E0E0A3C0E010AF0885821885F8
:1014630083198008858218858319D2AFD083D082EF
:1014730022C0E0C3E49396087401939618400FE4E6
:101483009366700808740193661870007019A3A31B
:10149300C3E49396087401939618A3A3400DD0E078
:1014A300D0E0D0E002134CA3A3A3A3A3A3D0E022D4
:1014B300C0E0C0D0E8C0E0C008C009C00AC00BC08B
:1014C30082C083E5AFA2E55010908A127808121A01
:1014D300199007747808121943C2C1D083D082D0FF
:1014E3000BD00AD009D008D0E0F8D0D0D0E032C079
:1014F300E074F212110DC2D9901B84E0C39400A2D0
:10150300D265D0334005E0F91228CF7F0102116C78
:10151300C0E074F212110DC2DC901B86E0F9C39493
:1015230000A2D265D03340031228CF80DE7404803A
:101533000474028000CCC0E0EDC0E0E518C39CCC8D
:10154300AD1950011D10AF068C188D1980068C182B
:101553008D19D2AF121657D0E0FDD0E0FC227402F1
:101563008000CCC0E0EDC0E0E518C39CCCAD1950C1
:10157300011D10AF068C188D1980068C188D19D299
:10158300AF121635D0E0FDD0E0FC221219DD602544
:101593001219EC6020121A9B7003021A92080808B1
:1015A300E76670101819E766700A1819E766700481
:1015B3001819E76622F422C0E0C0F088F0E49366CD
:1015C30070080874019366187000A8F0A3A3700B49
:1015D300D0F0D0E0D0E0D0E002134CA3A3D0F0D001
:1015E300E022D083D082CCC0E0E493A3600612163D
:1015F300971470FAE493A360061217F11470FAD0EB
:10160300E0FCE493A3C0E0E493C0E022C008C3E09D
:1016130096F50808A3E096420808A3E09642080856
:10162300A3E0964208A2D265D033E5087001D3D077
:101633000822CAC0E0E493A3C582CCC582C583CD8A
:10164300C583F0A3C582CCC582C583CDC583DAE546
:10165300D0E0CA22CAC0E0E0A3C582CCC582C5835C
:10166300CDC583F0A3C582CCC582C583CDC583DA3E
:10167300E6D0E0CA22700908080822601618181874
:10168300C6C333C608C633C608C633C608C633C680
:10169300D5E0EA22C0E0E493A3D39C5010E493A3E3
:1016A300C39C400AD0E0D0E0D0E0021602A3A3A37B
:1016B300D0E022C008C3E096F50808A3E0964208EC
:1016C30008A3E096420808A3E09645087001D3D02A
:1016D3000822C09FF59FE473D09F22D083D082C09D
:1016E3009FE493C0E0740193C0E0740293F59F22DA
:1016F30000C0D0251810AF08F518500C0519800844
:10170300F51850020519D2AFD0D0227404800A74A0
:10171300038006740280027401C0E0F404121729E6
:10172300D0E0121A28222518F58210AF08F51840C8
:101733000C15198008F51840021519D2AF851983C5
:1017430022BB0102E722C082C08389828A83BB0055
:1017530003E08002E493D083D08222601708080854
:10176300C6A2E713C618C613C618C613C618C613EF
:10177300C6D5E0E922C0E0C0D0E8C0E0A8A8D2AF57
:10178300C2C7E8A2E792AFD0E0F8D0D0D0E0326091
:1017930016080808C6C313C618C613C618C613C648
:1017A30018C613C6D5E0EA222518F8E43519F9223C
:1017B3002518FAE43519FB222518FCE43519FD2216
:1017C300C3E0C696F608A3E0C696F608A3E0C6965D
:1017D300F608A3E0C696F622251810AF08F51840C0
:1017E3000C15198008F51840021519D2AF22C0E074
:1017F300E493A36C7009D0E0D0E0D0E0021602A31A
:10180300A3D0E022E76670100809E766700A0809AA
:10181300E76670040809E76622C3E09608A3E0962A
:1018230008A3E09608A3E096A2D265D03322E0662F
:10183300701008A3E066700A08A3E066700408A3AA
:10184300E06622C3E096F008A3E096F008A3E096D2
:10185300F008A3E096F022181818E4C396F608E4FB
:1018630096F608E496F608E496F622181818E608A1
:1018730046087009E626087005E633F422082219A3
:101883001919E70947097009E727097005E733F4D0
:10189300220922C3E4939608740193960874029371
:1018A30096087403939622C3E697F60809E697F61B
:1018B3000809E697F60809E697F622E026F608A354
:1018C300E036F608A3E036F608A3E036F622E6276C
:1018D300F60809E637F60809E637F60809E637F6A3
:1018E30022700422600D18C6C333C608C633C6D59A
:1018F300E0F41822E056F008A3E056F008A3E056FF
:10190300F008A3E056F022E056F608A3E056F608E6
:10191300A3E056F608A3E056F622E647F60809E6E2
:1019230047F60809E647F60809E647F622E657F6BA
:101933000809E657F60809E657F60809E657F622B6
:10194300E026F008A3E036F008A3E036F008A3E0B1
:1019530036F022E046F008A3E046F008A3E046F0A4
:1019630008A3E046F022E493F608740193F60874A2
:101973000293F608740393F622E4C397F709E497F6
:10198300F709E497F709E497F722600D08C6A2E781
:1019930013C618C613C6D5E0F322C6F4C608C6F4A8
:1019A300C608C6F4C608C6F4C622C3E09608A3E078
:1019B3009608A3E09608A3E09622C3E7960809E7F2
:1019C300960809E7960809E7962275D00075813FC6
:1019D3007518717519030002121BE6084608C31334
:1019E3004608336002E633F422E7094709C3134785
:1019F30009336002E733F422600C08C6C313C61828
:101A0300C613C6D5E0F422E6F008A3E6F008A3E681
:101A1300F008A3E6F022E0F608A3E0F608A3E0F658
:101A230008A3E0F622CAC0E0E6F0A308DAFAD0E0A1
:101A3300FA22E0FCA3E0FDA3E0FEA3E0FF22EAF02C
:101A4300A3EBF0A3ECF0A3EDF022E0FAA3E0FBA3F9
:101A5300E0FCA3E0FD22E8F0A3E9F0A3EAF0A3EBA6
:101A6300F022ECF0A3EDF0A3EEF0A3EFF022E0F808
:101A7300A3E0F9A3E0FAA3E0FB22E5C754F844018D
:101A8300F5C77901222518F582E43519F58322E794
:101A93002719471947194722E626184618461846B4
:101AA30022C2AF75D69F020000221216DEE0C802E2
:101AB3001216DEEAC8021216DEF4C8021216DEFEA1
:101AC300C8021216DE08C9021216DE12C902121665
:101AD300DE19C9021216DE20C9021216DE27C90258
:101AE3001216DE2EC9021216DE35C9021216DE3CAC
:101AF300C9021216DE43C9021216DE4AC9021216C1
:101B0300DE51C9021216DE58C9021216DE5FC9027F
:101B13001216DEBFC9021216DE1FCA021216DE7FBC
:101B2300CA021216DEDFCA021216DE3FCB021216FB
:101B3300DE9FCB021216DEFFCB021216DE5FCC0253
:101B43001216DEBFCC021216DE1FCD021216DE7F86
:101B5300CD021216DE53D0021216DE27D30212165E
:101B6300DEFBD5021216DEBDD8021216DE91DB02B1
:101B73001216DE65DE021216DE39E1021216DE0DE2
:101B8300E4021216DEE1E6021216DEB5E9021216CF
:101B9300DEE6E9021216DE17EA021216DE48EA0250
:101BA3001216DE79EA021216DEAAEA021216DEDB4A
:101BB300EA021216DE0CEB021216DE3DEB021216DF
:101BC300DE6EEB021216DE9FEB021216DED0EB0284
:101BD3001216DE90EE021216DEC1EE021216DEF8C7
:101BE300EE021216DE2FEF021216DE08F0021216B4
:101BF300DE20F0021216DE38F0021216DE3BF0028F
:101C03001216DE7FF0021216DE82F0021216DEB723
:101C1300F0021216DEBEF0021216DEF0F202121607
:101C2300DEFAF2021216DE1BF3021216DE09F402CA
:101C33001216DE2AF4021216DE34F4021216DE4302
:101C4300F4021216DE74F5021216DE27FA021216D9
:101C5300DE97FA021216DEBFFB021216DECFFB027C
:101C63001216DED9FB021216DE07FC021216DEC7BD
:101C730077001216DEEC77001216DE41780012169A
:101C8300DE8278001216DE5779001216DEF0790034
:101C93001216DE387A001216DECC7A001216DEA88F
:101CA3007B001216DE997C001216DED07D00121620
:101CB300DEF37E001216DEC1E5061216DEF5E5063A
:101CC3001216DE26E6061216DE66E6061216DEEDAE
:101CD300E7061216DE31E9061216DEB69305121672
:101CE300DEE894051216DEDF95051216DE759605FD
:101CF3001216DED396051216DE6597051216DE6AF6
:101D030099051216DEEC9A051216DE569B0512167D
:101D1300DEF59C051216DEFC9D051216DE619E059E
:101D23001216DE87A0051216DEE6A1051216DE1CCA
:101D3300DC011216DE87DC011216DE38DD01121615
:101D4300DE33E0011216DE12E3011216DEA2E30116
:101D53001216DEFDE6011216DEA3E9011216DE4DB0
:101D6300EA011216DEC3EB011216DE10EC011216A5
:101D7300DE09EE011216DE3FEE011216DE08EF0158
:101D83001216DEBAEF011216DE44F0011216DE84DB
:101D9300F1011216DE31F2011216DE39F3011216C9
:101DA300DE77F6011216DECFF6011216DE33F701E7
:101DB3001216DE9FF7011216DE19F8011216DE7BEA
:101DC300F8011216DEDCF8011216DE60F9011216B4
:101DD300DE00FA011216DED4FA011216DEC0FB0190
:101DE3001216DEC5FB011216DE9CFC011216DEBCC8
:101DF300FD011216DE97D3061216DEC3D3061216A2
:101E0300DE07D4061216DEBAD4061216DE5CD60638
:101E13001216DEFCD6061216DEB3D7061216DED96C
:101E23008E071216DE658F071216DE8090071216D4
:101E3300DE9C90071216DEEAFE011216DEFBFE019F
:101E43001216DEC0FF011216DECFFF011216DEDA14
:101E5300FF011216DEFC7F001216DE7EB10712169A
:101E6300DE09B2071216DE31AE071216DE41AE07E7
:101E73001216DE53AE071216DEB9AE071216DE8F48
:101E8300AB071216DE12AC071216DE78AC07121679
:101E9300DE989A071216DED39A071216DE2F9B07D7
:101EA3001216DE879B071216DE0E9C071216DE4AF9
:101EB3009C071216DEF6B1071216DE06B2071216DB
:101EC300DECAED061216DE2DEE061216DE7CEE06D7
:101ED3001216DEA9EE061216DEFFEE061216DE4617
:101EE300B1071216DE7E9E071216DEC0CC0512164F
:101EF300DE2ACD051216DEDCCD051216DEA5CE05D3
:101F03001216DE01D0051216DE22D1051216DE5E90
:101F1300D2051216DE46D4051216DE79D405121642
:101F2300DEDFD4051216DE11D5051216DE98D605AE
:101F33001216DE1AD7051216DE2ED7051216DEA4E8
:101F4300D7051216DEA8A1071216DEBCA1071216CA
:101F5300DEFDA1071216DED3A2071216DEE7A207E3
:101F63001216DE97C4061216DEC3C4061216DE343A
:101F7300C7061216DE74C7061216DEB4C70612169B
:101F8300DEC8C7061216DEE1C7061216DED2C80681
:101F93001216DE77C9061216DE8BC9061216DE1478
:101FA300A3071216DE38A3071216DE51A307121673
:101FB300DE83A3071216DEB3A3071216DEE0A30720
:101FC3001216DE42A4071216DE51A4071216DE5BB8
:101FD300A4071216DE68A4071216DEA591071216CF
:101FE300DEC591071216DE0492071216DE1F920752
:101FF3001216DE3E92071216DEA492071216DEAD0B
:1020030092071216DE0A93071216DE2E9307121694
:10201300DEEF93071216DEFC93071216DE0D94070C
:102023001216DEB6FF041216DECEFF041216DEFA17
:10203300FF041216DE2ADD061216DE7EDE061216F7
:10204300DE8CDE061216DE9FDE061216DEB4DE0618
:102053001216DEC9DE061216DEDCDE061216DE50AE
:10206300DF061216DEB5DF061216DE57E00612167D
:10207300DE1BE1061216DE2BE1061216DE3AE1063E
:102083001216DE98AD071216DEBCAD071216DEE49B
:10209300AD071216DE0CAE071216DE21B0071216BC
:1020A300DE6696071216DE8D96071216DEAB9607CE
:1020B3001216DE1E97071216DE2E86071216DE474D
:1020C30086071216DE5386071216DE678607121678
:1020D300DE8586071216DE8F86071216DE998607BF
:1020E3001216DEAC86071216DE3687071216DEAB33
:1020F30087071216DEDF87071216DE2D88071216F2
:10210300DE7A88071216DE9588071216DE9F880787
:102113001216DEC588071216DE2A89071216DE0498
:10212300FF041216DE26FF041216DEC8B1071216CC
:10213300DEB193061216DEDB93061216DEF8930663
:102143001216DE0B94061216DE2194061216DE7F9B
:1021530094061216DEB794061216DEAF9806121610
:10216300DEF499061216DE279A061216DE8A9A06FE
:102173001216DE039C061216DE2B9C061216DE4098
:102183009C061216DE509C061216DE949C0612164E
:10219300DEEF9C061216DEFF9C061216DE19A70759
:1021A3001216DE33A7071216DE5BA7071216DE74BC
:1021B300A7071216DE98A7071216DEB6A707121690
:1021C300DECDA7071216DEFBA7071216DE16A80739
:1021D3001216DECAB0071216DEAAF5061216DEBA0A
:1021E300F5061216DEBFF6061216DEF1F606121615
:1021F300DE17F7061216DE3AF7061216DE51F70659
:102203001216DE8BF7061216DEF0F7061216DE3212
:10221300F8061216DE71F8061216DEA2F80612167A
:10222300DED9F8061216DEE999041216DE199A04AD
:102233001216DE3A9A041216DE589A041216DE7546
:102243009A041216DEBF9A041216DED79A041216E7
:10225300DEE69A041216DE1E9B041216DE3E9B0473
:102263001216DE7A9B041216DED99B041216DE4A7E
:102273009C041216DEFF9C041216DE8E9D041216B9
:10228300DE929E041216DE6D9F041216DE979F04E3
:102293001216DEB49F041216DE35A0041216DE4AAF
:1022A300A1041216DE78A1041216DE8DA104121603
:1022B300DEDAA1041216DE2DA2041216DEA1A30497
:1022C3001216DEC0A3041216DEE6A3041216DEF70E
:1022D300A3041216DE10A4041216DE41A40412167F
:1022E300DE6AA4041216DE69A5041216DEE2A60451
:1022F3001216DE21A7041216DE31A7041216DE41E0
:10230300A7041216DE80A7041216DEE5A704121630
:10231300DE91A8041216DEF9A8041216DE49A904F8
:102323001216DE5FA9041216DEA5A9041216DEBE7C
:10233300A9041216DEC8A9041216DED2A9041216C5
:10234300DEE2A9041216DE82AA041216DEC7AB046B
:102353001216DE9FAC041216DEF7AC041216DE2250
:10236300AD041216DE30AD041216DE38AD041216BB
:10237300DE40AD041216DE7CAF041216DE85B10416
:102383001216DE8EB1041216DE97B1041216DEA009
:10239300B1041216DEB6B1041216DEBFB104121672
:1023A300DEC8B1041216DECFB1041216DED1B104B9
:1023B3001216DED8B2041216DEF8B3041216DEC605
:1023C300B5041216DEB0B7041216DEDCB80412161A
:1023D300DEFCB8041216DEDFBB041216DE34BC04C6
:1023E3001216DE17BD041216DED1BD041216DEEC82
:1023F300BE041216DEF1C1041216DED1C304121696
:10240300DE69C5041216DE89C7041216DE008004D5
:102413001216DE4680041216DE6081041216DE8672
:1024230081041216DE4884041216DEC884041216D0
:10243300DEF185041216DE6289041216DECC8904ED
:102443001216DE698A041216DEB98A041216DE7DBC
:102453008B041216DECD8B041216DE048C041216C6
:10246300DE078C041216DE178C041216DE298C0488
:102473001216DE6E8C041216DE118E041216DE7E28
:102483008E041216DEC98E041216DE658F04121630
:10249300DEF18F041216DEC391041216DE6A930472
:1024A3001216DE0994041216DE2096041216DEFEBE
:1024B30096041216DEAE98041216DE7CFE03121684
:1024C300DE96FE031216DED8FE031216DE0BFF03A2
:1024D3001216DE24FF031216DE90FF031216DEBC73
:1024E300FF031216DEA9B9061216DEDFB9061216AD
:1024F300DE33BA061216DE03BB061216DE39BB063E
:102503001216DE66BB061216DEB8BB061216DED640
:10251300BB061216DEFABB061216DE7CBC061216CA
:10252300DE06BD061216DE4CBD061216DE6ABD06B9
:102533001216DE98BD061216DEBCBD061216DEF2BA
:10254300BD061216DE51BE061216DE73BE06121645
:10255300DED2BE061216DEDCBE061216DE15BF067E
:102563001216DE24BF061216DE32BF061216DE1A5C
:102573008A061216DE548A061216DE938B0612168C
:10258300DEE68C061216DE8B93061216DE59D8068B
:102593001216DE9AD8061216DE49D9061216DE87FF
:1025A300AA071216DEF8AA071216DE5BAB0712168D
:1025B300DE0080061216DE1F81061216DE978206E3
:1025C3001216DEDE83061216DE3684061216DE7659
:1025D30084061216DE8484061216DEB484061216EE
:1025E300DE4485061216DEE185061216DEED86064A
:1025F3001216DE8988061216DE0F8A061216DE3BD5
:10260300FC021216DE14FD021216DE50FD02121633
:10261300DE79FD021216DE4EFF021216DE9DCE0695
:102623001216DEBACE061216DEFFCE061216DE35FF
:10263300CF061216DEECCF061216DE8DD106121669
:10264300DEFAD1061216DE79D3061216DEBED705E0
:102653001216DEC2D8051216DE35D9051216DE4C67
:10266300DA051216DE98DA051216DE0BDE051216EF
:10267300DE53DE051216DE1FDF051216DE69DF05E7
:102683001216DE01E0051216DE66E0051216DE4ABA
:10269300E1051216DE16A0071216DE53A007121666
:1026A300DE78A0071216DE94A0071216DEA9A00793
:1026B3001216DE2F9D061216DE919D061216DE25DA
:1026C3009E061216DEAE9F061216DEA6A20612168E
:1026D300DEBCA2061216DE7EA3061216DE72A40765
:1026E3001216DE84A4071216DE98A5071216DE9BC7
:1026F300A5071216DE1DFF051216DE53FF0512167F
:10270300DE6DFF051216DEAFFF051216DEBFFF05F5
:102713001216DEF5AC061216DE2FAD061216DE9883
:10272300AD061216DEB5AD061216DE57AE0612164C
:10273300DE60AE061216DEA5AE061216DECEAE06BD
:102743001216DEDBAE061216DE4CAF061216DED70D
:10275300AF061216DE25B0061216DE63B006121699
:10276300DEC8B0061216DEEBB0061216DE62B10644
:102773001216DEB9B1061216DEF4B1061216DE2900
:10278300B2061216DE3BB2061216DE4DB206121662
:10279300DE6CB2061216DE75B2061216DE30B30612
:1027A3001216DE7CB3061216DEBAB3061216DEC8A4
:1027B300A5071216DE08A7071216DE0EB1071216BA
:1027C300DE2AB1071216DE2483071216DE6883079A
:1027D3001216DEB083071216DE9685071216DE2563
:1027E30086071216DE43AF071216DE0080051216A7
:1027F300DE2481051216DE5E81051216DE088305CE
:102803001216DE3283051216DEA785051216DEE7E1
:1028130085051216DE7D87051216DE1A8805121647
:10282300DE6C88051216DE0F89051216DE47890550
:102833001216DE8989051216DEF88A051216DE469F
:102843008C051216DE778E051216DEA58E0512167E
:10285300DECC8E051216DED58E051216DE258F050B
:102863001216DEB78F051216DEE692051216DE6922
:1028730093051216DEE0B1071216DEC6E90612163C
:10288300DEDCE9061216DE80EA061216DEBFEA0671
:102893001216DEDCEA061216DE0DEB061216DE5AFF
:1028A300EB061216DE8DEB061216DEC8EB061216C9
:1028B300DEBDED061216DEE6B3061216DE8CB50695
:1028C3001216DECDB6061216DEE5B6061216DEF8D1
:1028D300C8041216DEA9C9041216DEFAC9041216B8
:1028E300DE10CA041216DEBACA041216DE1DCB04A9
:1028F3001216DE31CE041216DEA1CE041216DEAAA3
:10290300D0041216DEE3D0041216DE76D3041216B8
:10291300DE8ED3041216DEB6D3041216DE34D404CC
:102923001216DEAFD4041216DE7AD6041216DEC8EF
:10293300D7041216DE46D8041216DECDDD041216B5
:10294300DE3B94071216DE5394071216DE529507E8
:102953001216DE5995071216DE8295071216DE91BE
:10296300AC071216DEF0AC071216DE2EAD071216F8
:10297300DE6FAD071216DEB5AF071216DEF4AF0732
:102983001216DE49A8071216DE58A8071216DEB87B
:10299300A8071216DEDA7F001216DEF6A806121654
:1029A300DEE67F001216DE31C1051216DE48C305CE
:1029B3001216DE9BC3051216DE24C4051216DE9F13
:1029C300C4051216DE61C5051216DE8BC505121687
:1029D300DEABC5051216DEBAC5051216DEFDC5054A
:1029E3001216DE09C6051216DE40C6051216DE896A
:1029F300C6051216DEA3C6051216DECFC6051216CD
:102A0300DE3FC7051216DED4C7051216DEF8C7056A
:102A13001216DE6DC8051216DE62C9051216DEE354
:102A2300C9051216DE30CA051216DE64CA0512166F
:102A3300DED6C8021216DE87CB051216DEC1CB0521
:102A43001216DEFECB051216DE11CC051216DE2E93
:102A5300CC051216DE61CC051216DE85CC051216E6
:102A6300DED249001216DEDE49001216DE404A00AD
:102A73001216DE4A4A001216DEDD4A001216DE196D
:102A83004B001216DED54B001216DEE84B00121671
:102A9300DE384C001216DEA24C001216DE074D0083
:102AA3001216DE3D4D001216DEBF4D001216DE6E0D
:102AB3004F001216DE4251001216DE285200121683
:102AC300DE7A53001216DED055001216DE39570097
:102AD3001216DED657001216DE7E5C001216DE6C6E
:102AE3005D001216DE0A5E001216DE365E00121656
:102AF300DED25E001216DEE75E001216DE0B5F000A
:102B03001216DE715F001216DE8E5F001216DEB83B
:102B13005F001216DE3561001216DE5661001216D2
:102B2300DEDC61001216DE8262001216DEC962006C
:102B33001216DE3C63001216DEC863001216DE2C8A
:102B430064001216DE8C64001216DE226500121673
:102B5300DE9D65001216DED065001216DE326600B9
:102B63001216DE9467001216DE0468001216DEB336
:102B730068001216DE096A001216DEA16A00121638
:102B8300DE0D6B001216DE506D001216DEDC6E00D9
:102B93001216DE076F001216DEED70001216DE83CA
:102BA30072001216DE8C73001216DE57B30512166E
:102BB300DE0EB4051216DE15B5051216DE93B50545
:102BC3001216DED5B6051216DEF6B6051216DEAE01
:102BD300B7051216DE59B8051216DE39BC051216F2
:102BE300DE55BE051216DEBCBF051216DE86B00723
:102BF3001216DEDBF7051216DE7BF8051216DEEC85
:102C0300F8051216DEA7FD051216DE35FE051216AF
:102C1300DE42CF031216DE9ACF031216DE20D00354
:102C23001216DE32D1031216DE7FD1031216DE65D1
:102C3300D2031216DE7CD2031216DECED203121694
:102C4300DE06D3031216DE19D3031216DE6FD30387
:102C53001216DEC8D3031216DEE0D3031216DE50BB
:102C6300D6031216DEE7D6031216DE11D7031216A9
:102C7300DE49D7031216DE6FD9031216DEB5D90368
:102C83001216DEFFD9031216DED3DA031216DE1490
:102C9300DB031216DE37DB031216DE7EDB031216AE
:102CA300DEA0DB031216DE21DC031216DEAEDC032C
:102CB3001216DE08DD031216DE50DD031216DEC522
:102CC300DE031216DE41E1031216DECEE103121615
:102CD300DEFAE2031216DE35E3031216DE02E40324
:102CE3001216DE42E4031216DE45E4031216DE4F2B
:102CF300E4031216DE62E4031216DEE3E4031216A3
:102D0300DE19E5031216DE45E5031216DE6CE50354
:102D13001216DE90E5031216DE27E6031216DE40D6
:102D2300E6031216DE73E6031216DE93E6031216AB
:102D3300DED0E6031216DE07E7031216DE06E8030B
:102D43001216DE39E9031216DEBCAE071216DEC810
:102D5300AE071216DE0EAF071216DEF97F0012164B
:102D6300DE4FE9031216DE72E9031216DE49EA03A7
:102D73001216DE92EA031216DEEAEA031216DE44A4
:102D8300EB031216DE90EB031216DE06EC031216AB
:102D9300DE94EC031216DE0CED031216DE4FED0388
:102DA3001216DE2CF1031216DE73F3031216DEA6DF
:102DB300F3031216DE24F4031216DEA9F40312162B
:102DC300DE81F5031216DEABF6031216DE96F70369
:102DD3001216DE73F8031216DEAFF9031216DE5372
:102DE300FB031216DEE5FB031216DEECFD031216DF
:102DF300DEC8A3051216DE68A4051216DED2A405EA
:102E03001216DE79A5051216DEDDA5051216DE10F3
:102E1300A7051216DE36A8051216DEAFA805121690
:102E2300DE87AA051216DE27AB051216DECAAB052E
:102E33001216DE29AC051216DEE4AC051216DEAA64
:102E4300AE051216DE4DB0051216DEF9B0051216E8
:102E5300DE0EB2051216DEEFDD041216DE67DE04A7
:102E63001216DEAFDE041216DEF3DE041216DE3CAB
:102E7300DF041216DE86DF041216DEBBDF04121631
:102E8300DE39E0041216DE93E0041216DEECE104F0
:102E93001216DE75E2041216DED1E2041216DEEB20
:102EA300E2041216DE12E3041216DE6AE3041216BB
:102EB300DED4E4041216DEF3E4041216DE1BE60489
:102EC3001216DE98E6041216DE05E7041216DE6714
:102ED300E7041216DE17E8041216DEE9E9041216F7
:102EE300DED4EA041216DECEEB041216DED4EC04B2
:102EF3001216DEF0ED041216DEFEED041216DED716
:102F0300EE041216DE77EF041216DEBBEF04121680
:102F1300DED0EF041216DEE1F0041216DE84F104B3
:102F23001216DEDCF1041216DE0B8C071216DE44D9
:102F33008D071216DE018E071216DE658E07121636
:102F4300DE0080071216DE1B80071216DE5F800785
:102F53001216DE8580071216DEAB80071216DEC35B
:102F630080071216DE2681071216DE3B8107121632
:102F7300DE5D82071216DE6682071216DE6F820797
:102F83001216DE7882071216DE8282071216DE73AD
:102F9300E1061216DE53E5061216DE58E506121692
:102FA300DE5AE5061216DE0B9D071216DEAAB107DE
:102FB3001216DE3589071216DE69A9071216DE9D81
:102FC300FF061216DE8998071216DEC9FF051216D0
:102FD300DEBFF1061216DE53AB031216DEAAAB03F5
:102FE3001216DE16AC031216DEA2AC031216DE585E
:102FF300AD031216DEA0AD031216DEB9AD03121631
:10300300DEDCAD031216DEFEAD031216DE3CAE03AC
:103013001216DE8BAE031216DEB6AE031216DE14E4
:10302300AF031216DEBBAF031216DE63B003121634
:10303300DEDFB0031216DEACB1031216DEF8B10305
:103043001216DE80B2031216DEB9B2031216DE4A7E
:10305300B3031216DE5BB3031216DECDB3031216EF
:10306300DE66B4031216DED0B4031216DEC0B50357
:103073001216DEE5B5031216DEE2B6031216DEEF14
:10308300B6031216DEF8B6031216DEE1B803121603
:10309300DEFDB9031216DE8EBA031216DEFFBA0383
:1030A3001216DED9BC031216DEA4C0031216DEB854
:1030B300C0031216DEC8C0031216DED2C0031216F6
:1030C300DEDBC0031216DEE4C0031216DEEEC0031D
:1030D3001216DE1DC1031216DE4BC1031216DE5695
:1030E300C1031216DE7AC1031216DE9EC103121645
:1030F300DE10C2031216DE59C2031216DE75C203B6
:103103001216DEE6C2031216DE32C3031216DE7B8C
:10311300C3031216DEB9C3031216DE3AC403121632
:10312300DE05C6031216DEA4C6031216DE6CC70341
:103133001216DEF8C9031216DE4DCA031216DE7527
:10314300CA031216DEA8CB031216DEEDCB0312164A
:10315300DE42CC031216DEF0CC031216DE95CD034D
:103163001216DECACD031216DE6ACE031216DEE68F
:10317300CE031216DEE68A011216DE188B01121632
:10318300DE4C8B011216DE008D011216DED48D018A
:103193001216DE338E011216DE498F011216DE95EA
:1031A3008F011216DE3292011216DEA79401121657
:1031B300DEF395011216DE8B96011216DE97960149
:1031C3001216DEE096011216DE1397011216DE9F29
:1031D30097011216DEB198011216DEF2990112164A
:1031E300DEF19A011216DE1B9B011216DE869B018D
:1031F3001216DEDF9B011216DE529C011216DE88C8
:103203009E011216DE0EA0011216DEF9A00112169F
:10321300DE47A2011216DE7FA4011216DE76A70195
:103223001216DE85A7011216DE19A8011216DEC4D6
:10323300A8011216DE07A9011216DE50A901121603
:10324300DEA0A9011216DE0DAA011216DE79AA016B
:103253001216DE95AA011216DEC4AA011216DE03A7
:10326300AB011216DEEBAB011216DE9AAC0112169D
:10327300DE11AF011216DE43B0011216DE12B101E8
:103283001216DE94B1011216DED6B5011216DEED6A
:10329300B5011216DE1CB6011216DE77B601121640
:1032A300DEAAB6011216DE05B7011216DE21B7013A
:1032B3001216DE82B7011216DED2B7011216DE81B4
:1032C300B8011216DE44B9011216DE0CBA01121649
:1032D300DE58BC011216DEE4BD011216DE3BBF014F
:1032E3001216DE57C0011216DE5AC0011216DE890D
:1032F300C0011216DE78C2011216DE41C301121696
:10330300DE82C3011216DED8C4011216DE4EC501D9
:103313001216DE81C5011216DEE5C5011216DE06A0
:10332300C8011216DE65C8011216DE3BC90112166A
:10333300DE4FC9011216DE63C9011216DE90C90100
:103343001216DEC0C9011216DE64CB011216DE614D
:10335300CC011216DEAFCC011216DED6CC0112164A
:10336300DEB1CD011216DE57CE011216DEDDCF011E
:103373001216DE24D0011216DE91D0011216DEE6FB
:10338300D1011216DE8FD2011216DEC3D20112163C
:10339300DEDBD2011216DE7ED3011216DEFAD50170
:1033A3001216DEA2D7011216DEC6D7011216DEE40C
:1033B300D7011216DEB0D8011216DEFEDB0112169B
:1033C300DE0080021216DE3280021216DEB28402A2
:1033D3001216DE0185021216DE4785021216DEEA98
:1033E30085021216DE4F86021216DE93860212162D
:1033F300DEFA87021216DE2689021216DE238D02FA
:103403001216DEA28D021216DEC88E021216DE2BF3
:103413008F021216DE7790021216DE0F9302121637
:10342300DE9C93021216DEA693021216DECE9302E0
:103433001216DE9694021216DE2B95021216DE5435
:1034430095021216DE8195021216DED69702121627
:10345300DEA398021216DEE298021216DE649902C7
:103463001216DE0F9A021216DE419A021216DE8C33
:103473009A021216DEC59A021216DE149B02121667
:10348300DE709B021216DEF29B021216DE579C02BE
:103493001216DECF9C021216DE789E021216DE7022
:1034A3009F021216DEB1A0021216DE05A402121646
:1034B300DE61A6021216DE1AA7021216DE62A70248
:1034C3001216DE43A9021216DE7EA9021216DE8749
:1034D300A9021216DE90A9021216DE9BA902121689
:1034E300DEBAA9021216DE6DAA021216DECAAA02FB
:1034F3001216DED4AA021216DEDEAA021216DE2A83
:10350300AB021216DE72AB021216DE76AC02121694
:10351300DE0FAD021216DED6AD021216DE00AF02CA
:103523001216DE2BB0021216DE21B1021216DE399C
:10353300B1021216DE6DB1021216DE8BB102121643
:10354300DED3B1021216DE0CB2021216DEC3B202D1
:103553001216DE84B3021216DEF7B3021216DE73FE
:10356300B4021216DE0FB5021216DE35B6021216BB
:10357300DEF1B6021216DE91B7021216DE7EB80233
:103583001216DED6B8021216DE9CB9021216DEBF80
:10359300B9021216DED4BA021216DE1FBB021216CD
:1035A300DE7BBB021216DEE3BB021216DE07BC0291
:1035B3001216DE2FBC021216DE74BC021216DE983F
:1035C300BC021216DE1CBD021216DE05BE02121666
:1035D300DE4ABE021216DE73BE021216DE11BF02EF
:1035E3001216DE7CBF021216DE8ABF021216DEB688
:1035F300BF021216DE97C0021216DE5BED0512162D
:10360300DE93ED051216DEB4ED051216DEF6ED05BA
:103613001216DE5AEE051216DE64EE051216DE747D
:10362300EE051216DEABEE051216DE54F205121687
:10363300DE1CF4051216DE00F6051216DEA2F605F0
:103643001216DE2CF7051216DE2F81031216DE93F7
:1036530081031216DEF181031216DE3C8203121679
:10366300DE5782031216DE7E82031216DE9B82036E
:103673001216DEA782031216DE3884031216DE51F9
:1036830084031216DECD84031216DEE084031216C1
:10369300DEF084031216DE9485031216DE00870320
:1036A3001216DE1388031216DEB388031216DEBD6C
:1036B30088031216DE3C89031216DE4D89031216A7
:1036C300DE8C89031216DEBA89031216DE878A039B
:1036D3001216DEDE8A031216DE178B031216DE6D58
:1036E3008B031216DE8B8B031216DED98B03121695
:1036F300DEA48C031216DEF28C031216DE3F8D035A
:103703001216DEC28D031216DEEC8D031216DE22B4
:103713008E031216DE318E031216DE908E031216FE
:10372300DE088F031216DE498F031216DE998F030C
:103733001216DEC48F031216DEDE8F031216DEF8B6
:103743008F031216DECD90031216DED790031216E6
:10375300DE1291031216DE2291031216DE2B910361
:103763001216DE7C91031216DE9091031216DEB25E
:1037730092031216DEC792031216DE5A9303121631
:10378300DECE93031216DE7394031216DE7E9403C9
:103793001216DEDE95031216DEFA95031216DE46C6
:1037A30096031216DEB496031216DEE6960312167D
:1037B300DE0097031216DE4297031216DE95990375
:1037C3001216DE2D9A031216DEA49A031216DE01D8
:1037D3009D031216DE199D031216DE1C9D0312169D
:1037E300DE289D031216DE3C9D031216DE449D0364
:1037F3001216DE7B9D031216DE6F9E031216DEF990
:103803009E031216DE7B9F031216DEFB9F03121626
:10381300DED2A0031216DEF4A0031216DE8DA1037E
:103823001216DEEAA1031216DEEDA1031216DE5C08
:10383300A2031216DEA8A3031216DEBBA4031216FC
:10384300DE46A5031216DE59A6031216DE1EA703D3
:103853001216DE4FA7031216DE75A7031216DE7EBD
:10386300A7031216DEADA7031216DE5DA803121618
:10387300DE0DA9031216DE80A9031216DE23AA03A6
:103883001216DE96AA031216DED5AA031216DE1E40
:10389300AB031216DE50A8061216DEF3A7061216A5
:1038A300DEE4A7061216DE0FA7061216DEC1A60671
:1038B3001216DEB8A5061216DE19FC061216DEA7CE
:1038C300FB061216DE28FA061216DEDEF9061216BB
:1038D300DEC8F9061216DED3C8021216DE99C80234
:1038E3001216DE31F9061216DE2BFE041216DE8FD7
:1038F300C8021216DE85C8021216DE51FD04121626
:10390300DE87FC041216DEF6FA041216DEBFFA0492
:103913001216DE91FA041216DE45FA041216DEAE12
:10392300F9041216DE1EF9041216DEF8F804121654
:10393300DEADF8041216DE77F8041216DEFAF70489
:103943001216DE95F7041216DE44F7041216DE6C27
:10395300F6041216DEDCF5041216DE90F5041216D8
:10396300DE0BF5041216DEC6F4041216DEAAF40406
:103973001216DE52F3041216DE24F3041216DEF1DD
:10398300F2041216DE75F2041216DEF1CC061216DC
:10399300DE4CCB061216DE7BC8021216DE5ACA06AE
:1039A3001216DE50C7021216DE59C6021216DE0CBC
:1039B300C6021216DE4DC5021216DEBFC40212166F
:1039C300DE6EC3021216DE55C3021216DE41C202B8
:1039D3001216DE9FC9061216DE10ED051216DEB7AB
:1039E300EC051216DE82EC051216DE00C202121678
:1039F300DE4DEC051216DE19EC051216DEACEB05F6
:103A03001216DE94EB051216DE58C1021216DE6F93
:103A1300EB051216DED4CA051216DE40E8051216AF
:103A2300DE13E6051216DE13E4051216DE99E3052E
:103A33001216DE4AE3051216DE04E3051216DEA6AD
:103A4300E2051216DE96C2061216DE18C20612161A
:103A5300DEEDC0061216DE6FBF061216DE60BF066D
:103A63001216DEA3FE061216DE8BFE061216DE010A
:103A7300FE061216DE6DFD061216DEBDA90612162F
:103A8300DE03FD061216DEBBFC061216DEA2FC06E2
:103A93001216DE73FC061216DEE07F0000000080C3
:103AA300FBE473A11A273F5A5DB03E7C85233FF0A8
:103AB30086B63EE202203F0A23BC3ED3931C3FADB1
:103AC30024C13E9E38193F1D86C53E8BF1153F46E6
:103AD30047C93E1ABF123F6D6CCC3E0AA20F3F0E80
:103AE300FDCE3E419B0C3FE702D13EB2AB093F25E1
:103AF30089D23E42D4063FB39BD33EB215043FB6B0
:103B030046D43E9370013F1C96D43E7DCAFD3E527F
:103B130095D43EA7E7F83E124FD43E7738F43E3FA4
:103B2300CDD33E5FBCEF3EDC18D33E7B72EB3E034E
:103B33003AD23E9F59E73EEB37D13E6770E33EF7FB
:103B430018D03E44B5DF3EBDE2CE3E8826DC3E1EA5
:103B53009ACD3E6EC2D83E5443CC3E2987D53E0310
:103B6300E2CA3EE372D23E4979C93ECB83CF3ECF10
:103B73000BC83E16B8CC3ED89BC63E020ECA3E4C7E
:103B83002BC53EDC83C73EC4BBC33EFE17C53E9672
:103B93004EC23ED3C8C23EDCE4C03ED994C03E8090
:103BA3007FBF3E9E7ABE3E3D1FBE3EC278BC3EAC4A
:103BB300C4BC3EF78DBA3E4470BB3E01B9B83E610A
:103BC30022BA3EB5F8B63E4ADBB83EF84BB53E2FB7
:103BD3009BB73EBFB1B33E3262B63E0E29B23E67DB
:103BE30030B53EF8B0B03ED505B43E9C48AF3E7A02
:103BF300E2B23E29EFAD3E4BC6B13ED6A3AC3E3852
:103C0300B1B03EEB65AB3E29A3AF3EB534AA3E034C
:103C13009CAE3E910FA93EA99BAD3EE1F5A73EF7B1
:103C2300A1AC3E12E7A63ECAAEAB3E9BE2A53EFE6A
:103C3300C1AA3EF8E7A43E6ADBA93EAEF6A33EE87E
:103C4300FAA83E4A0EA33E5020A83E5E2EA23E791D
:103C53004BA73E8356A13E3B7CA63E5886A03E6FB3
:103C6300B2A53E80BD9F3EECEDA43EA5FB9E3E8CDF
:103C73002EA43E75409E3E2874A33EA28B9D3E9B80
:103C8300BEA23EE3DC9C3EBF0DA23EF2339C3E71DE
:103C930061A13E8E909B3E8CB9A03E7AF29A3EF093
:103CA30015A03E79599A3E7A769F3E54C5993E09AE
:103CB300DB9E3ED735993E7F439E3ECEAA983EBCBF
:103CC300AF9D3E0B24983EA31F9D3E61A1973E16D8
:103CD300939C3EA322973EFA099C3EABA7963E34A3
:103CE300849B3E5030963EAA019B3E6FBC953E415D
:103CF300829A3EE34B953EE3059A3E8DDE943E76F3
:103D03008C993E4B74943EE515993E000D943E18F4
:103D1300A2983E8FA8933EFB30983EDC46933E78B4
:103D2300C2973ECEE7923E7D56973E4A8B923EF433
:103D3300EC963E3B31923ECD85963E88D9913EF539
:103D430020963E1C84913E5ABE953EE230913EEB56
:103D53005D953EC6DF903E99FF943EB690903E53EC
:103D6300A3943E9F43903E0C49943E70F88F3EB21D
:103D7300F0933E18AF8F3E3A9A933E87678F3E95F6
:103D830045933EAE218F3EB5F2923E7EDD8E3E8F51
:103D9300A1923EEA9A8E3E1552923EE4598E3E3CE3
:103DA30004923E5F1A8E3EF8B7913E4EDC8D3E3F45
:103DB3006D913EA79F8D3E0424913E5C648D3E3FF2
:103DC300DC903E652A8D3EE595903EB5F18C3EEB49
:103DD30050903E43BA8C3E490D903E05848C3EF68E
:103DE300CA8F3EF24E8C3EE8898F3E011B8C3E18F3
:103DF3004A8F3E29E88B3E7D0B8F3E62B68B3E0E8B
:103E0300CE8E3EA4858B3EC4918E3EE7558B3E9865
:103E1300568E3E24278B3E821C8E3E53F98A3E7C6F
:103E2300E38D3E6ECC8A3E7EAB8D3E6EA08A3E8293
:103E3300748D3E4D758A3E813E8D3E044B8A3E75A0
:103E4300098D3E8D218A3E59D58C3EE3F8893E2665
:103E5300A28C3E00D1893ED66F8C3EDFA9893E6598
:103E63003E8C3E7B83893ECD0D8C3ECE5D893E08E4
:103E7300DE8B3ED438893E12AF8B3E8814893EE5F3
:103E8300808B3EE5F0883E7E538B3EE8CD883ED75F
:103E9300268B3E8BAB883EECFA8A3ECB89883EB9B3
:103EA300CF8A3EA468883E3AA58A3E1248883E6976
:103EB3007B8A3E1128883E45528A3E9E08883EC72B
:103EC300298A3EB6E9873EEE018A3E54CB873EB54A
:103ED300DA893E76AD873E18B4893E1890873E1541
:103EE3008E893E3773873EA868893ED156873ECD7B
:103EF30043893EE33A873E821F893E691F873EC35B
:103F0300FB883E6104873E8ED8883EC8E9863EDF43
:103F1300B5883E9CCF863EB393883EDBB5863E098B
:103F230072883E819C863EDD50883E8D83863E2C82
:103F330030883EFC6A863EF40F883ECD52863E337F
:103F4300F0873EFC3A863EE7D0873E8823863E0BC9
:103F5300B2873E6F0C863EA093873EAFF5853EA2A7
:103F630075873E46DF853E0E58873E32C9853EE45F
:103F73003A873E71B3853E211E873E029E853EC22F
:103F830001873EE388853EC7E5863E1174853E2C56
:103F9300CA863E8D5F853EF0AE863E534B853E120C
:103FA30094863E6237853E9079863EBA23853E6786
:103FB3005F863E5810853E9645863E3BFD843E1BFC
:103FC3002C863E62EA843EF612863ECBD7843E249C
:103FD300FA853E75C5843EA3E1853E5FB3843E7298
:103FE300C9853E87A1843E91B1853EEC8F843EFC1A
:103FF30099853E8E7E843EB482853E6B6D843EB64B
:104003006B853E815C843E0155853ED04B843E9456
:104013003E853E573B843E6E28853E142B843E8D61
:1040230012853E071B843EF0FC843E2E0B843E9695
:10403300E7843E89FB833E7ED2843E17EC833EA712
:10404300BD843ED6DC833E0FA9843EC6CD833EB6F7
:1040530094843EE6BE833E9A80843E36B0833EBA65
:104063006C843EB3A1833E1659843E5E93833EAC7B
:1040730045843E3685833E7B32843E3977833E8357
:104083001F843E6769833EC20C843EC05B833E3817
:10409300FA833E424E833EE4E7833E000000002065
:1040A30001DF8A000001002001DF8A0000020020F6
:1040B30001DE8A000003002001E08A0000040042C0
:1040C300016D800000050042017E80000006004271
:1040D30001A080000007002001AB80000010004217
:1040E300018F800000110020014E0C0000004042AF
:1040F30001A080000000804201EA83060000001056
:1041030011000007000000303300000700100030EA
:104113003300000700014020330000070002402065
:1041230033000008000000203300000C0055003964
:104133003300000C001C0042330000120055002124
:104143000100000004000021040000020400002913
:1041530015000003040000290400000504000029E1
:104163000400000C040000390400000D04000039B1
:104173000400002A0400003904000002070000299B
:10418300040000020700021805DB8A02070003305F
:1041930005DC8A0207010322058A8A020702032239
:1041A300058E8A020703031801DA8A020706031839
:1041B300110000040B00001B05728A040B00012987
:1041C300150000040B030129150000040B06012947
:1041D300040000040B00022105CE8A040B01022116
:1041E30005D08A040B02022105CE8A040B030221A7
:1041F30005D48A040B04022105CE8A040B0502218F
:1042030005D68A040B000321040000040B000421DB
:1042130005CE8A040B01042105D28A040B0505216E
:10422300150000040B080521150000040B0B0529DC
:10423300040000040B100528040000040B000621F1
:1042430005CE8A040B01062105D08A040B02062140
:1042530005CE8A040B03062105D48A040B04062128
:1042630005CE8A040B05062105D88A000300002029
:10427300330000000301002033000000030300218A
:104283003300000003040021330000000307002172
:10429300330000000308003011000000030F001872
:1042A30011000000030A401911000000030B402114
:1042B30011000000030C4021010000000000000079
:1042C300000120453A00010220453A000103204540
:1042D3003A01000420453A000105000000000006F1
:1042E30000000000000700000000000800000000BC
:1042F300000000000000000A00000000000B0000A6
:104303000000000C02000000000D00000000000E81
:1043130020453A10010F20453A1000104C7B3A001B
:10432300001100F91C10001200171D1000130000EB
:1043330000008014000B1D00001500000000001693
:1043430000000000001701000000801801000000B9
:104353008019003B2900001A003B2900001B0000C4
:104363000000001C01000000011D01000000011EEF
:1043730000000000001F018B39080020008F290076
:10438300002100311E00002200291D10002300001F
:1043930000000000000000000000000000000026F4
:1043A30000000000002700000000002809C92800C1
:1043B3000029007D2910002A00000000002B0000C6
:1043C3000000002C00000000002D00000000002E63
:1043D30000000000002F00000000003000592910E9
:1043E3000031010000000032000000000033000033
:1043F300000000340000000000350000000000361B
:10440300000000000037000000000038000000003A
:10441300003901000000013A00000000003B0000E9
:104423000000003C00000000003D00000000008F81
:104433000001005219870001005C1D3500040021B2
:104443001D25000200251D26000200271D2700024E
:1044530000291D28000100331D29000100341D849B
:10446300000400351D86000100391D2A0001003AB1
:104473001D2B0001003B1D2C0001003F1D2D0008DA
:104483000035192E000100401D2F000100411D3091
:10449300000100421D31000100431D320001003DB7
:1044A30019330001003E1934000100441D36000198
:1044B300003F1938000100451D390001003E1D83EE
:1044C3000002005A1D630001004F19640001003C03
:1044D3001D650001003D1D6D0001005019710008AC
:1044E300002D1966000100591D430001004A1D44B7
:1044F3000002004B1D450001004D1D460002004E09
:104503001D47000800471948000100501D4B0001DA
:1045130000511D040001005D1DA1000100601D3755
:104523000001005F1D880001005E1D3C000100408A
:10453300193D000100461D49000200521D6700019C
:104543000051194D000200541D4E000100561D4F2D
:10455300000200571D3E00010046195100010047AB
:104563001D52000100481D53000100491D54000164
:10457300004119000000000000000136360101006F
:104583000102010001030100010401060605020006
:1045930000070100340801000F090401010D0100A7
:1045A300FF0E08000017020000190100FF1A0100A6
:1045B300011B0100FE1C0100081D0200001F010079
:1045C3000120010001210200002301000F24020049
:1045D300002601000127010008280200FF2A01002C
:1045E300072B0102402C0100002D0100012E0100C8
:1045F300012F0100FF30010B1D310800003A0100BB
:10460300083B01000F3C0100013D0100FF3E040097
:104613000042040000460400004A0400004E040067
:104623000052040000560400005A04000001037104
:104633000301030103010301030103220302030135
:10464300031003000300030003000300030003003F
:1046530003420300032403060300030003040312BD
:104663000325032303250323030403040300030097
:104673000300034403000300032303000365032132
:104683000035038103000305030003000300030057
:104693000325032303030071003001600011007040
:1046A3000031022003500480001000610000001458
:1046B30000630073007200620043000000130006F1
:1046C30000000000000400120000000000000000D1
:1046D3000004000400370037003C024400000000DF
:1046E30000000000006500000035008100000005A7
:1046F3000000008300000003027102300160021118
:104703000270020102020202028002100261023AF6
:104713000041006302730272026202430200021349
:10472300023800000200020402120200020002002A
:1047330002000204020402370037003C0244020074
:104743000239000002000265020002350281020004
:1047530002050282028302000201017101010101CB
:104763000111010101310101010101800110016108
:10477300013B0014006301730172016201430100F4
:1047830001130106013D013500040112010001007E
:10479300010001000104010401330133013C014420
:1047A300013201360000010001650100013500817D
:1047B30001000105018201830100013600010006A9
:1047C3000000000F000000000000000000000000D7
:1047D3000003FFFF00000403FFFF0000FFFF0FF4CF
:1047E300010005C4040320000100000B00000000C9
:1047F3000000000003010F000000000000000000A3
:1048030000000000000000000000000000000000A5
:10481300000000000000000000572B932B5D2B7F4E
:104823002A632B992B632BA52B692B7F2A632B9947
:104833002B6F2B7F2A752B7F2A7B2B7F2A812B7F44
:104843002A872B7F2A8D2B7F2A000000000000007F
:104853000000000000000000000000000000000055
:104863000000000000000000000000000000000045
:1048730000000000000000092E1300D92D010009DB
:104883002E02007F2D0300852D04008B2D05009142
:104893002D06009D2D3000B52D3300C12D3400C7EA
:1048A3002D1100CD2D1400D32D1500AF2DFFFF00CA
:1048B300000A0000000200000004000000080000DD
:1048C30000100000002000000040000000800000F5
:1048D30000000100000002000000040000000800C6
:1048E3000000100000002000000040000007ECFD65
:1048F300FDFDECDCDCCCBCACAC9C9C8C7C7C6C6CA3
:104903005C5C5C4C4C3C3C2C2C1C1C0A333402037A
:10491300340515340709340CEB330DF733FF00006E
:1049230000160F00000B150B020002220F330000CC
:104933000E01030507090B0D0F00020406080A0CFC
:104943000D5A6967426565416C6C69616E636530D8
:1049530039140AE5D5C5B5A5A595858575653030A6
:1049630016181920231A1C1E3000011916181616C2
:104973001823030000393D3F373C3C362C442D00BF
:10498300034A49434E181A250502303017181921D6
:10499300301B1D1F300C0E020B040B0A0708000FFF
:1049A30002040201010101090200BE040AE8030036
:1049B30000FA06F048E80354490E00041003030A02
:1049C300040408280C0905081E00FF1E040CFFC080
:1049D30082C083E9901816F0024BE174F412103B85
:1049E3008A088B09EB5480604D800EEEFAEFFB12C0
:1049F3002AD3EEFAEFFB122737901816E0F91227A5
:104A0300498A0A8B0BAE0AAF0BEE4F60208E828F62
:104A130083E0641A60D5EEFAEFFB122A79E9F974A0
:104A2300FF6960CEEEFAEFFB12273D80CCAA08E5C2
:104A3300096480FB80047A007B00024DB374F71293
:104A4300103B7AFF025E0274F612103BE9FEEAFFA6
:104A53007A047B00125109A808A909EA496034EFD6
:104A63008A828B83A3A3A3F0EE8A828B83A3124A49
:104A7300CEE4F0A3F090182312512E70099018235E
:104A8300E8F0A3E9803FE0FB8A828B83A3A3A3E042
:104A93006F700479008031EAFCEBFD8A828B83120C
:104AA300512E70E474FF6F700C8C828D83124AD583
:104AB300E4F0A38010901823126593901823124AF0
:104AC300D5EAF0A3EBF07901025EFAA3F08A828BB8
:104AD30083221270E78882898322C082C083EA120C
:104AE300737A3BF583E0FA901823800488828983E4
:104AF3001263C2601C88828983A3A3A3E0FBEA6BD1
:104B0300600574FF6B70E588828983A3A3E0F98055
:104B13000279FF024BE174F412103BEAFEEBFF8AC9
:104B230082F583126593122A79E9F50874FF697097
:104B330003024BD07A197B00122731EA4B70030230
:104B43004BD08A828B83743412612BA3A3EA240291
:104B5300FCE43BFD74061216578E828F831257BFF7
:104B63001270C28A828B83A3A3A3A3A3A3A3A3ECE0
:104B7300F0A3ED1257CFA3A3A3A3A3EA240AFCE453
:104B83003BFD740C1216578E828F8312662DC8124A
:104B9300737A38F583E0C0E0EA2416F582E43BF546
:104BA30083D0E0F0EE240CF8E43FF98882F5831219
:104BB30070C6EA2417F582E43BF583ECF0A3EDF02D
:104BC30088828983E4F0A3F0A90812273D790102C2
:104BD3004DB3C082C0839018211265938000D083A7
:104BE300D0820216DB74F412103B8A088B09ECFEA8
:104BF300EDFF7A08124C86700479108035124CF858
:104C0300A3124CE2740C121A881276CDA3A3A3A3A9
:104C13001277BF90181B12512E90181B601112515E
:104C2300118003EAFCEB12512970F88C828D8312F8
:104C33004C96024DB374F412103B89088A09ECFEBA
:104C4300EDFF7A0A124C86700479108033124CED12
:104C5300E4F0A3124C9CE509124C9CA3EEF0A3EFE5
:104C6300F090181D12512E90181D601112511180D1
:104C730003EAFCEB12512970F88C828D83124C9657
:104C8300024DB37B001227D38A0A8B0BA80AA90B08
:104C9300EA49221270E7790022125DF3A3A322747A
:104CA300F412103B89088A09ECFEEDFF7A06124CD8
:104CB30086700479108025124CED124CE290181F77
:104CC30012512E90181F60111251118003EAFCEB50
:104CD30012512970F88C828D83124C96024DB3E5E4
:104CE30009125DF8EEF0A3EFF022124CF88A828BE2
:104CF30083A3A3A3228A828B83E4F0124ACEA3A3C5
:104D0300E508F02274F212103BEAFEEBFF8C088DEB
:104D130009122AE58B0DA90DEA4960198A828B8352
:104D2300A3A3A3EEF0A3EF125DEFE508F0A3E5095B
:104D3300F079008002790102658974F412103B74E2
:104D4300F71217DBE9FE8518828519837401F0ECED
:104D53007006EDC39406404D74036A4B60477401BB
:104D63001217AB880A890B780A1217167C127D007A
:104D73007A007B00EE124DB81216F3E9601CE4F5DD
:104D83000AF50B780A12171674031217BB74021272
:104D930017B3122B2D74021216F38518828519830B
:104DA300E06401700479018002790074091216F33A
:104DB3007F040213A8F9122AEB74022274E812107A
:104DC3003B74FA1217DB89128A168B178C088D092C
:104DD300123A038A148B15EA4B70057902024F4E7F
:104DE300AA08AB09A912122B03E9F50FA2E6401C8E
:104DF3009018211263C26014E82419F582E439F58E
:104E030083E064017006E50FD2E6F50F7C067D00B2
:104E13007900AA18AB1912271F741F121A88125788
:104E2300C76009E054FCF0E044018003E054FC1245
:104E330077A51263C2602B741E121A88E0FE888263
:104E43008983A3121534EEFD7402121A88E0540309
:104E5300FCAA08AB09A912122AA374021216F3E9D9
:104E630070057901024F4E7422121A881263C260D0
:104E730012851882851983E04404F07402121A889B
:104E83001270E37420121A881257C76005E04408B1
:104E93008003E054F7F07421121A881257C7600593
:104EA300E044108003E054EFF07424121A88E0C049
:104EB300E07404121A88D0E0F07405121A88EEF038
:104EC3007803851882851983E05404600278057499
:104ED30025121A8812555BE82510FEE43511FF12DE
:104EE30051FF6063AC0AAD0BAA18AB19122ADF7429
:104EF30027121A88126519121712AC10AD11126716
:104F0300811216F3750C1E780C12171A750C19758D
:104F13000D18780C121716780A1217168E0C8F0DAF
:104F2300780C1217167808121716A90FAC14AD15C2
:104F3300AA16AB17123A1B74091216F3E9FEAA0A52
:104F4300AB0B1227D980027E10EEF974068004EEB3
:104F5300F974021216F37F100213A8EEFCEFFDAAF8
:104F630010AB11A90A122AA9740B2274EA12103B7E
:104F730074FE1217DB890B8A148B158C0E8D0F7E32
:104F8300007F00750A007418121A8812555B80118D
:104F930012511F122B398B09EE2AFEEF3509FF053B
:104FA3000A1270CA502EE50A75F006125512240330
:104FB300FEE43FFFA3A3E070E60EEE70010F8882CC
:104FC3008983A3A3A3A312512E8882898360C1126C
:104FD300633380C2EEFAEFFB1251098A0C8B0DEAA0
:104FE3004B70030250FE750A008030A818A9198877
:104FF300128913781212171678081217168A828BE1
:105003008312511F122B3F74041216F31276BDE55F
:105013000828F508E50939F509050A1270CA507719
:10502300E50A75F006A4F8A9F0E51028F582E51164
:105033001270A61251168A828B83A3125D5EF01240
:105043005DC7125D59F0E5082403F5085002050910
:1050530088828983E070C2EA240308125DCB12516F
:1050630016A38582088583098A828B83A3A3A3A3BE
:105073001251118C82F583E58245837003024FEE52
:10508300AC08AD09AA82AB8388828983E0F9122B2D
:105093000F8A088B098082780C1217168E088F09E5
:1050A30078081217167420121A8812555112171AFB
:1050B300E4F508F50978081217167422121A8812F3
:1050C300555112171A7422121A8812555112171AAF
:1050D300750800780812171A750801780812171A4C
:1050E300AC0EAD0FAA14AB15A90B124F681216F331
:1050F300E9FEAA0CAB0D1227D980027E10EEF974DB
:10510300021216F3802F1227D38A088B0922E0FCA0
:10511300A3E022E0850882850983F022127793AA0F
:105123000EAB0FA90B22FD8C828D83126597EA4B80
:1051330022AA12AB137F0E0213A8EEF902513874A0
:10514300EC12103B890A8A108B11ECFEEDFF7414EC
:10515300121A8812535570030251E5A808A9097C55
:1051630000800D12533850010B1253685001090C83
:10517300850C82850D83E0FAECC39A40E674016ADC
:10518300700AA3E07006750E01750F0078081217F8
:1051930016780E121716741C121A8812533212172D
:1051A3001AE4F50CF50D780C121716741E121A88F2
:1051B30012533212171A741E121A8812533212170C
:1051C3001A750B00780B12171A750B04780B12174C
:1051D3001A124F5E1216F3E9FEAA08AB091227D979
:1051E30080027E1002531FAA0EAB0F7F0C0213A87E
:1051F300850A82850B83E0F9122B2122EEFAEFFB5D
:105203001227D38A0A8B0BEA4B22F8E4350DF9886F
:1052130082F583125541A322851082851183E0F81C
:10522300E508C3982274EC12103B890A8A108B118B
:10523300ECFEEDFF7414121A88125324F508750955
:1052430000740278081218E485080E85090FAA0E67
:10525300AB0F1270BE700302531D7900804AE9F54B
:1052630012751300740278121218E4E50C2512FC6F
:10527300E50D3513FD8C82F583A31261268C828D97
:1052830083A3126870F0EC2403FC50010DF5828DAA
:1052930083126871A3F08C828D83126870A3A3F0CC
:1052A300EA2404FA50010B09850C82850D83E0F88A
:1052B300E9C39840A9740168700AA3E07006750EEB
:1052C30001750F007808121716780E121716741C42
:1052D300121A8812533212171AE4F50CF50D780CD2
:1052E300121716741E121A8812533212171A741ECA
:1052F300121A8812533212171A750B00780B1217F1
:105303001A750B07780B12171A124F5E1216F3E970
:10531300FEAA08AB091227D980027E10EEF90251CA
:10532300EE12532822125C2D850C82F583E022E0D5
:10533300F50B780B22EC75F003A4FAABF0E50C2A1D
:10534300FAE50D3BFB8A82F58312556EF0EA2402DF
:10535300FA2212532875F003A4F50EE5F0F50FAA0F
:105363000E12772A22F5828B83125723125567A3D5
:10537300A3F0E82403F82274E812103B74FE12171A
:10538300DB1255B5121A8812555B8009EE2402FE12
:10539300E43FFF050812521B502FE50875F00D126C
:1053A30055122404FEE43FFFE070E8A3E070DDEE55
:1053B3002405FEE43FFFE82404F50AE43912552DE1
:1053C30060D11251F3EE2980C61251FF70030255CA
:1053D3000D8A0E8B0F7508008018E50C2409FAE47A
:1053E300350DFB8A8212553B125563F08C0E8D0FDF
:1053F300050812521B40030254AAE50875F00D126A
:105403005575AA82AB83125216F0E50C2402125290
:105413000D12558AA3F0E50E2404F50E5002050F74
:10542300850C82850D83E070C7E50E2402FCE4350C
:105433000FFD850E82850F83A3A882A9838A828BA1
:1054430083E07096E50C2404F512E4350DF513851D
:10545300128212553BF0E50C2405F516E4350DF5E3
:1054630017851682126A9B12559F2407F8E4350D9F
:10547300F9888212553B1255ADF0E50E2405F50E61
:105483005002050F8512828513831255347003026F
:1054930053F3AC0EAD0FE50C240BF582E4350DF59B
:1054A300831255490253F3780A1217168E0C8F0D87
:1054B300780C1217167422121A8812555112171AE1
:1054C300E4F50CF50D780C1217167424121A8812D1
:1054D300555112171A7424121A8812555112171A99
:1054E300750800780812171A750809780812171A30
:1054F300AC14AD15740B121A881255221216F3E967
:10550300FEAA0AAB0B1227D980027E10024F52A4C7
:10551300F8A9F0E51028F582E5111256BFEE221224
:105523006597A909122AA9740B22F50B850A82F53E
:1055330083E0F9122B15E922F58312554122E08508
:105543000E82850F83221257288A0E8B0F22E0F5D5
:10555300087808228E828F83E0F510A3E0F51122EC
:1055630012556722124ACF12556E22A3E088828910
:10557300832212725885820C85830D125541F08562
:105583000C82850D83A32212558E22A3F088828973
:1055930083A3E0850E82850F83A3A322F085168261
:1055A300851783125DDCF0E50C22A3A312558EA3AD
:1055B300A322851882851983EAF0A3EBF089098C6D
:1055C300148D157E007F00750800741A2274EA1288
:1055D300103B890B8A108B118C0E8D0F7E007F0080
:1055E300750A007416121A88125C29800312568CED
:1055F300850C82850D831270D040F21270BA607EE2
:10560300A808A909750A0080031256C8850C82856B
:105613000D83E0FAE50AC39A40EF78081217168E55
:105623000C8F0D780C121716741E121A88125686D8
:1056330012171AE4F50CF50D780C121716742012D4
:105643001A8812568612171A7420121A881256864E
:1056530012171A750A00780A12171A750A0A780AB5
:1056630012171AAC0EAD0FAA10AB11A90B124F688B
:105673001216F3E9FEAA08AB091227D980027E109D
:1056830002513DE0F50A780A22E50A75F005A4F80F
:10569300A9F0E50C28F582E50D1256BFA3A3A312CA
:1056A30076D1A3A3E0F9122B278B09EA2403F8E4AC
:1056B3003509F9EE28FEEF39FF050A2239F583A3F0
:1056C300A882A98322E50A75F005A4FAABF0125764
:1056D3001785821485831512556F1277AB125723E2
:1056E300F0E5142402FAE435158A12F5138A82F5DB
:1056F30083125723A3F0E82403FCE439FD851482C5
:10570300851583A3A3A31257288A128B13A812A962
:1057130013050A22E50C2AF582E50D3BF583A32246
:1057230012556FA322E0FAA3E0FB8512828513834F
:10573300E0F9122B0F2274F612103B74FE1217DBE2
:10574300E9FE740C121A881257BF1257C71257CFAB
:10575300E0C0E07401121A88D0E0F0A818A91988F3
:105763000889097808121716750802750900780860
:105773001217167416121A8812555112171A741525
:10578300121A881215347416121A881255511217E8
:105793001A7416121A8812555112171A75080078BE
:1057A3000812171A75080B780812171AEEF9124F18
:1057B300681216F374021216F3025EFA1276C888A0
:1057C30082F58322E085188285198322F0888289F5
:1057D30083A32274F112103B74EB1217DBEAFEEB86
:1057E300FFC200EA2420F8E43F8808F5098882F51F
:1057F30083C3E09403A3E0940050057901025C0A9B
:105803009018211277C17402121A881277C1740E8C
:10581300121A88E4F0A3F0740A121A88E4F0A3F0D1
:10582300740C121A88E4F0A3F0EA2422F8E43F8807
:105833000AF50B8882F5831270C67404121A88AABB
:1058430082AB83122AD98A0C8B0DA80CA90D740A7A
:10585300121A881277C1850882850983126593EA33
:10586300C398F8EB99F9850A82850B83E028F8A39E
:10587300E039F9740C121A881270E37408121A884A
:10588300E090181AF0EE2414F508E43FF5098508B2
:1058930082F583E0F9123A038A828B83E58245839A
:1058A300700C901821E4F0A3F07902025C0A125CF8
:1058B3005D602BEE2404F50AE43FF50BA3121534C7
:1058C300740B121A88E0FD7406121A88E05403FC64
:1058D300125C6C122AA374021216F3E9700C90186E
:1058E30021E4F0A3F07903025C0A125C6C122B032F
:1058F300E9F50E850A82850B83126593EAFCEBFDBD
:1059030090181B8004888289831263C27003025932
:10591300FD88828983A3A3125C29C3EA950CEB95C6
:105923000D40E288828983A3A3A3A3C3E09CA3E0E1
:105933009D40D2E8FCE9FD7404121A88E054077014
:105943000D7409121A88E0640B7003025A01E50E04
:10595300A2E64003025A01EE2419F582E43FF583DF
:10596300E06003025A017402121A88125C35707ED9
:105973007402121A881263BD70747C0085088285D4
:105983000983E0F9122B097401121A887401F07467
:1059930009121A88125C12121A88E0F50C780C129C
:1059A300171A7407121A88121534750C01780C1221
:1059B300171A7408121A88127278F50C780C1217D9
:1059C3001A74051217AB880C890D780C121716740C
:1059D30009121A88125C54121A88125C1D121A8852
:1059E300125C431216F37C01125C6C122B099018A3
:1059F30021E4F0A3F07905025C0A7C007D007404C5
:105A0300121A88E0F854036003025B25E85404602B
:105A1300057E84025B647409121A88E0F8C3941744
:105A23004003025B21E8F50A750B007402780A1241
:105A330018E4741C250AF5827448350BF583E49346
:105A4300F8740193F9E8497003025B2185088285A4
:105A53000983E0C0E07410121A88D0E0F0740C12CD
:105A63001A881265937411121A881277C1740A1274
:105A73001A881265937413121A881277C17410125C
:105A830017B388828983123AA48B09A909740E1269
:105A93001A881277C1EA49604B7409121A88E0F533
:105AA30008750900740278081218E4741E2508F5B5
:105AB3008274483509F583E493F87401938882F579
:105AC30083E5824583601274021217B3123AA474F9
:105AD3000E121A881263C2600B740E121A881265B2
:105AE300931227D97409121A88E0F8605474026873
:105AF300604F740368604A740668604574086860A0
:105B030040740C68603B74116860367413686031CC
:105B1300741568602C740B6860277E0080437E8256
