:100000004343323678325231FFFFFFFF0301F7FFDF
:10001000FFFF0701FFFFFFFFFFFFFFFFA80000003A
:1000200030303031E2E603002C00FFFF01F7FFFF24
:080030000000000000000000C8
:1000A8000040012045DA030039FB021039FB021039
:1000B80039FB021039FB021039FB021039FB021020
:1000C80039FB021039FB021039FB021039FB021010
:0C00D80039FB021039FB021011FB021072
:1010000001000000000000000000000000000000DF
:10101000FFFFFFFFCC3100200400000000000000B3
:101020000000000014000000F41A00001800000086
:1010300060190000C01000003831002004000000DA
:10104000000000000000000024000000E019000083
:1010500018000000EDE0020008000000B0110000E0
:1010600074100000C1C8021001BB021091EB021005
:10107000DDE5021081E00210B9E5021071E5021011
:101080003100000001000000010000000C1B000006
:1010900000000000FFFFFFFFA4310020040000005B
:1010A000000000000000000028000000CC1A000032
:1010B000240000001E0000001800000000000000D6
:1010C00028130000D41000009BEC021025E202104F
:1010D00005EB021025DE0210FDE10210E1E4021032
:1010E0002F00000034000000240028000000000051
:1010F00018310020FFFFFFFFEC310020040000004A
:10110000000000000000000038000000801B00000C
:101110002800000001000000100000000000000096
:1011200000000000F7F1021000001A00100000009B
:1011300004000000E41B0000DE7A0100080000004B
:1011400036000000AC310020F431002009001D0001
:10115000BFDC000040310020010000000000120050
:10116000FFFFFFFFDC310020040000000000000052
:101170000000000010000000441B000018000000E8
:101180000000000000001300FFFFFFFF54320020AA
:1011900004000000000000000000000054000000F7
:1011A000A81B00003C000000000001002D00000012
:1011B00004100000EBE5000030000000000000001B
:1011C000B0110000D8110000ADB30300D9DB02104C
:1011D00059EC0210CDD6021085DE02104DE502104A
:1011E00029E5021030000000000016000000000099
:1011F00000000000FF7F00005C320020FFFFFFFFC7
:10120000D4310020040000000000000000000000B5
:1012100058000000101B00003400000039FB0210D1
:1012200001002F0006000000000000002000000068
:10123000010000001BF80210280000002813000025
:101240005012000093EC02106DEB02104DEC0210F6
:1012500029E00210BDE4021099E402102D00000004
:1012600000000000803100200400000000000000A9
:101270000000000010000000F81900002C00000021
:10128000000000000000030000000F003C00000010
:1012900000000000000000002FF902101000000004
:1012A00008000000F41B0000FFFFFFFFE4310020F6
:1012B0000400000000000000000000001C0000000E
:1012C0005C1B0000240000003C12000030310020B4
:1012D0000400000000000000000000000C000000FE
:1012E00068190000180000006B6501000000000094
:1012F00000000000080000000100000004000000E1
:10130000000000000000140000000000E0490000A0
:1013100000001900000018002400000005E0030090
:101320000040000000020000041000000000100057
:1013300055F002100C00000023E102000000000044
:101340001031002004000000000000000000000038
:10135000200000003019000030000000F8490000B3
:1013600001000000E3E102005FE400000000000073
:101370000000170000020000310000000000230000
:101380000000150001000000C01100009C31002089
:101390000400000000000000000000002000000029
:1013A000A81A000024000000F4E30200903100209D
:0813B00020000000081C0000F1
:1013C00065E00200A5E20200A9E20200ADE202002F
:1013D000B1E20200B5E20200B9E202007DB2030010
:1013E00031B3030039B20300A1DF030083DF030040
:1013F00009B3030015B30300D3DF030065B3030093
:1014000019E40200E5B40300012800000000000018
:10141000000000000001003000000000000000009B
:101420000003FF186400000000000000000000003E
:101430007856341200000000BAAB00000000000132
:1014400000000000000000002A201B1424201B14B0
:1014500024201B1400000000E4FEFFFFFFFFFFFF3D
:1014600048FFFFFFFFFFFFFF180200000000000021
:10147000A266FEFFFFFFFFFF7DFBFFFFFFFFFFFFF9
:1014800062AC0000000000008E21FBFFFFFFFFFFA9
:1014900015F2FFFFFFFFFFFFAEF2FFFFFFFFFFFFB1
:1014A0005FFE0300000000003E82FFFFFFFFFFFF22
:1014B0006D38FEFFFFFFFFFF000000000000F0BFDF
:1014C000000000000000008000000000000000801C
:1014D0000000000000000000000000C05294EEBFB9
:1014E00000000048204E51BE000000F86467BCBCFC
:1014F0000000000000000000000000208133EDBF6C
:1015000000000080B3DB14BE000000506706A3BCDF
:101510000000000000000000000000D0E9DCEBBF8C
:1015200000000008C39259BE00000080B0D3B8BCD0
:10153000000000000000000000000070F98FEABF0A
:10154000000000C0A51028BE000000E8BFC0B0BC6D
:10155000000000000000000000000070284CE9BFFF
:1015600000000060134B42BE000000C03D20B8BC2C
:10157000000000000000000000000050FA10E8BF6A
:10158000000000C05FF62BBE000000905C71A7BC9D
:10159000000000000000000000000020FCDDE6BFAD
:1015A000000000C0F8F154BE00000018E9F6B9BC14
:1015B0000000000000000000000000D0C3B2E5BF42
:1015C00000000070E43254BE00000050DB06B4BCE2
:1015D000000000000000000000000010EF8EE4BFDB
:1015E00000000020F36252BE000000C02A879ABCAF
:1015F0000000000000000000000000B02272E3BF05
:10160000000000F0E8E056BE00000028352DBDBC0B
:101610000000000000000000000000000A5CE2BFC3
:10162000000000B0FA8E41BE00000040AE6FBDBCAD
:10163000000000000000000000000000564CE1BF68
:10164000000000F015CD5FBE00000000141C90BC2F
:10165000000000000000000000000040BD42E0BFAC
:1016600000000030F93457BE000000E06C1E93BC4F
:101670000000000000000000000000E0F57DDEBF7B
:10168000000000B08A535EBE00000080DA77AABC7A
:101690000000000000000000000000C09D81DCBFD1
:1016A00000000000FFA226BE0000006057E2B0BCB0
:1016B000000000000000000000000060F98FDABFA9
:1016C000000000580A8151BE000000F05F60B8BC05
:1016D00000000000000000000000000098A8D8BF33
:1016E000000000607A7F45BE000000D05433A3BCE8
:1016F0000000000000000000000000600FCBD6BF1B
:10170000000000D091CB40BE000000406D1BA0BC8B
:101710000000000000000000000000A0FBF6D4BFA5
:1017200000000098C5CE52BE000000003A397EBCD1
:101730000000000000000000000000E0FE2BD3BF0E
:101740000000004073872BBE00000000926879BC47
:10175000000000000000000000000040C069D1BF90
:1017600000000058F16353BE00000080438D7CBC34
:10177000000000000000000000000080D85FCFBF24
:10178000000000181F8354BE000000B03F42A2BCFE
:1017900000000000000000000000008067FCCBBFDC
:1017A00000000060FAFF53BE00000050E00DB8BC1E
:1017B00000000000000000000000000098A8C8BF62
:1017C000000000607A7F35BE000000C0543393BC37
:1017D000000000000000000000000000DC63C5BF46
:1017E00000000058D6FF54BE00000000396490BCD1
:1017F0000000000000000000000000C0AD2DC2BFCE
:1018000000000080A45915BE000000E0484BABBCAE
:101810000000000000000000000000801A0BBEBFA6
:1018200000000050BF3C5ABE000000A0B364B6BC2C
:1018300000000000000000000000008004D6B7BFD8
:1018400000000040BBCF36BE0000008076CEA8BCB2
:1018500000000000000000000000008032BBB1BFAB
:10186000000000402A0043BE00000028C60CBDBC9A
:101870000000000000000000000000009473A7BFFB
:10188000000000182B3B59BE000000C0E55DA5BC60
:10189000000000000000000000000000EE4397BFC1
:1018A000000000A0E6C340BE00000020958DB5BC3E
:1018B00000000000000000000000000000000080A8
:1018C0000000000000000080000000000000008018
:1018D000000000000000000000008001100080FFF8
:1018E000FDFF58003AFFB7F3FFFFFFFFFFFFFFFFC9
:1018F000FFFFFFFFFFFFFFFFFFFFFFFFFFFFFFFFF8
:10190000FFFFFFFFFFFFFFFFFFFFFFC5FFFFFFFF21
:1019100000FFFFFF00C5C5FF000000FF0000000042
:10192000FFFFFFFFFFFFFFFFFFFFFFFFFFFFFFFFC7
:101930003000000000000000000000005819000006
:10194000040000000000000001000000FFFFFFFF96
:10195000FF0000000100000008000000000000007F
:10196000000000000000000018000000000000005F
:1019700000000000781900000800000000000000CE
:10198000100000002813000098190000FDDF03007C
:1019900055770300DD760300D9E202002DE3020053
:1019A000BDE202002E000000841900007831002002
:1019B0000400000000000000000000002000000003
:1019C000C819000018000000180000000000000006
:1019D00000000000D819000008000000000000000E
:1019E000180000000000000000000000F0190000D6
:1019F00008000000000000002C00000000000000B3
:101A0000000000001C1A000004000000000000009C
:101A100001000000FFFFFFFFFFFFFFFF08000000C5
:101A200000000000B01100003C1A0000ADB403003B
:101A3000BDB40300D9B40300CDB403006FE30200CA
:101A400099E302004DE3020032000000241A000076
:101A500088310020040000000000000000000000A9
:101A6000140000006C1A00001C0000001C000000A4
:101A70000000000000000000801A000000000000CC
:101A8000080000000000000001000000C771000015
:101A900001E00300B7A00000CB710000CF7100008F
:101AA000BB710000D971000024000000000000009C
:101AB00000000000C41A0000000000000000000048
:101AC00000000000080000000000000024000000EA
:101AD0000000000000000000E81A00000000000004
:101AE00000000000000000000800000000000000EE
:101AF0000A000000180000000000000000000000C4
:101B0000041B00000800000000000000F99600001F
:101B10003400000000000000000000003C1B00003A
:101B200000000000000000000100000000000000B4
:101B3000010000000000000000000000080000009C
:101B4000000000001800000000000000000000007D
:101B5000541B0000080000000000000024000000EA
:101B60000000000000000000781B000000000000E2
:101B7000010000000000000008000000000000005C
:101B8000280000000000000000000000A01B000072
:101B90000000000000000000FFFFFFFF0000000049
:101BA00008000000000000003C00000000000000F1
:101BB00000000000DC1B000000000000000000002E
:101BC0000100000000000000000000000000000014
:101BD00000000000010000000000000008000000FC
:101BE000000000005DE2020025DD021011B20300DA
:101BF00075DF02100100000000000000000000007E
:101C0000000001000000010015F9021001E60210B9
:101C10002DDA021045E7021041D10210C9D302109B
:101C2000A5DF02102DE4021061EA021069B403007E
:101C30000500060008000900160002010202030266
:101C4000000301030105020500060106040B14064A
:101C50001506170600070107020703070009040914
:101C600007000A000C000D000E000F00100011000C
:101C70001200130014001B00000101010002010208
:101C8000020400040104030404040504060400051E
:101C900002060306040605060606070608060906E8
:101CA0000A060B060C060D060E060F061006110698
:101CB0001206130604070009000B010B020B030BAD
:101CC000AB0055007C0084004B00B5001B00E50014
:101CD0000017E8000047B8000077AB0000ABAB008E
:101CE0000055AB000022DD000E00F2003E00C200F5
:101CF00071008F00A1005F00D0002F00F9070000E5
:101D00000097B92EE5725CCB5DCAE473B82F0196DB
:101D1000BA2D03945FC8E671E7705EC90295BB2CCB
:101D2000E3745ACD0691BF28BE2907905BCCE275BB
:101D300059CEE077BC2B05920493BD2AE17658CFAB
:101D400051C6E87FB4230D9A0C9BB522E97E50C79B
:101D5000EB7C52C50E99B720B6210F9853C4EA7D8B
:101D6000B2250B9C57C0EE79EF7856C10A9DB3247B
:101D7000089FB126ED7A54C355C2EC7BB027099E6B
:101D8000A2351B8C47D0FE69FF6846D11A8DA3345B
:101D9000188FA136FD6A44D345D2FC6BA037198E4B
:101DA00041D6F86FA4331D8A1C8BA532F96E40D73B
:101DB000FB6C42D51E89A730A6311F8843D4FA6D2B
:101DC000F3644ADD1681AF38AE3917804BDCF2651B
:101DD00049DEF067AC3B15821483AD3AF16648DF0B
:101DE0001087A93EF5624CDB4DDAF463A83F1186FB
:101DF000AA3D13844FD8F661F7604ED91285AB3CEB
:101E00000000000000000000000000002DDB0300C7
:101E1000EDF002000000000075DA030065DB03004E
:101E2000A9DB03000000000000000000000000002B
:101E30002DDB0300EDF002000000000075DA030066
:101E400065DB0300A9DB03000000000000000000C8
:101E5000000000002DDB0300EDF002000000000098
:101E600075DA030065DB0300A9DB03000000000056
:101E700000000000000000002DDB0300FDF0020068
:101E80000000000075DA030069DB0300E3DB0300F8
:101E90000000000000000000000000002DDB030037
:101EA000FDF002000000000075DA030069DB0300AA
:101EB000E3DB030000000000000000000000000061
:101EC0002DDB0300FDF002000000000075DA0300C6
:101ED00069DB0300E3DB03000000000000000000FA
:101EE000000000002DDB03000DF1020000000000E7
:101EF00075DA03006DDB03001DDC03000000000049
:101F000000000000000000002DDB03000DF10200C6
:101F10000000000075DA03006DDB03001DDC030028
:101F20000000000000000000000000002DDB0300A6
:101F30000DF102000000000075DA03006DDB030004
:101F40001DDC030000000000000000000000000095
:101F50002DDB03001DF102000000000075DA030014
:101F600071DB030057DC03000000000000000000EC
:101F7000000000002DDB03001DF102000000000046
:101F800075DA030071DB030057DC0300000000007A
:101F900000000000000000002DDB03001DF1020026
:101FA0000000000075DA030071DB030057DC03005A
:101FB0000000000000000000000000002DDB030016
:101FC0002DF102000000000075DA030075DB03004C
:101FD00091DC030000000000000000000000000091
:101FE0002DDB03002DF102000000000075DA030074
:101FF00075DB030091DC030000000000000000001E
:10200000000000002DDB03002DF1020000000000A5
:1020100075DA030075DB030091DC030000000000AB
:1020200000000000000000002DDB03003DF1020075
:102030000000000075DA030079DB0300CBDC03004D
:102040000000000000000000000000002DDB030085
:102050003DF102000000000075DA030079DB0300A7
:10206000CBDC0300000000000000000000000000C6
:102070002DDB03003DF102000000000075DA0300D3
:1020800079DB0300CBDC030000000000000000004F
:10209000000000002DDB03004DF1020000000000F5
:1020A00075DA03007DDB030005DD0300000000009E
:1020B00000000000000000002DDB03004DF10200D5
:1020C0000000000075DA03007DDB030005DD03007E
:1020D0000000000000000000000000002DDB0300F5
:1020E0004DF102000000000075DA03007DDB030003
:1020F00005DD0300000000000000000000000000FB
:102100002DDB03005DF102000000000075DA030022
:1021100081DB03003FDD0300000000000000000041
:10212000000000002DDB03005DF102000000000054
:1021300075DA030081DB03003FDD030000000000CF
:1021400000000000000000002DDB03005DF1020034
:102150000000000075DA030081DB03003FDD0300AF
:102160000000000000000000000000002DDB030064
:102170006DF102000000000075DA030085DB03004A
:1021800079DD0300000000000000000000000000F6
:102190002DDB03006DF102000000000075DA030082
:1021A00085DB030079DD0300000000000000000073
:1021B000000000002DDB03006DF1020000000000B4
:1021C00075DA030085DB030079DD03000000000001
:1021D00000000000000000002DDB03007DF1020084
:1021E0000000000075DA030089DB0300B3DD0300A3
:1021F0000000000000000000000000002DDB0300D4
:102200007DF102000000000075DA030089DB0300A5
:10221000B3DD03000000000000000000000000002B
:102220002DDB03007DF102000000000075DA0300E1
:1022300089DB0300B3DD03000000000000000000A4
:10224000000000002DDB03008DF102000000000003
:1022500075DA03008DDB0300EDDD030000000000F4
:1022600000000000000000002DDB03008DF10200E3
:102270000000000075DA03008DDB0300EDDD0300D4
:102280000000000000000000000000002DDB030043
:102290008DF102000000000075DA03008DDB030001
:1022A000EDDD030000000000000000000000000061
:1022B0002DDB03009DF102000000000075DA030031
:1022C00091DB030027DE0300000000000000000097
:1022D000000000002DDB03009DF102000000000063
:1022E00075DA030091DB030027DE03000000000025
:1022F00000000000000000002DDB03009DF1020043
:102300000000000075DA030091DB030027DE030004
:102310000000000000000000000000002DDB0300B2
:10232000ADF102000000000075DA030095DB030048
:1023300061DE03000000000000000000000000005B
:102340002DDB0300ADF102000000000075DA030090
:1023500095DB030061DE03000000000000000000C8
:10236000000000002DDB0300ADF1020000000000C2
:1023700075DA030095DB030061DE03000000000056
:1023800000000000000000002DDB0300BDF1020092
:102390000000000075DA030099DB03009BDE0300F8
:1023A0000000000000000000000000002DDB030022
:1023B000BDF102000000000075DA030099DB0300A4
:1023C0009BDE030000000000000000000000000091
:1023D0002DDB0300BDF102000000000075DA0300F0
:1023E00099DB03009BDE03000000000000000000FA
:1023F000000000002DDB0300CDF102000000000012
:1024000075DA03009DDB0300D5DE03000000000049
:1024100000000000000000002DDB0300CDF10200F1
:102420000000000075DA03009DDB0300D5DE030029
:102430000000000000000000000000002DDB030091
:10244000CDF102000000000075DA03009DDB0300FF
:10245000D5DE0300000000000000000000000000C6
:102460002DDB0300DDF102000000000075DA03003F
:10247000A1DB03000FDF03000000000000000000EC
:10248000000000002DDB0300DDF102000000000071
:1024900075DA0300A1DB03000FDF0300000000007A
:1024A00000000000000000002DDB0300DDF1020051
:1024B0000000000075DA0300A1DB03000FDF03005A
:1024C0000000000000000000000000002DDB030001
:1024D000EDF102000000000075DA0300A5DB030047
:1024E00049DF0300000000000000000000000000C1
:1024F0002DDB0300EDF102000000000075DA03009F
:10250000A5DB030049DF030000000000000000001D
:10251000000000002DDB0300EDF1020000000000D0
:1025200075DA0300A5DB030049DF030000000000AB
:10253000000000000000000000000000000000009B
:10254000000000000000000000000000111B03005C
:1025500000000000051B030000000000D7920000EF
:102560000000000083780000000000003BA0000095
:1025700000000000C796000000000000091D0300D5
:10258000CF1B03003F1C0300E11B0300A71C03003B
:10259000D11D0300A11A273F5A5DB03E7C85233F21
:1025A000F086B63EE202203F0A23BC3ED3931C3F96
:1025B000AD24C13E9E38193F1D86C53E8BF1153FA7
:1025C0004647C93E1ABF123F6D6CCC3E0AA20F3F70
:1025D0000EFDCE3E419B0C3FE702D13EB2AB093F20
:1025E0002589D23E42D4063FB39BD33EB215043F69
:1025F000B646D43E9370013F1C96D43E7DCAFD3E44
:102600005295D43EA7E7F83E124FD43E7738F43EB9
:102610003FCDD33E5FBCEF3EDC18D33E7B72EB3E3A
:10262000033AD23E9F59E73EEB37D13E6770E33E17
:10263000F718D03E44B5DF3EBDE2CE3E8826DC3EF4
:102640001E9ACD3E6EC2D83E5443CC3E2987D53E1D
:1026500003E2CA3EE372D23E4979C93ECB83CF3E04
:10266000CF0BC83E16B8CC3ED89BC63E020ECA3E23
:102670004C2BC53EDC83C73EC4BBC33EFE17C53EE4
:10268000964EC23ED3C8C23EDCE4C03ED994C03EA2
:10269000807FBF3E9E7ABE3E3D1FBE3EC278BC3E9E
:1026A000ACC4BC3EF78DBA3E4470BB3E01B9B83EE7
:1026B0006122BA3EB5F8B63E4ADBB83EF84BB53EAD
:1026C0002F9BB73EBFB1B33E3262B63E0E29B23E3B
:1026D0006730B53EF8B0B03ED505B43E9C48AF3E3D
:1026E0007AE2B23E29EFAD3E4BC6B13ED6A3AC3E38
:1026F00038B1B03EEB65AB3E29A3AF3EB534AA3E40
:10270000039CAE3E910FA93EA99BAD3EE1F5A73ECD
:10271000F7A1AC3E12E7A63ECAAEAB3E9BE2A53E99
:10272000FEC1AA3EF8E7A43E6ADBA93EAEF6A33E90
:10273000E8FAA83E4A0EA33E5020A83E5E2EA23ED6
:10274000794BA73E8356A13E3B7CA63E5886A03ED1
:102750006FB2A53E80BD9F3EECEDA43EA5FB9E3E24
:102760008C2EA43E75409E3E2874A33EA28B9D3EB7
:102770009BBEA23EE3DC9C3EBF0DA23EF2339C3EDC
:102780007161A13E8E909B3E8CB9A03E7AF29A3E3A
:10279000F015A03E79599A3E7A769F3E54C5993EEF
:1027A00009DB9E3ED735993E7F439E3ECEAA983E9A
:1027B000BCAF9D3E0B24983EA31F9D3E61A1973E5A
:1027C00016939C3EA322973EFA099C3EABA7963EE9
:1027D00034849B3E5030963EAA019B3E6FBC953E92
:1027E00041829A3EE34B953EE3059A3E8DDE943E50
:1027F000768C993E4B74943EE515993E000D943EBF
:1028000018A2983E8FA8933EFB30983EDC46933E3C
:1028100078C2973ECEE7923E7D56973E4A8B923ED7
:10282000F4EC963E3B31923ECD85963E88D9913E62
:10283000F520963E1C84913E5ABE953EE230913E74
:10284000EB5D953EC6DF903E99FF943EB690903E7C
:1028500053A3943E9F43903E0C49943E70F88F3EA4
:10286000B2F0933E18AF8F3E3A9A933E87678F3E01
:102870009545933EAE218F3EB5F2923E7EDD8E3E73
:102880008FA1923EEA9A8E3E1552923EE4598E3EB8
:102890003C04923E5F1A8E3EF8B7913E4EDC8D3E70
:1028A0003F6D913EA79F8D3E0424913E5C648D3E1A
:1028B0003FDC903E652A8D3EE595903EB5F18C3E1D
:1028C000EB50903E43BA8C3E490D903E05848C3EC1
:1028D000F6CA8F3EF24E8C3EE8898F3E011B8C3E3D
:1028E000184A8F3E29E88B3E7D0B8F3E62B68B3EA9
:1028F0000ECE8E3EA4858B3EC4918E3EE7558B3E18
:1029000098568E3E24278B3E821C8E3E53F98A3E7B
:102910007CE38D3E6ECC8A3E7EAB8D3E6EA08A3EC1
:1029200082748D3E4D758A3E813E8D3E044B8A3EBB
:1029300075098D3E8D218A3E59D58C3EE3F8893E3E
:1029400026A28C3E00D1893ED66F8C3EDFA9893EFF
:10295000653E8C3E7B83893ECD0D8C3ECE5D893EAF
:1029600008DE8B3ED438893E12AF8B3E8814893EF8
:10297000E5808B3EE5F0883E7E538B3EE8CD883E79
:10298000D7268B3E8BAB883EECFA8A3ECB89883EBD
:10299000B9CF8A3EA468883E3AA58A3E1248883E4E
:1029A000697B8A3E1128883E45528A3E9E08883EB1
:1029B000C7298A3EB6E9873EEE018A3E54CB873E60
:1029C000B5DA893E76AD873E18B4893E1890873EC9
:1029D000158E893E3773873EA868893ED156873E5B
:1029E000CD43893EE33A873E821F893E691F873E79
:1029F000C3FB883E6104873E8ED8883EC8E9863E88
:102A0000DFB5883E9CCF863EB393883EDBB5863EDD
:102A10000972883E819C863EDD50883E8D83863ECD
:102A20002C30883EFC6A863EF40F883ECD52863EAE
:102A300033F0873EFC3A863EE7D0873E8823863EC9
:102A40000BB2873E6F0C863EA093873EAFF5853E66
:102A5000A275873E46DF853E0E58873E32C9853EC9
:102A6000E43A873E71B3853E211E873E029E853E35
:102A7000C201873EE388853EC7E5863E1174853EE8
:102A80002CCA863E8D5F853EF0AE863E534B853E1A
:102A90001294863E6237853E9079863EBA23853E03
:102AA000675F863E5810853E9645863E3BFD843ED8
:102AB0001B2C863E62EA843EF612863ECBD7843ECD
:102AC00024FA853E75C5843EA3E1853E5FB3843E0E
:102AD00072C9853E87A1843E91B1853EEC8F843ECC
:102AE000FC99853E8E7E843EB482853E6B6D843E2D
:102AF000B66B853E815C843E0155853ED04B843E5D
:102B0000943E853E573B843E6E28853E142B843E82
:102B10008D12853E071B843EF0FC843E2E0B843EC6
:102B200096E7843E89FB833E7ED2843E17EC833E4B
:102B3000A7BD843ED6DC833E0FA9843EC6CD833E2E
:102B4000B694843EE6BE833E9A80843E36B0833E91
:102B5000BA6C843EB3A1833E1659843E5E93833E95
:102B6000AC45843E3685833E7B32843E3977833E56
:102B7000831F843E6769833EC20C843EC05B833EF4
:102B800038FA833E424E833EE4E7833E00970020BE
:102B9000B48C0020C8950020948D00200000000017
:102BA0004C93002008970020C8930020D89500205F
:102BB000C08E0020A84A0000E04A0000F04A000051
:102BC000FC4A00000C4B0000E8950020FC97002018
:102BD00000980020049800205C3400200898002011
:102BE0000C980020109800201498002018980020BD
:102BF000F8950020288D0020CC940020EC8E002039
:102C00001C4B0000904B0000044C0000784C00006E
:102C1000EC4C0000604D0000784D0000844D000039
:102C2000559900207496002060340020E493002021
:102C3000889200205699002057990020608E00202D
:102C4000E0940020B0880020589900202C32000029
:102C5000B43200000000000000000000904D0000B1
:102C6000D88500201C980020209800207434002073
:102C70007834002024980020A04D000064940020A7
:102C80001C8900200000000000000000B01C002093
:102C90000000000000000000000000000000000034
:102CA000C88D00208880002054970020014A03101E
:102CB00049480310D5490310154703101B9F030013
:102CC0005D49031081470310A14603109548031086
:102CD00045450310254A031021440310ED47031016
:102CE00099490310E148031021490310555303107B
:102CF00089520310CD520310655003108D4E0310FE
:102D0000B59403009F9503001D9803000000000088
:102D100059510310ED500310BD990300CD4B031022
:102D20002952031011530310A955031075550310B0
:102D300069530310DD550310355503106FA70300C9
:102D400021540310855C03100D5603104D5D0310D4
:102D5000A9640310B55B03106D570310E561031000
:102D6000095E0310C55803108560031071610310DC
:102D7000B16203109963031055630310FD600310E3
:102D8000B15E0310399E0300D55A0310D5590310C4
:102D900009630310D963031019640310555F03100E
:102DA000C56403104D620310716403108D64031039
:102DB00055640310E1640310297503107972031040
:102DC000A16B0310F57203109D7403107974031046
:102DD0002D74031061730310FD73031055740310F9
:102DE00015750310D96C0310FD74031035A503008D
:102DF000E17403103D7503109DA60300F9640310F0
:102E0000CD6803102D710310C1740310F56E03100B
:102E1000B973031029670310056E0310C56F031003
:102E200049A80300A1770310797D03103D7E0310AC
:102E300049750310157E0310357D03109976031034
:102E4000997C0310257B031071780310B57D031066
:102E5000ED7C0310857E03102D790310B97A0310E1
:102E6000917B0310B1790310ED7B0310E97D031012
:102E7000617E0310357A0310D57E0310457C031064
:102E8000A57E0310BD7E031073930300D980031049
:102E9000E97E031049830310898403108D81031098
:102EA0007D820310E58403102B840310C583031077
:102EB000918703106188031045880310F185031082
:102EC000B18803107D880310C98803101D87031083
:102ED000A186031001850310E1880310998803106F
:102EE000F98703100BA40300359C0310819D031088
:102EF000E99A0310359B0310C19B0310419A0310FC
:102F0000F18803101D8C0310618F0310F1940310DE
:102F1000919E0310C19E03103D9E0310699E0310F5
:102F2000259E0310619D03100D9E0310819B0310CD
:102F3000ED93031055990310C9970310D998031006
:102F4000BD950310959C0310C19D0310A59E031011
:102F50007D9E0310C99103107DA30300699C03109B
:102F6000DD9D031095900310FD9B0310CD99031078
:102F7000158E0310019D0310E19C0310219D031089
:102F8000419D0310BD9C0310F59D0310A19D0310EE
:102F900055980310E1920310999A0310B99E0310FB
:102FA000559E03109D910300EB91030039A203107D
:102FB0000F92030069A1031075A20310C59E0310B0
:102FC000B9A10310F9A1031015A103109DA20310CC
:102FD000FDA8030005A9030007A9030045A90300F4
:102FE00059A903005FA9030031A90310ADA2031082
:102FF000559C0300B9A8031099A503104F9703002F
:1030000039A803106DA903105D9603006DAC031081
:1030100099B1031009AF031059B1031001B10310A6
:103020009DA90310E59F03005196030059960300E4
:10303000E99F0300ED9F030055960300F19F0300F5
:10304000F59F0300F99F0300FD9F030001A003000B
:10305000F1B9031075BA031081BB031035AB03003F
:103060006DAB03004DAC0300EDAC0300D7AD030026
:1030700015AE03009BAE0300C9AE030029AF0300E9
:103080005DAF03007FAF03009DAF0300FFAF030000
:103090004BB0030053B003008DB003000FB1030029
:1030A00027B10300B1B1030031960300DD9F030097
:1030B000E19F030005A003001DA20300E9C6031061
:1030C000D99F0300C98E03003D910300C1A00000F9
:1030D0005BA10000F5A000005F2903001972020047
:1030E00039910300339203003792030039920300B1
:1030F000CF920300D9760000EF760000D57600006D
:10310000D7760000A576000009E0030081440200A4
:103110000B720000337200007D7400001174000017
:103120003F74000011750000FD740000F57200008E
:10313000517200003D75000047730000DBFD021076
:1031400069230100E1530000B97500009776000083
:103150008DE50000B3E50000E5E50000C7E50000EF
:10316000C73400205C9900205D9900205B99002005
:103170005E9900205F990020C83400202F7902005A
:10318000E3AE020055BB0200AF9D02001F9E02008D
:10319000B1BC02001DBD0200899E0200D79D020045
:1031A0008B9D02004B9E0200E1BA0200D9BA0200D8
:1031B000259F0100F99E01003FD90200B1BA02002B
:1031C00017BB020025BB020033BB0200439D010078
:1031D000039B0100019E0100BF9E0100BDAA0300E8
:1031E00023BC0200E9D80200F5D80200000000006C
:1031F000A9BF0200D7BA0200E9BE02007BBF0200ED
:1032000000000000A379020071AB02003FB202008F
:10321000319D01000000000000000000F9B602002E
:103220004DB90200C99D010001D90200360001001C
:103230000600000000000000000F00000000000079
:10324000000000000000000000000300FFFF00007D
:103250000403FFFF0000FFFF0F00E8030005401F0D
:103260000310000100000000FF3F0F000800050BE5
:1032700000000000000000000300010F000000003B
:10328000000000000000000000000000000000003E
:10329000000000000000000000000000000000002E
:1032A000000000000000000000000000AD0000026F
:1032B000000000000001363601010001020100019A
:1032C0000301000104010606080400000C0100349B
:1032D0000D01000F10040101140100FF1608000089
:1032E00020020000220100FF23010001240100FE52
:1032F0002501000826020000280100012901000123
:103300002A0200002C01000F2E02000030010001F3
:1033100031010008320200FF34010007350102FFCD
:10332000360100003701000138010001390100FFBA
:103330003A01000F3C0200FF3E01010F3F01000176
:103340004001041F41010001420100FF43010080D0
:10335000440800004E0100084F01000F5001000119
:10336000510100FF5201000053010000540100010F
:10337000580400005C0400006004000064040000C5
:10338000680400006C040000700400007404000075
:10339000780400007C040000800100FF810100012E
:1033A0008201000183010202840100011B5501001A
:1033B000CD570100000000000000000000000000E8
:1033C0009D5D0100BB5D0100015D0100D55D010057
:1033D000055E01000B5E0100E15F010000000000DE
:1033E000D75F0100F16001001F590100115E01006B
:1033F000315E0100C15E01006D610100A75901004D
:10340000716301004D63010000000000ED630100E5
:103410008D59010095620100498F0200678E0200FC
:10342000A38F0200558E0200758E02000B910200E0
:103430000F9102004BCC02008DCB0200C5CC0200E4
:103440006DCB02007FCB02001BCD02001FCD02001E
:103450004D99010059990100E02C0020902C00208A
:10346000C4410000DC410000F441000008140000E9
:103470000C4200002C42000000000000808386897E
:103480008C8F9295989B9EA2A5A7AAADB0B3B6B912
:10349000BCBEC1C4C6C9CBCED0D3D5D7DADCDEE042
:1034A000E2E4E6E8EAEBEDEEF0F1F3F4F5F6F8F934
:1034B000FAFAFBFCFDFDFEFEFEFFFFFFFFFFFFFF34
:1034C000FEFEFEFDFDFCFBFAFAF9F8F6F5F4F3F169
:1034D000F0EEEDEBEAE8E6E4E2E0DEDCDAD7D5D3C5
:1034E000D0CECBC9C6C4C1BEBCB9B6B3B0ADAAA715
:1034F000A5A29E9B9895928F8C898683807C7976F5
:1035000073706D6A6764615D5A5855524F4C4946F5
:1035100043413E3B393634312F2C2A282523211FA5
:103520001D1B1917151412110F0E0C0B0A09070693
:103530000505040302020101010000000000000073
:103540000101010202030405050607090A0B0C0E1E
:103550000F1112141517191B1D1F212325282A2CA2
:103560002F313436393B3E414346494C4F52555832
:103570005A5D6164676A6D707376797C5054564FFA
:103580005349474E310000000000000000000000D9
:10359000000000000000000000000000000000002B
:1035A000000000000000000000000000000000001B
:1035B000000000000000000000000000000000000B
:1035C00000000000000000000000000000000000FB
:1035D000000000003C001001030507090B0D0F005F
:1035E000020406080A0C0DBFFB097074766F2E6981
:1035F0006E666F202020202020200B7074766F2EA6
:103600007377697463682020202020002020202008
:103610002020202020202020202020200A3230328C
:10362000362D30332D333001000000000000000043
:10363000000000000000000000000000000000008A
:10364000000000000000000000000000000000007A
:10365000000000000000000000000000000000006A
:10366000000000000000000000000000000000005A
:10367000000000000000000000000000000000004A
:10368000000000000000000000000000000000003A
:10369000000000000000000000000000000000002A
:1036A000000000000000000000000000000000001A
:1036B000000000000000000000000000000000000A
:1036C00000000000000000000000000000000000FA
:1036D00000000000000000000000000000000000EA
:1036E00000000000000000000000000000000000DA
:1036F00000000000000000000000000000000000CA
:1037000000000000000000000000000000000000B9
:1037100000000000000000000000000000000000A9
:103720000000000000000000000000000000000099
:103730000000000000000000000000000000000089
:103740000000000000000000000000000000000079
:10375000000000005054564F5349474E32000000BD
:103760000000000000000000000000000120000038
:10377000CF5600000001000002200000CF560000DC
:103780000001000003200000CF56000001000000EF
:1037900004200000CF5600000001000005000000DA
:1037A0000000000000000000060000000000000013
:1037B0000000000007000000000000000000000002
:1037C00008000000000000000000000000000000F1
:1037D00000000000000000000A00000000000000DF
:1037E000000000000B0000000000000000000000CE
:1037F0000C02000000000000000000000D000000AE
:1038000000000000000000000E200000CF56000065
:10381000100100000F200000CF5600001000000033
:10382000108000009B8102000000000011000000D9
:103830001D2103001000000012000000EF2403000F
:1038400010000000130000000000000000800000D5
:10385000140000007D23030000000000150000009C
:103860000000000000000000160000000000000042
:1038700000000000170100000000000000800000B0
:103880001801000000000000008000001900000086
:1038900029860100000000001A00000029860100AE
:1038A000000000001B0000000000000000000000FD
:1038B0001C01000000000000000100001D010000CC
:1038C00000000000000100001E00000000000000D9
:1038D000000000001F010000B7E702000800000020
:1038E00020000000C3CE0100000000002100000005
:1038F00005A601000000000022000000C926030008
:103900001000000023000000000000000000000084
:1039100000000000000000000000000000000000A7
:103920000000000000000000260000000000000071
:103930000000000027000000000000000000000060
:1039400028090000338B030000000000290000005C
:10395000A18E0300100000002A00000000000000FB
:10396000000000002B00000000000000000000002C
:103970002C00000000000000000000002D000000EE
:1039800000000000000000002E0000000000000009
:10399000000000002F0000000000000000000000F8
:1039A00030000000F58D0300100000003101000020
:1039B00000000000000000003200000000000000D5
:1039C00000000000330000000000000000000000C4
:1039D000340000000000000000000000350000007E
:1039E00000000000000000003600000000000000A1
:1039F0000000000037000000000000000000000090
:103A00003800000000000000000000003901000044
:103A100000000000000100003A000000000000006B
:103A2000000000003B00000000000000000000005B
:103A30003C00000000000000000000003D0000000D
:103A4000000000000000000002040504030400045C
:103A50000C000C040D042A04040B02070A001100D8
:103A6000060000005054564F5349474E33BFFB08E1
:103A7000003003262000000000FFFFFFFFFF0000D2
:103A8000000000000000000000005054564F534951
:103A9000474E34004F4144204E564D310000000047
:103AA0000000000000000000000000000000000016
:103AB0000000000000000000000000000000000006
:103AC0000000000000000000000000005054564FAD
:103AD0005349474E3700000000000000000000007E
:103AE00000000000000000000000000000000000D6
:103AF00000000000000000000000000000000000C6
:103B000000000000000000000000000000000000B5
:103B100000000000000000000000000000000000A5
:103B20000000000000000000000000000000000095
:103B30000000000000000000000000000000000085
:103B40000000000000000000000000000000000075
:103B50000000000000000000000000000000000065
:103B60000000000000000000000000000000000055
:103B70000000000000000000000000000000000045
:103B80000000000000000000000000000000000035
:103B90000000000000000000000000000000000025
:103BA00000000000000000005054564F5349474E9B
:103BB00038000000000000000000200153A20100B6
:103BC000000000000100200153A2010000000000DD
:103BD000020020013EDD0100000000000300200182
:103BE00052A201000000000004004201E93500007B
:103BF0000000000005004201FA350000000000004E
:103C0000060042011C3600000000000007002001F1
:103C10002736000000000000100042010B360000B3
:103C200000000000110020012A990020000000007F
:103C3000004042011C3600000000000000804201EC
:103C4000D53A00000300000000002103F298002094
:103C50000600000000001011000000000700000036
:103C60000000303300000000070000001000303377
:103C700000000000070000000140203300000000A9
:103C80000700000002402033000000000800000090
:103C900000002033000000000C0000005500393304
:103CA000000000000C0000001C0042330000000077
:103CB0001200000055002101000000001900000062
:103CC0000000F081D02900201900000001002381AC
:103CD000D829002019000000020023014897002085
:103CE0001900000003002181863400201900000023
:103CF00004002381DC290020190000000500218137
:103D00008834002019000000060030812899002026
:103D10001900000007002101EE98002019000000A2
:103D200008002101EC980020190000000900218101
:103D3000EA98002019000000FDFF21818251000057
:103D40000004000000002104000000000204000044
:103D500000002915000000000304000000002904F1
:103D6000000000000504000000002904000000001D
:103D70000C04000000003904000000000D040000E5
:103D800000003904000000002A040000000039048B
:103D900000000000020700000000290400000000ED
:103DA00002070000000218058F0A02000207000047
:103DB000000330050A420200020700000103220549
:103DC000983F000002070000020322059C3F00000C
:103DD00002070000030318018E0A02000207000018
:103DE0000603181100000000040B000000001B0572
:103DF000943F0000040B00000001291500000000A2
:103E0000040B00000301291500000000040B000052
:103E10000601290400000000040B00000002210537
:103E2000DA580000040B000001022105FE580000D2
:103E3000040B000002022105DA580000040B000008
:103E40000302210536590000040B0000040221057D
:103E5000DA580000040B0000050221052A5D00006D
:103E6000040B00000003210400000000040B00000C
:103E700000042105DA580000040B000001042105AC
:103E800006690000040B0000050521150000000074
:103E9000040B00000805211500000000040B0000C1
:103EA0000B05290400000000040B00001005280485
:103EB00000000000040B000000062105DA58000095
:103EC000040B000001062105FE580000040B000051
:103ED00002062105DA580000040B00000306210544
:103EE00036590000040B000004062105DA580000D2
:103EF000040B000005062105E25A0000050B000036
:103F00000100210200000000000300000000203337
:103F1000000000000003000001002033000000004A
:103F20000003000003002133000000000003000034
:103F300004002133000000000003000007002133CB
:103F40000000000000030000080030110000000025
:103F5000000300000F001811000000000003000023
:103F60000A40191100000000000300000B4021115D
:103F700000000000000300000C40210100000000D0
:103F800001000401FEFF000000000000000000002E
:103F9000000000002100000001000000E803000014
:103FA0000000C8420A0000000200000004000000F7
:103FB0000800000010000000200000004000000089
:103FC000800000000001000000020000000400006A
:103FD0000008000000100000002000000040000069
:103FE000E8030000D0D1D2D3D4D5D6D7D8D9DADBE4
:103FF000DCDDDEDF5A6967426565416C6C69616EC4
:1040000063653039244E0000B8940020602B0020F6
:10401000244E0000BA9400206C2B0020244E000097
:10402000BC940020782B0020244E0000BE94002079
:10403000842B0020244E0000C0940020902B0020F0
:10404000244E0000C29400209C2B0020244E00002F
:10405000C4940020A82B0020244E0000C694002009
:10406000B42B0020244E0000C8940020C02B002058
:104070004C9400202BCF0200188F00205AD8020049
:10408000000002400929FF000C930020804000003E
:104090000020050000400000404E00002D99002047
:1040A00090400000684E000050960020DC2B00205D
:1040B000904E000038850020042C0020904E000017
:1040C00058850020062C0020904E000078850020A6
:1040D000082C0020904E0000988500200A2C00201B
:1040E000904E0000B88500200C2C0020000000003D
:1040F000C9900100759C0000010101000000000052
:10410000FF0001000000000000000000B44E0000AD
:104110004C150020102C0020B44E00004C1600203E
:10412000502C0020FF0000000000000080A90300C8
:10413000608600202441000000000840E8030000E1
:10414000CC4E0000408F00203841000000000140AC
:104150001FFF0000170000000010014021FF0100B8
:10416000190000000020014023FF02001B00000096
:104170000030014025FF03001D0000000000014049
:1041800020FF000018000000887900204C4100004A
:1041900000000000D4790020584100000000000019
:1041A000207A002064410000000000006C7A0020AA
:1041B0007041000000000000B87A00207C4100003F
:1041C00001000000020800000000000000000000E4
:1041D0000001010000005328F02C0020030800001B
:1041E0000000000000000000000165090000000060
:1041F00000000000012C0000000000000000000092
:104200000001001E0000000000000000022C000061
:10421000000000000000000000000000000000009E
:10422000000000000000000000000000032C00005F
:10423000000000000000000000000000000000007E
:10424000000000000000000000000000000000006E
:104250000000000000000000010101010101010156
:10426000010101010202020202020202030303032E
:1042700003030404040405050505050606060607F0
:1042800007070808080909090A0A0A0B0B0B0C0C96
:104290000D0D0D0E0E0F0F1010111112121313141D
:1042A000141515161617181819191A1B1B1C1D1D85
:1042B0001E1F1F2021222223242526262728292AC3
:1042C0002A2B2C2D2E2F30313233343536373839D6
:1042D0003A3B3C3D3E3F4041424445464748494BBE
:1042E0004C4D4E50515254555658595A5C5D5E6073
:1042F0006163646667696A6C6D6F707273757778F5
:104300007A7C7D7F8182848688898B8D8F9192943F
:1043100096989A9C9EA0A2A4A6A8AAACAEB0B2B44D
:10432000B6B8BABCBFC1C3C5C7CACCCED1D3D5D726
:10433000DADCDFE1E3E6E8EBEDF0F2F5F7FAFCFFBB
:104340005374617469630000426C696E6B00000015
:104350004272656174680000436F6C6F7220576928
:1043600070650000436F6C6F72205769706520495B
:104370006E76657273650000436F6C6F72205769CB
:10438000706520526576657273650000436F6C6FCF
:104390007220576970652052657665727365204991
:1043A0006E76657273650000436F6C6F722057699B
:1043B00070652052616E646F6D00000052616E6422
:1043C0006F6D20436F6C6F720000000053696E6761
:1043D0006C652044796E616D696300004D756C7485
:1043E000692044796E616D69630000005261696EF5
:1043F000626F77005261696E626F77204379636CF8
:10440000650000005363616E000000004475616C3C
:10441000205363616E000000466164650000000087
:1044200054686561746572204368617365000000BB
:1044300054686561746572204368617365205261D8
:10444000696E626F7700000052756E6E696E67204C
:104450004C696768747300005477696E6B6C650013
:104460005477696E6B6C652052616E646F6D0000ED
:104470005477696E6B6C65204661646500000000CE
:104480005477696E6B6C6520466164652052616E7D
:10449000646F6D00537061726B6C6500466C617384
:1044A0006820537061726B6C65000000487970651C
:1044B0007220537061726B6C650000005374726FF0
:1044C000626500005374726F6265205261696E62AA
:1044D0006F7700004D756C7469205374726F62655C
:1044E00000000000426C696E6B205261696E626F61
:1044F0007700000043686173652057686974650040
:10450000436861736520436F6C6F72004368617329
:10451000652052616E646F6D000000004368617336
:1045200065205261696E626F7700000043686173B5
:104530006520466C61736800436861736520466C52
:104540006173682052616E646F6D0000436861732F
:1045500065205261696E626F7720576869746500E3
:10456000436861736520426C61636B6F7574000012
:10457000436861736520426C61636B6F7574205290
:1045800061696E626F770000436F6C6F72205377C2
:104590006565702052616E646F6D000052756E6EBD
:1045A000696E6720436F6C6F7200000052756E6E0B
:1045B000696E672052656420426C756500000000DA
:1045C00052756E6E696E672052616E646F6D000089
:1045D0004C6172736F6E205363616E6E6572000082
:1045E000436F6D657400000046697265776F726B8A
:1045F0007300000046697265776F726B73205261B9
:104600006E646F6D000000004D6572727920436822
:10461000726973746D6173004669726520466C69D6
:10462000636B6572000000004669726520466C6924
:10463000636B65722028736F667429004669726522
:1046400020466C69636B65722028696E74656E73B1
:104650006529000043697263757320436F6D62754D
:10466000737475730000000048616C6C6F7765654A
:104670006E0000004269636F6C6F72204368617363
:1046800065000000547269636F6C6F72204368614B
:10469000736500005477696E6B6C65464F58000077
:1046A0005261696E00000000437573746F6D2030B5
:1046B00000000000437573746F6D2031000000002E
:1046C000437573746F6D203200000000437573747E
:1046D0006F6D203300000000437573746F6D2034DC
:1046E00000000000437573746F6D203500000000FA
:1046F000437573746F6D203600000000437573744A
:104700006F6D2037000000007B1B01001B1F0100A4
:10471000BF1B0100855E00006D1C0100ED1F010044
:104720006D1C0100532101006F1C0100855E00001B
:104730006D1C0100ED1F0100D31C0100855E00000F
:1047400000000000000000000D1E0100855E00005A
:104750000000000000000000591E0100855E0000FE
:10476000051F0100855E0000000000000000000041
:104770000000000000000000000000000000000039
:104780000000000000000000000000000000000029
:104790000000000000000000000000000000000019
:1047A0000000000000000000000000000000000009
:1047B00000000000000000000000000000000000F9
:1047C00013000000E15202000000000097BC00004E
:1047D0000100000097BC0000020000002B4902000D
:1047E000028000002949020003000000494902003C
:1047F000040000008F49020004800000E749020025
:1048000005000000E949020006000000614A0200BC
:1048100030000000EB4F020031000000ED4D0200BF
:1048200033000000A5500200340000004B5102008C
:1048300011000000ED510200140000004952020076
:1048400015000000BD4D0200FFFF00000000000049
:104850008F000100BE34002087000100BC3400201E
:1048600035002800908F002028000100A13400208E
:1048700029000100A2340020840004008097002059
:10488000860001007D1B00202A000100A3340020C7
:104890002B000100A43400202C000100A8340020CB
:1048A0002D000800E03000202E000100A934002077
:1048B0002F000100AA34002030000100AB3400209A
:1048C000320001003899002033000100399900209E
:1048D00034000100AC340020360001003A99002079
:1048E00038000100AD34002039000100A734002059
:1048F0008300020096340020630001003E990020EE
:1049000065000100A53400206D0001003F990020E2
:1049100071000800D896002066000100BB3400201A
:1049200043000100B6340020440002008C34002013
:1049300045000100B7340020460002008E340020FC
:1049400047000800E096002048000100B83400202D
:104950004B000100B934002004000100BD340020E8
:10496000A1000100C334002037000100C234002040
:1049700088000100BF3400203C000100AE3400205C
:104980003D000100AF3400204900020090340020B7
:1049900067000100409900204D0002009234002081
:1049A0004E000100BA3400204F0002009434002071
:1049B0003E000100B4340020510001003B9900206A
:1049C00052000100B134002053000100B334002034
:1049D000540001003C99002000000000000000008D
:1049E0007B7374617469632D696E7374616E636542
:1049F0002D6E616D657D00007B656D7074792D692C
:104A00006E7374616E63652D6E616D657D0000006F
:104A100090310020FFFFFFFFFFFFFFFF0A000000B3
:104A2000BF09020002000000BB04020005000000F4
:104A30005906020007000000CB0502000C00000030
:104A400093FF01000D000000B1010200FF00000013
:104A5000000000008E0000008E0001008E000200A9
:104A60008E0003008F0000018F0000028F00000302
:104A70008E0001048E0000058E0008048E000004E4
:104A800089000006500000007F0001003F00040084
:104A90003F0002003F0001007F0002008E00020480
:104AA0008E0001028E0001010000000002000000E3
:104AB000020000000A0000000200000002000100E5
:104AC00000000000000000000000000000000000E6
:104AD0000000000000000000000000000E000000C8
:104AE00000A6AAACA4A9A9A399B19ABCB6A8000033
:104AF000020402010101010902000000313117190D
:104B00001A21241B1D1F3131333100003131181996
:104B10001A22311C1E203131343100000300710093
:104B20003001600011007000310220035004800049
:104B300007001000610000001400630073007200A1
:104B400062004300000013000600000000000400A3
:104B50001200000000000000000004000400370004
:104B600037003C0244000000000000000000650027
:104B700000003500810000000500000083000000F7
:104B8000660000000000080009000A000B00000099
:104B90000101710101010101110101013101010155
:104BA000010180010001100161013B00140063015B
:104BB00073017201620143010001130106013D010D
:104BC000350004011201000100010001000104018F
:104BD0000401330133013C0144013201360000017C
:104BE000000165010001350081010001050182011C
:104BF00083010001660100010001080109010A01A9
:104C00000B01000003027102300160021102700208
:104C100001020202020280020002100261023A0056
:104C20004100630273027202620243020002130235
:104C30003800000200020402120200020002000218
:104C4000000204020402370037003C024402000262
:104C500039000002000265020002350281020002F2
:104C600005028202830200026602000200020802BC
:104C700009020A020B020000010371030103010390
:104C800001030103010322030203010300031003D4
:104C900000030003000300030003000300034203BA
:104CA0000003240306030003000304031203250387
:104CB0002303250323030403040300030003000369
:104CC00044030003000323030003650321003503AD
:104CD0008103000305030003000300030003250311
:104CE0002303080309030A030B03000003047104F0
:104CF00002046004110470040204020401040204AA
:104D000000041004610400041404630473047204B6
:104D100062044304000413040604000400040404B1
:104D200012040004000400040004510464000004A0
:104D300000040004440400040004000400046504AA
:104D400000043504810464000504000483040004A5
:104D5000660400040004080409040A040B040000AB
:104D600000000500BD00B700B100BC001C00300011
:104D70003800080038010200000120181A18182C09
:104D800034041E000C0E020B040B0A070800110F5E
:104D900088B2240088130000100000000000000109
:104DA000C003000080070000000F0000001E00008C
:104DB000003C00000078000000F0000000E001006E
:104DC00000C003000080070000000F0000001E006C
:104DD00000003C00000078000000F0000000F0003F
:104DE00000000000000000000000000000000000C3
:104DF00000000000000000000000000000000000B3
:104E0000000000000000000000BE040A00BE02080E
:104E10003031323334353637383961626364656630
:104E20000000000031B5030069B503006FB5030051
:104E30004BB6030037B7030091B7030099B70300DF
:104E400035B803003DB8030043B8030073B803004E
:104E50008DB80300DBB80300F3B8030067B90300A3
:104E6000A5B90300ADB903003DBC0300D1BC0300EC
:104E700047BD030077BD030089BD0300BFBD03002C
:104E8000D7BD0300FDBE030041BF03004DBF0300BB
:104E900085C703009FC70300D5C40300D7C4030020
:104EA000D5C503007DC5030019C6030065C703000F
:104EB00049C70300CDCA030043CB030037CE03002C
:104EC00041CE030019D0030039D3030021D80300D9
:104ED00029D803002BD8030031D8030039D80300A8
:104EE000C9D80300F1D803005D40002189400021AA
:104EF000954000213B410021074C657900F009F8FD
:104F000061796940490703D50121044A8903116089
:104F100070BD70B5024908478003002108110440A4
:104F20002D59000000F00AF800480047577F0000A4
:104F300000F00AF8004800471B880000806B0C490D
:104F40000007000F48717047094A0A491823507931
:104F5000CB56497EC018814201DD084602E00F2889
:104F600000DD0F20D189090909010143D181704772
:104F7000E0020021880000210122274B0221254860
:104F8000184710B5254880472548406A00280DD1AC
:104F900024490A200856002809DA401C07D0084690
:104FA0002038406A2049884200D1804710BDFFF771
:104FB000E3FF10BD00211E4B1C4A08461847012084
:104FC0001C49400208601C48FB2201781140017016
:104FD0001248EC38004710B5184988471149203964
:104FE000012807D0020404D500200885144848622F
:104FF000012010BD4A6A094BEC3B9A4201D1114A8B
:1050000005E007494A6A104B9A42F2D10F4A4A62B8
:1050100010BD0000060800009F060000A1920200DB
:10502000080100215401002163920200E7400021A1
:10503000B5B4020080E100E080030021F796020091
:10504000DD40002123410021699502001941002122
:10505000010200030200010339480068017800F0F2
:10506000C9B8F8B500F03DF817460A691E469047E2
:1050700080B2854214D206988DF802008DF8007037
:105080008DF8016005EB4505206841689DF800201A
:10509000481902709DF8011041709DF8021081704E
:1050A000F1BD7CB500F01DF816460A69904780B244
:1050B000854215D2310A300C8DF801108DF80000B0
:1050C0008DF8026005EB4505216848689DF80010E1
:1050D000284401709DF8012042709DF802108170F3
:1050E00073BD04460D462068016870472DE9F04104
:1050F000044688462068016816460A691F4690479C
:105100000546A9B28E4214D2A8B2390008BF05469E
:105110000CD0BF19BFB2ADB2BD4207DD3D4605E0C0
:105120004246B1B22046FFF7BCFF761CB0B2A8429F
:10513000F6DBBDE8F081024802681170704700009C
:10514000B093002038B5FFF7CCFF0A69904780B2D2
:10515000854201D3002032BD2068416805EB45053A
:10516000294408788DF8000048789DF800208DF8D3
:105170000100000289788DF8021040EA02400843DD
:1051800032BD010010B5444C616851B9207828B98E
:105190000121217004F1080000F005F804F1080174
:1051A0006160606810BDFF21017000224FF0FF3187
:1051B000816042804221C26042600174704770B5D4
:1051C000012B04460D46164603DB06EB4606354426
:1051D0001E4621688A68904765606661204621689E
:1051E0004A69904701462C484068012200F05AF86D
:1051F000204670BD2DE9FC4106460D46274C7068DF
:1052000030B100F052F861687268401A9042F6D3EB
:1052100000F04BF86060F2681AB1B1682846904718
:105220000546246815E07088A77C6428BCBF00216F
:10523000A1742A462146684600F047F8D4F800C019
:1052400062696168DCF804806B462046C047A77439
:10525000A468002CE7D11921304600F002F8BDE81F
:10526000F38170B50E4C05462068461C88420FDB62
:1052700000F020F86168401A08BF01204FF47A71ED
:105280004E43B6FBF0F06880002600F013F8606033
:10529000266070BD00000000AC93002098960020AE
:1052A000A09600200A214160704710B500F098F8E0
:1052B000044606E010B500F093F84FF47A71B0FBA5
:1052C000F1F400F08AF8604310BD10B5144601F106
:1052D0000F0301F10C022146BDE8104000F0A6B812
:1052E000DFF800F001CE0210DFF800F09DEB0210B5
:1052F000DFF800F025DB0210DFF800F0C5E2021055
:10530000DFF800F0C3EC0210DFF800F0E7E902106C
:10531000DFF800F0BBEC0210DFF800F08DDD0210CA
:10532000DFF800F049E60210DFF800F0FDE90210B6
:10533000DFF800F011DC0210F0B51C0089B0054662
:105340000E46174605D10023FFF7E6FF284609B0B1
:10535000F0BD0823242200216846FFF7C5FFA1689D
:1053600006916B462278ADF810203A4660680590A9
:1053700031462846FFF7D0FF284609B0F0BDF0B50A
:10538000140089B005460E46264F05D13B46002243
:10539000FFF7AEFF09B0F0BD0823242200216846C4
:1053A000FFF7A2FFA16806913B462278ADF81020D6
:1053B0006A466068059031462846FFF799FF09B0B4
:1053C000F0BD00B581B000906846FFF7A1FF01B0C5
:1053D00000BDFFF7A5BFFFF7A7BF134800687047E0
:1053E000FFF7A6BF00F03DB800B581B000F052F85D
:1053F000401E8041C043C00F01B000BD002181604C
:10540000017041607047FFF77BBFFFF77DBFFFF77B
:1054100073BF0549096800EB5100B0FBF1F0FFF7DD
:105420005FBF0000F0300020F01A000070B50446A5
:105430000020207060700D4600262800A6700FD056
:10544000915D985D002918BF002806D0401C10FB14
:1054500005F0491C4143090CA155761C022EEFDDD5
:1054600070BD70B5044600F01BF80646A08A002502
:1054700001280AD1FFF75CFF0546E068A168451BDB
:10548000A9423EBF2069A8420025304600F009F835
:10549000284670BD808A7047DFF800F07DE8021072
:1054A00000E006E0EFF31180202181F311887047BE
:1054B000000080F311887047FFF7EEBFF2E7F8E7CE
:1054C000F0E7F6E70000EDE7F3E70E49C20744BF57
:1054D00001230B60820744BF4FF480730B604007C9
:1054E00044BF4FF480320A60704710B5064AC307C4
:1054F00048BF1160840748BF5160400748BF9160B2
:1055000010BD0000042009401820094070B5044671
:10551000257805F07F050E2D02D19FEDAA0A70BDFA
:10552000E678032D1CBF042D012D01D1002000E0E1
:10553000802000F08BF90F2D14BF012200220321DF
:10554000304600F084F90F2D04D100EE100AB8EEB9
:10555000400A70BD00F0C2F9032D41EC100B04D1DC
:1055600000F0CEF900F0BAF917E0F9D0042D0CD113
:1055700053EC102B9448954900F0DEF900F0C0F987
:1055800000F0ACF90022924B05E000F0B9F900F010
:10559000A5F900228F4B00F0A5FA00F0C7FB00EE42
:1055A000100A207AC10708D56069D0ED000AB0EE74
:1055B000401A90ED010A01EE200A70BD7FB5044645
:1055C0002C204443844D281900F108014E8896424E
:1055D00004BF8988994245D108990B0006D10C2A4D
:1055E0000CBF042102210A98018017E0012939D15A
:1055F000FFF78CFF8DED000A295D099801F07F010E
:10560000012918BF02290CD003291DD0042908D074
:105610000F2927D10422694600F053FC012004B071
:1056200070BD6E49DDED000A0A8800EE102AB8EE62
:10563000400A60EE200AFDEEE00A10EE903A1BB23E
:105640000193022201A9E7E76549D1ED000A60EE66
:10565000200AFDEEE00A10EE902AADF8042001A920
:105660000222D9E70020DAE770B504462C214C432A
:10567000594D2E192DED028B3046FFF747FF295D5E
:1056800001F07F010329B0EE408A0DD1544890ED1E
:10569000000A707828EE000ABDEEC00A10EE101A5B
:1056A00009B200F09CFE0EE0285D00F07F000F289C
:1056B00006D1012001F07CF830B180ED018A03E0D1
:1056C000707800F09CFE0020BDEC028B70BD2DE9CF
:1056D000FC478046434F4D79434911F808904846AE
:1056E00000F08CF8064600F092F8002000F0AEF8CA
:1056F0003A7839492C2042438C183C49D4F814A0FC
:105700006162012005F07F0584F8280040F604312D
:1057100061814FF48070032DA08105D140F20240D9
:105720000926608100214BE0042D08BF08262CD0FB
:105730000421484601F01CF90C2010FB06F02C490E
:1057400001F80090012D33D108442A4A426000211B
:10575000009101916A460121404601F007F801AA33
:105760000221404601F002F89DED000AB5EE400A24
:10577000F1EE10FA09D0207A40F001002072009872
:10578000CAF800000199CAF8041084F8018084F86E
:105790000290E6700021207800F08000054325701B
:1057A000A1711548E0613978491C3970BDE8F3876B
:1057B000681E0128CBD90E38E7D10C206081552115
:1057C000A181E2E7000000009A9999999999B93F5F
:1057D0000000594000408F406C7C0020FE580000C3
:1057E000A03F000027990020B0960020BD55000082
:1057F000602B0020308C110069560000A0F11701C9
:10580000082902D21738C0B27047FF2070470C48F1
:105810000178CA0700D5704710B541F00101017049
:105820000020084905E0C3B20C246343FF22CA5498
:10583000401C054B1C78C2B2A242F4D310BD00003C
:105840002C990020602B00202ACF020070471346BD
:1058500001222DE9FE430928044691461D4605D143
:1058600001F007FA01F034FA80B234E05FEA09008F
:105870000BD001F094FA01A801F0CCFA01A920465E
:1058800001F0A8FA5FEA000801D1002023E0002718
:105890000024002609E06946404601F07AFA18B96A
:1058A000BDF80000641C3F18761CF0B24845F2D3E6
:1058B000E0B20228A4BFE4B2B7FBF4F73DB1B9B23D
:1058C000404601F069FA4FF47A71B0FBF1F74046B7
:1058D00001F05CFAB8B2BDE8FE83010010F00041AF
:1058E00060B148BF4042B0FA80F29040D21CC2F58D
:1058F000846241EA025202EBD02140057047640005
:10590000C1F30A5340F21E42D31A0CDDCA0283F3DC
:10591000070342EA505242F00042DA4002EBE172E1
:1059200082EAE17070476FEAE17203F2E13008B198
:1059300082F000407047E80330B540F2FF7C1CEA7B
:1059400011541DBF1CEA1355644565453FE06419B9
:1059500081EA030C6FF35F530CF0004C43F48013A7
:10596000C90241F0004141EA505EC5021100A5FBA9
:10597000020200284FF00000EEFB01204FF0000172
:10598000E3FB052118BF42F0010240180021494104
:10599000E3FB0E01A4F580640D0302D2921840418E
:1059A000494154F1010470DD450872F1004250F1A3
:1059B000000051EB0451A1F5801102D441EA0C0121
:1059C00030BD40F2FF7E4CEA0E51002030BD0CEAA3
:1059D0001355644518BF654581EA030C0CF0004C73
:1059E00041D050EA410E1CBF52EA430E02E061462C
:1059F000002030BD24422C441BD15FEA050EF6D0B6
:105A0000090302BF01460020AEF1140EB1FA81F580
:105A1000AEEB050401FA05FE0C35C5F1200100FAD4
:105A200005F5C8404EEA000E6FF35F5343F4801350
:105A30009CE733F00043B3FA83F504BFB2FA82FE69
:105A400075440B3D641BB5F1200E2FBF02FA0EF317
:105A5000AB40C5F1200E22FA0EFE38BF43EA0E031A
:105A6000AA40641C7CE750EA410E14BF52EA430E80
:105A70006FF000014FF4001515EB430F8EBF194670
:105A800015EB410F9DE7B4D830BDD4F10104B4F15A
:105A900020050FDAC4F12005520828BF42F00102A8
:105AA00010FA05FE01FA05F57244E2BFE040284312
:105AB000E1400FE0352C9ADCC5F1200452EA4002A7
:105AC00020FA05F218BF42F0010231FA05F0A140B8
:105AD0000A43002172F1004250F1000051EB0C0129
:105AE00030BD0100F0B540F2FF7581EA030C0CF007
:105AF000004C15EA11541DBF15EA1357AC42AF42D2
:105B0000E5E0BC41C1F31301C3F31303801A9941CB
:105B100043F4801304D2641E00184941801859418F
:105B2000C90241EA5051B1FBF3F603FB1611A2FB87
:105B30000675D7EBC020A94102D2761E80185941C4
:105B4000C90241EA5051B1FBF3FE03FB1E11A2FB57
:105B50000E75D7EBC020A94103D2AEF1010E80181B
:105B60005941890241EA9051760546EA8E2EB1FBF1
:105B7000F3F603FB1611A2FB0675D7EB8020A941B3
:105B800002D2761E80185941C90241EA50514EEAAC
:105B9000060EB1FBF3F603FB1611A2FB0675D7EB5D
:105BA000C020A94102D2761E80185941C90241EA9B
:105BB0005051B1FBF3F703FB1711A2FB0735D3EBF1
:105BC000C020A94167F100070CBF004247F0010760
:105BD00066F3D5274FEA1E31B80814F5806412DD4C
:105BE000BD0775F1004250EB0E5051EB045111F519
:105BF000801F5CBF41EA0C01F0BD4CF07F6141F0B9
:105C0000E0410020F0BDBD076D0840EA0E5041F4B0
:105C10008011D4F10104B4F120060ADAC4F120069F
:105C20000200E04001FA06F3E1401843B240154398
:105C30000EE0342C13DCC6F1200445EA40056D0863
:105C400020FA06F2154321FA06F0A1400D43002187
:105C500075F1004250F1000051EB0C01F0BD002045
:105C60005FEA0C01F0BDCFB992185B41B3FA83F73C
:105C700004BFB2FA82F6BF190B3FB7F120062FBF5F
:105C800002FA06F3BB40C7F1200622FA06F638BF37
:105C90003343BA401CB1E419641E33E77F4231F04C
:105CA0000041B1FA81F404BFB0FA80F6A4190B3CAC
:105CB000B4F120062FBF00FA06F1A140C4F120067E
:105CC00020FA06F638BF3143A0403C1B1AE7AC422D
:105CD0001ABF05EA1357AF4212E050EA41061CBF53
:105CE00052EA4306BFE750EA4107304661461CBF0F
:105CF00041EA0551F0BD52EA430C08BFC143F0BD73
:105D000000204FF4001616EB410F98BF16EB430F1F
:105D100008BF16EB410F24BFC14305E016EB430F4C
:105D20000CBF61464CEA0551F0BD0A0001F000428B
:105D30008B1AA3F16051B1F5801F0ADBB1F17F6FBF
:105D40001FD242EAC102C10071F1004142EB507022
:105D500070470B15C3F10903212B10D2890241EAC8
:105D6000905180020128494141F0004121FA03F09D
:105D7000C3F12003994071F1004150417047100078
:105D800070476FF0000013EB103F5CBF000E42EA5B
:105D9000C0507047F8B50D4688B00446287800F02A
:105DA000BAF800283ED1DFF83C220021131D53F839
:105DB000310018B1491C0829F9DB33E005A800239C
:105DC0000026002780E8C80002F83140121D42F882
:105DD000315028788DF80000A8684188ADF802108D
:105DE0008188ADF80410807900F00F008DF806006E
:105DF000A868C1798DF80710A86881680291007BB6
:105E00008DF80C00A8680169049105A928788DF81F
:105E100014008DF81C30CDF818D0204601F072F82F
:105E2000012000E0002009B0F0BDDFF8BC110860DF
:105E300070472DE9F041DFF8B4512C6880460F46D9
:105E400000F069F8002630B90020BDE8F081206834
:105E500000B9264604462CB120794045F7D1A76009
:105E60000120F2E70C2001F035FC0028ECD00022E4
:105E7000026080F8048087602968002914BF3060C0
:105E80002860EDE710B559490A6800E0126852B180
:105E9000036811791C7DA142F8D191680029F5D0E1
:105EA000BDE810400847012010BD01F013BC10B53B
:105EB000044610460A460146204601F06BFC204687
:105EC00010BD03E011F8013B00F8013B13465A1ED8
:105ED000002BF7D17047002818BF01F0FCBB7047BA
:105EE00001700A0A0B0C090E42708370C170001D0C
:105EF000704700223B4B03EBC201496811B109789E
:105F0000884203D0521C082AF5DB02E013F8320065
:105F100070470020704710B501460022314800EB61
:105F2000C203586810B10478A14203D0521C082A59
:105F3000F4DB00E010BD002010BDF0B58BB00746CB
:105F40000C4615461E462C21684601F057FC397A4E
:105F50008DF80010032906D1082239460DF1020000
:105F600001F0AEFB03E011B13988ADF80210797A87
:105F700012988DF80A107989ADF80C10810744BF8A
:105F800001228DF81C20C10644BF01228DF81D207E
:105F9000010744BF01228DF81E20810644BF012263
:105FA0008DF81F20410644BF01228DF820200006F5
:105FB00044BF01218DF821101398119B109A277866
:105FC0008DF822008DF81470ADF816500693ADF8D8
:105FD00024600A922078FFF78CFF694600F096FF54
:105FE0000BB0F0BD388C002064970020689700202B
:105FF000F8B50D2805462DD201F06EFBDFF87C3593
:106000001A7800240146BAB100265FFA86FC2820DF
:10601000DFF86C7510FB0CFC6744787C000904D039
:10602000761CF0B21728F0DD06E0521E3C461A70CE
:10603000607C40F0F0006074084601F058FB4CB101
:10604000280014BF04F11C000020A061E57504F1D4
:106050000C00F2BD01F0FAFB40F20131884206DB90
:1060600005F11006B0B201F0D0F8040001D1002013
:10607000F2BDB1B201F002FC280014BF04F110001F
:106080000020E060E5722046F2BD38B50446207974
:10609000C0F30210022806D1E06820B1A17A0229DB
:1060A00008BF01F018FB6079000910D001F014FB63
:1060B00005461C21204601F0A1FBDFF8C004017851
:1060C000491C01702846BDE8324001F010BB204653
:1060D000BDE8324001F0ADB82DE9F0470F46DFF8DA
:1060E000A414B1F8D421054600262879C0F302197A
:1060F000C40900F00F00C240D5F80080D00704D5D5
:106100001CB92846FFF7C1FF33E001F0E5FADFF8DC
:1061100078248246506800213B4602E0014650F850
:106120000C0C08B30768474502BF0779C7F3021C88
:10613000CC4504BFFF09A742F0D1761C1F0013D045
:10614000F7B2BB42EAD150F80C3C45F80C3C54681D
:10615000A04208BF556009B141F80C5C002140F82D
:106160000C1CFFF792FF00E00546504601F0BFFA15
:106170000DB1012000E00020BDE8F08770B501F00E
:10618000ABFA0646DFF8000444680025456005E0E8
:10619000204654F80C4CFFF778FF6D1C002CF7D10B
:1061A000304601F0A4FAE8B270BD2DE9F0430C4688
:1061B0008FB0200448BF84F4004000F1C780E0079E
:1061C000DFF8C46340F1B6807078002884F00109DC
:1061D0001BD100F1180801F039FB002740F2011132
:1061E000884213DAB078401CB070C0B21F28A4BF38
:1061F000B770FFF7C3FFB078052190FBF1F101EB19
:106200008101401A03D000F0A4F891E0B770301D6E
:1062100001F034F90400F8D0162106F1080001F06D
:10622000EDFA21791625080910F0070003D002289D
:1062300052D014D359E0C809E57A05900497039722
:10624000029701F00F01E068019006F10800A27AC0
:10625000009216352389E28802F0DEFD44E0E17900
:10626000FF290CD02C20DFF82423414355181E228F
:1062700007A9284600F0CAF9074605F11808E068A2
:106280000168069107AB217902790497001D0393F9
:106290000290552306F10800D519CA09059206AFE8
:1062A0003922009201970C2201F00F0102F0B4FD97
:1062B0001A35010018D198F81000010715D5FF21F3
:1062C0000020009102900190A179E079D8F80C703B
:1062D00055230C22B84708E0E288E068E57A01F02F
:1062E0000F0102F047FD163570B9652D05DB3078DA
:1062F0003222012102F094FE17E03078012101F0F2
:1063000022F849F0010910E0607900F00F0102293C
:1063100008DC411C61F3030060712146301D01F06F
:10632000EDF8002400F015F814B12046FFF7ADFE9B
:1063300048460BE0A00708D5002171700121307894
:1063400001F001F884F0020000E000200FB0BDE889
:10635000F083012070704FF47A723078022102F0DD
:106360005FBE4FF6F07300F00F0003EA021318430C
:1063700040EA014070472DE9F84F0B9D824E82465E
:10638000884693461F462846FFF732FE040022D077
:10639000DDF830905A4641465046FFF7E2FF206054
:1063A0002A460AF00F0040EAC9102071A4F80680BE
:1063B000A4F808B0A7720A99E06801F081F9102FDB
:1063C0000CBF032101212046FFF786FE18B92146A4
:1063D000301D01F01DF83078BDE8F44F78E003B5CA
:1063E00083B000F004F8292340F2024110E00021BC
:1063F000022204AB02910192009300227047F8B58B
:10640000634900F009F84FF48072FFE740F6043169
:10641000FFF7B1FF05B000BD0A8800EE902AF8EE44
:10642000600A20EE800ABDEEC00A10EE102AADF818
:106430000C200023022103AA029301910092292338
:1064400070471FB50B0018BF012301218DF80C30D8
:106450000292019103AC0094102300220621FFF761
:106460008AFF1FBD2DE9F04707460E469246994622
:106470000C20FFF7BDFD0400DFF80C8124D0089D3F
:10648000721C49463846FFF76CFF206007F00F0783
:106490002079A57100F0800007433920A07247F0F1
:1064A0001007E0682771E67184F808900C225146C5
:1064B00001F006F901212046FFF70EFE20B9214622
:1064C00008F1040000F0A4FF98F80000BDE8F047D0
:1064D000012100F038BF2DE9F047804689461400BD
:1064E0009A4618BFBAF1000F11D0089E370908BFAD
:1064F000012706F00F06022E0CBF00205046FFF7C2
:1065000077FD050005D116B1204601F0E4F8002022
:1065100031E0002249464046FFF723FF286008F09B
:106520000F01287900F08000084340F02000287116
:1065300085F80BA00020A5F806902881AE72022EE7
:1065400008BFEC6008D0E8685246214601F0B8F870
:1065500016B1204601F0BFF839462846FFF7BCFDCA
:10656000094C18B92946201D00F052FF207801215E
:1065700000F0E9FE0120BDE8F0870000993400201A
:106580008C1100207C350000EC9200206C7C0020F7
:10659000FE58000070B504462C214C43DFF8D85259
:1065A0002E19304601F06AF92A5DDFF8D01242F068
:1065B00080022A5500200870304670BDF0B5B14BFE
:1065C000B14C1B5C245C024600E0491CAC4D2E78AB
:1065D000C8B2B04217D25FFA81FC2C25A64F15FB3A
:1065E0000CFC07EB0C052878C0090CD068789042A9
:1065F00002BF2F7807F07F079F4204BFA878A04210
:10660000E3D148B2F0BD4FF0FF30F0BDF0B5034626
:10661000002400200EE0E4B266440E5507F00F0798
:106620006C1C0A2FACBF37263026EDB2F6194E553A
:10663000401CC0B29E79B042E5B212DAEF1CBA42F9
:106640000FDB10B12D264E55641C1D182F7AC7F391
:106650000316651C0A2EB4BF4FF0300C4FF0370CF8
:10666000D9E7E0B290423CBF00204855E0B2F0BD0F
:1066700010B500F001F811E0012303FA00F000F07A
:10668000FF0000EB0120814C704710B5012303FA95
:1066900000F000F0FF0000EB01207D4C81B220787B
:1066A000BDE8104002F0BCBC70B500F00EF8784EAA
:1066B00000F003F800B90FE070BD307804EB01245E
:1066C000A4B21546214602F0DBBC0446012000FAC4
:1066D00004F404F0FF04704730782A462146BDE8F0
:1066E000704002F09DBC012202FA00F000F0FF00B1
:1066F00000EB0120654B07E0012202FA00F000F0F8
:10670000FF0000EB0120624B81B2187802F08CBCD4
:106710001CB500F045F80CBF02F1FC0102F1AC0120
:10672000052202F085FD9DF80000012816D0022800
:106730000FD0032807D0042810D0052809D0062838
:1067400018BF0B2810D10DF101010868206001204D
:1067500016BD0DF10101086880B2F7E70DF10101E6
:10676000086800F0FF00F1E7002016BD1CB500F03E
:1067700017F80CBF02F1FC0102F1AC01052202F096
:1067800057FD9DF80000072808D10DF101000168B0
:1067900000EE101A84ED000A012016BD002016BD7F
:1067A00014463C4A00EB80000244022968467047C8
:1067B00070B510260228054603DB0C2110FB01F6FC
:1067C000361D304600F086FF040003D0314601F04C
:1067D00055F82570204670BD420602D5491E8941F4
:1067E000C90F00F01EB92C22234B504318440079E6
:1067F000002818BFFFF7F0BF704738B50024204DC0
:1068000003E00021FFF7EFFF641C2978E0B2884223
:10681000F7D32148027802F0FD02027031BD70B555
:106820002C2606E0D5B2144C75432C44521C207122
:106830006171D4B29C42F5D370BD70B52C220E4B61
:106840000446191D54430C5D00E0401C0C4D2E788D
:10685000C1B2B1420CD251435D18297900291CBF45
:10686000A9780029F1D02979A142EED1012070BD8B
:10687000002070BD000000006C7C002098340020D7
:1068800027990020A8960020B096002053290020C8
:10689000542900207C350000F0980020C000103002
:1068A00070477CB5C0001030461814461D4631466E
:1068B000102002F022FD48B90095234600223146FF
:1068C000102002F07FFD08B9012076BD002076BDC2
:1068D00013460A460EE0C00080B510304118102063
:1068E00002F04EFD012002BD13460A460021F2E7E8
:1068F0000B4604220021D4E702B56B460422002196
:10690000FFF7E9FF02BD0A0000F03F02282A0ADA79
:10691000012200F01F0012FA00F004D0644A09B10D
:106920001060704710617047F8B500F04CF81EDA3F
:1069300000F043F81BD05F490A681043086024F058
:10694000605402F0F2FD00F04CF830001CBF032E42
:10695000042E02D144F4C04408E0012E08BF44F4E0
:10696000804403D0022E08BF44F4005449E0F1BD36
:10697000F8B500F028F81FDA00F01FF81CD04D49D8
:106980000A6822EA0000086044F0005402F0CDFDDD
:1069900000F027F830001CBF032E042E02D144F46F
:1069A000C04408E0012E08BF44F4804403D0022E06
:1069B00008BF44F4005424E0F1BD012100F01F00A1
:1069C00011FA00F07047850005F0FC0505F18045DF
:1069D00005F501250E462F4600F03F013C682829A9
:1069E0007047002139706F1C220AA91C3A70230CD1
:1069F0000B704FEA146C05F803CF24F4C04402F086
:106A0000BBBD02F092FD240A3C70BDE8F24002F0EA
:106A1000B3BD840004F0FC0404F1804404F50124B7
:106A2000704700F03F02282A0DDA012200F01F0013
:106A300012FA00F007D01E4A136C0343136409B125
:106A40001060704710617047F8B50D4600F03F01C7
:106A500028292BDAFFF7DDFF174A2668137800F0A4
:106A60003F00834222D3154902F088FD26F4E02737
